{
	"contracts/DegenToken.sol": {
		"DegenToken": {
			"abi": [
				{
					"inputs": [],
					"stateMutability": "nonpayable",
					"type": "constructor"
				},
				{
					"anonymous": false,
					"inputs": [
						{
							"indexed": true,
							"internalType": "address",
							"name": "owner",
							"type": "address"
						},
						{
							"indexed": true,
							"internalType": "address",
							"name": "spender",
							"type": "address"
						},
						{
							"indexed": false,
							"internalType": "uint256",
							"name": "value",
							"type": "uint256"
						}
					],
					"name": "Approval",
					"type": "event"
				},
				{
					"anonymous": false,
					"inputs": [
						{
							"indexed": true,
							"internalType": "address",
							"name": "previousOwner",
							"type": "address"
						},
						{
							"indexed": true,
							"internalType": "address",
							"name": "newOwner",
							"type": "address"
						}
					],
					"name": "OwnershipTransferred",
					"type": "event"
				},
				{
					"anonymous": false,
					"inputs": [
						{
							"indexed": true,
							"internalType": "address",
							"name": "from",
							"type": "address"
						},
						{
							"indexed": true,
							"internalType": "address",
							"name": "to",
							"type": "address"
						},
						{
							"indexed": false,
							"internalType": "uint256",
							"name": "value",
							"type": "uint256"
						}
					],
					"name": "Transfer",
					"type": "event"
				},
				{
					"inputs": [
						{
							"internalType": "address",
							"name": "owner",
							"type": "address"
						},
						{
							"internalType": "address",
							"name": "spender",
							"type": "address"
						}
					],
					"name": "allowance",
					"outputs": [
						{
							"internalType": "uint256",
							"name": "",
							"type": "uint256"
						}
					],
					"stateMutability": "view",
					"type": "function"
				},
				{
					"inputs": [
						{
							"internalType": "address",
							"name": "spender",
							"type": "address"
						},
						{
							"internalType": "uint256",
							"name": "amount",
							"type": "uint256"
						}
					],
					"name": "approve",
					"outputs": [
						{
							"internalType": "bool",
							"name": "",
							"type": "bool"
						}
					],
					"stateMutability": "nonpayable",
					"type": "function"
				},
				{
					"inputs": [
						{
							"internalType": "address",
							"name": "account",
							"type": "address"
						}
					],
					"name": "balanceOf",
					"outputs": [
						{
							"internalType": "uint256",
							"name": "",
							"type": "uint256"
						}
					],
					"stateMutability": "view",
					"type": "function"
				},
				{
					"inputs": [
						{
							"internalType": "uint256",
							"name": "amount",
							"type": "uint256"
						}
					],
					"name": "burnToken",
					"outputs": [],
					"stateMutability": "nonpayable",
					"type": "function"
				},
				{
					"inputs": [
						{
							"internalType": "string",
							"name": "itemName",
							"type": "string"
						},
						{
							"internalType": "uint256",
							"name": "amount",
							"type": "uint256"
						}
					],
					"name": "createStoreItem",
					"outputs": [],
					"stateMutability": "nonpayable",
					"type": "function"
				},
				{
					"inputs": [],
					"name": "decimals",
					"outputs": [
						{
							"internalType": "uint8",
							"name": "",
							"type": "uint8"
						}
					],
					"stateMutability": "view",
					"type": "function"
				},
				{
					"inputs": [
						{
							"internalType": "address",
							"name": "spender",
							"type": "address"
						},
						{
							"internalType": "uint256",
							"name": "subtractedValue",
							"type": "uint256"
						}
					],
					"name": "decreaseAllowance",
					"outputs": [
						{
							"internalType": "bool",
							"name": "",
							"type": "bool"
						}
					],
					"stateMutability": "nonpayable",
					"type": "function"
				},
				{
					"inputs": [
						{
							"internalType": "address",
							"name": "spender",
							"type": "address"
						},
						{
							"internalType": "uint256",
							"name": "addedValue",
							"type": "uint256"
						}
					],
					"name": "increaseAllowance",
					"outputs": [
						{
							"internalType": "bool",
							"name": "",
							"type": "bool"
						}
					],
					"stateMutability": "nonpayable",
					"type": "function"
				},
				{
					"inputs": [
						{
							"internalType": "address",
							"name": "to",
							"type": "address"
						},
						{
							"internalType": "uint256",
							"name": "amount",
							"type": "uint256"
						}
					],
					"name": "mint",
					"outputs": [],
					"stateMutability": "nonpayable",
					"type": "function"
				},
				{
					"inputs": [
						{
							"internalType": "address",
							"name": "recipient",
							"type": "address"
						},
						{
							"internalType": "uint256",
							"name": "amount",
							"type": "uint256"
						}
					],
					"name": "mintToken",
					"outputs": [],
					"stateMutability": "nonpayable",
					"type": "function"
				},
				{
					"inputs": [],
					"name": "name",
					"outputs": [
						{
							"internalType": "string",
							"name": "",
							"type": "string"
						}
					],
					"stateMutability": "view",
					"type": "function"
				},
				{
					"inputs": [],
					"name": "owner",
					"outputs": [
						{
							"internalType": "address",
							"name": "",
							"type": "address"
						}
					],
					"stateMutability": "view",
					"type": "function"
				},
				{
					"inputs": [
						{
							"internalType": "uint256",
							"name": "itemsId",
							"type": "uint256"
						}
					],
					"name": "redeemDogenToken",
					"outputs": [],
					"stateMutability": "nonpayable",
					"type": "function"
				},
				{
					"inputs": [
						{
							"internalType": "address",
							"name": "",
							"type": "address"
						}
					],
					"name": "redeemedAwards",
					"outputs": [
						{
							"internalType": "string",
							"name": "itemName",
							"type": "string"
						},
						{
							"internalType": "uint256",
							"name": "itemPrice",
							"type": "uint256"
						}
					],
					"stateMutability": "view",
					"type": "function"
				},
				{
					"inputs": [],
					"name": "renounceOwnership",
					"outputs": [],
					"stateMutability": "nonpayable",
					"type": "function"
				},
				{
					"inputs": [
						{
							"internalType": "uint256",
							"name": "",
							"type": "uint256"
						}
					],
					"name": "store",
					"outputs": [
						{
							"internalType": "string",
							"name": "itemName",
							"type": "string"
						},
						{
							"internalType": "uint256",
							"name": "itemPrice",
							"type": "uint256"
						}
					],
					"stateMutability": "view",
					"type": "function"
				},
				{
					"inputs": [],
					"name": "symbol",
					"outputs": [
						{
							"internalType": "string",
							"name": "",
							"type": "string"
						}
					],
					"stateMutability": "view",
					"type": "function"
				},
				{
					"inputs": [],
					"name": "totalSupply",
					"outputs": [
						{
							"internalType": "uint256",
							"name": "",
							"type": "uint256"
						}
					],
					"stateMutability": "view",
					"type": "function"
				},
				{
					"inputs": [
						{
							"internalType": "address",
							"name": "to",
							"type": "address"
						},
						{
							"internalType": "uint256",
							"name": "amount",
							"type": "uint256"
						}
					],
					"name": "transfer",
					"outputs": [
						{
							"internalType": "bool",
							"name": "",
							"type": "bool"
						}
					],
					"stateMutability": "nonpayable",
					"type": "function"
				},
				{
					"inputs": [
						{
							"internalType": "address",
							"name": "from",
							"type": "address"
						},
						{
							"internalType": "address",
							"name": "to",
							"type": "address"
						},
						{
							"internalType": "uint256",
							"name": "amount",
							"type": "uint256"
						}
					],
					"name": "transferFrom",
					"outputs": [
						{
							"internalType": "bool",
							"name": "",
							"type": "bool"
						}
					],
					"stateMutability": "nonpayable",
					"type": "function"
				},
				{
					"inputs": [
						{
							"internalType": "address",
							"name": "newOwner",
							"type": "address"
						}
					],
					"name": "transferOwnership",
					"outputs": [],
					"stateMutability": "nonpayable",
					"type": "function"
				},
				{
					"inputs": [
						{
							"internalType": "address",
							"name": "recipient",
							"type": "address"
						},
						{
							"internalType": "uint256",
							"name": "amount",
							"type": "uint256"
						}
					],
					"name": "trasnferToken",
					"outputs": [],
					"stateMutability": "nonpayable",
					"type": "function"
				},
				{
					"inputs": [],
					"name": "viewStoreItems",
					"outputs": [
						{
							"components": [
								{
									"internalType": "string",
									"name": "itemName",
									"type": "string"
								},
								{
									"internalType": "uint256",
									"name": "itemPrice",
									"type": "uint256"
								}
							],
							"internalType": "struct DegenToken.StoreItem[]",
							"name": "",
							"type": "tuple[]"
						}
					],
					"stateMutability": "view",
					"type": "function"
				}
			],
			"devdoc": {
				"events": {
					"Approval(address,address,uint256)": {
						"details": "Emitted when the allowance of a `spender` for an `owner` is set by a call to {approve}. `value` is the new allowance."
					},
					"Transfer(address,address,uint256)": {
						"details": "Emitted when `value` tokens are moved from one account (`from`) to another (`to`). Note that `value` may be zero."
					}
				},
				"kind": "dev",
				"methods": {
					"allowance(address,address)": {
						"details": "See {IERC20-allowance}."
					},
					"approve(address,uint256)": {
						"details": "See {IERC20-approve}. NOTE: If `amount` is the maximum `uint256`, the allowance is not updated on `transferFrom`. This is semantically equivalent to an infinite approval. Requirements: - `spender` cannot be the zero address."
					},
					"balanceOf(address)": {
						"details": "See {IERC20-balanceOf}."
					},
					"decimals()": {
						"details": "Returns the number of decimals used to get its user representation. For example, if `decimals` equals `2`, a balance of `505` tokens should be displayed to a user as `5.05` (`505 / 10 ** 2`). Tokens usually opt for a value of 18, imitating the relationship between Ether and Wei. This is the value {ERC20} uses, unless this function is overridden; NOTE: This information is only used for _display_ purposes: it in no way affects any of the arithmetic of the contract, including {IERC20-balanceOf} and {IERC20-transfer}."
					},
					"decreaseAllowance(address,uint256)": {
						"details": "Atomically decreases the allowance granted to `spender` by the caller. This is an alternative to {approve} that can be used as a mitigation for problems described in {IERC20-approve}. Emits an {Approval} event indicating the updated allowance. Requirements: - `spender` cannot be the zero address. - `spender` must have allowance for the caller of at least `subtractedValue`."
					},
					"increaseAllowance(address,uint256)": {
						"details": "Atomically increases the allowance granted to `spender` by the caller. This is an alternative to {approve} that can be used as a mitigation for problems described in {IERC20-approve}. Emits an {Approval} event indicating the updated allowance. Requirements: - `spender` cannot be the zero address."
					},
					"name()": {
						"details": "Returns the name of the token."
					},
					"owner()": {
						"details": "Returns the address of the current owner."
					},
					"renounceOwnership()": {
						"details": "Leaves the contract without owner. It will not be possible to call `onlyOwner` functions anymore. Can only be called by the current owner. NOTE: Renouncing ownership will leave the contract without an owner, thereby removing any functionality that is only available to the owner."
					},
					"symbol()": {
						"details": "Returns the symbol of the token, usually a shorter version of the name."
					},
					"totalSupply()": {
						"details": "See {IERC20-totalSupply}."
					},
					"transfer(address,uint256)": {
						"details": "See {IERC20-transfer}. Requirements: - `to` cannot be the zero address. - the caller must have a balance of at least `amount`."
					},
					"transferFrom(address,address,uint256)": {
						"details": "See {IERC20-transferFrom}. Emits an {Approval} event indicating the updated allowance. This is not required by the EIP. See the note at the beginning of {ERC20}. NOTE: Does not update the allowance if the current allowance is the maximum `uint256`. Requirements: - `from` and `to` cannot be the zero address. - `from` must have a balance of at least `amount`. - the caller must have allowance for ``from``'s tokens of at least `amount`."
					},
					"transferOwnership(address)": {
						"details": "Transfers ownership of the contract to a new account (`newOwner`). Can only be called by the current owner."
					}
				},
				"version": 1
			},
			"evm": {
				"assembly": "    /* \"contracts/DegenToken.sol\":168:1939  contract DegenToken is ERC20, Ownable {... */\n  mstore(0x40, 0x80)\n    /* \"contracts/DegenToken.sol\":370:415  constructor() ERC20(\"Degen\", \"DGN\") {... */\n  callvalue\n  dup1\n  iszero\n  tag_1\n  jumpi\n  0x00\n  dup1\n  revert\ntag_1:\n  pop\n    /* \"@openzeppelin/contracts/token/ERC20/ERC20.sol\":1976:2089  constructor(string memory name_, string memory symbol_) {... */\n  mload(0x40)\n  dup1\n  0x40\n  add\n  0x40\n  mstore\n  dup1\n  0x05\n  dup2\n  mstore\n  0x20\n  add\n  0x446567656e000000000000000000000000000000000000000000000000000000\n  dup2\n  mstore\n  pop\n  mload(0x40)\n  dup1\n  0x40\n  add\n  0x40\n  mstore\n  dup1\n  0x03\n  dup2\n  mstore\n  0x20\n  add\n  0x44474e0000000000000000000000000000000000000000000000000000000000\n  dup2\n  mstore\n  pop\n    /* \"@openzeppelin/contracts/token/ERC20/ERC20.sol\":2050:2055  name_ */\n  dup2\n    /* \"@openzeppelin/contracts/token/ERC20/ERC20.sol\":2042:2047  _name */\n  0x03\n    /* \"@openzeppelin/contracts/token/ERC20/ERC20.sol\":2042:2055  _name = name_ */\n  swap1\n  dup2\n  tag_6\n  swap2\n  swap1\n  tag_7\n  jump\t// in\ntag_6:\n  pop\n    /* \"@openzeppelin/contracts/token/ERC20/ERC20.sol\":2075:2082  symbol_ */\n  dup1\n    /* \"@openzeppelin/contracts/token/ERC20/ERC20.sol\":2065:2072  _symbol */\n  0x04\n    /* \"@openzeppelin/contracts/token/ERC20/ERC20.sol\":2065:2082  _symbol = symbol_ */\n  swap1\n  dup2\n  tag_8\n  swap2\n  swap1\n  tag_7\n  jump\t// in\ntag_8:\n  pop\n    /* \"@openzeppelin/contracts/token/ERC20/ERC20.sol\":1976:2089  constructor(string memory name_, string memory symbol_) {... */\n  pop\n  pop\n    /* \"@openzeppelin/contracts/access/Ownable.sol\":936:968  _transferOwnership(_msgSender()) */\n  tag_10\n    /* \"@openzeppelin/contracts/access/Ownable.sol\":955:967  _msgSender() */\n  tag_11\n    /* \"@openzeppelin/contracts/access/Ownable.sol\":955:965  _msgSender */\n  shl(0x20, tag_12)\n    /* \"@openzeppelin/contracts/access/Ownable.sol\":955:967  _msgSender() */\n  0x20\n  shr\n  jump\t// in\ntag_11:\n    /* \"@openzeppelin/contracts/access/Ownable.sol\":936:954  _transferOwnership */\n  shl(0x20, tag_13)\n    /* \"@openzeppelin/contracts/access/Ownable.sol\":936:968  _transferOwnership(_msgSender()) */\n  0x20\n  shr\n  jump\t// in\ntag_10:\n    /* \"contracts/DegenToken.sol\":168:1939  contract DegenToken is ERC20, Ownable {... */\n  jump(tag_15)\n    /* \"@openzeppelin/contracts/utils/Context.sol\":640:736  function _msgSender() internal view virtual returns (address) {... */\ntag_12:\n    /* \"@openzeppelin/contracts/utils/Context.sol\":693:700  address */\n  0x00\n    /* \"@openzeppelin/contracts/utils/Context.sol\":719:729  msg.sender */\n  caller\n    /* \"@openzeppelin/contracts/utils/Context.sol\":712:729  return msg.sender */\n  swap1\n  pop\n    /* \"@openzeppelin/contracts/utils/Context.sol\":640:736  function _msgSender() internal view virtual returns (address) {... */\n  swap1\n  jump\t// out\n    /* \"@openzeppelin/contracts/access/Ownable.sol\":2433:2620  function _transferOwnership(address newOwner) internal virtual {... */\ntag_13:\n    /* \"@openzeppelin/contracts/access/Ownable.sol\":2506:2522  address oldOwner */\n  0x00\n    /* \"@openzeppelin/contracts/access/Ownable.sol\":2525:2531  _owner */\n  0x05\n  0x00\n  swap1\n  sload\n  swap1\n  0x0100\n  exp\n  swap1\n  div\n  0xffffffffffffffffffffffffffffffffffffffff\n  and\n    /* \"@openzeppelin/contracts/access/Ownable.sol\":2506:2531  address oldOwner = _owner */\n  swap1\n  pop\n    /* \"@openzeppelin/contracts/access/Ownable.sol\":2550:2558  newOwner */\n  dup2\n    /* \"@openzeppelin/contracts/access/Ownable.sol\":2541:2547  _owner */\n  0x05\n  0x00\n    /* \"@openzeppelin/contracts/access/Ownable.sol\":2541:2558  _owner = newOwner */\n  0x0100\n  exp\n  dup2\n  sload\n  dup2\n  0xffffffffffffffffffffffffffffffffffffffff\n  mul\n  not\n  and\n  swap1\n  dup4\n  0xffffffffffffffffffffffffffffffffffffffff\n  and\n  mul\n  or\n  swap1\n  sstore\n  pop\n    /* \"@openzeppelin/contracts/access/Ownable.sol\":2604:2612  newOwner */\n  dup2\n    /* \"@openzeppelin/contracts/access/Ownable.sol\":2573:2613  OwnershipTransferred(oldOwner, newOwner) */\n  0xffffffffffffffffffffffffffffffffffffffff\n  and\n    /* \"@openzeppelin/contracts/access/Ownable.sol\":2594:2602  oldOwner */\n  dup2\n    /* \"@openzeppelin/contracts/access/Ownable.sol\":2573:2613  OwnershipTransferred(oldOwner, newOwner) */\n  0xffffffffffffffffffffffffffffffffffffffff\n  and\n  0x8be0079c531659141344cd1fd0a4f28419497f9722a3daafe3b4186f6b6457e0\n  mload(0x40)\n  mload(0x40)\n  dup1\n  swap2\n  sub\n  swap1\n  log3\n    /* \"@openzeppelin/contracts/access/Ownable.sol\":2496:2620  {... */\n  pop\n    /* \"@openzeppelin/contracts/access/Ownable.sol\":2433:2620  function _transferOwnership(address newOwner) internal virtual {... */\n  pop\n  jump\t// out\n    /* \"#utility.yul\":7:106   */\ntag_18:\n    /* \"#utility.yul\":59:65   */\n  0x00\n    /* \"#utility.yul\":93:98   */\n  dup2\n    /* \"#utility.yul\":87:99   */\n  mload\n    /* \"#utility.yul\":77:99   */\n  swap1\n  pop\n    /* \"#utility.yul\":7:106   */\n  swap2\n  swap1\n  pop\n  jump\t// out\n    /* \"#utility.yul\":112:292   */\ntag_19:\n    /* \"#utility.yul\":160:237   */\n  0x4e487b7100000000000000000000000000000000000000000000000000000000\n    /* \"#utility.yul\":157:158   */\n  0x00\n    /* \"#utility.yul\":150:238   */\n  mstore\n    /* \"#utility.yul\":257:261   */\n  0x41\n    /* \"#utility.yul\":254:255   */\n  0x04\n    /* \"#utility.yul\":247:262   */\n  mstore\n    /* \"#utility.yul\":281:285   */\n  0x24\n    /* \"#utility.yul\":278:279   */\n  0x00\n    /* \"#utility.yul\":271:286   */\n  revert\n    /* \"#utility.yul\":298:478   */\ntag_20:\n    /* \"#utility.yul\":346:423   */\n  0x4e487b7100000000000000000000000000000000000000000000000000000000\n    /* \"#utility.yul\":343:344   */\n  0x00\n    /* \"#utility.yul\":336:424   */\n  mstore\n    /* \"#utility.yul\":443:447   */\n  0x22\n    /* \"#utility.yul\":440:441   */\n  0x04\n    /* \"#utility.yul\":433:448   */\n  mstore\n    /* \"#utility.yul\":467:471   */\n  0x24\n    /* \"#utility.yul\":464:465   */\n  0x00\n    /* \"#utility.yul\":457:472   */\n  revert\n    /* \"#utility.yul\":484:804   */\ntag_21:\n    /* \"#utility.yul\":528:534   */\n  0x00\n    /* \"#utility.yul\":565:566   */\n  0x02\n    /* \"#utility.yul\":559:563   */\n  dup3\n    /* \"#utility.yul\":555:567   */\n  div\n    /* \"#utility.yul\":545:567   */\n  swap1\n  pop\n    /* \"#utility.yul\":612:613   */\n  0x01\n    /* \"#utility.yul\":606:610   */\n  dup3\n    /* \"#utility.yul\":602:614   */\n  and\n    /* \"#utility.yul\":633:651   */\n  dup1\n    /* \"#utility.yul\":623:704   */\n  tag_43\n  jumpi\n    /* \"#utility.yul\":689:693   */\n  0x7f\n    /* \"#utility.yul\":681:687   */\n  dup3\n    /* \"#utility.yul\":677:694   */\n  and\n    /* \"#utility.yul\":667:694   */\n  swap2\n  pop\n    /* \"#utility.yul\":623:704   */\ntag_43:\n    /* \"#utility.yul\":751:753   */\n  0x20\n    /* \"#utility.yul\":743:749   */\n  dup3\n    /* \"#utility.yul\":740:754   */\n  lt\n    /* \"#utility.yul\":720:738   */\n  dup2\n    /* \"#utility.yul\":717:755   */\n  sub\n    /* \"#utility.yul\":714:798   */\n  tag_44\n  jumpi\n    /* \"#utility.yul\":770:788   */\n  tag_45\n  tag_20\n  jump\t// in\ntag_45:\n    /* \"#utility.yul\":714:798   */\ntag_44:\n    /* \"#utility.yul\":535:804   */\n  pop\n    /* \"#utility.yul\":484:804   */\n  swap2\n  swap1\n  pop\n  jump\t// out\n    /* \"#utility.yul\":810:951   */\ntag_22:\n    /* \"#utility.yul\":859:863   */\n  0x00\n    /* \"#utility.yul\":882:885   */\n  dup2\n    /* \"#utility.yul\":874:885   */\n  swap1\n  pop\n    /* \"#utility.yul\":905:908   */\n  dup2\n    /* \"#utility.yul\":902:903   */\n  0x00\n    /* \"#utility.yul\":895:909   */\n  mstore\n    /* \"#utility.yul\":939:943   */\n  0x20\n    /* \"#utility.yul\":936:937   */\n  0x00\n    /* \"#utility.yul\":926:944   */\n  keccak256\n    /* \"#utility.yul\":918:944   */\n  swap1\n  pop\n    /* \"#utility.yul\":810:951   */\n  swap2\n  swap1\n  pop\n  jump\t// out\n    /* \"#utility.yul\":957:1050   */\ntag_23:\n    /* \"#utility.yul\":994:1000   */\n  0x00\n    /* \"#utility.yul\":1041:1043   */\n  0x20\n    /* \"#utility.yul\":1036:1038   */\n  0x1f\n    /* \"#utility.yul\":1029:1034   */\n  dup4\n    /* \"#utility.yul\":1025:1039   */\n  add\n    /* \"#utility.yul\":1021:1044   */\n  div\n    /* \"#utility.yul\":1011:1044   */\n  swap1\n  pop\n    /* \"#utility.yul\":957:1050   */\n  swap2\n  swap1\n  pop\n  jump\t// out\n    /* \"#utility.yul\":1056:1163   */\ntag_24:\n    /* \"#utility.yul\":1100:1108   */\n  0x00\n    /* \"#utility.yul\":1150:1155   */\n  dup3\n    /* \"#utility.yul\":1144:1148   */\n  dup3\n    /* \"#utility.yul\":1140:1156   */\n  shl\n    /* \"#utility.yul\":1119:1156   */\n  swap1\n  pop\n    /* \"#utility.yul\":1056:1163   */\n  swap3\n  swap2\n  pop\n  pop\n  jump\t// out\n    /* \"#utility.yul\":1169:1562   */\ntag_25:\n    /* \"#utility.yul\":1238:1244   */\n  0x00\n    /* \"#utility.yul\":1288:1289   */\n  0x08\n    /* \"#utility.yul\":1276:1286   */\n  dup4\n    /* \"#utility.yul\":1272:1290   */\n  mul\n    /* \"#utility.yul\":1311:1408   */\n  tag_50\n    /* \"#utility.yul\":1341:1407   */\n  0xffffffffffffffffffffffffffffffffffffffffffffffffffffffffffffffff\n    /* \"#utility.yul\":1330:1339   */\n  dup3\n    /* \"#utility.yul\":1311:1408   */\n  tag_24\n  jump\t// in\ntag_50:\n    /* \"#utility.yul\":1429:1468   */\n  tag_51\n    /* \"#utility.yul\":1459:1467   */\n  dup7\n    /* \"#utility.yul\":1448:1457   */\n  dup4\n    /* \"#utility.yul\":1429:1468   */\n  tag_24\n  jump\t// in\ntag_51:\n    /* \"#utility.yul\":1417:1468   */\n  swap6\n  pop\n    /* \"#utility.yul\":1501:1505   */\n  dup1\n    /* \"#utility.yul\":1497:1506   */\n  not\n    /* \"#utility.yul\":1490:1495   */\n  dup5\n    /* \"#utility.yul\":1486:1507   */\n  and\n    /* \"#utility.yul\":1477:1507   */\n  swap4\n  pop\n    /* \"#utility.yul\":1550:1554   */\n  dup1\n    /* \"#utility.yul\":1540:1548   */\n  dup7\n    /* \"#utility.yul\":1536:1555   */\n  and\n    /* \"#utility.yul\":1529:1534   */\n  dup5\n    /* \"#utility.yul\":1526:1556   */\n  or\n    /* \"#utility.yul\":1516:1556   */\n  swap3\n  pop\n    /* \"#utility.yul\":1245:1562   */\n  pop\n  pop\n    /* \"#utility.yul\":1169:1562   */\n  swap4\n  swap3\n  pop\n  pop\n  pop\n  jump\t// out\n    /* \"#utility.yul\":1568:1645   */\ntag_26:\n    /* \"#utility.yul\":1605:1612   */\n  0x00\n    /* \"#utility.yul\":1634:1639   */\n  dup2\n    /* \"#utility.yul\":1623:1639   */\n  swap1\n  pop\n    /* \"#utility.yul\":1568:1645   */\n  swap2\n  swap1\n  pop\n  jump\t// out\n    /* \"#utility.yul\":1651:1711   */\ntag_27:\n    /* \"#utility.yul\":1679:1682   */\n  0x00\n    /* \"#utility.yul\":1700:1705   */\n  dup2\n    /* \"#utility.yul\":1693:1705   */\n  swap1\n  pop\n    /* \"#utility.yul\":1651:1711   */\n  swap2\n  swap1\n  pop\n  jump\t// out\n    /* \"#utility.yul\":1717:1859   */\ntag_28:\n    /* \"#utility.yul\":1767:1776   */\n  0x00\n    /* \"#utility.yul\":1800:1853   */\n  tag_55\n    /* \"#utility.yul\":1818:1852   */\n  tag_56\n    /* \"#utility.yul\":1827:1851   */\n  tag_57\n    /* \"#utility.yul\":1845:1850   */\n  dup5\n    /* \"#utility.yul\":1827:1851   */\n  tag_26\n  jump\t// in\ntag_57:\n    /* \"#utility.yul\":1818:1852   */\n  tag_27\n  jump\t// in\ntag_56:\n    /* \"#utility.yul\":1800:1853   */\n  tag_26\n  jump\t// in\ntag_55:\n    /* \"#utility.yul\":1787:1853   */\n  swap1\n  pop\n    /* \"#utility.yul\":1717:1859   */\n  swap2\n  swap1\n  pop\n  jump\t// out\n    /* \"#utility.yul\":1865:1940   */\ntag_29:\n    /* \"#utility.yul\":1908:1911   */\n  0x00\n    /* \"#utility.yul\":1929:1934   */\n  dup2\n    /* \"#utility.yul\":1922:1934   */\n  swap1\n  pop\n    /* \"#utility.yul\":1865:1940   */\n  swap2\n  swap1\n  pop\n  jump\t// out\n    /* \"#utility.yul\":1946:2215   */\ntag_30:\n    /* \"#utility.yul\":2056:2095   */\n  tag_60\n    /* \"#utility.yul\":2087:2094   */\n  dup4\n    /* \"#utility.yul\":2056:2095   */\n  tag_28\n  jump\t// in\ntag_60:\n    /* \"#utility.yul\":2117:2208   */\n  tag_61\n    /* \"#utility.yul\":2166:2207   */\n  tag_62\n    /* \"#utility.yul\":2190:2206   */\n  dup3\n    /* \"#utility.yul\":2166:2207   */\n  tag_29\n  jump\t// in\ntag_62:\n    /* \"#utility.yul\":2158:2164   */\n  dup5\n    /* \"#utility.yul\":2151:2155   */\n  dup5\n    /* \"#utility.yul\":2145:2156   */\n  sload\n    /* \"#utility.yul\":2117:2208   */\n  tag_25\n  jump\t// in\ntag_61:\n    /* \"#utility.yul\":2111:2115   */\n  dup3\n    /* \"#utility.yul\":2104:2209   */\n  sstore\n    /* \"#utility.yul\":2022:2215   */\n  pop\n    /* \"#utility.yul\":1946:2215   */\n  pop\n  pop\n  pop\n  jump\t// out\n    /* \"#utility.yul\":2221:2294   */\ntag_31:\n    /* \"#utility.yul\":2266:2269   */\n  0x00\n    /* \"#utility.yul\":2221:2294   */\n  swap1\n  jump\t// out\n    /* \"#utility.yul\":2300:2489   */\ntag_32:\n    /* \"#utility.yul\":2377:2409   */\n  tag_65\n  tag_31\n  jump\t// in\ntag_65:\n    /* \"#utility.yul\":2418:2483   */\n  tag_66\n    /* \"#utility.yul\":2476:2482   */\n  dup2\n    /* \"#utility.yul\":2468:2474   */\n  dup5\n    /* \"#utility.yul\":2462:2466   */\n  dup5\n    /* \"#utility.yul\":2418:2483   */\n  tag_30\n  jump\t// in\ntag_66:\n    /* \"#utility.yul\":2353:2489   */\n  pop\n    /* \"#utility.yul\":2300:2489   */\n  pop\n  pop\n  jump\t// out\n    /* \"#utility.yul\":2495:2681   */\ntag_33:\n    /* \"#utility.yul\":2555:2675   */\ntag_68:\n    /* \"#utility.yul\":2572:2575   */\n  dup2\n    /* \"#utility.yul\":2565:2570   */\n  dup2\n    /* \"#utility.yul\":2562:2576   */\n  lt\n    /* \"#utility.yul\":2555:2675   */\n  iszero\n  tag_70\n  jumpi\n    /* \"#utility.yul\":2626:2665   */\n  tag_71\n    /* \"#utility.yul\":2663:2664   */\n  0x00\n    /* \"#utility.yul\":2656:2661   */\n  dup3\n    /* \"#utility.yul\":2626:2665   */\n  tag_32\n  jump\t// in\ntag_71:\n    /* \"#utility.yul\":2599:2600   */\n  0x01\n    /* \"#utility.yul\":2592:2597   */\n  dup2\n    /* \"#utility.yul\":2588:2601   */\n  add\n    /* \"#utility.yul\":2579:2601   */\n  swap1\n  pop\n    /* \"#utility.yul\":2555:2675   */\n  jump(tag_68)\ntag_70:\n    /* \"#utility.yul\":2495:2681   */\n  pop\n  pop\n  jump\t// out\n    /* \"#utility.yul\":2687:3230   */\ntag_34:\n    /* \"#utility.yul\":2788:2790   */\n  0x1f\n    /* \"#utility.yul\":2783:2786   */\n  dup3\n    /* \"#utility.yul\":2780:2791   */\n  gt\n    /* \"#utility.yul\":2777:3223   */\n  iszero\n  tag_73\n  jumpi\n    /* \"#utility.yul\":2822:2860   */\n  tag_74\n    /* \"#utility.yul\":2854:2859   */\n  dup2\n    /* \"#utility.yul\":2822:2860   */\n  tag_22\n  jump\t// in\ntag_74:\n    /* \"#utility.yul\":2906:2935   */\n  tag_75\n    /* \"#utility.yul\":2924:2934   */\n  dup5\n    /* \"#utility.yul\":2906:2935   */\n  tag_23\n  jump\t// in\ntag_75:\n    /* \"#utility.yul\":2896:2904   */\n  dup2\n    /* \"#utility.yul\":2892:2936   */\n  add\n    /* \"#utility.yul\":3089:3091   */\n  0x20\n    /* \"#utility.yul\":3077:3087   */\n  dup6\n    /* \"#utility.yul\":3074:3092   */\n  lt\n    /* \"#utility.yul\":3071:3120   */\n  iszero\n  tag_76\n  jumpi\n    /* \"#utility.yul\":3110:3118   */\n  dup2\n    /* \"#utility.yul\":3095:3118   */\n  swap1\n  pop\n    /* \"#utility.yul\":3071:3120   */\ntag_76:\n    /* \"#utility.yul\":3133:3213   */\n  tag_77\n    /* \"#utility.yul\":3189:3211   */\n  tag_78\n    /* \"#utility.yul\":3207:3210   */\n  dup6\n    /* \"#utility.yul\":3189:3211   */\n  tag_23\n  jump\t// in\ntag_78:\n    /* \"#utility.yul\":3179:3187   */\n  dup4\n    /* \"#utility.yul\":3175:3212   */\n  add\n    /* \"#utility.yul\":3162:3173   */\n  dup3\n    /* \"#utility.yul\":3133:3213   */\n  tag_33\n  jump\t// in\ntag_77:\n    /* \"#utility.yul\":2792:3223   */\n  pop\n  pop\n    /* \"#utility.yul\":2777:3223   */\ntag_73:\n    /* \"#utility.yul\":2687:3230   */\n  pop\n  pop\n  pop\n  jump\t// out\n    /* \"#utility.yul\":3236:3353   */\ntag_35:\n    /* \"#utility.yul\":3290:3298   */\n  0x00\n    /* \"#utility.yul\":3340:3345   */\n  dup3\n    /* \"#utility.yul\":3334:3338   */\n  dup3\n    /* \"#utility.yul\":3330:3346   */\n  shr\n    /* \"#utility.yul\":3309:3346   */\n  swap1\n  pop\n    /* \"#utility.yul\":3236:3353   */\n  swap3\n  swap2\n  pop\n  pop\n  jump\t// out\n    /* \"#utility.yul\":3359:3528   */\ntag_36:\n    /* \"#utility.yul\":3403:3409   */\n  0x00\n    /* \"#utility.yul\":3436:3487   */\n  tag_81\n    /* \"#utility.yul\":3484:3485   */\n  0x00\n    /* \"#utility.yul\":3480:3486   */\n  not\n    /* \"#utility.yul\":3472:3477   */\n  dup5\n    /* \"#utility.yul\":3469:3470   */\n  0x08\n    /* \"#utility.yul\":3465:3478   */\n  mul\n    /* \"#utility.yul\":3436:3487   */\n  tag_35\n  jump\t// in\ntag_81:\n    /* \"#utility.yul\":3432:3488   */\n  not\n    /* \"#utility.yul\":3517:3521   */\n  dup1\n    /* \"#utility.yul\":3511:3515   */\n  dup4\n    /* \"#utility.yul\":3507:3522   */\n  and\n    /* \"#utility.yul\":3497:3522   */\n  swap2\n  pop\n    /* \"#utility.yul\":3410:3528   */\n  pop\n    /* \"#utility.yul\":3359:3528   */\n  swap3\n  swap2\n  pop\n  pop\n  jump\t// out\n    /* \"#utility.yul\":3533:3828   */\ntag_37:\n    /* \"#utility.yul\":3609:3613   */\n  0x00\n    /* \"#utility.yul\":3755:3784   */\n  tag_83\n    /* \"#utility.yul\":3780:3783   */\n  dup4\n    /* \"#utility.yul\":3774:3778   */\n  dup4\n    /* \"#utility.yul\":3755:3784   */\n  tag_36\n  jump\t// in\ntag_83:\n    /* \"#utility.yul\":3747:3784   */\n  swap2\n  pop\n    /* \"#utility.yul\":3817:3820   */\n  dup3\n    /* \"#utility.yul\":3814:3815   */\n  0x02\n    /* \"#utility.yul\":3810:3821   */\n  mul\n    /* \"#utility.yul\":3804:3808   */\n  dup3\n    /* \"#utility.yul\":3801:3822   */\n  or\n    /* \"#utility.yul\":3793:3822   */\n  swap1\n  pop\n    /* \"#utility.yul\":3533:3828   */\n  swap3\n  swap2\n  pop\n  pop\n  jump\t// out\n    /* \"#utility.yul\":3833:5228   */\ntag_7:\n    /* \"#utility.yul\":3950:3987   */\n  tag_85\n    /* \"#utility.yul\":3983:3986   */\n  dup3\n    /* \"#utility.yul\":3950:3987   */\n  tag_18\n  jump\t// in\ntag_85:\n    /* \"#utility.yul\":4052:4070   */\n  0xffffffffffffffff\n    /* \"#utility.yul\":4044:4050   */\n  dup2\n    /* \"#utility.yul\":4041:4071   */\n  gt\n    /* \"#utility.yul\":4038:4094   */\n  iszero\n  tag_86\n  jumpi\n    /* \"#utility.yul\":4074:4092   */\n  tag_87\n  tag_19\n  jump\t// in\ntag_87:\n    /* \"#utility.yul\":4038:4094   */\ntag_86:\n    /* \"#utility.yul\":4118:4156   */\n  tag_88\n    /* \"#utility.yul\":4150:4154   */\n  dup3\n    /* \"#utility.yul\":4144:4155   */\n  sload\n    /* \"#utility.yul\":4118:4156   */\n  tag_21\n  jump\t// in\ntag_88:\n    /* \"#utility.yul\":4203:4270   */\n  tag_89\n    /* \"#utility.yul\":4263:4269   */\n  dup3\n    /* \"#utility.yul\":4255:4261   */\n  dup3\n    /* \"#utility.yul\":4249:4253   */\n  dup6\n    /* \"#utility.yul\":4203:4270   */\n  tag_34\n  jump\t// in\ntag_89:\n    /* \"#utility.yul\":4297:4298   */\n  0x00\n    /* \"#utility.yul\":4321:4325   */\n  0x20\n    /* \"#utility.yul\":4308:4325   */\n  swap1\n  pop\n    /* \"#utility.yul\":4353:4355   */\n  0x1f\n    /* \"#utility.yul\":4345:4351   */\n  dup4\n    /* \"#utility.yul\":4342:4356   */\n  gt\n    /* \"#utility.yul\":4370:4371   */\n  0x01\n    /* \"#utility.yul\":4365:4983   */\n  dup2\n  eq\n  tag_91\n  jumpi\n    /* \"#utility.yul\":5027:5028   */\n  0x00\n    /* \"#utility.yul\":5044:5050   */\n  dup5\n    /* \"#utility.yul\":5041:5118   */\n  iszero\n  tag_92\n  jumpi\n    /* \"#utility.yul\":5093:5102   */\n  dup3\n    /* \"#utility.yul\":5088:5091   */\n  dup8\n    /* \"#utility.yul\":5084:5103   */\n  add\n    /* \"#utility.yul\":5078:5104   */\n  mload\n    /* \"#utility.yul\":5069:5104   */\n  swap1\n  pop\n    /* \"#utility.yul\":5041:5118   */\ntag_92:\n    /* \"#utility.yul\":5144:5211   */\n  tag_93\n    /* \"#utility.yul\":5204:5210   */\n  dup6\n    /* \"#utility.yul\":5197:5202   */\n  dup3\n    /* \"#utility.yul\":5144:5211   */\n  tag_37\n  jump\t// in\ntag_93:\n    /* \"#utility.yul\":5138:5142   */\n  dup7\n    /* \"#utility.yul\":5131:5212   */\n  sstore\n    /* \"#utility.yul\":5000:5222   */\n  pop\n    /* \"#utility.yul\":4335:5222   */\n  jump(tag_90)\n    /* \"#utility.yul\":4365:4983   */\ntag_91:\n    /* \"#utility.yul\":4417:4421   */\n  0x1f\n    /* \"#utility.yul\":4413:4422   */\n  not\n    /* \"#utility.yul\":4405:4411   */\n  dup5\n    /* \"#utility.yul\":4401:4423   */\n  and\n    /* \"#utility.yul\":4451:4488   */\n  tag_94\n    /* \"#utility.yul\":4483:4487   */\n  dup7\n    /* \"#utility.yul\":4451:4488   */\n  tag_22\n  jump\t// in\ntag_94:\n    /* \"#utility.yul\":4510:4511   */\n  0x00\n    /* \"#utility.yul\":4524:4732   */\ntag_95:\n    /* \"#utility.yul\":4538:4545   */\n  dup3\n    /* \"#utility.yul\":4535:4536   */\n  dup2\n    /* \"#utility.yul\":4532:4546   */\n  lt\n    /* \"#utility.yul\":4524:4732   */\n  iszero\n  tag_97\n  jumpi\n    /* \"#utility.yul\":4617:4626   */\n  dup5\n    /* \"#utility.yul\":4612:4615   */\n  dup10\n    /* \"#utility.yul\":4608:4627   */\n  add\n    /* \"#utility.yul\":4602:4628   */\n  mload\n    /* \"#utility.yul\":4594:4600   */\n  dup3\n    /* \"#utility.yul\":4587:4629   */\n  sstore\n    /* \"#utility.yul\":4668:4669   */\n  0x01\n    /* \"#utility.yul\":4660:4666   */\n  dup3\n    /* \"#utility.yul\":4656:4670   */\n  add\n    /* \"#utility.yul\":4646:4670   */\n  swap2\n  pop\n    /* \"#utility.yul\":4715:4717   */\n  0x20\n    /* \"#utility.yul\":4704:4713   */\n  dup6\n    /* \"#utility.yul\":4700:4718   */\n  add\n    /* \"#utility.yul\":4687:4718   */\n  swap5\n  pop\n    /* \"#utility.yul\":4561:4565   */\n  0x20\n    /* \"#utility.yul\":4558:4559   */\n  dup2\n    /* \"#utility.yul\":4554:4566   */\n  add\n    /* \"#utility.yul\":4549:4566   */\n  swap1\n  pop\n    /* \"#utility.yul\":4524:4732   */\n  jump(tag_95)\ntag_97:\n    /* \"#utility.yul\":4760:4766   */\n  dup7\n    /* \"#utility.yul\":4751:4758   */\n  dup4\n    /* \"#utility.yul\":4748:4767   */\n  lt\n    /* \"#utility.yul\":4745:4924   */\n  iszero\n  tag_98\n  jumpi\n    /* \"#utility.yul\":4818:4827   */\n  dup5\n    /* \"#utility.yul\":4813:4816   */\n  dup10\n    /* \"#utility.yul\":4809:4828   */\n  add\n    /* \"#utility.yul\":4803:4829   */\n  mload\n    /* \"#utility.yul\":4861:4909   */\n  tag_99\n    /* \"#utility.yul\":4903:4907   */\n  0x1f\n    /* \"#utility.yul\":4895:4901   */\n  dup10\n    /* \"#utility.yul\":4891:4908   */\n  and\n    /* \"#utility.yul\":4880:4889   */\n  dup3\n    /* \"#utility.yul\":4861:4909   */\n  tag_36\n  jump\t// in\ntag_99:\n    /* \"#utility.yul\":4853:4859   */\n  dup4\n    /* \"#utility.yul\":4846:4910   */\n  sstore\n    /* \"#utility.yul\":4768:4924   */\n  pop\n    /* \"#utility.yul\":4745:4924   */\ntag_98:\n    /* \"#utility.yul\":4970:4971   */\n  0x01\n    /* \"#utility.yul\":4966:4967   */\n  0x02\n    /* \"#utility.yul\":4958:4964   */\n  dup9\n    /* \"#utility.yul\":4954:4968   */\n  mul\n    /* \"#utility.yul\":4950:4972   */\n  add\n    /* \"#utility.yul\":4944:4948   */\n  dup9\n    /* \"#utility.yul\":4937:4973   */\n  sstore\n    /* \"#utility.yul\":4372:4983   */\n  pop\n  pop\n  pop\n    /* \"#utility.yul\":4335:5222   */\ntag_90:\n  pop\n    /* \"#utility.yul\":3925:5228   */\n  pop\n  pop\n  pop\n    /* \"#utility.yul\":3833:5228   */\n  pop\n  pop\n  jump\t// out\n    /* \"contracts/DegenToken.sol\":168:1939  contract DegenToken is ERC20, Ownable {... */\ntag_15:\n  dataSize(sub_0)\n  dup1\n  dataOffset(sub_0)\n  0x00\n  codecopy\n  0x00\n  return\nstop\n\nsub_0: assembly {\n        /* \"contracts/DegenToken.sol\":168:1939  contract DegenToken is ERC20, Ownable {... */\n      mstore(0x40, 0x80)\n      callvalue\n      dup1\n      iszero\n      tag_1\n      jumpi\n      0x00\n      dup1\n      revert\n    tag_1:\n      pop\n      jumpi(tag_2, lt(calldatasize, 0x04))\n      shr(0xe0, calldataload(0x00))\n      dup1\n      0x715018a6\n      gt\n      tag_26\n      jumpi\n      dup1\n      0x9b8418cc\n      gt\n      tag_27\n      jumpi\n      dup1\n      0x9b8418cc\n      eq\n      tag_20\n      jumpi\n      dup1\n      0xa457c2d7\n      eq\n      tag_21\n      jumpi\n      dup1\n      0xa9059cbb\n      eq\n      tag_22\n      jumpi\n      dup1\n      0xdd62ed3e\n      eq\n      tag_23\n      jumpi\n      dup1\n      0xe53cdeca\n      eq\n      tag_24\n      jumpi\n      dup1\n      0xf2fde38b\n      eq\n      tag_25\n      jumpi\n      jump(tag_2)\n    tag_27:\n      dup1\n      0x715018a6\n      eq\n      tag_14\n      jumpi\n      dup1\n      0x79c65068\n      eq\n      tag_15\n      jumpi\n      dup1\n      0x7b47ec1a\n      eq\n      tag_16\n      jumpi\n      dup1\n      0x860d0ff9\n      eq\n      tag_17\n      jumpi\n      dup1\n      0x8da5cb5b\n      eq\n      tag_18\n      jumpi\n      dup1\n      0x95d89b41\n      eq\n      tag_19\n      jumpi\n      jump(tag_2)\n    tag_26:\n      dup1\n      0x34559c06\n      gt\n      tag_28\n      jumpi\n      dup1\n      0x34559c06\n      eq\n      tag_8\n      jumpi\n      dup1\n      0x39509351\n      eq\n      tag_9\n      jumpi\n      dup1\n      0x40c10f19\n      eq\n      tag_10\n      jumpi\n      dup1\n      0x46ed098a\n      eq\n      tag_11\n      jumpi\n      dup1\n      0x6057361d\n      eq\n      tag_12\n      jumpi\n      dup1\n      0x70a08231\n      eq\n      tag_13\n      jumpi\n      jump(tag_2)\n    tag_28:\n      dup1\n      0x06fdde03\n      eq\n      tag_3\n      jumpi\n      dup1\n      0x095ea7b3\n      eq\n      tag_4\n      jumpi\n      dup1\n      0x18160ddd\n      eq\n      tag_5\n      jumpi\n      dup1\n      0x23b872dd\n      eq\n      tag_6\n      jumpi\n      dup1\n      0x313ce567\n      eq\n      tag_7\n      jumpi\n    tag_2:\n      0x00\n      dup1\n      revert\n        /* \"@openzeppelin/contracts/token/ERC20/ERC20.sol\":2154:2252  function name() public view virtual override returns (string memory) {... */\n    tag_3:\n      tag_29\n      tag_30\n      jump\t// in\n    tag_29:\n      mload(0x40)\n      tag_31\n      swap2\n      swap1\n      tag_32\n      jump\t// in\n    tag_31:\n      mload(0x40)\n      dup1\n      swap2\n      sub\n      swap1\n      return\n        /* \"@openzeppelin/contracts/token/ERC20/ERC20.sol\":4431:4628  function approve(address spender, uint256 amount) public virtual override returns (bool) {... */\n    tag_4:\n      tag_33\n      0x04\n      dup1\n      calldatasize\n      sub\n      dup2\n      add\n      swap1\n      tag_34\n      swap2\n      swap1\n      tag_35\n      jump\t// in\n    tag_34:\n      tag_36\n      jump\t// in\n    tag_33:\n      mload(0x40)\n      tag_37\n      swap2\n      swap1\n      tag_38\n      jump\t// in\n    tag_37:\n      mload(0x40)\n      dup1\n      swap2\n      sub\n      swap1\n      return\n        /* \"@openzeppelin/contracts/token/ERC20/ERC20.sol\":3242:3348  function totalSupply() public view virtual override returns (uint256) {... */\n    tag_5:\n      tag_39\n      tag_40\n      jump\t// in\n    tag_39:\n      mload(0x40)\n      tag_41\n      swap2\n      swap1\n      tag_42\n      jump\t// in\n    tag_41:\n      mload(0x40)\n      dup1\n      swap2\n      sub\n      swap1\n      return\n        /* \"@openzeppelin/contracts/token/ERC20/ERC20.sol\":5190:5476  function transferFrom(... */\n    tag_6:\n      tag_43\n      0x04\n      dup1\n      calldatasize\n      sub\n      dup2\n      add\n      swap1\n      tag_44\n      swap2\n      swap1\n      tag_45\n      jump\t// in\n    tag_44:\n      tag_46\n      jump\t// in\n    tag_43:\n      mload(0x40)\n      tag_47\n      swap2\n      swap1\n      tag_38\n      jump\t// in\n    tag_47:\n      mload(0x40)\n      dup1\n      swap2\n      sub\n      swap1\n      return\n        /* \"@openzeppelin/contracts/token/ERC20/ERC20.sol\":3091:3182  function decimals() public view virtual override returns (uint8) {... */\n    tag_7:\n      tag_48\n      tag_49\n      jump\t// in\n    tag_48:\n      mload(0x40)\n      tag_50\n      swap2\n      swap1\n      tag_51\n      jump\t// in\n    tag_50:\n      mload(0x40)\n      dup1\n      swap2\n      sub\n      swap1\n      return\n        /* \"contracts/DegenToken.sol\":1367:1668  function redeemDogenToken(uint256  itemsId) public {... */\n    tag_8:\n      tag_52\n      0x04\n      dup1\n      calldatasize\n      sub\n      dup2\n      add\n      swap1\n      tag_53\n      swap2\n      swap1\n      tag_54\n      jump\t// in\n    tag_53:\n      tag_55\n      jump\t// in\n    tag_52:\n      stop\n        /* \"@openzeppelin/contracts/token/ERC20/ERC20.sol\":5871:6105  function increaseAllowance(address spender, uint256 addedValue) public virtual returns (bool) {... */\n    tag_9:\n      tag_56\n      0x04\n      dup1\n      calldatasize\n      sub\n      dup2\n      add\n      swap1\n      tag_57\n      swap2\n      swap1\n      tag_35\n      jump\t// in\n    tag_57:\n      tag_58\n      jump\t// in\n    tag_56:\n      mload(0x40)\n      tag_59\n      swap2\n      swap1\n      tag_38\n      jump\t// in\n    tag_59:\n      mload(0x40)\n      dup1\n      swap2\n      sub\n      swap1\n      return\n        /* \"contracts/DegenToken.sol\":807:904  function mint(address to, uint256 amount) public onlyOwner {... */\n    tag_10:\n      tag_60\n      0x04\n      dup1\n      calldatasize\n      sub\n      dup2\n      add\n      swap1\n      tag_61\n      swap2\n      swap1\n      tag_35\n      jump\t// in\n    tag_61:\n      tag_62\n      jump\t// in\n    tag_60:\n      stop\n        /* \"contracts/DegenToken.sol\":1115:1362  function trasnferToken(address recipient, uint256 amount ) external {... */\n    tag_11:\n      tag_63\n      0x04\n      dup1\n      calldatasize\n      sub\n      dup2\n      add\n      swap1\n      tag_64\n      swap2\n      swap1\n      tag_35\n      jump\t// in\n    tag_64:\n      tag_65\n      jump\t// in\n    tag_63:\n      stop\n        /* \"contracts/DegenToken.sol\":213:256  mapping(uint256 =>  StoreItem) public store */\n    tag_12:\n      tag_66\n      0x04\n      dup1\n      calldatasize\n      sub\n      dup2\n      add\n      swap1\n      tag_67\n      swap2\n      swap1\n      tag_54\n      jump\t// in\n    tag_67:\n      tag_68\n      jump\t// in\n    tag_66:\n      mload(0x40)\n      tag_69\n      swap3\n      swap2\n      swap1\n      tag_70\n      jump\t// in\n    tag_69:\n      mload(0x40)\n      dup1\n      swap2\n      sub\n      swap1\n      return\n        /* \"@openzeppelin/contracts/token/ERC20/ERC20.sol\":3406:3531  function balanceOf(address account) public view virtual override returns (uint256) {... */\n    tag_13:\n      tag_71\n      0x04\n      dup1\n      calldatasize\n      sub\n      dup2\n      add\n      swap1\n      tag_72\n      swap2\n      swap1\n      tag_73\n      jump\t// in\n    tag_72:\n      tag_74\n      jump\t// in\n    tag_71:\n      mload(0x40)\n      tag_75\n      swap2\n      swap1\n      tag_42\n      jump\t// in\n    tag_75:\n      mload(0x40)\n      dup1\n      swap2\n      sub\n      swap1\n      return\n        /* \"@openzeppelin/contracts/access/Ownable.sol\":1831:1932  function renounceOwnership() public virtual onlyOwner {... */\n    tag_14:\n      tag_76\n      tag_77\n      jump\t// in\n    tag_76:\n      stop\n        /* \"contracts/DegenToken.sol\":911:1024  function mintToken(address recipient, uint256 amount) public onlyOwner {... */\n    tag_15:\n      tag_78\n      0x04\n      dup1\n      calldatasize\n      sub\n      dup2\n      add\n      swap1\n      tag_79\n      swap2\n      swap1\n      tag_35\n      jump\t// in\n    tag_79:\n      tag_80\n      jump\t// in\n    tag_78:\n      stop\n        /* \"contracts/DegenToken.sol\":1030:1109  function burnToken(uint amount)public{... */\n    tag_16:\n      tag_81\n      0x04\n      dup1\n      calldatasize\n      sub\n      dup2\n      add\n      swap1\n      tag_82\n      swap2\n      swap1\n      tag_54\n      jump\t// in\n    tag_82:\n      tag_83\n      jump\t// in\n    tag_81:\n      stop\n        /* \"contracts/DegenToken.sol\":509:797  function createStoreItem(string memory itemName, uint256 amount) external {... */\n    tag_17:\n      tag_84\n      0x04\n      dup1\n      calldatasize\n      sub\n      dup2\n      add\n      swap1\n      tag_85\n      swap2\n      swap1\n      tag_86\n      jump\t// in\n    tag_85:\n      tag_87\n      jump\t// in\n    tag_84:\n      stop\n        /* \"@openzeppelin/contracts/access/Ownable.sol\":1201:1286  function owner() public view virtual returns (address) {... */\n    tag_18:\n      tag_88\n      tag_89\n      jump\t// in\n    tag_88:\n      mload(0x40)\n      tag_90\n      swap2\n      swap1\n      tag_91\n      jump\t// in\n    tag_90:\n      mload(0x40)\n      dup1\n      swap2\n      sub\n      swap1\n      return\n        /* \"@openzeppelin/contracts/token/ERC20/ERC20.sol\":2365:2467  function symbol() public view virtual override returns (string memory) {... */\n    tag_19:\n      tag_92\n      tag_93\n      jump\t// in\n    tag_92:\n      mload(0x40)\n      tag_94\n      swap2\n      swap1\n      tag_32\n      jump\t// in\n    tag_94:\n      mload(0x40)\n      dup1\n      swap2\n      sub\n      swap1\n      return\n        /* \"contracts/DegenToken.sol\":262:314  mapping (address => StoreItem) public redeemedAwards */\n    tag_20:\n      tag_95\n      0x04\n      dup1\n      calldatasize\n      sub\n      dup2\n      add\n      swap1\n      tag_96\n      swap2\n      swap1\n      tag_73\n      jump\t// in\n    tag_96:\n      tag_97\n      jump\t// in\n    tag_95:\n      mload(0x40)\n      tag_98\n      swap3\n      swap2\n      swap1\n      tag_70\n      jump\t// in\n    tag_98:\n      mload(0x40)\n      dup1\n      swap2\n      sub\n      swap1\n      return\n        /* \"@openzeppelin/contracts/token/ERC20/ERC20.sol\":6592:7019  function decreaseAllowance(address spender, uint256 subtractedValue) public virtual returns (bool) {... */\n    tag_21:\n      tag_99\n      0x04\n      dup1\n      calldatasize\n      sub\n      dup2\n      add\n      swap1\n      tag_100\n      swap2\n      swap1\n      tag_35\n      jump\t// in\n    tag_100:\n      tag_101\n      jump\t// in\n    tag_99:\n      mload(0x40)\n      tag_102\n      swap2\n      swap1\n      tag_38\n      jump\t// in\n    tag_102:\n      mload(0x40)\n      dup1\n      swap2\n      sub\n      swap1\n      return\n        /* \"@openzeppelin/contracts/token/ERC20/ERC20.sol\":3727:3916  function transfer(address to, uint256 amount) public virtual override returns (bool) {... */\n    tag_22:\n      tag_103\n      0x04\n      dup1\n      calldatasize\n      sub\n      dup2\n      add\n      swap1\n      tag_104\n      swap2\n      swap1\n      tag_35\n      jump\t// in\n    tag_104:\n      tag_105\n      jump\t// in\n    tag_103:\n      mload(0x40)\n      tag_106\n      swap2\n      swap1\n      tag_38\n      jump\t// in\n    tag_106:\n      mload(0x40)\n      dup1\n      swap2\n      sub\n      swap1\n      return\n        /* \"@openzeppelin/contracts/token/ERC20/ERC20.sol\":3974:4123  function allowance(address owner, address spender) public view virtual override returns (uint256) {... */\n    tag_23:\n      tag_107\n      0x04\n      dup1\n      calldatasize\n      sub\n      dup2\n      add\n      swap1\n      tag_108\n      swap2\n      swap1\n      tag_109\n      jump\t// in\n    tag_108:\n      tag_110\n      jump\t// in\n    tag_107:\n      mload(0x40)\n      tag_111\n      swap2\n      swap1\n      tag_42\n      jump\t// in\n    tag_111:\n      mload(0x40)\n      dup1\n      swap2\n      sub\n      swap1\n      return\n        /* \"contracts/DegenToken.sol\":1674:1774  function viewStoreItems() external view returns (StoreItem[] memory) {... */\n    tag_24:\n      tag_112\n      tag_113\n      jump\t// in\n    tag_112:\n      mload(0x40)\n      tag_114\n      swap2\n      swap1\n      tag_115\n      jump\t// in\n    tag_114:\n      mload(0x40)\n      dup1\n      swap2\n      sub\n      swap1\n      return\n        /* \"@openzeppelin/contracts/access/Ownable.sol\":2081:2279  function transferOwnership(address newOwner) public virtual onlyOwner {... */\n    tag_25:\n      tag_116\n      0x04\n      dup1\n      calldatasize\n      sub\n      dup2\n      add\n      swap1\n      tag_117\n      swap2\n      swap1\n      tag_73\n      jump\t// in\n    tag_117:\n      tag_118\n      jump\t// in\n    tag_116:\n      stop\n        /* \"@openzeppelin/contracts/token/ERC20/ERC20.sol\":2154:2252  function name() public view virtual override returns (string memory) {... */\n    tag_30:\n        /* \"@openzeppelin/contracts/token/ERC20/ERC20.sol\":2208:2221  string memory */\n      0x60\n        /* \"@openzeppelin/contracts/token/ERC20/ERC20.sol\":2240:2245  _name */\n      0x03\n        /* \"@openzeppelin/contracts/token/ERC20/ERC20.sol\":2233:2245  return _name */\n      dup1\n      sload\n      tag_120\n      swap1\n      tag_121\n      jump\t// in\n    tag_120:\n      dup1\n      0x1f\n      add\n      0x20\n      dup1\n      swap2\n      div\n      mul\n      0x20\n      add\n      mload(0x40)\n      swap1\n      dup2\n      add\n      0x40\n      mstore\n      dup1\n      swap3\n      swap2\n      swap1\n      dup2\n      dup2\n      mstore\n      0x20\n      add\n      dup3\n      dup1\n      sload\n      tag_122\n      swap1\n      tag_121\n      jump\t// in\n    tag_122:\n      dup1\n      iszero\n      tag_123\n      jumpi\n      dup1\n      0x1f\n      lt\n      tag_124\n      jumpi\n      0x0100\n      dup1\n      dup4\n      sload\n      div\n      mul\n      dup4\n      mstore\n      swap2\n      0x20\n      add\n      swap2\n      jump(tag_123)\n    tag_124:\n      dup3\n      add\n      swap2\n      swap1\n      0x00\n      mstore\n      keccak256(0x00, 0x20)\n      swap1\n    tag_125:\n      dup2\n      sload\n      dup2\n      mstore\n      swap1\n      0x01\n      add\n      swap1\n      0x20\n      add\n      dup1\n      dup4\n      gt\n      tag_125\n      jumpi\n      dup3\n      swap1\n      sub\n      0x1f\n      and\n      dup3\n      add\n      swap2\n    tag_123:\n      pop\n      pop\n      pop\n      pop\n      pop\n      swap1\n      pop\n        /* \"@openzeppelin/contracts/token/ERC20/ERC20.sol\":2154:2252  function name() public view virtual override returns (string memory) {... */\n      swap1\n      jump\t// out\n        /* \"@openzeppelin/contracts/token/ERC20/ERC20.sol\":4431:4628  function approve(address spender, uint256 amount) public virtual override returns (bool) {... */\n    tag_36:\n        /* \"@openzeppelin/contracts/token/ERC20/ERC20.sol\":4514:4518  bool */\n      0x00\n        /* \"@openzeppelin/contracts/token/ERC20/ERC20.sol\":4530:4543  address owner */\n      dup1\n        /* \"@openzeppelin/contracts/token/ERC20/ERC20.sol\":4546:4558  _msgSender() */\n      tag_127\n        /* \"@openzeppelin/contracts/token/ERC20/ERC20.sol\":4546:4556  _msgSender */\n      tag_128\n        /* \"@openzeppelin/contracts/token/ERC20/ERC20.sol\":4546:4558  _msgSender() */\n      jump\t// in\n    tag_127:\n        /* \"@openzeppelin/contracts/token/ERC20/ERC20.sol\":4530:4558  address owner = _msgSender() */\n      swap1\n      pop\n        /* \"@openzeppelin/contracts/token/ERC20/ERC20.sol\":4568:4600  _approve(owner, spender, amount) */\n      tag_129\n        /* \"@openzeppelin/contracts/token/ERC20/ERC20.sol\":4577:4582  owner */\n      dup2\n        /* \"@openzeppelin/contracts/token/ERC20/ERC20.sol\":4584:4591  spender */\n      dup6\n        /* \"@openzeppelin/contracts/token/ERC20/ERC20.sol\":4593:4599  amount */\n      dup6\n        /* \"@openzeppelin/contracts/token/ERC20/ERC20.sol\":4568:4576  _approve */\n      tag_130\n        /* \"@openzeppelin/contracts/token/ERC20/ERC20.sol\":4568:4600  _approve(owner, spender, amount) */\n      jump\t// in\n    tag_129:\n        /* \"@openzeppelin/contracts/token/ERC20/ERC20.sol\":4617:4621  true */\n      0x01\n        /* \"@openzeppelin/contracts/token/ERC20/ERC20.sol\":4610:4621  return true */\n      swap2\n      pop\n      pop\n        /* \"@openzeppelin/contracts/token/ERC20/ERC20.sol\":4431:4628  function approve(address spender, uint256 amount) public virtual override returns (bool) {... */\n      swap3\n      swap2\n      pop\n      pop\n      jump\t// out\n        /* \"@openzeppelin/contracts/token/ERC20/ERC20.sol\":3242:3348  function totalSupply() public view virtual override returns (uint256) {... */\n    tag_40:\n        /* \"@openzeppelin/contracts/token/ERC20/ERC20.sol\":3303:3310  uint256 */\n      0x00\n        /* \"@openzeppelin/contracts/token/ERC20/ERC20.sol\":3329:3341  _totalSupply */\n      sload(0x02)\n        /* \"@openzeppelin/contracts/token/ERC20/ERC20.sol\":3322:3341  return _totalSupply */\n      swap1\n      pop\n        /* \"@openzeppelin/contracts/token/ERC20/ERC20.sol\":3242:3348  function totalSupply() public view virtual override returns (uint256) {... */\n      swap1\n      jump\t// out\n        /* \"@openzeppelin/contracts/token/ERC20/ERC20.sol\":5190:5476  function transferFrom(... */\n    tag_46:\n        /* \"@openzeppelin/contracts/token/ERC20/ERC20.sol\":5317:5321  bool */\n      0x00\n        /* \"@openzeppelin/contracts/token/ERC20/ERC20.sol\":5333:5348  address spender */\n      dup1\n        /* \"@openzeppelin/contracts/token/ERC20/ERC20.sol\":5351:5363  _msgSender() */\n      tag_133\n        /* \"@openzeppelin/contracts/token/ERC20/ERC20.sol\":5351:5361  _msgSender */\n      tag_128\n        /* \"@openzeppelin/contracts/token/ERC20/ERC20.sol\":5351:5363  _msgSender() */\n      jump\t// in\n    tag_133:\n        /* \"@openzeppelin/contracts/token/ERC20/ERC20.sol\":5333:5363  address spender = _msgSender() */\n      swap1\n      pop\n        /* \"@openzeppelin/contracts/token/ERC20/ERC20.sol\":5373:5411  _spendAllowance(from, spender, amount) */\n      tag_134\n        /* \"@openzeppelin/contracts/token/ERC20/ERC20.sol\":5389:5393  from */\n      dup6\n        /* \"@openzeppelin/contracts/token/ERC20/ERC20.sol\":5395:5402  spender */\n      dup3\n        /* \"@openzeppelin/contracts/token/ERC20/ERC20.sol\":5404:5410  amount */\n      dup6\n        /* \"@openzeppelin/contracts/token/ERC20/ERC20.sol\":5373:5388  _spendAllowance */\n      tag_135\n        /* \"@openzeppelin/contracts/token/ERC20/ERC20.sol\":5373:5411  _spendAllowance(from, spender, amount) */\n      jump\t// in\n    tag_134:\n        /* \"@openzeppelin/contracts/token/ERC20/ERC20.sol\":5421:5448  _transfer(from, to, amount) */\n      tag_136\n        /* \"@openzeppelin/contracts/token/ERC20/ERC20.sol\":5431:5435  from */\n      dup6\n        /* \"@openzeppelin/contracts/token/ERC20/ERC20.sol\":5437:5439  to */\n      dup6\n        /* \"@openzeppelin/contracts/token/ERC20/ERC20.sol\":5441:5447  amount */\n      dup6\n        /* \"@openzeppelin/contracts/token/ERC20/ERC20.sol\":5421:5430  _transfer */\n      tag_137\n        /* \"@openzeppelin/contracts/token/ERC20/ERC20.sol\":5421:5448  _transfer(from, to, amount) */\n      jump\t// in\n    tag_136:\n        /* \"@openzeppelin/contracts/token/ERC20/ERC20.sol\":5465:5469  true */\n      0x01\n        /* \"@openzeppelin/contracts/token/ERC20/ERC20.sol\":5458:5469  return true */\n      swap2\n      pop\n      pop\n        /* \"@openzeppelin/contracts/token/ERC20/ERC20.sol\":5190:5476  function transferFrom(... */\n      swap4\n      swap3\n      pop\n      pop\n      pop\n      jump\t// out\n        /* \"@openzeppelin/contracts/token/ERC20/ERC20.sol\":3091:3182  function decimals() public view virtual override returns (uint8) {... */\n    tag_49:\n        /* \"@openzeppelin/contracts/token/ERC20/ERC20.sol\":3149:3154  uint8 */\n      0x00\n        /* \"@openzeppelin/contracts/token/ERC20/ERC20.sol\":3173:3175  18 */\n      0x12\n        /* \"@openzeppelin/contracts/token/ERC20/ERC20.sol\":3166:3175  return 18 */\n      swap1\n      pop\n        /* \"@openzeppelin/contracts/token/ERC20/ERC20.sol\":3091:3182  function decimals() public view virtual override returns (uint8) {... */\n      swap1\n      jump\t// out\n        /* \"contracts/DegenToken.sol\":1367:1668  function redeemDogenToken(uint256  itemsId) public {... */\n    tag_55:\n        /* \"contracts/DegenToken.sol\":1436:1454  uint256 itemsValue */\n      0x00\n        /* \"contracts/DegenToken.sol\":1457:1462  store */\n      0x06\n        /* \"contracts/DegenToken.sol\":1457:1471  store[itemsId] */\n      0x00\n        /* \"contracts/DegenToken.sol\":1463:1470  itemsId */\n      dup4\n        /* \"contracts/DegenToken.sol\":1457:1471  store[itemsId] */\n      dup2\n      mstore\n      0x20\n      add\n      swap1\n      dup2\n      mstore\n      0x20\n      add\n      0x00\n      keccak256\n        /* \"contracts/DegenToken.sol\":1457:1481  store[itemsId].itemPrice */\n      0x01\n      add\n      sload\n        /* \"contracts/DegenToken.sol\":1436:1481  uint256 itemsValue = store[itemsId].itemPrice */\n      swap1\n      pop\n        /* \"contracts/DegenToken.sol\":1511:1532  balanceOf(msg.sender) */\n      tag_140\n        /* \"contracts/DegenToken.sol\":1521:1531  msg.sender */\n      caller\n        /* \"contracts/DegenToken.sol\":1511:1520  balanceOf */\n      tag_74\n        /* \"contracts/DegenToken.sol\":1511:1532  balanceOf(msg.sender) */\n      jump\t// in\n    tag_140:\n        /* \"contracts/DegenToken.sol\":1498:1508  itemsValue */\n      dup2\n        /* \"contracts/DegenToken.sol\":1498:1532  itemsValue < balanceOf(msg.sender) */\n      lt\n        /* \"contracts/DegenToken.sol\":1490:1578  require(itemsValue < balanceOf(msg.sender), \"Insufficient balance to redeem this token\") */\n      tag_141\n      jumpi\n      mload(0x40)\n      0x08c379a000000000000000000000000000000000000000000000000000000000\n      dup2\n      mstore\n      0x04\n      add\n      tag_142\n      swap1\n      tag_143\n      jump\t// in\n    tag_142:\n      mload(0x40)\n      dup1\n      swap2\n      sub\n      swap1\n      revert\n    tag_141:\n        /* \"contracts/DegenToken.sol\":1587:1608  burnToken(itemsValue) */\n      tag_144\n        /* \"contracts/DegenToken.sol\":1597:1607  itemsValue */\n      dup2\n        /* \"contracts/DegenToken.sol\":1587:1596  burnToken */\n      tag_83\n        /* \"contracts/DegenToken.sol\":1587:1608  burnToken(itemsValue) */\n      jump\t// in\n    tag_144:\n        /* \"contracts/DegenToken.sol\":1418:1668  {... */\n      pop\n        /* \"contracts/DegenToken.sol\":1367:1668  function redeemDogenToken(uint256  itemsId) public {... */\n      pop\n      jump\t// out\n        /* \"@openzeppelin/contracts/token/ERC20/ERC20.sol\":5871:6105  function increaseAllowance(address spender, uint256 addedValue) public virtual returns (bool) {... */\n    tag_58:\n        /* \"@openzeppelin/contracts/token/ERC20/ERC20.sol\":5959:5963  bool */\n      0x00\n        /* \"@openzeppelin/contracts/token/ERC20/ERC20.sol\":5975:5988  address owner */\n      dup1\n        /* \"@openzeppelin/contracts/token/ERC20/ERC20.sol\":5991:6003  _msgSender() */\n      tag_146\n        /* \"@openzeppelin/contracts/token/ERC20/ERC20.sol\":5991:6001  _msgSender */\n      tag_128\n        /* \"@openzeppelin/contracts/token/ERC20/ERC20.sol\":5991:6003  _msgSender() */\n      jump\t// in\n    tag_146:\n        /* \"@openzeppelin/contracts/token/ERC20/ERC20.sol\":5975:6003  address owner = _msgSender() */\n      swap1\n      pop\n        /* \"@openzeppelin/contracts/token/ERC20/ERC20.sol\":6013:6077  _approve(owner, spender, allowance(owner, spender) + addedValue) */\n      tag_147\n        /* \"@openzeppelin/contracts/token/ERC20/ERC20.sol\":6022:6027  owner */\n      dup2\n        /* \"@openzeppelin/contracts/token/ERC20/ERC20.sol\":6029:6036  spender */\n      dup6\n        /* \"@openzeppelin/contracts/token/ERC20/ERC20.sol\":6066:6076  addedValue */\n      dup6\n        /* \"@openzeppelin/contracts/token/ERC20/ERC20.sol\":6038:6063  allowance(owner, spender) */\n      tag_148\n        /* \"@openzeppelin/contracts/token/ERC20/ERC20.sol\":6048:6053  owner */\n      dup6\n        /* \"@openzeppelin/contracts/token/ERC20/ERC20.sol\":6055:6062  spender */\n      dup10\n        /* \"@openzeppelin/contracts/token/ERC20/ERC20.sol\":6038:6047  allowance */\n      tag_110\n        /* \"@openzeppelin/contracts/token/ERC20/ERC20.sol\":6038:6063  allowance(owner, spender) */\n      jump\t// in\n    tag_148:\n        /* \"@openzeppelin/contracts/token/ERC20/ERC20.sol\":6038:6076  allowance(owner, spender) + addedValue */\n      tag_149\n      swap2\n      swap1\n      tag_150\n      jump\t// in\n    tag_149:\n        /* \"@openzeppelin/contracts/token/ERC20/ERC20.sol\":6013:6021  _approve */\n      tag_130\n        /* \"@openzeppelin/contracts/token/ERC20/ERC20.sol\":6013:6077  _approve(owner, spender, allowance(owner, spender) + addedValue) */\n      jump\t// in\n    tag_147:\n        /* \"@openzeppelin/contracts/token/ERC20/ERC20.sol\":6094:6098  true */\n      0x01\n        /* \"@openzeppelin/contracts/token/ERC20/ERC20.sol\":6087:6098  return true */\n      swap2\n      pop\n      pop\n        /* \"@openzeppelin/contracts/token/ERC20/ERC20.sol\":5871:6105  function increaseAllowance(address spender, uint256 addedValue) public virtual returns (bool) {... */\n      swap3\n      swap2\n      pop\n      pop\n      jump\t// out\n        /* \"contracts/DegenToken.sol\":807:904  function mint(address to, uint256 amount) public onlyOwner {... */\n    tag_62:\n        /* \"@openzeppelin/contracts/access/Ownable.sol\":1094:1107  _checkOwner() */\n      tag_152\n        /* \"@openzeppelin/contracts/access/Ownable.sol\":1094:1105  _checkOwner */\n      tag_153\n        /* \"@openzeppelin/contracts/access/Ownable.sol\":1094:1107  _checkOwner() */\n      jump\t// in\n    tag_152:\n        /* \"contracts/DegenToken.sol\":880:897  _mint(to, amount) */\n      tag_155\n        /* \"contracts/DegenToken.sol\":886:888  to */\n      dup3\n        /* \"contracts/DegenToken.sol\":890:896  amount */\n      dup3\n        /* \"contracts/DegenToken.sol\":880:885  _mint */\n      tag_156\n        /* \"contracts/DegenToken.sol\":880:897  _mint(to, amount) */\n      jump\t// in\n    tag_155:\n        /* \"contracts/DegenToken.sol\":807:904  function mint(address to, uint256 amount) public onlyOwner {... */\n      pop\n      pop\n      jump\t// out\n        /* \"contracts/DegenToken.sol\":1115:1362  function trasnferToken(address recipient, uint256 amount ) external {... */\n    tag_65:\n        /* \"contracts/DegenToken.sol\":1211:1232  balanceOf(msg.sender) */\n      tag_158\n        /* \"contracts/DegenToken.sol\":1221:1231  msg.sender */\n      caller\n        /* \"contracts/DegenToken.sol\":1211:1220  balanceOf */\n      tag_74\n        /* \"contracts/DegenToken.sol\":1211:1232  balanceOf(msg.sender) */\n      jump\t// in\n    tag_158:\n        /* \"contracts/DegenToken.sol\":1201:1207  amount */\n      dup2\n        /* \"contracts/DegenToken.sol\":1201:1232  amount <= balanceOf(msg.sender) */\n      gt\n      iszero\n        /* \"contracts/DegenToken.sol\":1193:1258  require(amount <= balanceOf(msg.sender),\"Insufficient balance \" ) */\n      tag_159\n      jumpi\n      mload(0x40)\n      0x08c379a000000000000000000000000000000000000000000000000000000000\n      dup2\n      mstore\n      0x04\n      add\n      tag_160\n      swap1\n      tag_161\n      jump\t// in\n    tag_160:\n      mload(0x40)\n      dup1\n      swap2\n      sub\n      swap1\n      revert\n    tag_159:\n        /* \"contracts/DegenToken.sol\":1268:1295  approve(msg.sender, amount) */\n      tag_162\n        /* \"contracts/DegenToken.sol\":1276:1286  msg.sender */\n      caller\n        /* \"contracts/DegenToken.sol\":1288:1294  amount */\n      dup3\n        /* \"contracts/DegenToken.sol\":1268:1275  approve */\n      tag_36\n        /* \"contracts/DegenToken.sol\":1268:1295  approve(msg.sender, amount) */\n      jump\t// in\n    tag_162:\n      pop\n        /* \"contracts/DegenToken.sol\":1305:1348  transferFrom(msg.sender, recipient, amount) */\n      tag_163\n        /* \"contracts/DegenToken.sol\":1318:1328  msg.sender */\n      caller\n        /* \"contracts/DegenToken.sol\":1330:1339  recipient */\n      dup4\n        /* \"contracts/DegenToken.sol\":1341:1347  amount */\n      dup4\n        /* \"contracts/DegenToken.sol\":1305:1317  transferFrom */\n      tag_46\n        /* \"contracts/DegenToken.sol\":1305:1348  transferFrom(msg.sender, recipient, amount) */\n      jump\t// in\n    tag_163:\n      pop\n        /* \"contracts/DegenToken.sol\":1115:1362  function trasnferToken(address recipient, uint256 amount ) external {... */\n      pop\n      pop\n      jump\t// out\n        /* \"contracts/DegenToken.sol\":213:256  mapping(uint256 =>  StoreItem) public store */\n    tag_68:\n      mstore(0x20, 0x06)\n      dup1\n      0x00\n      mstore\n      keccak256(0x00, 0x40)\n      0x00\n      swap2\n      pop\n      swap1\n      pop\n      dup1\n      0x00\n      add\n      dup1\n      sload\n      tag_164\n      swap1\n      tag_121\n      jump\t// in\n    tag_164:\n      dup1\n      0x1f\n      add\n      0x20\n      dup1\n      swap2\n      div\n      mul\n      0x20\n      add\n      mload(0x40)\n      swap1\n      dup2\n      add\n      0x40\n      mstore\n      dup1\n      swap3\n      swap2\n      swap1\n      dup2\n      dup2\n      mstore\n      0x20\n      add\n      dup3\n      dup1\n      sload\n      tag_165\n      swap1\n      tag_121\n      jump\t// in\n    tag_165:\n      dup1\n      iszero\n      tag_166\n      jumpi\n      dup1\n      0x1f\n      lt\n      tag_167\n      jumpi\n      0x0100\n      dup1\n      dup4\n      sload\n      div\n      mul\n      dup4\n      mstore\n      swap2\n      0x20\n      add\n      swap2\n      jump(tag_166)\n    tag_167:\n      dup3\n      add\n      swap2\n      swap1\n      0x00\n      mstore\n      keccak256(0x00, 0x20)\n      swap1\n    tag_168:\n      dup2\n      sload\n      dup2\n      mstore\n      swap1\n      0x01\n      add\n      swap1\n      0x20\n      add\n      dup1\n      dup4\n      gt\n      tag_168\n      jumpi\n      dup3\n      swap1\n      sub\n      0x1f\n      and\n      dup3\n      add\n      swap2\n    tag_166:\n      pop\n      pop\n      pop\n      pop\n      pop\n      swap1\n      dup1\n      0x01\n      add\n      sload\n      swap1\n      pop\n      dup3\n      jump\t// out\n        /* \"@openzeppelin/contracts/token/ERC20/ERC20.sol\":3406:3531  function balanceOf(address account) public view virtual override returns (uint256) {... */\n    tag_74:\n        /* \"@openzeppelin/contracts/token/ERC20/ERC20.sol\":3480:3487  uint256 */\n      0x00\n        /* \"@openzeppelin/contracts/token/ERC20/ERC20.sol\":3506:3515  _balances */\n      dup1\n        /* \"@openzeppelin/contracts/token/ERC20/ERC20.sol\":3506:3524  _balances[account] */\n      0x00\n        /* \"@openzeppelin/contracts/token/ERC20/ERC20.sol\":3516:3523  account */\n      dup4\n        /* \"@openzeppelin/contracts/token/ERC20/ERC20.sol\":3506:3524  _balances[account] */\n      0xffffffffffffffffffffffffffffffffffffffff\n      and\n      0xffffffffffffffffffffffffffffffffffffffff\n      and\n      dup2\n      mstore\n      0x20\n      add\n      swap1\n      dup2\n      mstore\n      0x20\n      add\n      0x00\n      keccak256\n      sload\n        /* \"@openzeppelin/contracts/token/ERC20/ERC20.sol\":3499:3524  return _balances[account] */\n      swap1\n      pop\n        /* \"@openzeppelin/contracts/token/ERC20/ERC20.sol\":3406:3531  function balanceOf(address account) public view virtual override returns (uint256) {... */\n      swap2\n      swap1\n      pop\n      jump\t// out\n        /* \"@openzeppelin/contracts/access/Ownable.sol\":1831:1932  function renounceOwnership() public virtual onlyOwner {... */\n    tag_77:\n        /* \"@openzeppelin/contracts/access/Ownable.sol\":1094:1107  _checkOwner() */\n      tag_171\n        /* \"@openzeppelin/contracts/access/Ownable.sol\":1094:1105  _checkOwner */\n      tag_153\n        /* \"@openzeppelin/contracts/access/Ownable.sol\":1094:1107  _checkOwner() */\n      jump\t// in\n    tag_171:\n        /* \"@openzeppelin/contracts/access/Ownable.sol\":1895:1925  _transferOwnership(address(0)) */\n      tag_173\n        /* \"@openzeppelin/contracts/access/Ownable.sol\":1922:1923  0 */\n      0x00\n        /* \"@openzeppelin/contracts/access/Ownable.sol\":1895:1913  _transferOwnership */\n      tag_174\n        /* \"@openzeppelin/contracts/access/Ownable.sol\":1895:1925  _transferOwnership(address(0)) */\n      jump\t// in\n    tag_173:\n        /* \"@openzeppelin/contracts/access/Ownable.sol\":1831:1932  function renounceOwnership() public virtual onlyOwner {... */\n      jump\t// out\n        /* \"contracts/DegenToken.sol\":911:1024  function mintToken(address recipient, uint256 amount) public onlyOwner {... */\n    tag_80:\n        /* \"@openzeppelin/contracts/access/Ownable.sol\":1094:1107  _checkOwner() */\n      tag_176\n        /* \"@openzeppelin/contracts/access/Ownable.sol\":1094:1105  _checkOwner */\n      tag_153\n        /* \"@openzeppelin/contracts/access/Ownable.sol\":1094:1107  _checkOwner() */\n      jump\t// in\n    tag_176:\n        /* \"contracts/DegenToken.sol\":992:1016  _mint(recipient, amount) */\n      tag_178\n        /* \"contracts/DegenToken.sol\":998:1007  recipient */\n      dup3\n        /* \"contracts/DegenToken.sol\":1009:1015  amount */\n      dup3\n        /* \"contracts/DegenToken.sol\":992:997  _mint */\n      tag_156\n        /* \"contracts/DegenToken.sol\":992:1016  _mint(recipient, amount) */\n      jump\t// in\n    tag_178:\n        /* \"contracts/DegenToken.sol\":911:1024  function mintToken(address recipient, uint256 amount) public onlyOwner {... */\n      pop\n      pop\n      jump\t// out\n        /* \"contracts/DegenToken.sol\":1030:1109  function burnToken(uint amount)public{... */\n    tag_83:\n        /* \"contracts/DegenToken.sol\":1077:1102  _burn(msg.sender, amount) */\n      tag_180\n        /* \"contracts/DegenToken.sol\":1083:1093  msg.sender */\n      caller\n        /* \"contracts/DegenToken.sol\":1095:1101  amount */\n      dup3\n        /* \"contracts/DegenToken.sol\":1077:1082  _burn */\n      tag_181\n        /* \"contracts/DegenToken.sol\":1077:1102  _burn(msg.sender, amount) */\n      jump\t// in\n    tag_180:\n        /* \"contracts/DegenToken.sol\":1030:1109  function burnToken(uint amount)public{... */\n      pop\n      jump\t// out\n        /* \"contracts/DegenToken.sol\":509:797  function createStoreItem(string memory itemName, uint256 amount) external {... */\n    tag_87:\n        /* \"contracts/DegenToken.sol\":611:612  1 */\n      0x01\n        /* \"contracts/DegenToken.sol\":601:608  storeId */\n      0x08\n      0x00\n        /* \"contracts/DegenToken.sol\":601:612  storeId +=1 */\n      dup3\n      dup3\n      sload\n      tag_183\n      swap2\n      swap1\n      tag_150\n      jump\t// in\n    tag_183:\n      swap3\n      pop\n      pop\n      dup2\n      swap1\n      sstore\n      pop\n        /* \"contracts/DegenToken.sol\":623:650  StoreItem storage storeitem */\n      0x00\n        /* \"contracts/DegenToken.sol\":653:658  store */\n      0x06\n        /* \"contracts/DegenToken.sol\":653:667  store[storeId] */\n      0x00\n        /* \"contracts/DegenToken.sol\":659:666  storeId */\n      sload(0x08)\n        /* \"contracts/DegenToken.sol\":653:667  store[storeId] */\n      dup2\n      mstore\n      0x20\n      add\n      swap1\n      dup2\n      mstore\n      0x20\n      add\n      0x00\n      keccak256\n        /* \"contracts/DegenToken.sol\":623:667  StoreItem storage storeitem = store[storeId] */\n      swap1\n      pop\n        /* \"contracts/DegenToken.sol\":698:706  itemName */\n      dup3\n        /* \"contracts/DegenToken.sol\":677:686  storeitem */\n      dup2\n        /* \"contracts/DegenToken.sol\":677:695  storeitem.itemName */\n      0x00\n      add\n        /* \"contracts/DegenToken.sol\":677:706  storeitem.itemName = itemName */\n      swap1\n      dup2\n      tag_184\n      swap2\n      swap1\n      tag_185\n      jump\t// in\n    tag_184:\n      pop\n        /* \"contracts/DegenToken.sol\":738:744  amount */\n      dup2\n        /* \"contracts/DegenToken.sol\":716:725  storeitem */\n      dup2\n        /* \"contracts/DegenToken.sol\":716:735  storeitem.itemPrice */\n      0x01\n      add\n        /* \"contracts/DegenToken.sol\":716:744  storeitem.itemPrice = amount */\n      dup2\n      swap1\n      sstore\n      pop\n        /* \"contracts/DegenToken.sol\":754:764  storeItems */\n      0x09\n        /* \"contracts/DegenToken.sol\":770:779  storeitem */\n      dup2\n        /* \"contracts/DegenToken.sol\":754:780  storeItems.push(storeitem) */\n      swap1\n      dup1\n      0x01\n      dup2\n      sload\n      add\n      dup1\n      dup3\n      sstore\n      dup1\n      swap2\n      pop\n      pop\n      0x01\n      swap1\n      sub\n      swap1\n      0x00\n      mstore\n      keccak256(0x00, 0x20)\n      swap1\n      0x02\n      mul\n      add\n      0x00\n      swap1\n      swap2\n      swap1\n      swap2\n      swap1\n      swap2\n      pop\n      0x00\n      dup3\n      add\n      dup2\n      0x00\n      add\n      swap1\n      dup2\n      tag_187\n      swap2\n      swap1\n      tag_188\n      jump\t// in\n    tag_187:\n      pop\n      0x01\n      dup3\n      add\n      sload\n      dup2\n      0x01\n      add\n      sstore\n      pop\n      pop\n        /* \"contracts/DegenToken.sol\":583:797  {... */\n      pop\n        /* \"contracts/DegenToken.sol\":509:797  function createStoreItem(string memory itemName, uint256 amount) external {... */\n      pop\n      pop\n      jump\t// out\n        /* \"@openzeppelin/contracts/access/Ownable.sol\":1201:1286  function owner() public view virtual returns (address) {... */\n    tag_89:\n        /* \"@openzeppelin/contracts/access/Ownable.sol\":1247:1254  address */\n      0x00\n        /* \"@openzeppelin/contracts/access/Ownable.sol\":1273:1279  _owner */\n      0x05\n      0x00\n      swap1\n      sload\n      swap1\n      0x0100\n      exp\n      swap1\n      div\n      0xffffffffffffffffffffffffffffffffffffffff\n      and\n        /* \"@openzeppelin/contracts/access/Ownable.sol\":1266:1279  return _owner */\n      swap1\n      pop\n        /* \"@openzeppelin/contracts/access/Ownable.sol\":1201:1286  function owner() public view virtual returns (address) {... */\n      swap1\n      jump\t// out\n        /* \"@openzeppelin/contracts/token/ERC20/ERC20.sol\":2365:2467  function symbol() public view virtual override returns (string memory) {... */\n    tag_93:\n        /* \"@openzeppelin/contracts/token/ERC20/ERC20.sol\":2421:2434  string memory */\n      0x60\n        /* \"@openzeppelin/contracts/token/ERC20/ERC20.sol\":2453:2460  _symbol */\n      0x04\n        /* \"@openzeppelin/contracts/token/ERC20/ERC20.sol\":2446:2460  return _symbol */\n      dup1\n      sload\n      tag_191\n      swap1\n      tag_121\n      jump\t// in\n    tag_191:\n      dup1\n      0x1f\n      add\n      0x20\n      dup1\n      swap2\n      div\n      mul\n      0x20\n      add\n      mload(0x40)\n      swap1\n      dup2\n      add\n      0x40\n      mstore\n      dup1\n      swap3\n      swap2\n      swap1\n      dup2\n      dup2\n      mstore\n      0x20\n      add\n      dup3\n      dup1\n      sload\n      tag_192\n      swap1\n      tag_121\n      jump\t// in\n    tag_192:\n      dup1\n      iszero\n      tag_193\n      jumpi\n      dup1\n      0x1f\n      lt\n      tag_194\n      jumpi\n      0x0100\n      dup1\n      dup4\n      sload\n      div\n      mul\n      dup4\n      mstore\n      swap2\n      0x20\n      add\n      swap2\n      jump(tag_193)\n    tag_194:\n      dup3\n      add\n      swap2\n      swap1\n      0x00\n      mstore\n      keccak256(0x00, 0x20)\n      swap1\n    tag_195:\n      dup2\n      sload\n      dup2\n      mstore\n      swap1\n      0x01\n      add\n      swap1\n      0x20\n      add\n      dup1\n      dup4\n      gt\n      tag_195\n      jumpi\n      dup3\n      swap1\n      sub\n      0x1f\n      and\n      dup3\n      add\n      swap2\n    tag_193:\n      pop\n      pop\n      pop\n      pop\n      pop\n      swap1\n      pop\n        /* \"@openzeppelin/contracts/token/ERC20/ERC20.sol\":2365:2467  function symbol() public view virtual override returns (string memory) {... */\n      swap1\n      jump\t// out\n        /* \"contracts/DegenToken.sol\":262:314  mapping (address => StoreItem) public redeemedAwards */\n    tag_97:\n      mstore(0x20, 0x07)\n      dup1\n      0x00\n      mstore\n      keccak256(0x00, 0x40)\n      0x00\n      swap2\n      pop\n      swap1\n      pop\n      dup1\n      0x00\n      add\n      dup1\n      sload\n      tag_196\n      swap1\n      tag_121\n      jump\t// in\n    tag_196:\n      dup1\n      0x1f\n      add\n      0x20\n      dup1\n      swap2\n      div\n      mul\n      0x20\n      add\n      mload(0x40)\n      swap1\n      dup2\n      add\n      0x40\n      mstore\n      dup1\n      swap3\n      swap2\n      swap1\n      dup2\n      dup2\n      mstore\n      0x20\n      add\n      dup3\n      dup1\n      sload\n      tag_197\n      swap1\n      tag_121\n      jump\t// in\n    tag_197:\n      dup1\n      iszero\n      tag_198\n      jumpi\n      dup1\n      0x1f\n      lt\n      tag_199\n      jumpi\n      0x0100\n      dup1\n      dup4\n      sload\n      div\n      mul\n      dup4\n      mstore\n      swap2\n      0x20\n      add\n      swap2\n      jump(tag_198)\n    tag_199:\n      dup3\n      add\n      swap2\n      swap1\n      0x00\n      mstore\n      keccak256(0x00, 0x20)\n      swap1\n    tag_200:\n      dup2\n      sload\n      dup2\n      mstore\n      swap1\n      0x01\n      add\n      swap1\n      0x20\n      add\n      dup1\n      dup4\n      gt\n      tag_200\n      jumpi\n      dup3\n      swap1\n      sub\n      0x1f\n      and\n      dup3\n      add\n      swap2\n    tag_198:\n      pop\n      pop\n      pop\n      pop\n      pop\n      swap1\n      dup1\n      0x01\n      add\n      sload\n      swap1\n      pop\n      dup3\n      jump\t// out\n        /* \"@openzeppelin/contracts/token/ERC20/ERC20.sol\":6592:7019  function decreaseAllowance(address spender, uint256 subtractedValue) public virtual returns (bool) {... */\n    tag_101:\n        /* \"@openzeppelin/contracts/token/ERC20/ERC20.sol\":6685:6689  bool */\n      0x00\n        /* \"@openzeppelin/contracts/token/ERC20/ERC20.sol\":6701:6714  address owner */\n      dup1\n        /* \"@openzeppelin/contracts/token/ERC20/ERC20.sol\":6717:6729  _msgSender() */\n      tag_202\n        /* \"@openzeppelin/contracts/token/ERC20/ERC20.sol\":6717:6727  _msgSender */\n      tag_128\n        /* \"@openzeppelin/contracts/token/ERC20/ERC20.sol\":6717:6729  _msgSender() */\n      jump\t// in\n    tag_202:\n        /* \"@openzeppelin/contracts/token/ERC20/ERC20.sol\":6701:6729  address owner = _msgSender() */\n      swap1\n      pop\n        /* \"@openzeppelin/contracts/token/ERC20/ERC20.sol\":6739:6763  uint256 currentAllowance */\n      0x00\n        /* \"@openzeppelin/contracts/token/ERC20/ERC20.sol\":6766:6791  allowance(owner, spender) */\n      tag_203\n        /* \"@openzeppelin/contracts/token/ERC20/ERC20.sol\":6776:6781  owner */\n      dup3\n        /* \"@openzeppelin/contracts/token/ERC20/ERC20.sol\":6783:6790  spender */\n      dup7\n        /* \"@openzeppelin/contracts/token/ERC20/ERC20.sol\":6766:6775  allowance */\n      tag_110\n        /* \"@openzeppelin/contracts/token/ERC20/ERC20.sol\":6766:6791  allowance(owner, spender) */\n      jump\t// in\n    tag_203:\n        /* \"@openzeppelin/contracts/token/ERC20/ERC20.sol\":6739:6791  uint256 currentAllowance = allowance(owner, spender) */\n      swap1\n      pop\n        /* \"@openzeppelin/contracts/token/ERC20/ERC20.sol\":6829:6844  subtractedValue */\n      dup4\n        /* \"@openzeppelin/contracts/token/ERC20/ERC20.sol\":6809:6825  currentAllowance */\n      dup2\n        /* \"@openzeppelin/contracts/token/ERC20/ERC20.sol\":6809:6844  currentAllowance >= subtractedValue */\n      lt\n      iszero\n        /* \"@openzeppelin/contracts/token/ERC20/ERC20.sol\":6801:6886  require(currentAllowance >= subtractedValue, \"ERC20: decreased allowance below zero\") */\n      tag_204\n      jumpi\n      mload(0x40)\n      0x08c379a000000000000000000000000000000000000000000000000000000000\n      dup2\n      mstore\n      0x04\n      add\n      tag_205\n      swap1\n      tag_206\n      jump\t// in\n    tag_205:\n      mload(0x40)\n      dup1\n      swap2\n      sub\n      swap1\n      revert\n    tag_204:\n        /* \"@openzeppelin/contracts/token/ERC20/ERC20.sol\":6920:6980  _approve(owner, spender, currentAllowance - subtractedValue) */\n      tag_207\n        /* \"@openzeppelin/contracts/token/ERC20/ERC20.sol\":6929:6934  owner */\n      dup3\n        /* \"@openzeppelin/contracts/token/ERC20/ERC20.sol\":6936:6943  spender */\n      dup7\n        /* \"@openzeppelin/contracts/token/ERC20/ERC20.sol\":6964:6979  subtractedValue */\n      dup7\n        /* \"@openzeppelin/contracts/token/ERC20/ERC20.sol\":6945:6961  currentAllowance */\n      dup5\n        /* \"@openzeppelin/contracts/token/ERC20/ERC20.sol\":6945:6979  currentAllowance - subtractedValue */\n      sub\n        /* \"@openzeppelin/contracts/token/ERC20/ERC20.sol\":6920:6928  _approve */\n      tag_130\n        /* \"@openzeppelin/contracts/token/ERC20/ERC20.sol\":6920:6980  _approve(owner, spender, currentAllowance - subtractedValue) */\n      jump\t// in\n    tag_207:\n        /* \"@openzeppelin/contracts/token/ERC20/ERC20.sol\":7008:7012  true */\n      0x01\n        /* \"@openzeppelin/contracts/token/ERC20/ERC20.sol\":7001:7012  return true */\n      swap3\n      pop\n      pop\n      pop\n        /* \"@openzeppelin/contracts/token/ERC20/ERC20.sol\":6592:7019  function decreaseAllowance(address spender, uint256 subtractedValue) public virtual returns (bool) {... */\n      swap3\n      swap2\n      pop\n      pop\n      jump\t// out\n        /* \"@openzeppelin/contracts/token/ERC20/ERC20.sol\":3727:3916  function transfer(address to, uint256 amount) public virtual override returns (bool) {... */\n    tag_105:\n        /* \"@openzeppelin/contracts/token/ERC20/ERC20.sol\":3806:3810  bool */\n      0x00\n        /* \"@openzeppelin/contracts/token/ERC20/ERC20.sol\":3822:3835  address owner */\n      dup1\n        /* \"@openzeppelin/contracts/token/ERC20/ERC20.sol\":3838:3850  _msgSender() */\n      tag_209\n        /* \"@openzeppelin/contracts/token/ERC20/ERC20.sol\":3838:3848  _msgSender */\n      tag_128\n        /* \"@openzeppelin/contracts/token/ERC20/ERC20.sol\":3838:3850  _msgSender() */\n      jump\t// in\n    tag_209:\n        /* \"@openzeppelin/contracts/token/ERC20/ERC20.sol\":3822:3850  address owner = _msgSender() */\n      swap1\n      pop\n        /* \"@openzeppelin/contracts/token/ERC20/ERC20.sol\":3860:3888  _transfer(owner, to, amount) */\n      tag_210\n        /* \"@openzeppelin/contracts/token/ERC20/ERC20.sol\":3870:3875  owner */\n      dup2\n        /* \"@openzeppelin/contracts/token/ERC20/ERC20.sol\":3877:3879  to */\n      dup6\n        /* \"@openzeppelin/contracts/token/ERC20/ERC20.sol\":3881:3887  amount */\n      dup6\n        /* \"@openzeppelin/contracts/token/ERC20/ERC20.sol\":3860:3869  _transfer */\n      tag_137\n        /* \"@openzeppelin/contracts/token/ERC20/ERC20.sol\":3860:3888  _transfer(owner, to, amount) */\n      jump\t// in\n    tag_210:\n        /* \"@openzeppelin/contracts/token/ERC20/ERC20.sol\":3905:3909  true */\n      0x01\n        /* \"@openzeppelin/contracts/token/ERC20/ERC20.sol\":3898:3909  return true */\n      swap2\n      pop\n      pop\n        /* \"@openzeppelin/contracts/token/ERC20/ERC20.sol\":3727:3916  function transfer(address to, uint256 amount) public virtual override returns (bool) {... */\n      swap3\n      swap2\n      pop\n      pop\n      jump\t// out\n        /* \"@openzeppelin/contracts/token/ERC20/ERC20.sol\":3974:4123  function allowance(address owner, address spender) public view virtual override returns (uint256) {... */\n    tag_110:\n        /* \"@openzeppelin/contracts/token/ERC20/ERC20.sol\":4063:4070  uint256 */\n      0x00\n        /* \"@openzeppelin/contracts/token/ERC20/ERC20.sol\":4089:4100  _allowances */\n      0x01\n        /* \"@openzeppelin/contracts/token/ERC20/ERC20.sol\":4089:4107  _allowances[owner] */\n      0x00\n        /* \"@openzeppelin/contracts/token/ERC20/ERC20.sol\":4101:4106  owner */\n      dup5\n        /* \"@openzeppelin/contracts/token/ERC20/ERC20.sol\":4089:4107  _allowances[owner] */\n      0xffffffffffffffffffffffffffffffffffffffff\n      and\n      0xffffffffffffffffffffffffffffffffffffffff\n      and\n      dup2\n      mstore\n      0x20\n      add\n      swap1\n      dup2\n      mstore\n      0x20\n      add\n      0x00\n      keccak256\n        /* \"@openzeppelin/contracts/token/ERC20/ERC20.sol\":4089:4116  _allowances[owner][spender] */\n      0x00\n        /* \"@openzeppelin/contracts/token/ERC20/ERC20.sol\":4108:4115  spender */\n      dup4\n        /* \"@openzeppelin/contracts/token/ERC20/ERC20.sol\":4089:4116  _allowances[owner][spender] */\n      0xffffffffffffffffffffffffffffffffffffffff\n      and\n      0xffffffffffffffffffffffffffffffffffffffff\n      and\n      dup2\n      mstore\n      0x20\n      add\n      swap1\n      dup2\n      mstore\n      0x20\n      add\n      0x00\n      keccak256\n      sload\n        /* \"@openzeppelin/contracts/token/ERC20/ERC20.sol\":4082:4116  return _allowances[owner][spender] */\n      swap1\n      pop\n        /* \"@openzeppelin/contracts/token/ERC20/ERC20.sol\":3974:4123  function allowance(address owner, address spender) public view virtual override returns (uint256) {... */\n      swap3\n      swap2\n      pop\n      pop\n      jump\t// out\n        /* \"contracts/DegenToken.sol\":1674:1774  function viewStoreItems() external view returns (StoreItem[] memory) {... */\n    tag_113:\n        /* \"contracts/DegenToken.sol\":1723:1741  StoreItem[] memory */\n      0x60\n        /* \"contracts/DegenToken.sol\":1761:1771  storeItems */\n      0x09\n        /* \"contracts/DegenToken.sol\":1754:1771  return storeItems */\n      dup1\n      sload\n      dup1\n      0x20\n      mul\n      0x20\n      add\n      mload(0x40)\n      swap1\n      dup2\n      add\n      0x40\n      mstore\n      dup1\n      swap3\n      swap2\n      swap1\n      dup2\n      dup2\n      mstore\n      0x20\n      add\n      0x00\n      swap1\n    tag_213:\n      dup3\n      dup3\n      lt\n      iszero\n      tag_214\n      jumpi\n      dup4\n      dup3\n      swap1\n      0x00\n      mstore\n      keccak256(0x00, 0x20)\n      swap1\n      0x02\n      mul\n      add\n      mload(0x40)\n      dup1\n      0x40\n      add\n      0x40\n      mstore\n      swap1\n      dup2\n      0x00\n      dup3\n      add\n      dup1\n      sload\n      tag_216\n      swap1\n      tag_121\n      jump\t// in\n    tag_216:\n      dup1\n      0x1f\n      add\n      0x20\n      dup1\n      swap2\n      div\n      mul\n      0x20\n      add\n      mload(0x40)\n      swap1\n      dup2\n      add\n      0x40\n      mstore\n      dup1\n      swap3\n      swap2\n      swap1\n      dup2\n      dup2\n      mstore\n      0x20\n      add\n      dup3\n      dup1\n      sload\n      tag_217\n      swap1\n      tag_121\n      jump\t// in\n    tag_217:\n      dup1\n      iszero\n      tag_218\n      jumpi\n      dup1\n      0x1f\n      lt\n      tag_219\n      jumpi\n      0x0100\n      dup1\n      dup4\n      sload\n      div\n      mul\n      dup4\n      mstore\n      swap2\n      0x20\n      add\n      swap2\n      jump(tag_218)\n    tag_219:\n      dup3\n      add\n      swap2\n      swap1\n      0x00\n      mstore\n      keccak256(0x00, 0x20)\n      swap1\n    tag_220:\n      dup2\n      sload\n      dup2\n      mstore\n      swap1\n      0x01\n      add\n      swap1\n      0x20\n      add\n      dup1\n      dup4\n      gt\n      tag_220\n      jumpi\n      dup3\n      swap1\n      sub\n      0x1f\n      and\n      dup3\n      add\n      swap2\n    tag_218:\n      pop\n      pop\n      pop\n      pop\n      pop\n      dup2\n      mstore\n      0x20\n      add\n      0x01\n      dup3\n      add\n      sload\n      dup2\n      mstore\n      pop\n      pop\n      dup2\n      mstore\n      0x20\n      add\n      swap1\n      0x01\n      add\n      swap1\n      jump(tag_213)\n    tag_214:\n      pop\n      pop\n      pop\n      pop\n      swap1\n      pop\n        /* \"contracts/DegenToken.sol\":1674:1774  function viewStoreItems() external view returns (StoreItem[] memory) {... */\n      swap1\n      jump\t// out\n        /* \"@openzeppelin/contracts/access/Ownable.sol\":2081:2279  function transferOwnership(address newOwner) public virtual onlyOwner {... */\n    tag_118:\n        /* \"@openzeppelin/contracts/access/Ownable.sol\":1094:1107  _checkOwner() */\n      tag_222\n        /* \"@openzeppelin/contracts/access/Ownable.sol\":1094:1105  _checkOwner */\n      tag_153\n        /* \"@openzeppelin/contracts/access/Ownable.sol\":1094:1107  _checkOwner() */\n      jump\t// in\n    tag_222:\n        /* \"@openzeppelin/contracts/access/Ownable.sol\":2189:2190  0 */\n      0x00\n        /* \"@openzeppelin/contracts/access/Ownable.sol\":2169:2191  newOwner != address(0) */\n      0xffffffffffffffffffffffffffffffffffffffff\n      and\n        /* \"@openzeppelin/contracts/access/Ownable.sol\":2169:2177  newOwner */\n      dup2\n        /* \"@openzeppelin/contracts/access/Ownable.sol\":2169:2191  newOwner != address(0) */\n      0xffffffffffffffffffffffffffffffffffffffff\n      and\n      sub\n        /* \"@openzeppelin/contracts/access/Ownable.sol\":2161:2234  require(newOwner != address(0), \"Ownable: new owner is the zero address\") */\n      tag_224\n      jumpi\n      mload(0x40)\n      0x08c379a000000000000000000000000000000000000000000000000000000000\n      dup2\n      mstore\n      0x04\n      add\n      tag_225\n      swap1\n      tag_226\n      jump\t// in\n    tag_225:\n      mload(0x40)\n      dup1\n      swap2\n      sub\n      swap1\n      revert\n    tag_224:\n        /* \"@openzeppelin/contracts/access/Ownable.sol\":2244:2272  _transferOwnership(newOwner) */\n      tag_227\n        /* \"@openzeppelin/contracts/access/Ownable.sol\":2263:2271  newOwner */\n      dup2\n        /* \"@openzeppelin/contracts/access/Ownable.sol\":2244:2262  _transferOwnership */\n      tag_174\n        /* \"@openzeppelin/contracts/access/Ownable.sol\":2244:2272  _transferOwnership(newOwner) */\n      jump\t// in\n    tag_227:\n        /* \"@openzeppelin/contracts/access/Ownable.sol\":2081:2279  function transferOwnership(address newOwner) public virtual onlyOwner {... */\n      pop\n      jump\t// out\n        /* \"@openzeppelin/contracts/utils/Context.sol\":640:736  function _msgSender() internal view virtual returns (address) {... */\n    tag_128:\n        /* \"@openzeppelin/contracts/utils/Context.sol\":693:700  address */\n      0x00\n        /* \"@openzeppelin/contracts/utils/Context.sol\":719:729  msg.sender */\n      caller\n        /* \"@openzeppelin/contracts/utils/Context.sol\":712:729  return msg.sender */\n      swap1\n      pop\n        /* \"@openzeppelin/contracts/utils/Context.sol\":640:736  function _msgSender() internal view virtual returns (address) {... */\n      swap1\n      jump\t// out\n        /* \"@openzeppelin/contracts/token/ERC20/ERC20.sol\":10504:10874  function _approve(... */\n    tag_130:\n        /* \"@openzeppelin/contracts/token/ERC20/ERC20.sol\":10652:10653  0 */\n      0x00\n        /* \"@openzeppelin/contracts/token/ERC20/ERC20.sol\":10635:10654  owner != address(0) */\n      0xffffffffffffffffffffffffffffffffffffffff\n      and\n        /* \"@openzeppelin/contracts/token/ERC20/ERC20.sol\":10635:10640  owner */\n      dup4\n        /* \"@openzeppelin/contracts/token/ERC20/ERC20.sol\":10635:10654  owner != address(0) */\n      0xffffffffffffffffffffffffffffffffffffffff\n      and\n      sub\n        /* \"@openzeppelin/contracts/token/ERC20/ERC20.sol\":10627:10695  require(owner != address(0), \"ERC20: approve from the zero address\") */\n      tag_230\n      jumpi\n      mload(0x40)\n      0x08c379a000000000000000000000000000000000000000000000000000000000\n      dup2\n      mstore\n      0x04\n      add\n      tag_231\n      swap1\n      tag_232\n      jump\t// in\n    tag_231:\n      mload(0x40)\n      dup1\n      swap2\n      sub\n      swap1\n      revert\n    tag_230:\n        /* \"@openzeppelin/contracts/token/ERC20/ERC20.sol\":10732:10733  0 */\n      0x00\n        /* \"@openzeppelin/contracts/token/ERC20/ERC20.sol\":10713:10734  spender != address(0) */\n      0xffffffffffffffffffffffffffffffffffffffff\n      and\n        /* \"@openzeppelin/contracts/token/ERC20/ERC20.sol\":10713:10720  spender */\n      dup3\n        /* \"@openzeppelin/contracts/token/ERC20/ERC20.sol\":10713:10734  spender != address(0) */\n      0xffffffffffffffffffffffffffffffffffffffff\n      and\n      sub\n        /* \"@openzeppelin/contracts/token/ERC20/ERC20.sol\":10705:10773  require(spender != address(0), \"ERC20: approve to the zero address\") */\n      tag_233\n      jumpi\n      mload(0x40)\n      0x08c379a000000000000000000000000000000000000000000000000000000000\n      dup2\n      mstore\n      0x04\n      add\n      tag_234\n      swap1\n      tag_235\n      jump\t// in\n    tag_234:\n      mload(0x40)\n      dup1\n      swap2\n      sub\n      swap1\n      revert\n    tag_233:\n        /* \"@openzeppelin/contracts/token/ERC20/ERC20.sol\":10814:10820  amount */\n      dup1\n        /* \"@openzeppelin/contracts/token/ERC20/ERC20.sol\":10784:10795  _allowances */\n      0x01\n        /* \"@openzeppelin/contracts/token/ERC20/ERC20.sol\":10784:10802  _allowances[owner] */\n      0x00\n        /* \"@openzeppelin/contracts/token/ERC20/ERC20.sol\":10796:10801  owner */\n      dup6\n        /* \"@openzeppelin/contracts/token/ERC20/ERC20.sol\":10784:10802  _allowances[owner] */\n      0xffffffffffffffffffffffffffffffffffffffff\n      and\n      0xffffffffffffffffffffffffffffffffffffffff\n      and\n      dup2\n      mstore\n      0x20\n      add\n      swap1\n      dup2\n      mstore\n      0x20\n      add\n      0x00\n      keccak256\n        /* \"@openzeppelin/contracts/token/ERC20/ERC20.sol\":10784:10811  _allowances[owner][spender] */\n      0x00\n        /* \"@openzeppelin/contracts/token/ERC20/ERC20.sol\":10803:10810  spender */\n      dup5\n        /* \"@openzeppelin/contracts/token/ERC20/ERC20.sol\":10784:10811  _allowances[owner][spender] */\n      0xffffffffffffffffffffffffffffffffffffffff\n      and\n      0xffffffffffffffffffffffffffffffffffffffff\n      and\n      dup2\n      mstore\n      0x20\n      add\n      swap1\n      dup2\n      mstore\n      0x20\n      add\n      0x00\n      keccak256\n        /* \"@openzeppelin/contracts/token/ERC20/ERC20.sol\":10784:10820  _allowances[owner][spender] = amount */\n      dup2\n      swap1\n      sstore\n      pop\n        /* \"@openzeppelin/contracts/token/ERC20/ERC20.sol\":10851:10858  spender */\n      dup2\n        /* \"@openzeppelin/contracts/token/ERC20/ERC20.sol\":10835:10867  Approval(owner, spender, amount) */\n      0xffffffffffffffffffffffffffffffffffffffff\n      and\n        /* \"@openzeppelin/contracts/token/ERC20/ERC20.sol\":10844:10849  owner */\n      dup4\n        /* \"@openzeppelin/contracts/token/ERC20/ERC20.sol\":10835:10867  Approval(owner, spender, amount) */\n      0xffffffffffffffffffffffffffffffffffffffff\n      and\n      0x8c5be1e5ebec7d5bd14f71427d1e84f3dd0314c0f7b2291e5b200ac8c7c3b925\n        /* \"@openzeppelin/contracts/token/ERC20/ERC20.sol\":10860:10866  amount */\n      dup4\n        /* \"@openzeppelin/contracts/token/ERC20/ERC20.sol\":10835:10867  Approval(owner, spender, amount) */\n      mload(0x40)\n      tag_236\n      swap2\n      swap1\n      tag_42\n      jump\t// in\n    tag_236:\n      mload(0x40)\n      dup1\n      swap2\n      sub\n      swap1\n      log3\n        /* \"@openzeppelin/contracts/token/ERC20/ERC20.sol\":10504:10874  function _approve(... */\n      pop\n      pop\n      pop\n      jump\t// out\n        /* \"@openzeppelin/contracts/token/ERC20/ERC20.sol\":11155:11596  function _spendAllowance(... */\n    tag_135:\n        /* \"@openzeppelin/contracts/token/ERC20/ERC20.sol\":11285:11309  uint256 currentAllowance */\n      0x00\n        /* \"@openzeppelin/contracts/token/ERC20/ERC20.sol\":11312:11337  allowance(owner, spender) */\n      tag_238\n        /* \"@openzeppelin/contracts/token/ERC20/ERC20.sol\":11322:11327  owner */\n      dup5\n        /* \"@openzeppelin/contracts/token/ERC20/ERC20.sol\":11329:11336  spender */\n      dup5\n        /* \"@openzeppelin/contracts/token/ERC20/ERC20.sol\":11312:11321  allowance */\n      tag_110\n        /* \"@openzeppelin/contracts/token/ERC20/ERC20.sol\":11312:11337  allowance(owner, spender) */\n      jump\t// in\n    tag_238:\n        /* \"@openzeppelin/contracts/token/ERC20/ERC20.sol\":11285:11337  uint256 currentAllowance = allowance(owner, spender) */\n      swap1\n      pop\n        /* \"@openzeppelin/contracts/token/ERC20/ERC20.sol\":11371:11388  type(uint256).max */\n      0xffffffffffffffffffffffffffffffffffffffffffffffffffffffffffffffff\n        /* \"@openzeppelin/contracts/token/ERC20/ERC20.sol\":11351:11367  currentAllowance */\n      dup2\n        /* \"@openzeppelin/contracts/token/ERC20/ERC20.sol\":11351:11388  currentAllowance != type(uint256).max */\n      eq\n        /* \"@openzeppelin/contracts/token/ERC20/ERC20.sol\":11347:11590  if (currentAllowance != type(uint256).max) {... */\n      tag_239\n      jumpi\n        /* \"@openzeppelin/contracts/token/ERC20/ERC20.sol\":11432:11438  amount */\n      dup2\n        /* \"@openzeppelin/contracts/token/ERC20/ERC20.sol\":11412:11428  currentAllowance */\n      dup2\n        /* \"@openzeppelin/contracts/token/ERC20/ERC20.sol\":11412:11438  currentAllowance >= amount */\n      lt\n      iszero\n        /* \"@openzeppelin/contracts/token/ERC20/ERC20.sol\":11404:11472  require(currentAllowance >= amount, \"ERC20: insufficient allowance\") */\n      tag_240\n      jumpi\n      mload(0x40)\n      0x08c379a000000000000000000000000000000000000000000000000000000000\n      dup2\n      mstore\n      0x04\n      add\n      tag_241\n      swap1\n      tag_242\n      jump\t// in\n    tag_241:\n      mload(0x40)\n      dup1\n      swap2\n      sub\n      swap1\n      revert\n    tag_240:\n        /* \"@openzeppelin/contracts/token/ERC20/ERC20.sol\":11514:11565  _approve(owner, spender, currentAllowance - amount) */\n      tag_243\n        /* \"@openzeppelin/contracts/token/ERC20/ERC20.sol\":11523:11528  owner */\n      dup5\n        /* \"@openzeppelin/contracts/token/ERC20/ERC20.sol\":11530:11537  spender */\n      dup5\n        /* \"@openzeppelin/contracts/token/ERC20/ERC20.sol\":11558:11564  amount */\n      dup5\n        /* \"@openzeppelin/contracts/token/ERC20/ERC20.sol\":11539:11555  currentAllowance */\n      dup5\n        /* \"@openzeppelin/contracts/token/ERC20/ERC20.sol\":11539:11564  currentAllowance - amount */\n      sub\n        /* \"@openzeppelin/contracts/token/ERC20/ERC20.sol\":11514:11522  _approve */\n      tag_130\n        /* \"@openzeppelin/contracts/token/ERC20/ERC20.sol\":11514:11565  _approve(owner, spender, currentAllowance - amount) */\n      jump\t// in\n    tag_243:\n        /* \"@openzeppelin/contracts/token/ERC20/ERC20.sol\":11347:11590  if (currentAllowance != type(uint256).max) {... */\n    tag_239:\n        /* \"@openzeppelin/contracts/token/ERC20/ERC20.sol\":11275:11596  {... */\n      pop\n        /* \"@openzeppelin/contracts/token/ERC20/ERC20.sol\":11155:11596  function _spendAllowance(... */\n      pop\n      pop\n      pop\n      jump\t// out\n        /* \"@openzeppelin/contracts/token/ERC20/ERC20.sol\":7473:8291  function _transfer(... */\n    tag_137:\n        /* \"@openzeppelin/contracts/token/ERC20/ERC20.sol\":7615:7616  0 */\n      0x00\n        /* \"@openzeppelin/contracts/token/ERC20/ERC20.sol\":7599:7617  from != address(0) */\n      0xffffffffffffffffffffffffffffffffffffffff\n      and\n        /* \"@openzeppelin/contracts/token/ERC20/ERC20.sol\":7599:7603  from */\n      dup4\n        /* \"@openzeppelin/contracts/token/ERC20/ERC20.sol\":7599:7617  from != address(0) */\n      0xffffffffffffffffffffffffffffffffffffffff\n      and\n      sub\n        /* \"@openzeppelin/contracts/token/ERC20/ERC20.sol\":7591:7659  require(from != address(0), \"ERC20: transfer from the zero address\") */\n      tag_245\n      jumpi\n      mload(0x40)\n      0x08c379a000000000000000000000000000000000000000000000000000000000\n      dup2\n      mstore\n      0x04\n      add\n      tag_246\n      swap1\n      tag_247\n      jump\t// in\n    tag_246:\n      mload(0x40)\n      dup1\n      swap2\n      sub\n      swap1\n      revert\n    tag_245:\n        /* \"@openzeppelin/contracts/token/ERC20/ERC20.sol\":7691:7692  0 */\n      0x00\n        /* \"@openzeppelin/contracts/token/ERC20/ERC20.sol\":7677:7693  to != address(0) */\n      0xffffffffffffffffffffffffffffffffffffffff\n      and\n        /* \"@openzeppelin/contracts/token/ERC20/ERC20.sol\":7677:7679  to */\n      dup3\n        /* \"@openzeppelin/contracts/token/ERC20/ERC20.sol\":7677:7693  to != address(0) */\n      0xffffffffffffffffffffffffffffffffffffffff\n      and\n      sub\n        /* \"@openzeppelin/contracts/token/ERC20/ERC20.sol\":7669:7733  require(to != address(0), \"ERC20: transfer to the zero address\") */\n      tag_248\n      jumpi\n      mload(0x40)\n      0x08c379a000000000000000000000000000000000000000000000000000000000\n      dup2\n      mstore\n      0x04\n      add\n      tag_249\n      swap1\n      tag_250\n      jump\t// in\n    tag_249:\n      mload(0x40)\n      dup1\n      swap2\n      sub\n      swap1\n      revert\n    tag_248:\n        /* \"@openzeppelin/contracts/token/ERC20/ERC20.sol\":7744:7782  _beforeTokenTransfer(from, to, amount) */\n      tag_251\n        /* \"@openzeppelin/contracts/token/ERC20/ERC20.sol\":7765:7769  from */\n      dup4\n        /* \"@openzeppelin/contracts/token/ERC20/ERC20.sol\":7771:7773  to */\n      dup4\n        /* \"@openzeppelin/contracts/token/ERC20/ERC20.sol\":7775:7781  amount */\n      dup4\n        /* \"@openzeppelin/contracts/token/ERC20/ERC20.sol\":7744:7764  _beforeTokenTransfer */\n      tag_252\n        /* \"@openzeppelin/contracts/token/ERC20/ERC20.sol\":7744:7782  _beforeTokenTransfer(from, to, amount) */\n      jump\t// in\n    tag_251:\n        /* \"@openzeppelin/contracts/token/ERC20/ERC20.sol\":7793:7812  uint256 fromBalance */\n      0x00\n        /* \"@openzeppelin/contracts/token/ERC20/ERC20.sol\":7815:7824  _balances */\n      dup1\n        /* \"@openzeppelin/contracts/token/ERC20/ERC20.sol\":7815:7830  _balances[from] */\n      0x00\n        /* \"@openzeppelin/contracts/token/ERC20/ERC20.sol\":7825:7829  from */\n      dup6\n        /* \"@openzeppelin/contracts/token/ERC20/ERC20.sol\":7815:7830  _balances[from] */\n      0xffffffffffffffffffffffffffffffffffffffff\n      and\n      0xffffffffffffffffffffffffffffffffffffffff\n      and\n      dup2\n      mstore\n      0x20\n      add\n      swap1\n      dup2\n      mstore\n      0x20\n      add\n      0x00\n      keccak256\n      sload\n        /* \"@openzeppelin/contracts/token/ERC20/ERC20.sol\":7793:7830  uint256 fromBalance = _balances[from] */\n      swap1\n      pop\n        /* \"@openzeppelin/contracts/token/ERC20/ERC20.sol\":7863:7869  amount */\n      dup2\n        /* \"@openzeppelin/contracts/token/ERC20/ERC20.sol\":7848:7859  fromBalance */\n      dup2\n        /* \"@openzeppelin/contracts/token/ERC20/ERC20.sol\":7848:7869  fromBalance >= amount */\n      lt\n      iszero\n        /* \"@openzeppelin/contracts/token/ERC20/ERC20.sol\":7840:7912  require(fromBalance >= amount, \"ERC20: transfer amount exceeds balance\") */\n      tag_253\n      jumpi\n      mload(0x40)\n      0x08c379a000000000000000000000000000000000000000000000000000000000\n      dup2\n      mstore\n      0x04\n      add\n      tag_254\n      swap1\n      tag_255\n      jump\t// in\n    tag_254:\n      mload(0x40)\n      dup1\n      swap2\n      sub\n      swap1\n      revert\n    tag_253:\n        /* \"@openzeppelin/contracts/token/ERC20/ERC20.sol\":7978:7984  amount */\n      dup2\n        /* \"@openzeppelin/contracts/token/ERC20/ERC20.sol\":7964:7975  fromBalance */\n      dup2\n        /* \"@openzeppelin/contracts/token/ERC20/ERC20.sol\":7964:7984  fromBalance - amount */\n      sub\n        /* \"@openzeppelin/contracts/token/ERC20/ERC20.sol\":7946:7955  _balances */\n      0x00\n        /* \"@openzeppelin/contracts/token/ERC20/ERC20.sol\":7946:7961  _balances[from] */\n      dup1\n        /* \"@openzeppelin/contracts/token/ERC20/ERC20.sol\":7956:7960  from */\n      dup7\n        /* \"@openzeppelin/contracts/token/ERC20/ERC20.sol\":7946:7961  _balances[from] */\n      0xffffffffffffffffffffffffffffffffffffffff\n      and\n      0xffffffffffffffffffffffffffffffffffffffff\n      and\n      dup2\n      mstore\n      0x20\n      add\n      swap1\n      dup2\n      mstore\n      0x20\n      add\n      0x00\n      keccak256\n        /* \"@openzeppelin/contracts/token/ERC20/ERC20.sol\":7946:7984  _balances[from] = fromBalance - amount */\n      dup2\n      swap1\n      sstore\n      pop\n        /* \"@openzeppelin/contracts/token/ERC20/ERC20.sol\":8178:8184  amount */\n      dup2\n        /* \"@openzeppelin/contracts/token/ERC20/ERC20.sol\":8161:8170  _balances */\n      0x00\n        /* \"@openzeppelin/contracts/token/ERC20/ERC20.sol\":8161:8174  _balances[to] */\n      dup1\n        /* \"@openzeppelin/contracts/token/ERC20/ERC20.sol\":8171:8173  to */\n      dup6\n        /* \"@openzeppelin/contracts/token/ERC20/ERC20.sol\":8161:8174  _balances[to] */\n      0xffffffffffffffffffffffffffffffffffffffff\n      and\n      0xffffffffffffffffffffffffffffffffffffffff\n      and\n      dup2\n      mstore\n      0x20\n      add\n      swap1\n      dup2\n      mstore\n      0x20\n      add\n      0x00\n      keccak256\n      0x00\n        /* \"@openzeppelin/contracts/token/ERC20/ERC20.sol\":8161:8184  _balances[to] += amount */\n      dup3\n      dup3\n      sload\n      add\n      swap3\n      pop\n      pop\n      dup2\n      swap1\n      sstore\n      pop\n        /* \"@openzeppelin/contracts/token/ERC20/ERC20.sol\":8225:8227  to */\n      dup3\n        /* \"@openzeppelin/contracts/token/ERC20/ERC20.sol\":8210:8236  Transfer(from, to, amount) */\n      0xffffffffffffffffffffffffffffffffffffffff\n      and\n        /* \"@openzeppelin/contracts/token/ERC20/ERC20.sol\":8219:8223  from */\n      dup5\n        /* \"@openzeppelin/contracts/token/ERC20/ERC20.sol\":8210:8236  Transfer(from, to, amount) */\n      0xffffffffffffffffffffffffffffffffffffffff\n      and\n      0xddf252ad1be2c89b69c2b068fc378daa952ba7f163c4a11628f55a4df523b3ef\n        /* \"@openzeppelin/contracts/token/ERC20/ERC20.sol\":8229:8235  amount */\n      dup5\n        /* \"@openzeppelin/contracts/token/ERC20/ERC20.sol\":8210:8236  Transfer(from, to, amount) */\n      mload(0x40)\n      tag_256\n      swap2\n      swap1\n      tag_42\n      jump\t// in\n    tag_256:\n      mload(0x40)\n      dup1\n      swap2\n      sub\n      swap1\n      log3\n        /* \"@openzeppelin/contracts/token/ERC20/ERC20.sol\":8247:8284  _afterTokenTransfer(from, to, amount) */\n      tag_257\n        /* \"@openzeppelin/contracts/token/ERC20/ERC20.sol\":8267:8271  from */\n      dup5\n        /* \"@openzeppelin/contracts/token/ERC20/ERC20.sol\":8273:8275  to */\n      dup5\n        /* \"@openzeppelin/contracts/token/ERC20/ERC20.sol\":8277:8283  amount */\n      dup5\n        /* \"@openzeppelin/contracts/token/ERC20/ERC20.sol\":8247:8266  _afterTokenTransfer */\n      tag_258\n        /* \"@openzeppelin/contracts/token/ERC20/ERC20.sol\":8247:8284  _afterTokenTransfer(from, to, amount) */\n      jump\t// in\n    tag_257:\n        /* \"@openzeppelin/contracts/token/ERC20/ERC20.sol\":7581:8291  {... */\n      pop\n        /* \"@openzeppelin/contracts/token/ERC20/ERC20.sol\":7473:8291  function _transfer(... */\n      pop\n      pop\n      pop\n      jump\t// out\n        /* \"@openzeppelin/contracts/access/Ownable.sol\":1359:1489  function _checkOwner() internal view virtual {... */\n    tag_153:\n        /* \"@openzeppelin/contracts/access/Ownable.sol\":1433:1445  _msgSender() */\n      tag_260\n        /* \"@openzeppelin/contracts/access/Ownable.sol\":1433:1443  _msgSender */\n      tag_128\n        /* \"@openzeppelin/contracts/access/Ownable.sol\":1433:1445  _msgSender() */\n      jump\t// in\n    tag_260:\n        /* \"@openzeppelin/contracts/access/Ownable.sol\":1422:1445  owner() == _msgSender() */\n      0xffffffffffffffffffffffffffffffffffffffff\n      and\n        /* \"@openzeppelin/contracts/access/Ownable.sol\":1422:1429  owner() */\n      tag_261\n        /* \"@openzeppelin/contracts/access/Ownable.sol\":1422:1427  owner */\n      tag_89\n        /* \"@openzeppelin/contracts/access/Ownable.sol\":1422:1429  owner() */\n      jump\t// in\n    tag_261:\n        /* \"@openzeppelin/contracts/access/Ownable.sol\":1422:1445  owner() == _msgSender() */\n      0xffffffffffffffffffffffffffffffffffffffff\n      and\n      eq\n        /* \"@openzeppelin/contracts/access/Ownable.sol\":1414:1482  require(owner() == _msgSender(), \"Ownable: caller is not the owner\") */\n      tag_262\n      jumpi\n      mload(0x40)\n      0x08c379a000000000000000000000000000000000000000000000000000000000\n      dup2\n      mstore\n      0x04\n      add\n      tag_263\n      swap1\n      tag_264\n      jump\t// in\n    tag_263:\n      mload(0x40)\n      dup1\n      swap2\n      sub\n      swap1\n      revert\n    tag_262:\n        /* \"@openzeppelin/contracts/access/Ownable.sol\":1359:1489  function _checkOwner() internal view virtual {... */\n      jump\t// out\n        /* \"@openzeppelin/contracts/token/ERC20/ERC20.sol\":8567:9102  function _mint(address account, uint256 amount) internal virtual {... */\n    tag_156:\n        /* \"@openzeppelin/contracts/token/ERC20/ERC20.sol\":8669:8670  0 */\n      0x00\n        /* \"@openzeppelin/contracts/token/ERC20/ERC20.sol\":8650:8671  account != address(0) */\n      0xffffffffffffffffffffffffffffffffffffffff\n      and\n        /* \"@openzeppelin/contracts/token/ERC20/ERC20.sol\":8650:8657  account */\n      dup3\n        /* \"@openzeppelin/contracts/token/ERC20/ERC20.sol\":8650:8671  account != address(0) */\n      0xffffffffffffffffffffffffffffffffffffffff\n      and\n      sub\n        /* \"@openzeppelin/contracts/token/ERC20/ERC20.sol\":8642:8707  require(account != address(0), \"ERC20: mint to the zero address\") */\n      tag_266\n      jumpi\n      mload(0x40)\n      0x08c379a000000000000000000000000000000000000000000000000000000000\n      dup2\n      mstore\n      0x04\n      add\n      tag_267\n      swap1\n      tag_268\n      jump\t// in\n    tag_267:\n      mload(0x40)\n      dup1\n      swap2\n      sub\n      swap1\n      revert\n    tag_266:\n        /* \"@openzeppelin/contracts/token/ERC20/ERC20.sol\":8718:8767  _beforeTokenTransfer(address(0), account, amount) */\n      tag_269\n        /* \"@openzeppelin/contracts/token/ERC20/ERC20.sol\":8747:8748  0 */\n      0x00\n        /* \"@openzeppelin/contracts/token/ERC20/ERC20.sol\":8751:8758  account */\n      dup4\n        /* \"@openzeppelin/contracts/token/ERC20/ERC20.sol\":8760:8766  amount */\n      dup4\n        /* \"@openzeppelin/contracts/token/ERC20/ERC20.sol\":8718:8738  _beforeTokenTransfer */\n      tag_252\n        /* \"@openzeppelin/contracts/token/ERC20/ERC20.sol\":8718:8767  _beforeTokenTransfer(address(0), account, amount) */\n      jump\t// in\n    tag_269:\n        /* \"@openzeppelin/contracts/token/ERC20/ERC20.sol\":8794:8800  amount */\n      dup1\n        /* \"@openzeppelin/contracts/token/ERC20/ERC20.sol\":8778:8790  _totalSupply */\n      0x02\n      0x00\n        /* \"@openzeppelin/contracts/token/ERC20/ERC20.sol\":8778:8800  _totalSupply += amount */\n      dup3\n      dup3\n      sload\n      tag_270\n      swap2\n      swap1\n      tag_150\n      jump\t// in\n    tag_270:\n      swap3\n      pop\n      pop\n      dup2\n      swap1\n      sstore\n      pop\n        /* \"@openzeppelin/contracts/token/ERC20/ERC20.sol\":8968:8974  amount */\n      dup1\n        /* \"@openzeppelin/contracts/token/ERC20/ERC20.sol\":8946:8955  _balances */\n      0x00\n        /* \"@openzeppelin/contracts/token/ERC20/ERC20.sol\":8946:8964  _balances[account] */\n      dup1\n        /* \"@openzeppelin/contracts/token/ERC20/ERC20.sol\":8956:8963  account */\n      dup5\n        /* \"@openzeppelin/contracts/token/ERC20/ERC20.sol\":8946:8964  _balances[account] */\n      0xffffffffffffffffffffffffffffffffffffffff\n      and\n      0xffffffffffffffffffffffffffffffffffffffff\n      and\n      dup2\n      mstore\n      0x20\n      add\n      swap1\n      dup2\n      mstore\n      0x20\n      add\n      0x00\n      keccak256\n      0x00\n        /* \"@openzeppelin/contracts/token/ERC20/ERC20.sol\":8946:8974  _balances[account] += amount */\n      dup3\n      dup3\n      sload\n      add\n      swap3\n      pop\n      pop\n      dup2\n      swap1\n      sstore\n      pop\n        /* \"@openzeppelin/contracts/token/ERC20/ERC20.sol\":9020:9027  account */\n      dup2\n        /* \"@openzeppelin/contracts/token/ERC20/ERC20.sol\":8999:9036  Transfer(address(0), account, amount) */\n      0xffffffffffffffffffffffffffffffffffffffff\n      and\n        /* \"@openzeppelin/contracts/token/ERC20/ERC20.sol\":9016:9017  0 */\n      0x00\n        /* \"@openzeppelin/contracts/token/ERC20/ERC20.sol\":8999:9036  Transfer(address(0), account, amount) */\n      0xffffffffffffffffffffffffffffffffffffffff\n      and\n      0xddf252ad1be2c89b69c2b068fc378daa952ba7f163c4a11628f55a4df523b3ef\n        /* \"@openzeppelin/contracts/token/ERC20/ERC20.sol\":9029:9035  amount */\n      dup4\n        /* \"@openzeppelin/contracts/token/ERC20/ERC20.sol\":8999:9036  Transfer(address(0), account, amount) */\n      mload(0x40)\n      tag_271\n      swap2\n      swap1\n      tag_42\n      jump\t// in\n    tag_271:\n      mload(0x40)\n      dup1\n      swap2\n      sub\n      swap1\n      log3\n        /* \"@openzeppelin/contracts/token/ERC20/ERC20.sol\":9047:9095  _afterTokenTransfer(address(0), account, amount) */\n      tag_272\n        /* \"@openzeppelin/contracts/token/ERC20/ERC20.sol\":9075:9076  0 */\n      0x00\n        /* \"@openzeppelin/contracts/token/ERC20/ERC20.sol\":9079:9086  account */\n      dup4\n        /* \"@openzeppelin/contracts/token/ERC20/ERC20.sol\":9088:9094  amount */\n      dup4\n        /* \"@openzeppelin/contracts/token/ERC20/ERC20.sol\":9047:9066  _afterTokenTransfer */\n      tag_258\n        /* \"@openzeppelin/contracts/token/ERC20/ERC20.sol\":9047:9095  _afterTokenTransfer(address(0), account, amount) */\n      jump\t// in\n    tag_272:\n        /* \"@openzeppelin/contracts/token/ERC20/ERC20.sol\":8567:9102  function _mint(address account, uint256 amount) internal virtual {... */\n      pop\n      pop\n      jump\t// out\n        /* \"@openzeppelin/contracts/access/Ownable.sol\":2433:2620  function _transferOwnership(address newOwner) internal virtual {... */\n    tag_174:\n        /* \"@openzeppelin/contracts/access/Ownable.sol\":2506:2522  address oldOwner */\n      0x00\n        /* \"@openzeppelin/contracts/access/Ownable.sol\":2525:2531  _owner */\n      0x05\n      0x00\n      swap1\n      sload\n      swap1\n      0x0100\n      exp\n      swap1\n      div\n      0xffffffffffffffffffffffffffffffffffffffff\n      and\n        /* \"@openzeppelin/contracts/access/Ownable.sol\":2506:2531  address oldOwner = _owner */\n      swap1\n      pop\n        /* \"@openzeppelin/contracts/access/Ownable.sol\":2550:2558  newOwner */\n      dup2\n        /* \"@openzeppelin/contracts/access/Ownable.sol\":2541:2547  _owner */\n      0x05\n      0x00\n        /* \"@openzeppelin/contracts/access/Ownable.sol\":2541:2558  _owner = newOwner */\n      0x0100\n      exp\n      dup2\n      sload\n      dup2\n      0xffffffffffffffffffffffffffffffffffffffff\n      mul\n      not\n      and\n      swap1\n      dup4\n      0xffffffffffffffffffffffffffffffffffffffff\n      and\n      mul\n      or\n      swap1\n      sstore\n      pop\n        /* \"@openzeppelin/contracts/access/Ownable.sol\":2604:2612  newOwner */\n      dup2\n        /* \"@openzeppelin/contracts/access/Ownable.sol\":2573:2613  OwnershipTransferred(oldOwner, newOwner) */\n      0xffffffffffffffffffffffffffffffffffffffff\n      and\n        /* \"@openzeppelin/contracts/access/Ownable.sol\":2594:2602  oldOwner */\n      dup2\n        /* \"@openzeppelin/contracts/access/Ownable.sol\":2573:2613  OwnershipTransferred(oldOwner, newOwner) */\n      0xffffffffffffffffffffffffffffffffffffffff\n      and\n      0x8be0079c531659141344cd1fd0a4f28419497f9722a3daafe3b4186f6b6457e0\n      mload(0x40)\n      mload(0x40)\n      dup1\n      swap2\n      sub\n      swap1\n      log3\n        /* \"@openzeppelin/contracts/access/Ownable.sol\":2496:2620  {... */\n      pop\n        /* \"@openzeppelin/contracts/access/Ownable.sol\":2433:2620  function _transferOwnership(address newOwner) internal virtual {... */\n      pop\n      jump\t// out\n        /* \"@openzeppelin/contracts/token/ERC20/ERC20.sol\":9422:10081  function _burn(address account, uint256 amount) internal virtual {... */\n    tag_181:\n        /* \"@openzeppelin/contracts/token/ERC20/ERC20.sol\":9524:9525  0 */\n      0x00\n        /* \"@openzeppelin/contracts/token/ERC20/ERC20.sol\":9505:9526  account != address(0) */\n      0xffffffffffffffffffffffffffffffffffffffff\n      and\n        /* \"@openzeppelin/contracts/token/ERC20/ERC20.sol\":9505:9512  account */\n      dup3\n        /* \"@openzeppelin/contracts/token/ERC20/ERC20.sol\":9505:9526  account != address(0) */\n      0xffffffffffffffffffffffffffffffffffffffff\n      and\n      sub\n        /* \"@openzeppelin/contracts/token/ERC20/ERC20.sol\":9497:9564  require(account != address(0), \"ERC20: burn from the zero address\") */\n      tag_275\n      jumpi\n      mload(0x40)\n      0x08c379a000000000000000000000000000000000000000000000000000000000\n      dup2\n      mstore\n      0x04\n      add\n      tag_276\n      swap1\n      tag_277\n      jump\t// in\n    tag_276:\n      mload(0x40)\n      dup1\n      swap2\n      sub\n      swap1\n      revert\n    tag_275:\n        /* \"@openzeppelin/contracts/token/ERC20/ERC20.sol\":9575:9624  _beforeTokenTransfer(account, address(0), amount) */\n      tag_278\n        /* \"@openzeppelin/contracts/token/ERC20/ERC20.sol\":9596:9603  account */\n      dup3\n        /* \"@openzeppelin/contracts/token/ERC20/ERC20.sol\":9613:9614  0 */\n      0x00\n        /* \"@openzeppelin/contracts/token/ERC20/ERC20.sol\":9617:9623  amount */\n      dup4\n        /* \"@openzeppelin/contracts/token/ERC20/ERC20.sol\":9575:9595  _beforeTokenTransfer */\n      tag_252\n        /* \"@openzeppelin/contracts/token/ERC20/ERC20.sol\":9575:9624  _beforeTokenTransfer(account, address(0), amount) */\n      jump\t// in\n    tag_278:\n        /* \"@openzeppelin/contracts/token/ERC20/ERC20.sol\":9635:9657  uint256 accountBalance */\n      0x00\n        /* \"@openzeppelin/contracts/token/ERC20/ERC20.sol\":9660:9669  _balances */\n      dup1\n        /* \"@openzeppelin/contracts/token/ERC20/ERC20.sol\":9660:9678  _balances[account] */\n      0x00\n        /* \"@openzeppelin/contracts/token/ERC20/ERC20.sol\":9670:9677  account */\n      dup5\n        /* \"@openzeppelin/contracts/token/ERC20/ERC20.sol\":9660:9678  _balances[account] */\n      0xffffffffffffffffffffffffffffffffffffffff\n      and\n      0xffffffffffffffffffffffffffffffffffffffff\n      and\n      dup2\n      mstore\n      0x20\n      add\n      swap1\n      dup2\n      mstore\n      0x20\n      add\n      0x00\n      keccak256\n      sload\n        /* \"@openzeppelin/contracts/token/ERC20/ERC20.sol\":9635:9678  uint256 accountBalance = _balances[account] */\n      swap1\n      pop\n        /* \"@openzeppelin/contracts/token/ERC20/ERC20.sol\":9714:9720  amount */\n      dup2\n        /* \"@openzeppelin/contracts/token/ERC20/ERC20.sol\":9696:9710  accountBalance */\n      dup2\n        /* \"@openzeppelin/contracts/token/ERC20/ERC20.sol\":9696:9720  accountBalance >= amount */\n      lt\n      iszero\n        /* \"@openzeppelin/contracts/token/ERC20/ERC20.sol\":9688:9759  require(accountBalance >= amount, \"ERC20: burn amount exceeds balance\") */\n      tag_279\n      jumpi\n      mload(0x40)\n      0x08c379a000000000000000000000000000000000000000000000000000000000\n      dup2\n      mstore\n      0x04\n      add\n      tag_280\n      swap1\n      tag_281\n      jump\t// in\n    tag_280:\n      mload(0x40)\n      dup1\n      swap2\n      sub\n      swap1\n      revert\n    tag_279:\n        /* \"@openzeppelin/contracts/token/ERC20/ERC20.sol\":9831:9837  amount */\n      dup2\n        /* \"@openzeppelin/contracts/token/ERC20/ERC20.sol\":9814:9828  accountBalance */\n      dup2\n        /* \"@openzeppelin/contracts/token/ERC20/ERC20.sol\":9814:9837  accountBalance - amount */\n      sub\n        /* \"@openzeppelin/contracts/token/ERC20/ERC20.sol\":9793:9802  _balances */\n      0x00\n        /* \"@openzeppelin/contracts/token/ERC20/ERC20.sol\":9793:9811  _balances[account] */\n      dup1\n        /* \"@openzeppelin/contracts/token/ERC20/ERC20.sol\":9803:9810  account */\n      dup6\n        /* \"@openzeppelin/contracts/token/ERC20/ERC20.sol\":9793:9811  _balances[account] */\n      0xffffffffffffffffffffffffffffffffffffffff\n      and\n      0xffffffffffffffffffffffffffffffffffffffff\n      and\n      dup2\n      mstore\n      0x20\n      add\n      swap1\n      dup2\n      mstore\n      0x20\n      add\n      0x00\n      keccak256\n        /* \"@openzeppelin/contracts/token/ERC20/ERC20.sol\":9793:9837  _balances[account] = accountBalance - amount */\n      dup2\n      swap1\n      sstore\n      pop\n        /* \"@openzeppelin/contracts/token/ERC20/ERC20.sol\":9946:9952  amount */\n      dup2\n        /* \"@openzeppelin/contracts/token/ERC20/ERC20.sol\":9930:9942  _totalSupply */\n      0x02\n      0x00\n        /* \"@openzeppelin/contracts/token/ERC20/ERC20.sol\":9930:9952  _totalSupply -= amount */\n      dup3\n      dup3\n      sload\n      sub\n      swap3\n      pop\n      pop\n      dup2\n      swap1\n      sstore\n      pop\n        /* \"@openzeppelin/contracts/token/ERC20/ERC20.sol\":10004:10005  0 */\n      0x00\n        /* \"@openzeppelin/contracts/token/ERC20/ERC20.sol\":9978:10015  Transfer(account, address(0), amount) */\n      0xffffffffffffffffffffffffffffffffffffffff\n      and\n        /* \"@openzeppelin/contracts/token/ERC20/ERC20.sol\":9987:9994  account */\n      dup4\n        /* \"@openzeppelin/contracts/token/ERC20/ERC20.sol\":9978:10015  Transfer(account, address(0), amount) */\n      0xffffffffffffffffffffffffffffffffffffffff\n      and\n      0xddf252ad1be2c89b69c2b068fc378daa952ba7f163c4a11628f55a4df523b3ef\n        /* \"@openzeppelin/contracts/token/ERC20/ERC20.sol\":10008:10014  amount */\n      dup5\n        /* \"@openzeppelin/contracts/token/ERC20/ERC20.sol\":9978:10015  Transfer(account, address(0), amount) */\n      mload(0x40)\n      tag_282\n      swap2\n      swap1\n      tag_42\n      jump\t// in\n    tag_282:\n      mload(0x40)\n      dup1\n      swap2\n      sub\n      swap1\n      log3\n        /* \"@openzeppelin/contracts/token/ERC20/ERC20.sol\":10026:10074  _afterTokenTransfer(account, address(0), amount) */\n      tag_283\n        /* \"@openzeppelin/contracts/token/ERC20/ERC20.sol\":10046:10053  account */\n      dup4\n        /* \"@openzeppelin/contracts/token/ERC20/ERC20.sol\":10063:10064  0 */\n      0x00\n        /* \"@openzeppelin/contracts/token/ERC20/ERC20.sol\":10067:10073  amount */\n      dup5\n        /* \"@openzeppelin/contracts/token/ERC20/ERC20.sol\":10026:10045  _afterTokenTransfer */\n      tag_258\n        /* \"@openzeppelin/contracts/token/ERC20/ERC20.sol\":10026:10074  _afterTokenTransfer(account, address(0), amount) */\n      jump\t// in\n    tag_283:\n        /* \"@openzeppelin/contracts/token/ERC20/ERC20.sol\":9487:10081  {... */\n      pop\n        /* \"@openzeppelin/contracts/token/ERC20/ERC20.sol\":9422:10081  function _burn(address account, uint256 amount) internal virtual {... */\n      pop\n      pop\n      jump\t// out\n        /* \"@openzeppelin/contracts/token/ERC20/ERC20.sol\":12180:12301  function _beforeTokenTransfer(... */\n    tag_252:\n      pop\n      pop\n      pop\n      jump\t// out\n        /* \"@openzeppelin/contracts/token/ERC20/ERC20.sol\":12889:13009  function _afterTokenTransfer(... */\n    tag_258:\n      pop\n      pop\n      pop\n      jump\t// out\n        /* \"#utility.yul\":7:106   */\n    tag_286:\n        /* \"#utility.yul\":59:65   */\n      0x00\n        /* \"#utility.yul\":93:98   */\n      dup2\n        /* \"#utility.yul\":87:99   */\n      mload\n        /* \"#utility.yul\":77:99   */\n      swap1\n      pop\n        /* \"#utility.yul\":7:106   */\n      swap2\n      swap1\n      pop\n      jump\t// out\n        /* \"#utility.yul\":112:281   */\n    tag_287:\n        /* \"#utility.yul\":196:207   */\n      0x00\n        /* \"#utility.yul\":230:236   */\n      dup3\n        /* \"#utility.yul\":225:228   */\n      dup3\n        /* \"#utility.yul\":218:237   */\n      mstore\n        /* \"#utility.yul\":270:274   */\n      0x20\n        /* \"#utility.yul\":265:268   */\n      dup3\n        /* \"#utility.yul\":261:275   */\n      add\n        /* \"#utility.yul\":246:275   */\n      swap1\n      pop\n        /* \"#utility.yul\":112:281   */\n      swap3\n      swap2\n      pop\n      pop\n      jump\t// out\n        /* \"#utility.yul\":287:426   */\n    tag_288:\n        /* \"#utility.yul\":376:382   */\n      dup3\n        /* \"#utility.yul\":371:374   */\n      dup2\n        /* \"#utility.yul\":366:369   */\n      dup4\n        /* \"#utility.yul\":360:383   */\n      mcopy\n        /* \"#utility.yul\":417:418   */\n      0x00\n        /* \"#utility.yul\":408:414   */\n      dup4\n        /* \"#utility.yul\":403:406   */\n      dup4\n        /* \"#utility.yul\":399:415   */\n      add\n        /* \"#utility.yul\":392:419   */\n      mstore\n        /* \"#utility.yul\":287:426   */\n      pop\n      pop\n      pop\n      jump\t// out\n        /* \"#utility.yul\":432:534   */\n    tag_289:\n        /* \"#utility.yul\":473:479   */\n      0x00\n        /* \"#utility.yul\":524:526   */\n      0x1f\n        /* \"#utility.yul\":520:527   */\n      not\n        /* \"#utility.yul\":515:517   */\n      0x1f\n        /* \"#utility.yul\":508:513   */\n      dup4\n        /* \"#utility.yul\":504:518   */\n      add\n        /* \"#utility.yul\":500:528   */\n      and\n        /* \"#utility.yul\":490:528   */\n      swap1\n      pop\n        /* \"#utility.yul\":432:534   */\n      swap2\n      swap1\n      pop\n      jump\t// out\n        /* \"#utility.yul\":540:917   */\n    tag_290:\n        /* \"#utility.yul\":628:631   */\n      0x00\n        /* \"#utility.yul\":656:695   */\n      tag_378\n        /* \"#utility.yul\":689:694   */\n      dup3\n        /* \"#utility.yul\":656:695   */\n      tag_286\n      jump\t// in\n    tag_378:\n        /* \"#utility.yul\":711:782   */\n      tag_379\n        /* \"#utility.yul\":775:781   */\n      dup2\n        /* \"#utility.yul\":770:773   */\n      dup6\n        /* \"#utility.yul\":711:782   */\n      tag_287\n      jump\t// in\n    tag_379:\n        /* \"#utility.yul\":704:782   */\n      swap4\n      pop\n        /* \"#utility.yul\":791:856   */\n      tag_380\n        /* \"#utility.yul\":849:855   */\n      dup2\n        /* \"#utility.yul\":844:847   */\n      dup6\n        /* \"#utility.yul\":837:841   */\n      0x20\n        /* \"#utility.yul\":830:835   */\n      dup7\n        /* \"#utility.yul\":826:842   */\n      add\n        /* \"#utility.yul\":791:856   */\n      tag_288\n      jump\t// in\n    tag_380:\n        /* \"#utility.yul\":881:910   */\n      tag_381\n        /* \"#utility.yul\":903:909   */\n      dup2\n        /* \"#utility.yul\":881:910   */\n      tag_289\n      jump\t// in\n    tag_381:\n        /* \"#utility.yul\":876:879   */\n      dup5\n        /* \"#utility.yul\":872:911   */\n      add\n        /* \"#utility.yul\":865:911   */\n      swap2\n      pop\n        /* \"#utility.yul\":632:917   */\n      pop\n        /* \"#utility.yul\":540:917   */\n      swap3\n      swap2\n      pop\n      pop\n      jump\t// out\n        /* \"#utility.yul\":923:1236   */\n    tag_32:\n        /* \"#utility.yul\":1036:1040   */\n      0x00\n        /* \"#utility.yul\":1074:1076   */\n      0x20\n        /* \"#utility.yul\":1063:1072   */\n      dup3\n        /* \"#utility.yul\":1059:1077   */\n      add\n        /* \"#utility.yul\":1051:1077   */\n      swap1\n      pop\n        /* \"#utility.yul\":1123:1132   */\n      dup2\n        /* \"#utility.yul\":1117:1121   */\n      dup2\n        /* \"#utility.yul\":1113:1133   */\n      sub\n        /* \"#utility.yul\":1109:1110   */\n      0x00\n        /* \"#utility.yul\":1098:1107   */\n      dup4\n        /* \"#utility.yul\":1094:1111   */\n      add\n        /* \"#utility.yul\":1087:1134   */\n      mstore\n        /* \"#utility.yul\":1151:1229   */\n      tag_383\n        /* \"#utility.yul\":1224:1228   */\n      dup2\n        /* \"#utility.yul\":1215:1221   */\n      dup5\n        /* \"#utility.yul\":1151:1229   */\n      tag_290\n      jump\t// in\n    tag_383:\n        /* \"#utility.yul\":1143:1229   */\n      swap1\n      pop\n        /* \"#utility.yul\":923:1236   */\n      swap3\n      swap2\n      pop\n      pop\n      jump\t// out\n        /* \"#utility.yul\":1242:1317   */\n    tag_291:\n        /* \"#utility.yul\":1275:1281   */\n      0x00\n        /* \"#utility.yul\":1308:1310   */\n      0x40\n        /* \"#utility.yul\":1302:1311   */\n      mload\n        /* \"#utility.yul\":1292:1311   */\n      swap1\n      pop\n        /* \"#utility.yul\":1242:1317   */\n      swap1\n      jump\t// out\n        /* \"#utility.yul\":1323:1440   */\n    tag_292:\n        /* \"#utility.yul\":1432:1433   */\n      0x00\n        /* \"#utility.yul\":1429:1430   */\n      dup1\n        /* \"#utility.yul\":1422:1434   */\n      revert\n        /* \"#utility.yul\":1446:1563   */\n    tag_293:\n        /* \"#utility.yul\":1555:1556   */\n      0x00\n        /* \"#utility.yul\":1552:1553   */\n      dup1\n        /* \"#utility.yul\":1545:1557   */\n      revert\n        /* \"#utility.yul\":1569:1695   */\n    tag_294:\n        /* \"#utility.yul\":1606:1613   */\n      0x00\n        /* \"#utility.yul\":1646:1688   */\n      0xffffffffffffffffffffffffffffffffffffffff\n        /* \"#utility.yul\":1639:1644   */\n      dup3\n        /* \"#utility.yul\":1635:1689   */\n      and\n        /* \"#utility.yul\":1624:1689   */\n      swap1\n      pop\n        /* \"#utility.yul\":1569:1695   */\n      swap2\n      swap1\n      pop\n      jump\t// out\n        /* \"#utility.yul\":1701:1797   */\n    tag_295:\n        /* \"#utility.yul\":1738:1745   */\n      0x00\n        /* \"#utility.yul\":1767:1791   */\n      tag_389\n        /* \"#utility.yul\":1785:1790   */\n      dup3\n        /* \"#utility.yul\":1767:1791   */\n      tag_294\n      jump\t// in\n    tag_389:\n        /* \"#utility.yul\":1756:1791   */\n      swap1\n      pop\n        /* \"#utility.yul\":1701:1797   */\n      swap2\n      swap1\n      pop\n      jump\t// out\n        /* \"#utility.yul\":1803:1925   */\n    tag_296:\n        /* \"#utility.yul\":1876:1900   */\n      tag_391\n        /* \"#utility.yul\":1894:1899   */\n      dup2\n        /* \"#utility.yul\":1876:1900   */\n      tag_295\n      jump\t// in\n    tag_391:\n        /* \"#utility.yul\":1869:1874   */\n      dup2\n        /* \"#utility.yul\":1866:1901   */\n      eq\n        /* \"#utility.yul\":1856:1919   */\n      tag_392\n      jumpi\n        /* \"#utility.yul\":1915:1916   */\n      0x00\n        /* \"#utility.yul\":1912:1913   */\n      dup1\n        /* \"#utility.yul\":1905:1917   */\n      revert\n        /* \"#utility.yul\":1856:1919   */\n    tag_392:\n        /* \"#utility.yul\":1803:1925   */\n      pop\n      jump\t// out\n        /* \"#utility.yul\":1931:2070   */\n    tag_297:\n        /* \"#utility.yul\":1977:1982   */\n      0x00\n        /* \"#utility.yul\":2015:2021   */\n      dup2\n        /* \"#utility.yul\":2002:2022   */\n      calldataload\n        /* \"#utility.yul\":1993:2022   */\n      swap1\n      pop\n        /* \"#utility.yul\":2031:2064   */\n      tag_394\n        /* \"#utility.yul\":2058:2063   */\n      dup2\n        /* \"#utility.yul\":2031:2064   */\n      tag_296\n      jump\t// in\n    tag_394:\n        /* \"#utility.yul\":1931:2070   */\n      swap3\n      swap2\n      pop\n      pop\n      jump\t// out\n        /* \"#utility.yul\":2076:2153   */\n    tag_298:\n        /* \"#utility.yul\":2113:2120   */\n      0x00\n        /* \"#utility.yul\":2142:2147   */\n      dup2\n        /* \"#utility.yul\":2131:2147   */\n      swap1\n      pop\n        /* \"#utility.yul\":2076:2153   */\n      swap2\n      swap1\n      pop\n      jump\t// out\n        /* \"#utility.yul\":2159:2281   */\n    tag_299:\n        /* \"#utility.yul\":2232:2256   */\n      tag_397\n        /* \"#utility.yul\":2250:2255   */\n      dup2\n        /* \"#utility.yul\":2232:2256   */\n      tag_298\n      jump\t// in\n    tag_397:\n        /* \"#utility.yul\":2225:2230   */\n      dup2\n        /* \"#utility.yul\":2222:2257   */\n      eq\n        /* \"#utility.yul\":2212:2275   */\n      tag_398\n      jumpi\n        /* \"#utility.yul\":2271:2272   */\n      0x00\n        /* \"#utility.yul\":2268:2269   */\n      dup1\n        /* \"#utility.yul\":2261:2273   */\n      revert\n        /* \"#utility.yul\":2212:2275   */\n    tag_398:\n        /* \"#utility.yul\":2159:2281   */\n      pop\n      jump\t// out\n        /* \"#utility.yul\":2287:2426   */\n    tag_300:\n        /* \"#utility.yul\":2333:2338   */\n      0x00\n        /* \"#utility.yul\":2371:2377   */\n      dup2\n        /* \"#utility.yul\":2358:2378   */\n      calldataload\n        /* \"#utility.yul\":2349:2378   */\n      swap1\n      pop\n        /* \"#utility.yul\":2387:2420   */\n      tag_400\n        /* \"#utility.yul\":2414:2419   */\n      dup2\n        /* \"#utility.yul\":2387:2420   */\n      tag_299\n      jump\t// in\n    tag_400:\n        /* \"#utility.yul\":2287:2426   */\n      swap3\n      swap2\n      pop\n      pop\n      jump\t// out\n        /* \"#utility.yul\":2432:2906   */\n    tag_35:\n        /* \"#utility.yul\":2500:2506   */\n      0x00\n        /* \"#utility.yul\":2508:2514   */\n      dup1\n        /* \"#utility.yul\":2557:2559   */\n      0x40\n        /* \"#utility.yul\":2545:2554   */\n      dup4\n        /* \"#utility.yul\":2536:2543   */\n      dup6\n        /* \"#utility.yul\":2532:2555   */\n      sub\n        /* \"#utility.yul\":2528:2560   */\n      slt\n        /* \"#utility.yul\":2525:2644   */\n      iszero\n      tag_402\n      jumpi\n        /* \"#utility.yul\":2563:2642   */\n      tag_403\n      tag_292\n      jump\t// in\n    tag_403:\n        /* \"#utility.yul\":2525:2644   */\n    tag_402:\n        /* \"#utility.yul\":2683:2684   */\n      0x00\n        /* \"#utility.yul\":2708:2761   */\n      tag_404\n        /* \"#utility.yul\":2753:2760   */\n      dup6\n        /* \"#utility.yul\":2744:2750   */\n      dup3\n        /* \"#utility.yul\":2733:2742   */\n      dup7\n        /* \"#utility.yul\":2729:2751   */\n      add\n        /* \"#utility.yul\":2708:2761   */\n      tag_297\n      jump\t// in\n    tag_404:\n        /* \"#utility.yul\":2698:2761   */\n      swap3\n      pop\n        /* \"#utility.yul\":2654:2771   */\n      pop\n        /* \"#utility.yul\":2810:2812   */\n      0x20\n        /* \"#utility.yul\":2836:2889   */\n      tag_405\n        /* \"#utility.yul\":2881:2888   */\n      dup6\n        /* \"#utility.yul\":2872:2878   */\n      dup3\n        /* \"#utility.yul\":2861:2870   */\n      dup7\n        /* \"#utility.yul\":2857:2879   */\n      add\n        /* \"#utility.yul\":2836:2889   */\n      tag_300\n      jump\t// in\n    tag_405:\n        /* \"#utility.yul\":2826:2889   */\n      swap2\n      pop\n        /* \"#utility.yul\":2781:2899   */\n      pop\n        /* \"#utility.yul\":2432:2906   */\n      swap3\n      pop\n      swap3\n      swap1\n      pop\n      jump\t// out\n        /* \"#utility.yul\":2912:3002   */\n    tag_301:\n        /* \"#utility.yul\":2946:2953   */\n      0x00\n        /* \"#utility.yul\":2989:2994   */\n      dup2\n        /* \"#utility.yul\":2982:2995   */\n      iszero\n        /* \"#utility.yul\":2975:2996   */\n      iszero\n        /* \"#utility.yul\":2964:2996   */\n      swap1\n      pop\n        /* \"#utility.yul\":2912:3002   */\n      swap2\n      swap1\n      pop\n      jump\t// out\n        /* \"#utility.yul\":3008:3117   */\n    tag_302:\n        /* \"#utility.yul\":3089:3110   */\n      tag_408\n        /* \"#utility.yul\":3104:3109   */\n      dup2\n        /* \"#utility.yul\":3089:3110   */\n      tag_301\n      jump\t// in\n    tag_408:\n        /* \"#utility.yul\":3084:3087   */\n      dup3\n        /* \"#utility.yul\":3077:3111   */\n      mstore\n        /* \"#utility.yul\":3008:3117   */\n      pop\n      pop\n      jump\t// out\n        /* \"#utility.yul\":3123:3333   */\n    tag_38:\n        /* \"#utility.yul\":3210:3214   */\n      0x00\n        /* \"#utility.yul\":3248:3250   */\n      0x20\n        /* \"#utility.yul\":3237:3246   */\n      dup3\n        /* \"#utility.yul\":3233:3251   */\n      add\n        /* \"#utility.yul\":3225:3251   */\n      swap1\n      pop\n        /* \"#utility.yul\":3261:3326   */\n      tag_410\n        /* \"#utility.yul\":3323:3324   */\n      0x00\n        /* \"#utility.yul\":3312:3321   */\n      dup4\n        /* \"#utility.yul\":3308:3325   */\n      add\n        /* \"#utility.yul\":3299:3305   */\n      dup5\n        /* \"#utility.yul\":3261:3326   */\n      tag_302\n      jump\t// in\n    tag_410:\n        /* \"#utility.yul\":3123:3333   */\n      swap3\n      swap2\n      pop\n      pop\n      jump\t// out\n        /* \"#utility.yul\":3339:3457   */\n    tag_303:\n        /* \"#utility.yul\":3426:3450   */\n      tag_412\n        /* \"#utility.yul\":3444:3449   */\n      dup2\n        /* \"#utility.yul\":3426:3450   */\n      tag_298\n      jump\t// in\n    tag_412:\n        /* \"#utility.yul\":3421:3424   */\n      dup3\n        /* \"#utility.yul\":3414:3451   */\n      mstore\n        /* \"#utility.yul\":3339:3457   */\n      pop\n      pop\n      jump\t// out\n        /* \"#utility.yul\":3463:3685   */\n    tag_42:\n        /* \"#utility.yul\":3556:3560   */\n      0x00\n        /* \"#utility.yul\":3594:3596   */\n      0x20\n        /* \"#utility.yul\":3583:3592   */\n      dup3\n        /* \"#utility.yul\":3579:3597   */\n      add\n        /* \"#utility.yul\":3571:3597   */\n      swap1\n      pop\n        /* \"#utility.yul\":3607:3678   */\n      tag_414\n        /* \"#utility.yul\":3675:3676   */\n      0x00\n        /* \"#utility.yul\":3664:3673   */\n      dup4\n        /* \"#utility.yul\":3660:3677   */\n      add\n        /* \"#utility.yul\":3651:3657   */\n      dup5\n        /* \"#utility.yul\":3607:3678   */\n      tag_303\n      jump\t// in\n    tag_414:\n        /* \"#utility.yul\":3463:3685   */\n      swap3\n      swap2\n      pop\n      pop\n      jump\t// out\n        /* \"#utility.yul\":3691:4310   */\n    tag_45:\n        /* \"#utility.yul\":3768:3774   */\n      0x00\n        /* \"#utility.yul\":3776:3782   */\n      dup1\n        /* \"#utility.yul\":3784:3790   */\n      0x00\n        /* \"#utility.yul\":3833:3835   */\n      0x60\n        /* \"#utility.yul\":3821:3830   */\n      dup5\n        /* \"#utility.yul\":3812:3819   */\n      dup7\n        /* \"#utility.yul\":3808:3831   */\n      sub\n        /* \"#utility.yul\":3804:3836   */\n      slt\n        /* \"#utility.yul\":3801:3920   */\n      iszero\n      tag_416\n      jumpi\n        /* \"#utility.yul\":3839:3918   */\n      tag_417\n      tag_292\n      jump\t// in\n    tag_417:\n        /* \"#utility.yul\":3801:3920   */\n    tag_416:\n        /* \"#utility.yul\":3959:3960   */\n      0x00\n        /* \"#utility.yul\":3984:4037   */\n      tag_418\n        /* \"#utility.yul\":4029:4036   */\n      dup7\n        /* \"#utility.yul\":4020:4026   */\n      dup3\n        /* \"#utility.yul\":4009:4018   */\n      dup8\n        /* \"#utility.yul\":4005:4027   */\n      add\n        /* \"#utility.yul\":3984:4037   */\n      tag_297\n      jump\t// in\n    tag_418:\n        /* \"#utility.yul\":3974:4037   */\n      swap4\n      pop\n        /* \"#utility.yul\":3930:4047   */\n      pop\n        /* \"#utility.yul\":4086:4088   */\n      0x20\n        /* \"#utility.yul\":4112:4165   */\n      tag_419\n        /* \"#utility.yul\":4157:4164   */\n      dup7\n        /* \"#utility.yul\":4148:4154   */\n      dup3\n        /* \"#utility.yul\":4137:4146   */\n      dup8\n        /* \"#utility.yul\":4133:4155   */\n      add\n        /* \"#utility.yul\":4112:4165   */\n      tag_297\n      jump\t// in\n    tag_419:\n        /* \"#utility.yul\":4102:4165   */\n      swap3\n      pop\n        /* \"#utility.yul\":4057:4175   */\n      pop\n        /* \"#utility.yul\":4214:4216   */\n      0x40\n        /* \"#utility.yul\":4240:4293   */\n      tag_420\n        /* \"#utility.yul\":4285:4292   */\n      dup7\n        /* \"#utility.yul\":4276:4282   */\n      dup3\n        /* \"#utility.yul\":4265:4274   */\n      dup8\n        /* \"#utility.yul\":4261:4283   */\n      add\n        /* \"#utility.yul\":4240:4293   */\n      tag_300\n      jump\t// in\n    tag_420:\n        /* \"#utility.yul\":4230:4293   */\n      swap2\n      pop\n        /* \"#utility.yul\":4185:4303   */\n      pop\n        /* \"#utility.yul\":3691:4310   */\n      swap3\n      pop\n      swap3\n      pop\n      swap3\n      jump\t// out\n        /* \"#utility.yul\":4316:4402   */\n    tag_304:\n        /* \"#utility.yul\":4351:4358   */\n      0x00\n        /* \"#utility.yul\":4391:4395   */\n      0xff\n        /* \"#utility.yul\":4384:4389   */\n      dup3\n        /* \"#utility.yul\":4380:4396   */\n      and\n        /* \"#utility.yul\":4369:4396   */\n      swap1\n      pop\n        /* \"#utility.yul\":4316:4402   */\n      swap2\n      swap1\n      pop\n      jump\t// out\n        /* \"#utility.yul\":4408:4520   */\n    tag_305:\n        /* \"#utility.yul\":4491:4513   */\n      tag_423\n        /* \"#utility.yul\":4507:4512   */\n      dup2\n        /* \"#utility.yul\":4491:4513   */\n      tag_304\n      jump\t// in\n    tag_423:\n        /* \"#utility.yul\":4486:4489   */\n      dup3\n        /* \"#utility.yul\":4479:4514   */\n      mstore\n        /* \"#utility.yul\":4408:4520   */\n      pop\n      pop\n      jump\t// out\n        /* \"#utility.yul\":4526:4740   */\n    tag_51:\n        /* \"#utility.yul\":4615:4619   */\n      0x00\n        /* \"#utility.yul\":4653:4655   */\n      0x20\n        /* \"#utility.yul\":4642:4651   */\n      dup3\n        /* \"#utility.yul\":4638:4656   */\n      add\n        /* \"#utility.yul\":4630:4656   */\n      swap1\n      pop\n        /* \"#utility.yul\":4666:4733   */\n      tag_425\n        /* \"#utility.yul\":4730:4731   */\n      0x00\n        /* \"#utility.yul\":4719:4728   */\n      dup4\n        /* \"#utility.yul\":4715:4732   */\n      add\n        /* \"#utility.yul\":4706:4712   */\n      dup5\n        /* \"#utility.yul\":4666:4733   */\n      tag_305\n      jump\t// in\n    tag_425:\n        /* \"#utility.yul\":4526:4740   */\n      swap3\n      swap2\n      pop\n      pop\n      jump\t// out\n        /* \"#utility.yul\":4746:5075   */\n    tag_54:\n        /* \"#utility.yul\":4805:4811   */\n      0x00\n        /* \"#utility.yul\":4854:4856   */\n      0x20\n        /* \"#utility.yul\":4842:4851   */\n      dup3\n        /* \"#utility.yul\":4833:4840   */\n      dup5\n        /* \"#utility.yul\":4829:4852   */\n      sub\n        /* \"#utility.yul\":4825:4857   */\n      slt\n        /* \"#utility.yul\":4822:4941   */\n      iszero\n      tag_427\n      jumpi\n        /* \"#utility.yul\":4860:4939   */\n      tag_428\n      tag_292\n      jump\t// in\n    tag_428:\n        /* \"#utility.yul\":4822:4941   */\n    tag_427:\n        /* \"#utility.yul\":4980:4981   */\n      0x00\n        /* \"#utility.yul\":5005:5058   */\n      tag_429\n        /* \"#utility.yul\":5050:5057   */\n      dup5\n        /* \"#utility.yul\":5041:5047   */\n      dup3\n        /* \"#utility.yul\":5030:5039   */\n      dup6\n        /* \"#utility.yul\":5026:5048   */\n      add\n        /* \"#utility.yul\":5005:5058   */\n      tag_300\n      jump\t// in\n    tag_429:\n        /* \"#utility.yul\":4995:5058   */\n      swap2\n      pop\n        /* \"#utility.yul\":4951:5068   */\n      pop\n        /* \"#utility.yul\":4746:5075   */\n      swap3\n      swap2\n      pop\n      pop\n      jump\t// out\n        /* \"#utility.yul\":5081:5504   */\n    tag_70:\n        /* \"#utility.yul\":5222:5226   */\n      0x00\n        /* \"#utility.yul\":5260:5262   */\n      0x40\n        /* \"#utility.yul\":5249:5258   */\n      dup3\n        /* \"#utility.yul\":5245:5263   */\n      add\n        /* \"#utility.yul\":5237:5263   */\n      swap1\n      pop\n        /* \"#utility.yul\":5309:5318   */\n      dup2\n        /* \"#utility.yul\":5303:5307   */\n      dup2\n        /* \"#utility.yul\":5299:5319   */\n      sub\n        /* \"#utility.yul\":5295:5296   */\n      0x00\n        /* \"#utility.yul\":5284:5293   */\n      dup4\n        /* \"#utility.yul\":5280:5297   */\n      add\n        /* \"#utility.yul\":5273:5320   */\n      mstore\n        /* \"#utility.yul\":5337:5415   */\n      tag_431\n        /* \"#utility.yul\":5410:5414   */\n      dup2\n        /* \"#utility.yul\":5401:5407   */\n      dup6\n        /* \"#utility.yul\":5337:5415   */\n      tag_290\n      jump\t// in\n    tag_431:\n        /* \"#utility.yul\":5329:5415   */\n      swap1\n      pop\n        /* \"#utility.yul\":5425:5497   */\n      tag_432\n        /* \"#utility.yul\":5493:5495   */\n      0x20\n        /* \"#utility.yul\":5482:5491   */\n      dup4\n        /* \"#utility.yul\":5478:5496   */\n      add\n        /* \"#utility.yul\":5469:5475   */\n      dup5\n        /* \"#utility.yul\":5425:5497   */\n      tag_303\n      jump\t// in\n    tag_432:\n        /* \"#utility.yul\":5081:5504   */\n      swap4\n      swap3\n      pop\n      pop\n      pop\n      jump\t// out\n        /* \"#utility.yul\":5510:5839   */\n    tag_73:\n        /* \"#utility.yul\":5569:5575   */\n      0x00\n        /* \"#utility.yul\":5618:5620   */\n      0x20\n        /* \"#utility.yul\":5606:5615   */\n      dup3\n        /* \"#utility.yul\":5597:5604   */\n      dup5\n        /* \"#utility.yul\":5593:5616   */\n      sub\n        /* \"#utility.yul\":5589:5621   */\n      slt\n        /* \"#utility.yul\":5586:5705   */\n      iszero\n      tag_434\n      jumpi\n        /* \"#utility.yul\":5624:5703   */\n      tag_435\n      tag_292\n      jump\t// in\n    tag_435:\n        /* \"#utility.yul\":5586:5705   */\n    tag_434:\n        /* \"#utility.yul\":5744:5745   */\n      0x00\n        /* \"#utility.yul\":5769:5822   */\n      tag_436\n        /* \"#utility.yul\":5814:5821   */\n      dup5\n        /* \"#utility.yul\":5805:5811   */\n      dup3\n        /* \"#utility.yul\":5794:5803   */\n      dup6\n        /* \"#utility.yul\":5790:5812   */\n      add\n        /* \"#utility.yul\":5769:5822   */\n      tag_297\n      jump\t// in\n    tag_436:\n        /* \"#utility.yul\":5759:5822   */\n      swap2\n      pop\n        /* \"#utility.yul\":5715:5832   */\n      pop\n        /* \"#utility.yul\":5510:5839   */\n      swap3\n      swap2\n      pop\n      pop\n      jump\t// out\n        /* \"#utility.yul\":5845:5962   */\n    tag_306:\n        /* \"#utility.yul\":5954:5955   */\n      0x00\n        /* \"#utility.yul\":5951:5952   */\n      dup1\n        /* \"#utility.yul\":5944:5956   */\n      revert\n        /* \"#utility.yul\":5968:6085   */\n    tag_307:\n        /* \"#utility.yul\":6077:6078   */\n      0x00\n        /* \"#utility.yul\":6074:6075   */\n      dup1\n        /* \"#utility.yul\":6067:6079   */\n      revert\n        /* \"#utility.yul\":6091:6271   */\n    tag_308:\n        /* \"#utility.yul\":6139:6216   */\n      0x4e487b7100000000000000000000000000000000000000000000000000000000\n        /* \"#utility.yul\":6136:6137   */\n      0x00\n        /* \"#utility.yul\":6129:6217   */\n      mstore\n        /* \"#utility.yul\":6236:6240   */\n      0x41\n        /* \"#utility.yul\":6233:6234   */\n      0x04\n        /* \"#utility.yul\":6226:6241   */\n      mstore\n        /* \"#utility.yul\":6260:6264   */\n      0x24\n        /* \"#utility.yul\":6257:6258   */\n      0x00\n        /* \"#utility.yul\":6250:6265   */\n      revert\n        /* \"#utility.yul\":6277:6558   */\n    tag_309:\n        /* \"#utility.yul\":6360:6387   */\n      tag_441\n        /* \"#utility.yul\":6382:6386   */\n      dup3\n        /* \"#utility.yul\":6360:6387   */\n      tag_289\n      jump\t// in\n    tag_441:\n        /* \"#utility.yul\":6352:6358   */\n      dup2\n        /* \"#utility.yul\":6348:6388   */\n      add\n        /* \"#utility.yul\":6490:6496   */\n      dup2\n        /* \"#utility.yul\":6478:6488   */\n      dup2\n        /* \"#utility.yul\":6475:6497   */\n      lt\n        /* \"#utility.yul\":6454:6472   */\n      0xffffffffffffffff\n        /* \"#utility.yul\":6442:6452   */\n      dup3\n        /* \"#utility.yul\":6439:6473   */\n      gt\n        /* \"#utility.yul\":6436:6498   */\n      or\n        /* \"#utility.yul\":6433:6521   */\n      iszero\n      tag_442\n      jumpi\n        /* \"#utility.yul\":6501:6519   */\n      tag_443\n      tag_308\n      jump\t// in\n    tag_443:\n        /* \"#utility.yul\":6433:6521   */\n    tag_442:\n        /* \"#utility.yul\":6541:6551   */\n      dup1\n        /* \"#utility.yul\":6537:6539   */\n      0x40\n        /* \"#utility.yul\":6530:6552   */\n      mstore\n        /* \"#utility.yul\":6320:6558   */\n      pop\n        /* \"#utility.yul\":6277:6558   */\n      pop\n      pop\n      jump\t// out\n        /* \"#utility.yul\":6564:6693   */\n    tag_310:\n        /* \"#utility.yul\":6598:6604   */\n      0x00\n        /* \"#utility.yul\":6625:6645   */\n      tag_445\n      tag_291\n      jump\t// in\n    tag_445:\n        /* \"#utility.yul\":6615:6645   */\n      swap1\n      pop\n        /* \"#utility.yul\":6654:6687   */\n      tag_446\n        /* \"#utility.yul\":6682:6686   */\n      dup3\n        /* \"#utility.yul\":6674:6680   */\n      dup3\n        /* \"#utility.yul\":6654:6687   */\n      tag_309\n      jump\t// in\n    tag_446:\n        /* \"#utility.yul\":6564:6693   */\n      swap2\n      swap1\n      pop\n      jump\t// out\n        /* \"#utility.yul\":6699:7007   */\n    tag_311:\n        /* \"#utility.yul\":6761:6765   */\n      0x00\n        /* \"#utility.yul\":6851:6869   */\n      0xffffffffffffffff\n        /* \"#utility.yul\":6843:6849   */\n      dup3\n        /* \"#utility.yul\":6840:6870   */\n      gt\n        /* \"#utility.yul\":6837:6893   */\n      iszero\n      tag_448\n      jumpi\n        /* \"#utility.yul\":6873:6891   */\n      tag_449\n      tag_308\n      jump\t// in\n    tag_449:\n        /* \"#utility.yul\":6837:6893   */\n    tag_448:\n        /* \"#utility.yul\":6911:6940   */\n      tag_450\n        /* \"#utility.yul\":6933:6939   */\n      dup3\n        /* \"#utility.yul\":6911:6940   */\n      tag_289\n      jump\t// in\n    tag_450:\n        /* \"#utility.yul\":6903:6940   */\n      swap1\n      pop\n        /* \"#utility.yul\":6995:6999   */\n      0x20\n        /* \"#utility.yul\":6989:6993   */\n      dup2\n        /* \"#utility.yul\":6985:7000   */\n      add\n        /* \"#utility.yul\":6977:7000   */\n      swap1\n      pop\n        /* \"#utility.yul\":6699:7007   */\n      swap2\n      swap1\n      pop\n      jump\t// out\n        /* \"#utility.yul\":7013:7161   */\n    tag_312:\n        /* \"#utility.yul\":7111:7117   */\n      dup3\n        /* \"#utility.yul\":7106:7109   */\n      dup2\n        /* \"#utility.yul\":7101:7104   */\n      dup4\n        /* \"#utility.yul\":7088:7118   */\n      calldatacopy\n        /* \"#utility.yul\":7152:7153   */\n      0x00\n        /* \"#utility.yul\":7143:7149   */\n      dup4\n        /* \"#utility.yul\":7138:7141   */\n      dup4\n        /* \"#utility.yul\":7134:7150   */\n      add\n        /* \"#utility.yul\":7127:7154   */\n      mstore\n        /* \"#utility.yul\":7013:7161   */\n      pop\n      pop\n      pop\n      jump\t// out\n        /* \"#utility.yul\":7167:7592   */\n    tag_313:\n        /* \"#utility.yul\":7245:7250   */\n      0x00\n        /* \"#utility.yul\":7270:7336   */\n      tag_453\n        /* \"#utility.yul\":7286:7335   */\n      tag_454\n        /* \"#utility.yul\":7328:7334   */\n      dup5\n        /* \"#utility.yul\":7286:7335   */\n      tag_311\n      jump\t// in\n    tag_454:\n        /* \"#utility.yul\":7270:7336   */\n      tag_310\n      jump\t// in\n    tag_453:\n        /* \"#utility.yul\":7261:7336   */\n      swap1\n      pop\n        /* \"#utility.yul\":7359:7365   */\n      dup3\n        /* \"#utility.yul\":7352:7357   */\n      dup2\n        /* \"#utility.yul\":7345:7366   */\n      mstore\n        /* \"#utility.yul\":7397:7401   */\n      0x20\n        /* \"#utility.yul\":7390:7395   */\n      dup2\n        /* \"#utility.yul\":7386:7402   */\n      add\n        /* \"#utility.yul\":7435:7438   */\n      dup5\n        /* \"#utility.yul\":7426:7432   */\n      dup5\n        /* \"#utility.yul\":7421:7424   */\n      dup5\n        /* \"#utility.yul\":7417:7433   */\n      add\n        /* \"#utility.yul\":7414:7439   */\n      gt\n        /* \"#utility.yul\":7411:7523   */\n      iszero\n      tag_455\n      jumpi\n        /* \"#utility.yul\":7442:7521   */\n      tag_456\n      tag_307\n      jump\t// in\n    tag_456:\n        /* \"#utility.yul\":7411:7523   */\n    tag_455:\n        /* \"#utility.yul\":7532:7586   */\n      tag_457\n        /* \"#utility.yul\":7579:7585   */\n      dup5\n        /* \"#utility.yul\":7574:7577   */\n      dup3\n        /* \"#utility.yul\":7569:7572   */\n      dup6\n        /* \"#utility.yul\":7532:7586   */\n      tag_312\n      jump\t// in\n    tag_457:\n        /* \"#utility.yul\":7251:7592   */\n      pop\n        /* \"#utility.yul\":7167:7592   */\n      swap4\n      swap3\n      pop\n      pop\n      pop\n      jump\t// out\n        /* \"#utility.yul\":7612:7952   */\n    tag_314:\n        /* \"#utility.yul\":7668:7673   */\n      0x00\n        /* \"#utility.yul\":7717:7720   */\n      dup3\n        /* \"#utility.yul\":7710:7714   */\n      0x1f\n        /* \"#utility.yul\":7702:7708   */\n      dup4\n        /* \"#utility.yul\":7698:7715   */\n      add\n        /* \"#utility.yul\":7694:7721   */\n      slt\n        /* \"#utility.yul\":7684:7806   */\n      tag_459\n      jumpi\n        /* \"#utility.yul\":7725:7804   */\n      tag_460\n      tag_306\n      jump\t// in\n    tag_460:\n        /* \"#utility.yul\":7684:7806   */\n    tag_459:\n        /* \"#utility.yul\":7842:7848   */\n      dup2\n        /* \"#utility.yul\":7829:7849   */\n      calldataload\n        /* \"#utility.yul\":7867:7946   */\n      tag_461\n        /* \"#utility.yul\":7942:7945   */\n      dup5\n        /* \"#utility.yul\":7934:7940   */\n      dup3\n        /* \"#utility.yul\":7927:7931   */\n      0x20\n        /* \"#utility.yul\":7919:7925   */\n      dup7\n        /* \"#utility.yul\":7915:7932   */\n      add\n        /* \"#utility.yul\":7867:7946   */\n      tag_313\n      jump\t// in\n    tag_461:\n        /* \"#utility.yul\":7858:7946   */\n      swap2\n      pop\n        /* \"#utility.yul\":7674:7952   */\n      pop\n        /* \"#utility.yul\":7612:7952   */\n      swap3\n      swap2\n      pop\n      pop\n      jump\t// out\n        /* \"#utility.yul\":7958:8612   */\n    tag_86:\n        /* \"#utility.yul\":8036:8042   */\n      0x00\n        /* \"#utility.yul\":8044:8050   */\n      dup1\n        /* \"#utility.yul\":8093:8095   */\n      0x40\n        /* \"#utility.yul\":8081:8090   */\n      dup4\n        /* \"#utility.yul\":8072:8079   */\n      dup6\n        /* \"#utility.yul\":8068:8091   */\n      sub\n        /* \"#utility.yul\":8064:8096   */\n      slt\n        /* \"#utility.yul\":8061:8180   */\n      iszero\n      tag_463\n      jumpi\n        /* \"#utility.yul\":8099:8178   */\n      tag_464\n      tag_292\n      jump\t// in\n    tag_464:\n        /* \"#utility.yul\":8061:8180   */\n    tag_463:\n        /* \"#utility.yul\":8247:8248   */\n      0x00\n        /* \"#utility.yul\":8236:8245   */\n      dup4\n        /* \"#utility.yul\":8232:8249   */\n      add\n        /* \"#utility.yul\":8219:8250   */\n      calldataload\n        /* \"#utility.yul\":8277:8295   */\n      0xffffffffffffffff\n        /* \"#utility.yul\":8269:8275   */\n      dup2\n        /* \"#utility.yul\":8266:8296   */\n      gt\n        /* \"#utility.yul\":8263:8380   */\n      iszero\n      tag_465\n      jumpi\n        /* \"#utility.yul\":8299:8378   */\n      tag_466\n      tag_293\n      jump\t// in\n    tag_466:\n        /* \"#utility.yul\":8263:8380   */\n    tag_465:\n        /* \"#utility.yul\":8404:8467   */\n      tag_467\n        /* \"#utility.yul\":8459:8466   */\n      dup6\n        /* \"#utility.yul\":8450:8456   */\n      dup3\n        /* \"#utility.yul\":8439:8448   */\n      dup7\n        /* \"#utility.yul\":8435:8457   */\n      add\n        /* \"#utility.yul\":8404:8467   */\n      tag_314\n      jump\t// in\n    tag_467:\n        /* \"#utility.yul\":8394:8467   */\n      swap3\n      pop\n        /* \"#utility.yul\":8190:8477   */\n      pop\n        /* \"#utility.yul\":8516:8518   */\n      0x20\n        /* \"#utility.yul\":8542:8595   */\n      tag_468\n        /* \"#utility.yul\":8587:8594   */\n      dup6\n        /* \"#utility.yul\":8578:8584   */\n      dup3\n        /* \"#utility.yul\":8567:8576   */\n      dup7\n        /* \"#utility.yul\":8563:8585   */\n      add\n        /* \"#utility.yul\":8542:8595   */\n      tag_300\n      jump\t// in\n    tag_468:\n        /* \"#utility.yul\":8532:8595   */\n      swap2\n      pop\n        /* \"#utility.yul\":8487:8605   */\n      pop\n        /* \"#utility.yul\":7958:8612   */\n      swap3\n      pop\n      swap3\n      swap1\n      pop\n      jump\t// out\n        /* \"#utility.yul\":8618:8736   */\n    tag_315:\n        /* \"#utility.yul\":8705:8729   */\n      tag_470\n        /* \"#utility.yul\":8723:8728   */\n      dup2\n        /* \"#utility.yul\":8705:8729   */\n      tag_295\n      jump\t// in\n    tag_470:\n        /* \"#utility.yul\":8700:8703   */\n      dup3\n        /* \"#utility.yul\":8693:8730   */\n      mstore\n        /* \"#utility.yul\":8618:8736   */\n      pop\n      pop\n      jump\t// out\n        /* \"#utility.yul\":8742:8964   */\n    tag_91:\n        /* \"#utility.yul\":8835:8839   */\n      0x00\n        /* \"#utility.yul\":8873:8875   */\n      0x20\n        /* \"#utility.yul\":8862:8871   */\n      dup3\n        /* \"#utility.yul\":8858:8876   */\n      add\n        /* \"#utility.yul\":8850:8876   */\n      swap1\n      pop\n        /* \"#utility.yul\":8886:8957   */\n      tag_472\n        /* \"#utility.yul\":8954:8955   */\n      0x00\n        /* \"#utility.yul\":8943:8952   */\n      dup4\n        /* \"#utility.yul\":8939:8956   */\n      add\n        /* \"#utility.yul\":8930:8936   */\n      dup5\n        /* \"#utility.yul\":8886:8957   */\n      tag_315\n      jump\t// in\n    tag_472:\n        /* \"#utility.yul\":8742:8964   */\n      swap3\n      swap2\n      pop\n      pop\n      jump\t// out\n        /* \"#utility.yul\":8970:9444   */\n    tag_109:\n        /* \"#utility.yul\":9038:9044   */\n      0x00\n        /* \"#utility.yul\":9046:9052   */\n      dup1\n        /* \"#utility.yul\":9095:9097   */\n      0x40\n        /* \"#utility.yul\":9083:9092   */\n      dup4\n        /* \"#utility.yul\":9074:9081   */\n      dup6\n        /* \"#utility.yul\":9070:9093   */\n      sub\n        /* \"#utility.yul\":9066:9098   */\n      slt\n        /* \"#utility.yul\":9063:9182   */\n      iszero\n      tag_474\n      jumpi\n        /* \"#utility.yul\":9101:9180   */\n      tag_475\n      tag_292\n      jump\t// in\n    tag_475:\n        /* \"#utility.yul\":9063:9182   */\n    tag_474:\n        /* \"#utility.yul\":9221:9222   */\n      0x00\n        /* \"#utility.yul\":9246:9299   */\n      tag_476\n        /* \"#utility.yul\":9291:9298   */\n      dup6\n        /* \"#utility.yul\":9282:9288   */\n      dup3\n        /* \"#utility.yul\":9271:9280   */\n      dup7\n        /* \"#utility.yul\":9267:9289   */\n      add\n        /* \"#utility.yul\":9246:9299   */\n      tag_297\n      jump\t// in\n    tag_476:\n        /* \"#utility.yul\":9236:9299   */\n      swap3\n      pop\n        /* \"#utility.yul\":9192:9309   */\n      pop\n        /* \"#utility.yul\":9348:9350   */\n      0x20\n        /* \"#utility.yul\":9374:9427   */\n      tag_477\n        /* \"#utility.yul\":9419:9426   */\n      dup6\n        /* \"#utility.yul\":9410:9416   */\n      dup3\n        /* \"#utility.yul\":9399:9408   */\n      dup7\n        /* \"#utility.yul\":9395:9417   */\n      add\n        /* \"#utility.yul\":9374:9427   */\n      tag_297\n      jump\t// in\n    tag_477:\n        /* \"#utility.yul\":9364:9427   */\n      swap2\n      pop\n        /* \"#utility.yul\":9319:9437   */\n      pop\n        /* \"#utility.yul\":8970:9444   */\n      swap3\n      pop\n      swap3\n      swap1\n      pop\n      jump\t// out\n        /* \"#utility.yul\":9450:9590   */\n    tag_316:\n        /* \"#utility.yul\":9543:9549   */\n      0x00\n        /* \"#utility.yul\":9577:9582   */\n      dup2\n        /* \"#utility.yul\":9571:9583   */\n      mload\n        /* \"#utility.yul\":9561:9583   */\n      swap1\n      pop\n        /* \"#utility.yul\":9450:9590   */\n      swap2\n      swap1\n      pop\n      jump\t// out\n        /* \"#utility.yul\":9596:9806   */\n    tag_317:\n        /* \"#utility.yul\":9721:9732   */\n      0x00\n        /* \"#utility.yul\":9755:9761   */\n      dup3\n        /* \"#utility.yul\":9750:9753   */\n      dup3\n        /* \"#utility.yul\":9743:9762   */\n      mstore\n        /* \"#utility.yul\":9795:9799   */\n      0x20\n        /* \"#utility.yul\":9790:9793   */\n      dup3\n        /* \"#utility.yul\":9786:9800   */\n      add\n        /* \"#utility.yul\":9771:9800   */\n      swap1\n      pop\n        /* \"#utility.yul\":9596:9806   */\n      swap3\n      swap2\n      pop\n      pop\n      jump\t// out\n        /* \"#utility.yul\":9812:9970   */\n    tag_318:\n        /* \"#utility.yul\":9905:9909   */\n      0x00\n        /* \"#utility.yul\":9928:9931   */\n      dup2\n        /* \"#utility.yul\":9920:9931   */\n      swap1\n      pop\n        /* \"#utility.yul\":9958:9962   */\n      0x20\n        /* \"#utility.yul\":9953:9956   */\n      dup3\n        /* \"#utility.yul\":9949:9963   */\n      add\n        /* \"#utility.yul\":9941:9963   */\n      swap1\n      pop\n        /* \"#utility.yul\":9812:9970   */\n      swap2\n      swap1\n      pop\n      jump\t// out\n        /* \"#utility.yul\":9976:10135   */\n    tag_319:\n        /* \"#utility.yul\":10050:10061   */\n      0x00\n        /* \"#utility.yul\":10084:10090   */\n      dup3\n        /* \"#utility.yul\":10079:10082   */\n      dup3\n        /* \"#utility.yul\":10072:10091   */\n      mstore\n        /* \"#utility.yul\":10124:10128   */\n      0x20\n        /* \"#utility.yul\":10119:10122   */\n      dup3\n        /* \"#utility.yul\":10115:10129   */\n      add\n        /* \"#utility.yul\":10100:10129   */\n      swap1\n      pop\n        /* \"#utility.yul\":9976:10135   */\n      swap3\n      swap2\n      pop\n      pop\n      jump\t// out\n        /* \"#utility.yul\":10141:10498   */\n    tag_320:\n        /* \"#utility.yul\":10219:10222   */\n      0x00\n        /* \"#utility.yul\":10247:10286   */\n      tag_483\n        /* \"#utility.yul\":10280:10285   */\n      dup3\n        /* \"#utility.yul\":10247:10286   */\n      tag_286\n      jump\t// in\n    tag_483:\n        /* \"#utility.yul\":10302:10363   */\n      tag_484\n        /* \"#utility.yul\":10356:10362   */\n      dup2\n        /* \"#utility.yul\":10351:10354   */\n      dup6\n        /* \"#utility.yul\":10302:10363   */\n      tag_319\n      jump\t// in\n    tag_484:\n        /* \"#utility.yul\":10295:10363   */\n      swap4\n      pop\n        /* \"#utility.yul\":10372:10437   */\n      tag_485\n        /* \"#utility.yul\":10430:10436   */\n      dup2\n        /* \"#utility.yul\":10425:10428   */\n      dup6\n        /* \"#utility.yul\":10418:10422   */\n      0x20\n        /* \"#utility.yul\":10411:10416   */\n      dup7\n        /* \"#utility.yul\":10407:10423   */\n      add\n        /* \"#utility.yul\":10372:10437   */\n      tag_288\n      jump\t// in\n    tag_485:\n        /* \"#utility.yul\":10462:10491   */\n      tag_486\n        /* \"#utility.yul\":10484:10490   */\n      dup2\n        /* \"#utility.yul\":10462:10491   */\n      tag_289\n      jump\t// in\n    tag_486:\n        /* \"#utility.yul\":10457:10460   */\n      dup5\n        /* \"#utility.yul\":10453:10492   */\n      add\n        /* \"#utility.yul\":10446:10492   */\n      swap2\n      pop\n        /* \"#utility.yul\":10223:10498   */\n      pop\n        /* \"#utility.yul\":10141:10498   */\n      swap3\n      swap2\n      pop\n      pop\n      jump\t// out\n        /* \"#utility.yul\":10504:10612   */\n    tag_321:\n        /* \"#utility.yul\":10581:10605   */\n      tag_488\n        /* \"#utility.yul\":10599:10604   */\n      dup2\n        /* \"#utility.yul\":10581:10605   */\n      tag_298\n      jump\t// in\n    tag_488:\n        /* \"#utility.yul\":10576:10579   */\n      dup3\n        /* \"#utility.yul\":10569:10606   */\n      mstore\n        /* \"#utility.yul\":10504:10612   */\n      pop\n      pop\n      jump\t// out\n        /* \"#utility.yul\":10684:11291   */\n    tag_322:\n        /* \"#utility.yul\":10795:10798   */\n      0x00\n        /* \"#utility.yul\":10831:10835   */\n      0x40\n        /* \"#utility.yul\":10826:10829   */\n      dup4\n        /* \"#utility.yul\":10822:10836   */\n      add\n        /* \"#utility.yul\":10922:10926   */\n      0x00\n        /* \"#utility.yul\":10915:10920   */\n      dup4\n        /* \"#utility.yul\":10911:10927   */\n      add\n        /* \"#utility.yul\":10905:10928   */\n      mload\n        /* \"#utility.yul\":10975:10978   */\n      dup5\n        /* \"#utility.yul\":10969:10973   */\n      dup3\n        /* \"#utility.yul\":10965:10979   */\n      sub\n        /* \"#utility.yul\":10958:10962   */\n      0x00\n        /* \"#utility.yul\":10953:10956   */\n      dup7\n        /* \"#utility.yul\":10949:10963   */\n      add\n        /* \"#utility.yul\":10942:10980   */\n      mstore\n        /* \"#utility.yul\":11001:11074   */\n      tag_490\n        /* \"#utility.yul\":11069:11073   */\n      dup3\n        /* \"#utility.yul\":11055:11067   */\n      dup3\n        /* \"#utility.yul\":11001:11074   */\n      tag_320\n      jump\t// in\n    tag_490:\n        /* \"#utility.yul\":10993:11074   */\n      swap2\n      pop\n        /* \"#utility.yul\":10846:11085   */\n      pop\n        /* \"#utility.yul\":11172:11176   */\n      0x20\n        /* \"#utility.yul\":11165:11170   */\n      dup4\n        /* \"#utility.yul\":11161:11177   */\n      add\n        /* \"#utility.yul\":11155:11178   */\n      mload\n        /* \"#utility.yul\":11191:11254   */\n      tag_491\n        /* \"#utility.yul\":11248:11252   */\n      0x20\n        /* \"#utility.yul\":11243:11246   */\n      dup7\n        /* \"#utility.yul\":11239:11253   */\n      add\n        /* \"#utility.yul\":11225:11237   */\n      dup3\n        /* \"#utility.yul\":11191:11254   */\n      tag_321\n      jump\t// in\n    tag_491:\n        /* \"#utility.yul\":11095:11264   */\n      pop\n        /* \"#utility.yul\":11281:11285   */\n      dup1\n        /* \"#utility.yul\":11274:11285   */\n      swap2\n      pop\n        /* \"#utility.yul\":10800:11291   */\n      pop\n        /* \"#utility.yul\":10684:11291   */\n      swap3\n      swap2\n      pop\n      pop\n      jump\t// out\n        /* \"#utility.yul\":11297:11557   */\n    tag_323:\n        /* \"#utility.yul\":11418:11428   */\n      0x00\n        /* \"#utility.yul\":11453:11551   */\n      tag_493\n        /* \"#utility.yul\":11547:11550   */\n      dup4\n        /* \"#utility.yul\":11539:11545   */\n      dup4\n        /* \"#utility.yul\":11453:11551   */\n      tag_322\n      jump\t// in\n    tag_493:\n        /* \"#utility.yul\":11439:11551   */\n      swap1\n      pop\n        /* \"#utility.yul\":11297:11557   */\n      swap3\n      swap2\n      pop\n      pop\n      jump\t// out\n        /* \"#utility.yul\":11563:11702   */\n    tag_324:\n        /* \"#utility.yul\":11659:11663   */\n      0x00\n        /* \"#utility.yul\":11691:11695   */\n      0x20\n        /* \"#utility.yul\":11686:11689   */\n      dup3\n        /* \"#utility.yul\":11682:11696   */\n      add\n        /* \"#utility.yul\":11674:11696   */\n      swap1\n      pop\n        /* \"#utility.yul\":11563:11702   */\n      swap2\n      swap1\n      pop\n      jump\t// out\n        /* \"#utility.yul\":11778:12897   */\n    tag_325:\n        /* \"#utility.yul\":11949:11952   */\n      0x00\n        /* \"#utility.yul\":11978:12058   */\n      tag_496\n        /* \"#utility.yul\":12052:12057   */\n      dup3\n        /* \"#utility.yul\":11978:12058   */\n      tag_316\n      jump\t// in\n    tag_496:\n        /* \"#utility.yul\":12074:12186   */\n      tag_497\n        /* \"#utility.yul\":12179:12185   */\n      dup2\n        /* \"#utility.yul\":12174:12177   */\n      dup6\n        /* \"#utility.yul\":12074:12186   */\n      tag_317\n      jump\t// in\n    tag_497:\n        /* \"#utility.yul\":12067:12186   */\n      swap4\n      pop\n        /* \"#utility.yul\":12212:12215   */\n      dup4\n        /* \"#utility.yul\":12257:12261   */\n      0x20\n        /* \"#utility.yul\":12249:12255   */\n      dup3\n        /* \"#utility.yul\":12245:12262   */\n      mul\n        /* \"#utility.yul\":12240:12243   */\n      dup6\n        /* \"#utility.yul\":12236:12263   */\n      add\n        /* \"#utility.yul\":12287:12369   */\n      tag_498\n        /* \"#utility.yul\":12363:12368   */\n      dup6\n        /* \"#utility.yul\":12287:12369   */\n      tag_318\n      jump\t// in\n    tag_498:\n        /* \"#utility.yul\":12392:12399   */\n      dup1\n        /* \"#utility.yul\":12423:12424   */\n      0x00\n        /* \"#utility.yul\":12408:12852   */\n    tag_499:\n        /* \"#utility.yul\":12433:12439   */\n      dup6\n        /* \"#utility.yul\":12430:12431   */\n      dup2\n        /* \"#utility.yul\":12427:12440   */\n      lt\n        /* \"#utility.yul\":12408:12852   */\n      iszero\n      tag_501\n      jumpi\n        /* \"#utility.yul\":12504:12513   */\n      dup5\n        /* \"#utility.yul\":12498:12502   */\n      dup5\n        /* \"#utility.yul\":12494:12514   */\n      sub\n        /* \"#utility.yul\":12489:12492   */\n      dup10\n        /* \"#utility.yul\":12482:12515   */\n      mstore\n        /* \"#utility.yul\":12555:12561   */\n      dup2\n        /* \"#utility.yul\":12549:12562   */\n      mload\n        /* \"#utility.yul\":12583:12699   */\n      tag_502\n        /* \"#utility.yul\":12694:12698   */\n      dup6\n        /* \"#utility.yul\":12679:12692   */\n      dup3\n        /* \"#utility.yul\":12583:12699   */\n      tag_323\n      jump\t// in\n    tag_502:\n        /* \"#utility.yul\":12575:12699   */\n      swap5\n      pop\n        /* \"#utility.yul\":12722:12808   */\n      tag_503\n        /* \"#utility.yul\":12801:12807   */\n      dup4\n        /* \"#utility.yul\":12722:12808   */\n      tag_324\n      jump\t// in\n    tag_503:\n        /* \"#utility.yul\":12712:12808   */\n      swap3\n      pop\n        /* \"#utility.yul\":12837:12841   */\n      0x20\n        /* \"#utility.yul\":12832:12835   */\n      dup11\n        /* \"#utility.yul\":12828:12842   */\n      add\n        /* \"#utility.yul\":12821:12842   */\n      swap10\n      pop\n        /* \"#utility.yul\":12468:12852   */\n      pop\n        /* \"#utility.yul\":12455:12456   */\n      0x01\n        /* \"#utility.yul\":12452:12453   */\n      dup2\n        /* \"#utility.yul\":12448:12457   */\n      add\n        /* \"#utility.yul\":12443:12457   */\n      swap1\n      pop\n        /* \"#utility.yul\":12408:12852   */\n      jump(tag_499)\n    tag_501:\n        /* \"#utility.yul\":12412:12426   */\n      pop\n        /* \"#utility.yul\":12868:12872   */\n      dup3\n        /* \"#utility.yul\":12861:12872   */\n      swap8\n      pop\n        /* \"#utility.yul\":12888:12891   */\n      dup8\n        /* \"#utility.yul\":12881:12891   */\n      swap6\n      pop\n        /* \"#utility.yul\":11954:12897   */\n      pop\n      pop\n      pop\n      pop\n      pop\n        /* \"#utility.yul\":11778:12897   */\n      swap3\n      swap2\n      pop\n      pop\n      jump\t// out\n        /* \"#utility.yul\":12903:13380   */\n    tag_115:\n        /* \"#utility.yul\":13098:13102   */\n      0x00\n        /* \"#utility.yul\":13136:13138   */\n      0x20\n        /* \"#utility.yul\":13125:13134   */\n      dup3\n        /* \"#utility.yul\":13121:13139   */\n      add\n        /* \"#utility.yul\":13113:13139   */\n      swap1\n      pop\n        /* \"#utility.yul\":13185:13194   */\n      dup2\n        /* \"#utility.yul\":13179:13183   */\n      dup2\n        /* \"#utility.yul\":13175:13195   */\n      sub\n        /* \"#utility.yul\":13171:13172   */\n      0x00\n        /* \"#utility.yul\":13160:13169   */\n      dup4\n        /* \"#utility.yul\":13156:13173   */\n      add\n        /* \"#utility.yul\":13149:13196   */\n      mstore\n        /* \"#utility.yul\":13213:13373   */\n      tag_505\n        /* \"#utility.yul\":13368:13372   */\n      dup2\n        /* \"#utility.yul\":13359:13365   */\n      dup5\n        /* \"#utility.yul\":13213:13373   */\n      tag_325\n      jump\t// in\n    tag_505:\n        /* \"#utility.yul\":13205:13373   */\n      swap1\n      pop\n        /* \"#utility.yul\":12903:13380   */\n      swap3\n      swap2\n      pop\n      pop\n      jump\t// out\n        /* \"#utility.yul\":13386:13566   */\n    tag_326:\n        /* \"#utility.yul\":13434:13511   */\n      0x4e487b7100000000000000000000000000000000000000000000000000000000\n        /* \"#utility.yul\":13431:13432   */\n      0x00\n        /* \"#utility.yul\":13424:13512   */\n      mstore\n        /* \"#utility.yul\":13531:13535   */\n      0x22\n        /* \"#utility.yul\":13528:13529   */\n      0x04\n        /* \"#utility.yul\":13521:13536   */\n      mstore\n        /* \"#utility.yul\":13555:13559   */\n      0x24\n        /* \"#utility.yul\":13552:13553   */\n      0x00\n        /* \"#utility.yul\":13545:13560   */\n      revert\n        /* \"#utility.yul\":13572:13892   */\n    tag_121:\n        /* \"#utility.yul\":13616:13622   */\n      0x00\n        /* \"#utility.yul\":13653:13654   */\n      0x02\n        /* \"#utility.yul\":13647:13651   */\n      dup3\n        /* \"#utility.yul\":13643:13655   */\n      div\n        /* \"#utility.yul\":13633:13655   */\n      swap1\n      pop\n        /* \"#utility.yul\":13700:13701   */\n      0x01\n        /* \"#utility.yul\":13694:13698   */\n      dup3\n        /* \"#utility.yul\":13690:13702   */\n      and\n        /* \"#utility.yul\":13721:13739   */\n      dup1\n        /* \"#utility.yul\":13711:13792   */\n      tag_508\n      jumpi\n        /* \"#utility.yul\":13777:13781   */\n      0x7f\n        /* \"#utility.yul\":13769:13775   */\n      dup3\n        /* \"#utility.yul\":13765:13782   */\n      and\n        /* \"#utility.yul\":13755:13782   */\n      swap2\n      pop\n        /* \"#utility.yul\":13711:13792   */\n    tag_508:\n        /* \"#utility.yul\":13839:13841   */\n      0x20\n        /* \"#utility.yul\":13831:13837   */\n      dup3\n        /* \"#utility.yul\":13828:13842   */\n      lt\n        /* \"#utility.yul\":13808:13826   */\n      dup2\n        /* \"#utility.yul\":13805:13843   */\n      sub\n        /* \"#utility.yul\":13802:13886   */\n      tag_509\n      jumpi\n        /* \"#utility.yul\":13858:13876   */\n      tag_510\n      tag_326\n      jump\t// in\n    tag_510:\n        /* \"#utility.yul\":13802:13886   */\n    tag_509:\n        /* \"#utility.yul\":13623:13892   */\n      pop\n        /* \"#utility.yul\":13572:13892   */\n      swap2\n      swap1\n      pop\n      jump\t// out\n        /* \"#utility.yul\":13898:14126   */\n    tag_327:\n        /* \"#utility.yul\":14038:14072   */\n      0x496e73756666696369656e742062616c616e636520746f2072656465656d2074\n        /* \"#utility.yul\":14034:14035   */\n      0x00\n        /* \"#utility.yul\":14026:14032   */\n      dup3\n        /* \"#utility.yul\":14022:14036   */\n      add\n        /* \"#utility.yul\":14015:14073   */\n      mstore\n        /* \"#utility.yul\":14107:14118   */\n      0x68697320746f6b656e0000000000000000000000000000000000000000000000\n        /* \"#utility.yul\":14102:14104   */\n      0x20\n        /* \"#utility.yul\":14094:14100   */\n      dup3\n        /* \"#utility.yul\":14090:14105   */\n      add\n        /* \"#utility.yul\":14083:14119   */\n      mstore\n        /* \"#utility.yul\":13898:14126   */\n      pop\n      jump\t// out\n        /* \"#utility.yul\":14132:14498   */\n    tag_328:\n        /* \"#utility.yul\":14274:14277   */\n      0x00\n        /* \"#utility.yul\":14295:14362   */\n      tag_513\n        /* \"#utility.yul\":14359:14361   */\n      0x29\n        /* \"#utility.yul\":14354:14357   */\n      dup4\n        /* \"#utility.yul\":14295:14362   */\n      tag_287\n      jump\t// in\n    tag_513:\n        /* \"#utility.yul\":14288:14362   */\n      swap2\n      pop\n        /* \"#utility.yul\":14371:14464   */\n      tag_514\n        /* \"#utility.yul\":14460:14463   */\n      dup3\n        /* \"#utility.yul\":14371:14464   */\n      tag_327\n      jump\t// in\n    tag_514:\n        /* \"#utility.yul\":14489:14491   */\n      0x40\n        /* \"#utility.yul\":14484:14487   */\n      dup3\n        /* \"#utility.yul\":14480:14492   */\n      add\n        /* \"#utility.yul\":14473:14492   */\n      swap1\n      pop\n        /* \"#utility.yul\":14132:14498   */\n      swap2\n      swap1\n      pop\n      jump\t// out\n        /* \"#utility.yul\":14504:14923   */\n    tag_143:\n        /* \"#utility.yul\":14670:14674   */\n      0x00\n        /* \"#utility.yul\":14708:14710   */\n      0x20\n        /* \"#utility.yul\":14697:14706   */\n      dup3\n        /* \"#utility.yul\":14693:14711   */\n      add\n        /* \"#utility.yul\":14685:14711   */\n      swap1\n      pop\n        /* \"#utility.yul\":14757:14766   */\n      dup2\n        /* \"#utility.yul\":14751:14755   */\n      dup2\n        /* \"#utility.yul\":14747:14767   */\n      sub\n        /* \"#utility.yul\":14743:14744   */\n      0x00\n        /* \"#utility.yul\":14732:14741   */\n      dup4\n        /* \"#utility.yul\":14728:14745   */\n      add\n        /* \"#utility.yul\":14721:14768   */\n      mstore\n        /* \"#utility.yul\":14785:14916   */\n      tag_516\n        /* \"#utility.yul\":14911:14915   */\n      dup2\n        /* \"#utility.yul\":14785:14916   */\n      tag_328\n      jump\t// in\n    tag_516:\n        /* \"#utility.yul\":14777:14916   */\n      swap1\n      pop\n        /* \"#utility.yul\":14504:14923   */\n      swap2\n      swap1\n      pop\n      jump\t// out\n        /* \"#utility.yul\":14929:15109   */\n    tag_329:\n        /* \"#utility.yul\":14977:15054   */\n      0x4e487b7100000000000000000000000000000000000000000000000000000000\n        /* \"#utility.yul\":14974:14975   */\n      0x00\n        /* \"#utility.yul\":14967:15055   */\n      mstore\n        /* \"#utility.yul\":15074:15078   */\n      0x11\n        /* \"#utility.yul\":15071:15072   */\n      0x04\n        /* \"#utility.yul\":15064:15079   */\n      mstore\n        /* \"#utility.yul\":15098:15102   */\n      0x24\n        /* \"#utility.yul\":15095:15096   */\n      0x00\n        /* \"#utility.yul\":15088:15103   */\n      revert\n        /* \"#utility.yul\":15115:15306   */\n    tag_150:\n        /* \"#utility.yul\":15155:15158   */\n      0x00\n        /* \"#utility.yul\":15174:15194   */\n      tag_519\n        /* \"#utility.yul\":15192:15193   */\n      dup3\n        /* \"#utility.yul\":15174:15194   */\n      tag_298\n      jump\t// in\n    tag_519:\n        /* \"#utility.yul\":15169:15194   */\n      swap2\n      pop\n        /* \"#utility.yul\":15208:15228   */\n      tag_520\n        /* \"#utility.yul\":15226:15227   */\n      dup4\n        /* \"#utility.yul\":15208:15228   */\n      tag_298\n      jump\t// in\n    tag_520:\n        /* \"#utility.yul\":15203:15228   */\n      swap3\n      pop\n        /* \"#utility.yul\":15251:15252   */\n      dup3\n        /* \"#utility.yul\":15248:15249   */\n      dup3\n        /* \"#utility.yul\":15244:15253   */\n      add\n        /* \"#utility.yul\":15237:15253   */\n      swap1\n      pop\n        /* \"#utility.yul\":15272:15275   */\n      dup1\n        /* \"#utility.yul\":15269:15270   */\n      dup3\n        /* \"#utility.yul\":15266:15276   */\n      gt\n        /* \"#utility.yul\":15263:15299   */\n      iszero\n      tag_521\n      jumpi\n        /* \"#utility.yul\":15279:15297   */\n      tag_522\n      tag_329\n      jump\t// in\n    tag_522:\n        /* \"#utility.yul\":15263:15299   */\n    tag_521:\n        /* \"#utility.yul\":15115:15306   */\n      swap3\n      swap2\n      pop\n      pop\n      jump\t// out\n        /* \"#utility.yul\":15312:15483   */\n    tag_330:\n        /* \"#utility.yul\":15452:15475   */\n      0x496e73756666696369656e742062616c616e6365200000000000000000000000\n        /* \"#utility.yul\":15448:15449   */\n      0x00\n        /* \"#utility.yul\":15440:15446   */\n      dup3\n        /* \"#utility.yul\":15436:15450   */\n      add\n        /* \"#utility.yul\":15429:15476   */\n      mstore\n        /* \"#utility.yul\":15312:15483   */\n      pop\n      jump\t// out\n        /* \"#utility.yul\":15489:15855   */\n    tag_331:\n        /* \"#utility.yul\":15631:15634   */\n      0x00\n        /* \"#utility.yul\":15652:15719   */\n      tag_525\n        /* \"#utility.yul\":15716:15718   */\n      0x15\n        /* \"#utility.yul\":15711:15714   */\n      dup4\n        /* \"#utility.yul\":15652:15719   */\n      tag_287\n      jump\t// in\n    tag_525:\n        /* \"#utility.yul\":15645:15719   */\n      swap2\n      pop\n        /* \"#utility.yul\":15728:15821   */\n      tag_526\n        /* \"#utility.yul\":15817:15820   */\n      dup3\n        /* \"#utility.yul\":15728:15821   */\n      tag_330\n      jump\t// in\n    tag_526:\n        /* \"#utility.yul\":15846:15848   */\n      0x20\n        /* \"#utility.yul\":15841:15844   */\n      dup3\n        /* \"#utility.yul\":15837:15849   */\n      add\n        /* \"#utility.yul\":15830:15849   */\n      swap1\n      pop\n        /* \"#utility.yul\":15489:15855   */\n      swap2\n      swap1\n      pop\n      jump\t// out\n        /* \"#utility.yul\":15861:16280   */\n    tag_161:\n        /* \"#utility.yul\":16027:16031   */\n      0x00\n        /* \"#utility.yul\":16065:16067   */\n      0x20\n        /* \"#utility.yul\":16054:16063   */\n      dup3\n        /* \"#utility.yul\":16050:16068   */\n      add\n        /* \"#utility.yul\":16042:16068   */\n      swap1\n      pop\n        /* \"#utility.yul\":16114:16123   */\n      dup2\n        /* \"#utility.yul\":16108:16112   */\n      dup2\n        /* \"#utility.yul\":16104:16124   */\n      sub\n        /* \"#utility.yul\":16100:16101   */\n      0x00\n        /* \"#utility.yul\":16089:16098   */\n      dup4\n        /* \"#utility.yul\":16085:16102   */\n      add\n        /* \"#utility.yul\":16078:16125   */\n      mstore\n        /* \"#utility.yul\":16142:16273   */\n      tag_528\n        /* \"#utility.yul\":16268:16272   */\n      dup2\n        /* \"#utility.yul\":16142:16273   */\n      tag_331\n      jump\t// in\n    tag_528:\n        /* \"#utility.yul\":16134:16273   */\n      swap1\n      pop\n        /* \"#utility.yul\":15861:16280   */\n      swap2\n      swap1\n      pop\n      jump\t// out\n        /* \"#utility.yul\":16286:16427   */\n    tag_332:\n        /* \"#utility.yul\":16335:16339   */\n      0x00\n        /* \"#utility.yul\":16358:16361   */\n      dup2\n        /* \"#utility.yul\":16350:16361   */\n      swap1\n      pop\n        /* \"#utility.yul\":16381:16384   */\n      dup2\n        /* \"#utility.yul\":16378:16379   */\n      0x00\n        /* \"#utility.yul\":16371:16385   */\n      mstore\n        /* \"#utility.yul\":16415:16419   */\n      0x20\n        /* \"#utility.yul\":16412:16413   */\n      0x00\n        /* \"#utility.yul\":16402:16420   */\n      keccak256\n        /* \"#utility.yul\":16394:16420   */\n      swap1\n      pop\n        /* \"#utility.yul\":16286:16427   */\n      swap2\n      swap1\n      pop\n      jump\t// out\n        /* \"#utility.yul\":16433:16526   */\n    tag_333:\n        /* \"#utility.yul\":16470:16476   */\n      0x00\n        /* \"#utility.yul\":16517:16519   */\n      0x20\n        /* \"#utility.yul\":16512:16514   */\n      0x1f\n        /* \"#utility.yul\":16505:16510   */\n      dup4\n        /* \"#utility.yul\":16501:16515   */\n      add\n        /* \"#utility.yul\":16497:16520   */\n      div\n        /* \"#utility.yul\":16487:16520   */\n      swap1\n      pop\n        /* \"#utility.yul\":16433:16526   */\n      swap2\n      swap1\n      pop\n      jump\t// out\n        /* \"#utility.yul\":16532:16639   */\n    tag_334:\n        /* \"#utility.yul\":16576:16584   */\n      0x00\n        /* \"#utility.yul\":16626:16631   */\n      dup3\n        /* \"#utility.yul\":16620:16624   */\n      dup3\n        /* \"#utility.yul\":16616:16632   */\n      shl\n        /* \"#utility.yul\":16595:16632   */\n      swap1\n      pop\n        /* \"#utility.yul\":16532:16639   */\n      swap3\n      swap2\n      pop\n      pop\n      jump\t// out\n        /* \"#utility.yul\":16645:17038   */\n    tag_335:\n        /* \"#utility.yul\":16714:16720   */\n      0x00\n        /* \"#utility.yul\":16764:16765   */\n      0x08\n        /* \"#utility.yul\":16752:16762   */\n      dup4\n        /* \"#utility.yul\":16748:16766   */\n      mul\n        /* \"#utility.yul\":16787:16884   */\n      tag_533\n        /* \"#utility.yul\":16817:16883   */\n      0xffffffffffffffffffffffffffffffffffffffffffffffffffffffffffffffff\n        /* \"#utility.yul\":16806:16815   */\n      dup3\n        /* \"#utility.yul\":16787:16884   */\n      tag_334\n      jump\t// in\n    tag_533:\n        /* \"#utility.yul\":16905:16944   */\n      tag_534\n        /* \"#utility.yul\":16935:16943   */\n      dup7\n        /* \"#utility.yul\":16924:16933   */\n      dup4\n        /* \"#utility.yul\":16905:16944   */\n      tag_334\n      jump\t// in\n    tag_534:\n        /* \"#utility.yul\":16893:16944   */\n      swap6\n      pop\n        /* \"#utility.yul\":16977:16981   */\n      dup1\n        /* \"#utility.yul\":16973:16982   */\n      not\n        /* \"#utility.yul\":16966:16971   */\n      dup5\n        /* \"#utility.yul\":16962:16983   */\n      and\n        /* \"#utility.yul\":16953:16983   */\n      swap4\n      pop\n        /* \"#utility.yul\":17026:17030   */\n      dup1\n        /* \"#utility.yul\":17016:17024   */\n      dup7\n        /* \"#utility.yul\":17012:17031   */\n      and\n        /* \"#utility.yul\":17005:17010   */\n      dup5\n        /* \"#utility.yul\":17002:17032   */\n      or\n        /* \"#utility.yul\":16992:17032   */\n      swap3\n      pop\n        /* \"#utility.yul\":16721:17038   */\n      pop\n      pop\n        /* \"#utility.yul\":16645:17038   */\n      swap4\n      swap3\n      pop\n      pop\n      pop\n      jump\t// out\n        /* \"#utility.yul\":17044:17104   */\n    tag_336:\n        /* \"#utility.yul\":17072:17075   */\n      0x00\n        /* \"#utility.yul\":17093:17098   */\n      dup2\n        /* \"#utility.yul\":17086:17098   */\n      swap1\n      pop\n        /* \"#utility.yul\":17044:17104   */\n      swap2\n      swap1\n      pop\n      jump\t// out\n        /* \"#utility.yul\":17110:17252   */\n    tag_337:\n        /* \"#utility.yul\":17160:17169   */\n      0x00\n        /* \"#utility.yul\":17193:17246   */\n      tag_537\n        /* \"#utility.yul\":17211:17245   */\n      tag_538\n        /* \"#utility.yul\":17220:17244   */\n      tag_539\n        /* \"#utility.yul\":17238:17243   */\n      dup5\n        /* \"#utility.yul\":17220:17244   */\n      tag_298\n      jump\t// in\n    tag_539:\n        /* \"#utility.yul\":17211:17245   */\n      tag_336\n      jump\t// in\n    tag_538:\n        /* \"#utility.yul\":17193:17246   */\n      tag_298\n      jump\t// in\n    tag_537:\n        /* \"#utility.yul\":17180:17246   */\n      swap1\n      pop\n        /* \"#utility.yul\":17110:17252   */\n      swap2\n      swap1\n      pop\n      jump\t// out\n        /* \"#utility.yul\":17258:17333   */\n    tag_338:\n        /* \"#utility.yul\":17301:17304   */\n      0x00\n        /* \"#utility.yul\":17322:17327   */\n      dup2\n        /* \"#utility.yul\":17315:17327   */\n      swap1\n      pop\n        /* \"#utility.yul\":17258:17333   */\n      swap2\n      swap1\n      pop\n      jump\t// out\n        /* \"#utility.yul\":17339:17608   */\n    tag_339:\n        /* \"#utility.yul\":17449:17488   */\n      tag_542\n        /* \"#utility.yul\":17480:17487   */\n      dup4\n        /* \"#utility.yul\":17449:17488   */\n      tag_337\n      jump\t// in\n    tag_542:\n        /* \"#utility.yul\":17510:17601   */\n      tag_543\n        /* \"#utility.yul\":17559:17600   */\n      tag_544\n        /* \"#utility.yul\":17583:17599   */\n      dup3\n        /* \"#utility.yul\":17559:17600   */\n      tag_338\n      jump\t// in\n    tag_544:\n        /* \"#utility.yul\":17551:17557   */\n      dup5\n        /* \"#utility.yul\":17544:17548   */\n      dup5\n        /* \"#utility.yul\":17538:17549   */\n      sload\n        /* \"#utility.yul\":17510:17601   */\n      tag_335\n      jump\t// in\n    tag_543:\n        /* \"#utility.yul\":17504:17508   */\n      dup3\n        /* \"#utility.yul\":17497:17602   */\n      sstore\n        /* \"#utility.yul\":17415:17608   */\n      pop\n        /* \"#utility.yul\":17339:17608   */\n      pop\n      pop\n      pop\n      jump\t// out\n        /* \"#utility.yul\":17614:17687   */\n    tag_340:\n        /* \"#utility.yul\":17659:17662   */\n      0x00\n        /* \"#utility.yul\":17614:17687   */\n      swap1\n      jump\t// out\n        /* \"#utility.yul\":17693:17882   */\n    tag_341:\n        /* \"#utility.yul\":17770:17802   */\n      tag_547\n      tag_340\n      jump\t// in\n    tag_547:\n        /* \"#utility.yul\":17811:17876   */\n      tag_548\n        /* \"#utility.yul\":17869:17875   */\n      dup2\n        /* \"#utility.yul\":17861:17867   */\n      dup5\n        /* \"#utility.yul\":17855:17859   */\n      dup5\n        /* \"#utility.yul\":17811:17876   */\n      tag_339\n      jump\t// in\n    tag_548:\n        /* \"#utility.yul\":17746:17882   */\n      pop\n        /* \"#utility.yul\":17693:17882   */\n      pop\n      pop\n      jump\t// out\n        /* \"#utility.yul\":17888:18074   */\n    tag_342:\n        /* \"#utility.yul\":17948:18068   */\n    tag_550:\n        /* \"#utility.yul\":17965:17968   */\n      dup2\n        /* \"#utility.yul\":17958:17963   */\n      dup2\n        /* \"#utility.yul\":17955:17969   */\n      lt\n        /* \"#utility.yul\":17948:18068   */\n      iszero\n      tag_552\n      jumpi\n        /* \"#utility.yul\":18019:18058   */\n      tag_553\n        /* \"#utility.yul\":18056:18057   */\n      0x00\n        /* \"#utility.yul\":18049:18054   */\n      dup3\n        /* \"#utility.yul\":18019:18058   */\n      tag_341\n      jump\t// in\n    tag_553:\n        /* \"#utility.yul\":17992:17993   */\n      0x01\n        /* \"#utility.yul\":17985:17990   */\n      dup2\n        /* \"#utility.yul\":17981:17994   */\n      add\n        /* \"#utility.yul\":17972:17994   */\n      swap1\n      pop\n        /* \"#utility.yul\":17948:18068   */\n      jump(tag_550)\n    tag_552:\n        /* \"#utility.yul\":17888:18074   */\n      pop\n      pop\n      jump\t// out\n        /* \"#utility.yul\":18080:18623   */\n    tag_343:\n        /* \"#utility.yul\":18181:18183   */\n      0x1f\n        /* \"#utility.yul\":18176:18179   */\n      dup3\n        /* \"#utility.yul\":18173:18184   */\n      gt\n        /* \"#utility.yul\":18170:18616   */\n      iszero\n      tag_555\n      jumpi\n        /* \"#utility.yul\":18215:18253   */\n      tag_556\n        /* \"#utility.yul\":18247:18252   */\n      dup2\n        /* \"#utility.yul\":18215:18253   */\n      tag_332\n      jump\t// in\n    tag_556:\n        /* \"#utility.yul\":18299:18328   */\n      tag_557\n        /* \"#utility.yul\":18317:18327   */\n      dup5\n        /* \"#utility.yul\":18299:18328   */\n      tag_333\n      jump\t// in\n    tag_557:\n        /* \"#utility.yul\":18289:18297   */\n      dup2\n        /* \"#utility.yul\":18285:18329   */\n      add\n        /* \"#utility.yul\":18482:18484   */\n      0x20\n        /* \"#utility.yul\":18470:18480   */\n      dup6\n        /* \"#utility.yul\":18467:18485   */\n      lt\n        /* \"#utility.yul\":18464:18513   */\n      iszero\n      tag_558\n      jumpi\n        /* \"#utility.yul\":18503:18511   */\n      dup2\n        /* \"#utility.yul\":18488:18511   */\n      swap1\n      pop\n        /* \"#utility.yul\":18464:18513   */\n    tag_558:\n        /* \"#utility.yul\":18526:18606   */\n      tag_559\n        /* \"#utility.yul\":18582:18604   */\n      tag_560\n        /* \"#utility.yul\":18600:18603   */\n      dup6\n        /* \"#utility.yul\":18582:18604   */\n      tag_333\n      jump\t// in\n    tag_560:\n        /* \"#utility.yul\":18572:18580   */\n      dup4\n        /* \"#utility.yul\":18568:18605   */\n      add\n        /* \"#utility.yul\":18555:18566   */\n      dup3\n        /* \"#utility.yul\":18526:18606   */\n      tag_342\n      jump\t// in\n    tag_559:\n        /* \"#utility.yul\":18185:18616   */\n      pop\n      pop\n        /* \"#utility.yul\":18170:18616   */\n    tag_555:\n        /* \"#utility.yul\":18080:18623   */\n      pop\n      pop\n      pop\n      jump\t// out\n        /* \"#utility.yul\":18629:18746   */\n    tag_344:\n        /* \"#utility.yul\":18683:18691   */\n      0x00\n        /* \"#utility.yul\":18733:18738   */\n      dup3\n        /* \"#utility.yul\":18727:18731   */\n      dup3\n        /* \"#utility.yul\":18723:18739   */\n      shr\n        /* \"#utility.yul\":18702:18739   */\n      swap1\n      pop\n        /* \"#utility.yul\":18629:18746   */\n      swap3\n      swap2\n      pop\n      pop\n      jump\t// out\n        /* \"#utility.yul\":18752:18921   */\n    tag_345:\n        /* \"#utility.yul\":18796:18802   */\n      0x00\n        /* \"#utility.yul\":18829:18880   */\n      tag_563\n        /* \"#utility.yul\":18877:18878   */\n      0x00\n        /* \"#utility.yul\":18873:18879   */\n      not\n        /* \"#utility.yul\":18865:18870   */\n      dup5\n        /* \"#utility.yul\":18862:18863   */\n      0x08\n        /* \"#utility.yul\":18858:18871   */\n      mul\n        /* \"#utility.yul\":18829:18880   */\n      tag_344\n      jump\t// in\n    tag_563:\n        /* \"#utility.yul\":18825:18881   */\n      not\n        /* \"#utility.yul\":18910:18914   */\n      dup1\n        /* \"#utility.yul\":18904:18908   */\n      dup4\n        /* \"#utility.yul\":18900:18915   */\n      and\n        /* \"#utility.yul\":18890:18915   */\n      swap2\n      pop\n        /* \"#utility.yul\":18803:18921   */\n      pop\n        /* \"#utility.yul\":18752:18921   */\n      swap3\n      swap2\n      pop\n      pop\n      jump\t// out\n        /* \"#utility.yul\":18926:19221   */\n    tag_346:\n        /* \"#utility.yul\":19002:19006   */\n      0x00\n        /* \"#utility.yul\":19148:19177   */\n      tag_565\n        /* \"#utility.yul\":19173:19176   */\n      dup4\n        /* \"#utility.yul\":19167:19171   */\n      dup4\n        /* \"#utility.yul\":19148:19177   */\n      tag_345\n      jump\t// in\n    tag_565:\n        /* \"#utility.yul\":19140:19177   */\n      swap2\n      pop\n        /* \"#utility.yul\":19210:19213   */\n      dup3\n        /* \"#utility.yul\":19207:19208   */\n      0x02\n        /* \"#utility.yul\":19203:19214   */\n      mul\n        /* \"#utility.yul\":19197:19201   */\n      dup3\n        /* \"#utility.yul\":19194:19215   */\n      or\n        /* \"#utility.yul\":19186:19215   */\n      swap1\n      pop\n        /* \"#utility.yul\":18926:19221   */\n      swap3\n      swap2\n      pop\n      pop\n      jump\t// out\n        /* \"#utility.yul\":19226:20621   */\n    tag_185:\n        /* \"#utility.yul\":19343:19380   */\n      tag_567\n        /* \"#utility.yul\":19376:19379   */\n      dup3\n        /* \"#utility.yul\":19343:19380   */\n      tag_286\n      jump\t// in\n    tag_567:\n        /* \"#utility.yul\":19445:19463   */\n      0xffffffffffffffff\n        /* \"#utility.yul\":19437:19443   */\n      dup2\n        /* \"#utility.yul\":19434:19464   */\n      gt\n        /* \"#utility.yul\":19431:19487   */\n      iszero\n      tag_568\n      jumpi\n        /* \"#utility.yul\":19467:19485   */\n      tag_569\n      tag_308\n      jump\t// in\n    tag_569:\n        /* \"#utility.yul\":19431:19487   */\n    tag_568:\n        /* \"#utility.yul\":19511:19549   */\n      tag_570\n        /* \"#utility.yul\":19543:19547   */\n      dup3\n        /* \"#utility.yul\":19537:19548   */\n      sload\n        /* \"#utility.yul\":19511:19549   */\n      tag_121\n      jump\t// in\n    tag_570:\n        /* \"#utility.yul\":19596:19663   */\n      tag_571\n        /* \"#utility.yul\":19656:19662   */\n      dup3\n        /* \"#utility.yul\":19648:19654   */\n      dup3\n        /* \"#utility.yul\":19642:19646   */\n      dup6\n        /* \"#utility.yul\":19596:19663   */\n      tag_343\n      jump\t// in\n    tag_571:\n        /* \"#utility.yul\":19690:19691   */\n      0x00\n        /* \"#utility.yul\":19714:19718   */\n      0x20\n        /* \"#utility.yul\":19701:19718   */\n      swap1\n      pop\n        /* \"#utility.yul\":19746:19748   */\n      0x1f\n        /* \"#utility.yul\":19738:19744   */\n      dup4\n        /* \"#utility.yul\":19735:19749   */\n      gt\n        /* \"#utility.yul\":19763:19764   */\n      0x01\n        /* \"#utility.yul\":19758:20376   */\n      dup2\n      eq\n      tag_573\n      jumpi\n        /* \"#utility.yul\":20420:20421   */\n      0x00\n        /* \"#utility.yul\":20437:20443   */\n      dup5\n        /* \"#utility.yul\":20434:20511   */\n      iszero\n      tag_574\n      jumpi\n        /* \"#utility.yul\":20486:20495   */\n      dup3\n        /* \"#utility.yul\":20481:20484   */\n      dup8\n        /* \"#utility.yul\":20477:20496   */\n      add\n        /* \"#utility.yul\":20471:20497   */\n      mload\n        /* \"#utility.yul\":20462:20497   */\n      swap1\n      pop\n        /* \"#utility.yul\":20434:20511   */\n    tag_574:\n        /* \"#utility.yul\":20537:20604   */\n      tag_575\n        /* \"#utility.yul\":20597:20603   */\n      dup6\n        /* \"#utility.yul\":20590:20595   */\n      dup3\n        /* \"#utility.yul\":20537:20604   */\n      tag_346\n      jump\t// in\n    tag_575:\n        /* \"#utility.yul\":20531:20535   */\n      dup7\n        /* \"#utility.yul\":20524:20605   */\n      sstore\n        /* \"#utility.yul\":20393:20615   */\n      pop\n        /* \"#utility.yul\":19728:20615   */\n      jump(tag_572)\n        /* \"#utility.yul\":19758:20376   */\n    tag_573:\n        /* \"#utility.yul\":19810:19814   */\n      0x1f\n        /* \"#utility.yul\":19806:19815   */\n      not\n        /* \"#utility.yul\":19798:19804   */\n      dup5\n        /* \"#utility.yul\":19794:19816   */\n      and\n        /* \"#utility.yul\":19844:19881   */\n      tag_576\n        /* \"#utility.yul\":19876:19880   */\n      dup7\n        /* \"#utility.yul\":19844:19881   */\n      tag_332\n      jump\t// in\n    tag_576:\n        /* \"#utility.yul\":19903:19904   */\n      0x00\n        /* \"#utility.yul\":19917:20125   */\n    tag_577:\n        /* \"#utility.yul\":19931:19938   */\n      dup3\n        /* \"#utility.yul\":19928:19929   */\n      dup2\n        /* \"#utility.yul\":19925:19939   */\n      lt\n        /* \"#utility.yul\":19917:20125   */\n      iszero\n      tag_579\n      jumpi\n        /* \"#utility.yul\":20010:20019   */\n      dup5\n        /* \"#utility.yul\":20005:20008   */\n      dup10\n        /* \"#utility.yul\":20001:20020   */\n      add\n        /* \"#utility.yul\":19995:20021   */\n      mload\n        /* \"#utility.yul\":19987:19993   */\n      dup3\n        /* \"#utility.yul\":19980:20022   */\n      sstore\n        /* \"#utility.yul\":20061:20062   */\n      0x01\n        /* \"#utility.yul\":20053:20059   */\n      dup3\n        /* \"#utility.yul\":20049:20063   */\n      add\n        /* \"#utility.yul\":20039:20063   */\n      swap2\n      pop\n        /* \"#utility.yul\":20108:20110   */\n      0x20\n        /* \"#utility.yul\":20097:20106   */\n      dup6\n        /* \"#utility.yul\":20093:20111   */\n      add\n        /* \"#utility.yul\":20080:20111   */\n      swap5\n      pop\n        /* \"#utility.yul\":19954:19958   */\n      0x20\n        /* \"#utility.yul\":19951:19952   */\n      dup2\n        /* \"#utility.yul\":19947:19959   */\n      add\n        /* \"#utility.yul\":19942:19959   */\n      swap1\n      pop\n        /* \"#utility.yul\":19917:20125   */\n      jump(tag_577)\n    tag_579:\n        /* \"#utility.yul\":20153:20159   */\n      dup7\n        /* \"#utility.yul\":20144:20151   */\n      dup4\n        /* \"#utility.yul\":20141:20160   */\n      lt\n        /* \"#utility.yul\":20138:20317   */\n      iszero\n      tag_580\n      jumpi\n        /* \"#utility.yul\":20211:20220   */\n      dup5\n        /* \"#utility.yul\":20206:20209   */\n      dup10\n        /* \"#utility.yul\":20202:20221   */\n      add\n        /* \"#utility.yul\":20196:20222   */\n      mload\n        /* \"#utility.yul\":20254:20302   */\n      tag_581\n        /* \"#utility.yul\":20296:20300   */\n      0x1f\n        /* \"#utility.yul\":20288:20294   */\n      dup10\n        /* \"#utility.yul\":20284:20301   */\n      and\n        /* \"#utility.yul\":20273:20282   */\n      dup3\n        /* \"#utility.yul\":20254:20302   */\n      tag_345\n      jump\t// in\n    tag_581:\n        /* \"#utility.yul\":20246:20252   */\n      dup4\n        /* \"#utility.yul\":20239:20303   */\n      sstore\n        /* \"#utility.yul\":20161:20317   */\n      pop\n        /* \"#utility.yul\":20138:20317   */\n    tag_580:\n        /* \"#utility.yul\":20363:20364   */\n      0x01\n        /* \"#utility.yul\":20359:20360   */\n      0x02\n        /* \"#utility.yul\":20351:20357   */\n      dup9\n        /* \"#utility.yul\":20347:20361   */\n      mul\n        /* \"#utility.yul\":20343:20365   */\n      add\n        /* \"#utility.yul\":20337:20341   */\n      dup9\n        /* \"#utility.yul\":20330:20366   */\n      sstore\n        /* \"#utility.yul\":19765:20376   */\n      pop\n      pop\n      pop\n        /* \"#utility.yul\":19728:20615   */\n    tag_572:\n      pop\n        /* \"#utility.yul\":19318:20621   */\n      pop\n      pop\n      pop\n        /* \"#utility.yul\":19226:20621   */\n      pop\n      pop\n      jump\t// out\n        /* \"#utility.yul\":20627:20776   */\n    tag_347:\n        /* \"#utility.yul\":20676:20682   */\n      0x00\n        /* \"#utility.yul\":20710:20715   */\n      dup2\n        /* \"#utility.yul\":20704:20716   */\n      sload\n        /* \"#utility.yul\":20694:20716   */\n      swap1\n      pop\n        /* \"#utility.yul\":20736:20769   */\n      tag_583\n        /* \"#utility.yul\":20762:20768   */\n      dup2\n        /* \"#utility.yul\":20736:20769   */\n      tag_121\n      jump\t// in\n    tag_583:\n        /* \"#utility.yul\":20726:20769   */\n      swap1\n      pop\n        /* \"#utility.yul\":20627:20776   */\n      swap2\n      swap1\n      pop\n      jump\t// out\n        /* \"#utility.yul\":20782:22233   */\n    tag_188:\n        /* \"#utility.yul\":20893:20896   */\n      dup2\n        /* \"#utility.yul\":20887:20891   */\n      dup2\n        /* \"#utility.yul\":20884:20897   */\n      sub\n        /* \"#utility.yul\":20881:20907   */\n      tag_585\n      jumpi\n        /* \"#utility.yul\":20900:20905   */\n      pop\n      pop\n      jump(tag_584)\n        /* \"#utility.yul\":20881:20907   */\n    tag_585:\n        /* \"#utility.yul\":20931:20965   */\n      tag_586\n        /* \"#utility.yul\":20961:20964   */\n      dup3\n        /* \"#utility.yul\":20931:20965   */\n      tag_347\n      jump\t// in\n    tag_586:\n        /* \"#utility.yul\":21030:21048   */\n      0xffffffffffffffff\n        /* \"#utility.yul\":21022:21028   */\n      dup2\n        /* \"#utility.yul\":21019:21049   */\n      gt\n        /* \"#utility.yul\":21016:21072   */\n      iszero\n      tag_587\n      jumpi\n        /* \"#utility.yul\":21052:21070   */\n      tag_588\n      tag_308\n      jump\t// in\n    tag_588:\n        /* \"#utility.yul\":21016:21072   */\n    tag_587:\n        /* \"#utility.yul\":21096:21134   */\n      tag_589\n        /* \"#utility.yul\":21128:21132   */\n      dup3\n        /* \"#utility.yul\":21122:21133   */\n      sload\n        /* \"#utility.yul\":21096:21134   */\n      tag_121\n      jump\t// in\n    tag_589:\n        /* \"#utility.yul\":21181:21248   */\n      tag_590\n        /* \"#utility.yul\":21241:21247   */\n      dup3\n        /* \"#utility.yul\":21233:21239   */\n      dup3\n        /* \"#utility.yul\":21227:21231   */\n      dup6\n        /* \"#utility.yul\":21181:21248   */\n      tag_343\n      jump\t// in\n    tag_590:\n        /* \"#utility.yul\":21275:21276   */\n      0x00\n        /* \"#utility.yul\":21304:21306   */\n      0x1f\n        /* \"#utility.yul\":21296:21302   */\n      dup4\n        /* \"#utility.yul\":21293:21307   */\n      gt\n        /* \"#utility.yul\":21321:21322   */\n      0x01\n        /* \"#utility.yul\":21316:21988   */\n      dup2\n      eq\n      tag_592\n      jumpi\n        /* \"#utility.yul\":22032:22033   */\n      0x00\n        /* \"#utility.yul\":22049:22055   */\n      dup5\n        /* \"#utility.yul\":22046:22123   */\n      iszero\n      tag_593\n      jumpi\n        /* \"#utility.yul\":22098:22107   */\n      dup3\n        /* \"#utility.yul\":22093:22096   */\n      dup8\n        /* \"#utility.yul\":22089:22108   */\n      add\n        /* \"#utility.yul\":22083:22109   */\n      sload\n        /* \"#utility.yul\":22074:22109   */\n      swap1\n      pop\n        /* \"#utility.yul\":22046:22123   */\n    tag_593:\n        /* \"#utility.yul\":22149:22216   */\n      tag_594\n        /* \"#utility.yul\":22209:22215   */\n      dup6\n        /* \"#utility.yul\":22202:22207   */\n      dup3\n        /* \"#utility.yul\":22149:22216   */\n      tag_346\n      jump\t// in\n    tag_594:\n        /* \"#utility.yul\":22143:22147   */\n      dup7\n        /* \"#utility.yul\":22136:22217   */\n      sstore\n        /* \"#utility.yul\":22005:22227   */\n      pop\n        /* \"#utility.yul\":21286:22227   */\n      jump(tag_591)\n        /* \"#utility.yul\":21316:21988   */\n    tag_592:\n        /* \"#utility.yul\":21368:21372   */\n      0x1f\n        /* \"#utility.yul\":21364:21373   */\n      not\n        /* \"#utility.yul\":21356:21362   */\n      dup5\n        /* \"#utility.yul\":21352:21374   */\n      and\n        /* \"#utility.yul\":21394:21430   */\n      tag_595\n        /* \"#utility.yul\":21426:21429   */\n      dup8\n        /* \"#utility.yul\":21394:21430   */\n      tag_332\n      jump\t// in\n    tag_595:\n        /* \"#utility.yul\":21387:21430   */\n      swap7\n      pop\n        /* \"#utility.yul\":21457:21494   */\n      tag_596\n        /* \"#utility.yul\":21489:21493   */\n      dup7\n        /* \"#utility.yul\":21457:21494   */\n      tag_332\n      jump\t// in\n    tag_596:\n        /* \"#utility.yul\":21516:21517   */\n      0x00\n        /* \"#utility.yul\":21530:21737   */\n    tag_597:\n        /* \"#utility.yul\":21544:21551   */\n      dup3\n        /* \"#utility.yul\":21541:21542   */\n      dup2\n        /* \"#utility.yul\":21538:21552   */\n      lt\n        /* \"#utility.yul\":21530:21737   */\n      iszero\n      tag_599\n      jumpi\n        /* \"#utility.yul\":21623:21632   */\n      dup5\n        /* \"#utility.yul\":21618:21621   */\n      dup10\n        /* \"#utility.yul\":21614:21633   */\n      add\n        /* \"#utility.yul\":21608:21634   */\n      sload\n        /* \"#utility.yul\":21600:21606   */\n      dup3\n        /* \"#utility.yul\":21593:21635   */\n      sstore\n        /* \"#utility.yul\":21674:21675   */\n      0x01\n        /* \"#utility.yul\":21666:21672   */\n      dup3\n        /* \"#utility.yul\":21662:21676   */\n      add\n        /* \"#utility.yul\":21652:21676   */\n      swap2\n      pop\n        /* \"#utility.yul\":21721:21722   */\n      0x01\n        /* \"#utility.yul\":21710:21719   */\n      dup6\n        /* \"#utility.yul\":21706:21723   */\n      add\n        /* \"#utility.yul\":21693:21723   */\n      swap5\n      pop\n        /* \"#utility.yul\":21567:21571   */\n      0x20\n        /* \"#utility.yul\":21564:21565   */\n      dup2\n        /* \"#utility.yul\":21560:21572   */\n      add\n        /* \"#utility.yul\":21555:21572   */\n      swap1\n      pop\n        /* \"#utility.yul\":21530:21737   */\n      jump(tag_597)\n    tag_599:\n        /* \"#utility.yul\":21765:21771   */\n      dup7\n        /* \"#utility.yul\":21756:21763   */\n      dup4\n        /* \"#utility.yul\":21753:21772   */\n      lt\n        /* \"#utility.yul\":21750:21929   */\n      iszero\n      tag_600\n      jumpi\n        /* \"#utility.yul\":21823:21832   */\n      dup5\n        /* \"#utility.yul\":21818:21821   */\n      dup10\n        /* \"#utility.yul\":21814:21833   */\n      add\n        /* \"#utility.yul\":21808:21834   */\n      sload\n        /* \"#utility.yul\":21866:21914   */\n      tag_601\n        /* \"#utility.yul\":21908:21912   */\n      0x1f\n        /* \"#utility.yul\":21900:21906   */\n      dup10\n        /* \"#utility.yul\":21896:21913   */\n      and\n        /* \"#utility.yul\":21885:21894   */\n      dup3\n        /* \"#utility.yul\":21866:21914   */\n      tag_345\n      jump\t// in\n    tag_601:\n        /* \"#utility.yul\":21858:21864   */\n      dup4\n        /* \"#utility.yul\":21851:21915   */\n      sstore\n        /* \"#utility.yul\":21773:21929   */\n      pop\n        /* \"#utility.yul\":21750:21929   */\n    tag_600:\n        /* \"#utility.yul\":21975:21976   */\n      0x01\n        /* \"#utility.yul\":21971:21972   */\n      0x02\n        /* \"#utility.yul\":21963:21969   */\n      dup9\n        /* \"#utility.yul\":21959:21973   */\n      mul\n        /* \"#utility.yul\":21955:21977   */\n      add\n        /* \"#utility.yul\":21949:21953   */\n      dup9\n        /* \"#utility.yul\":21942:21978   */\n      sstore\n        /* \"#utility.yul\":21323:21988   */\n      pop\n      pop\n      pop\n        /* \"#utility.yul\":21286:22227   */\n    tag_591:\n      pop\n        /* \"#utility.yul\":20871:22233   */\n      pop\n      pop\n      pop\n        /* \"#utility.yul\":20782:22233   */\n      pop\n      pop\n    tag_584:\n      jump\t// out\n        /* \"#utility.yul\":22239:22463   */\n    tag_348:\n        /* \"#utility.yul\":22379:22413   */\n      0x45524332303a2064656372656173656420616c6c6f77616e63652062656c6f77\n        /* \"#utility.yul\":22375:22376   */\n      0x00\n        /* \"#utility.yul\":22367:22373   */\n      dup3\n        /* \"#utility.yul\":22363:22377   */\n      add\n        /* \"#utility.yul\":22356:22414   */\n      mstore\n        /* \"#utility.yul\":22448:22455   */\n      0x207a65726f000000000000000000000000000000000000000000000000000000\n        /* \"#utility.yul\":22443:22445   */\n      0x20\n        /* \"#utility.yul\":22435:22441   */\n      dup3\n        /* \"#utility.yul\":22431:22446   */\n      add\n        /* \"#utility.yul\":22424:22456   */\n      mstore\n        /* \"#utility.yul\":22239:22463   */\n      pop\n      jump\t// out\n        /* \"#utility.yul\":22469:22835   */\n    tag_349:\n        /* \"#utility.yul\":22611:22614   */\n      0x00\n        /* \"#utility.yul\":22632:22699   */\n      tag_604\n        /* \"#utility.yul\":22696:22698   */\n      0x25\n        /* \"#utility.yul\":22691:22694   */\n      dup4\n        /* \"#utility.yul\":22632:22699   */\n      tag_287\n      jump\t// in\n    tag_604:\n        /* \"#utility.yul\":22625:22699   */\n      swap2\n      pop\n        /* \"#utility.yul\":22708:22801   */\n      tag_605\n        /* \"#utility.yul\":22797:22800   */\n      dup3\n        /* \"#utility.yul\":22708:22801   */\n      tag_348\n      jump\t// in\n    tag_605:\n        /* \"#utility.yul\":22826:22828   */\n      0x40\n        /* \"#utility.yul\":22821:22824   */\n      dup3\n        /* \"#utility.yul\":22817:22829   */\n      add\n        /* \"#utility.yul\":22810:22829   */\n      swap1\n      pop\n        /* \"#utility.yul\":22469:22835   */\n      swap2\n      swap1\n      pop\n      jump\t// out\n        /* \"#utility.yul\":22841:23260   */\n    tag_206:\n        /* \"#utility.yul\":23007:23011   */\n      0x00\n        /* \"#utility.yul\":23045:23047   */\n      0x20\n        /* \"#utility.yul\":23034:23043   */\n      dup3\n        /* \"#utility.yul\":23030:23048   */\n      add\n        /* \"#utility.yul\":23022:23048   */\n      swap1\n      pop\n        /* \"#utility.yul\":23094:23103   */\n      dup2\n        /* \"#utility.yul\":23088:23092   */\n      dup2\n        /* \"#utility.yul\":23084:23104   */\n      sub\n        /* \"#utility.yul\":23080:23081   */\n      0x00\n        /* \"#utility.yul\":23069:23078   */\n      dup4\n        /* \"#utility.yul\":23065:23082   */\n      add\n        /* \"#utility.yul\":23058:23105   */\n      mstore\n        /* \"#utility.yul\":23122:23253   */\n      tag_607\n        /* \"#utility.yul\":23248:23252   */\n      dup2\n        /* \"#utility.yul\":23122:23253   */\n      tag_349\n      jump\t// in\n    tag_607:\n        /* \"#utility.yul\":23114:23253   */\n      swap1\n      pop\n        /* \"#utility.yul\":22841:23260   */\n      swap2\n      swap1\n      pop\n      jump\t// out\n        /* \"#utility.yul\":23266:23491   */\n    tag_350:\n        /* \"#utility.yul\":23406:23440   */\n      0x4f776e61626c653a206e6577206f776e657220697320746865207a65726f2061\n        /* \"#utility.yul\":23402:23403   */\n      0x00\n        /* \"#utility.yul\":23394:23400   */\n      dup3\n        /* \"#utility.yul\":23390:23404   */\n      add\n        /* \"#utility.yul\":23383:23441   */\n      mstore\n        /* \"#utility.yul\":23475:23483   */\n      0x6464726573730000000000000000000000000000000000000000000000000000\n        /* \"#utility.yul\":23470:23472   */\n      0x20\n        /* \"#utility.yul\":23462:23468   */\n      dup3\n        /* \"#utility.yul\":23458:23473   */\n      add\n        /* \"#utility.yul\":23451:23484   */\n      mstore\n        /* \"#utility.yul\":23266:23491   */\n      pop\n      jump\t// out\n        /* \"#utility.yul\":23497:23863   */\n    tag_351:\n        /* \"#utility.yul\":23639:23642   */\n      0x00\n        /* \"#utility.yul\":23660:23727   */\n      tag_610\n        /* \"#utility.yul\":23724:23726   */\n      0x26\n        /* \"#utility.yul\":23719:23722   */\n      dup4\n        /* \"#utility.yul\":23660:23727   */\n      tag_287\n      jump\t// in\n    tag_610:\n        /* \"#utility.yul\":23653:23727   */\n      swap2\n      pop\n        /* \"#utility.yul\":23736:23829   */\n      tag_611\n        /* \"#utility.yul\":23825:23828   */\n      dup3\n        /* \"#utility.yul\":23736:23829   */\n      tag_350\n      jump\t// in\n    tag_611:\n        /* \"#utility.yul\":23854:23856   */\n      0x40\n        /* \"#utility.yul\":23849:23852   */\n      dup3\n        /* \"#utility.yul\":23845:23857   */\n      add\n        /* \"#utility.yul\":23838:23857   */\n      swap1\n      pop\n        /* \"#utility.yul\":23497:23863   */\n      swap2\n      swap1\n      pop\n      jump\t// out\n        /* \"#utility.yul\":23869:24288   */\n    tag_226:\n        /* \"#utility.yul\":24035:24039   */\n      0x00\n        /* \"#utility.yul\":24073:24075   */\n      0x20\n        /* \"#utility.yul\":24062:24071   */\n      dup3\n        /* \"#utility.yul\":24058:24076   */\n      add\n        /* \"#utility.yul\":24050:24076   */\n      swap1\n      pop\n        /* \"#utility.yul\":24122:24131   */\n      dup2\n        /* \"#utility.yul\":24116:24120   */\n      dup2\n        /* \"#utility.yul\":24112:24132   */\n      sub\n        /* \"#utility.yul\":24108:24109   */\n      0x00\n        /* \"#utility.yul\":24097:24106   */\n      dup4\n        /* \"#utility.yul\":24093:24110   */\n      add\n        /* \"#utility.yul\":24086:24133   */\n      mstore\n        /* \"#utility.yul\":24150:24281   */\n      tag_613\n        /* \"#utility.yul\":24276:24280   */\n      dup2\n        /* \"#utility.yul\":24150:24281   */\n      tag_351\n      jump\t// in\n    tag_613:\n        /* \"#utility.yul\":24142:24281   */\n      swap1\n      pop\n        /* \"#utility.yul\":23869:24288   */\n      swap2\n      swap1\n      pop\n      jump\t// out\n        /* \"#utility.yul\":24294:24517   */\n    tag_352:\n        /* \"#utility.yul\":24434:24468   */\n      0x45524332303a20617070726f76652066726f6d20746865207a65726f20616464\n        /* \"#utility.yul\":24430:24431   */\n      0x00\n        /* \"#utility.yul\":24422:24428   */\n      dup3\n        /* \"#utility.yul\":24418:24432   */\n      add\n        /* \"#utility.yul\":24411:24469   */\n      mstore\n        /* \"#utility.yul\":24503:24509   */\n      0x7265737300000000000000000000000000000000000000000000000000000000\n        /* \"#utility.yul\":24498:24500   */\n      0x20\n        /* \"#utility.yul\":24490:24496   */\n      dup3\n        /* \"#utility.yul\":24486:24501   */\n      add\n        /* \"#utility.yul\":24479:24510   */\n      mstore\n        /* \"#utility.yul\":24294:24517   */\n      pop\n      jump\t// out\n        /* \"#utility.yul\":24523:24889   */\n    tag_353:\n        /* \"#utility.yul\":24665:24668   */\n      0x00\n        /* \"#utility.yul\":24686:24753   */\n      tag_616\n        /* \"#utility.yul\":24750:24752   */\n      0x24\n        /* \"#utility.yul\":24745:24748   */\n      dup4\n        /* \"#utility.yul\":24686:24753   */\n      tag_287\n      jump\t// in\n    tag_616:\n        /* \"#utility.yul\":24679:24753   */\n      swap2\n      pop\n        /* \"#utility.yul\":24762:24855   */\n      tag_617\n        /* \"#utility.yul\":24851:24854   */\n      dup3\n        /* \"#utility.yul\":24762:24855   */\n      tag_352\n      jump\t// in\n    tag_617:\n        /* \"#utility.yul\":24880:24882   */\n      0x40\n        /* \"#utility.yul\":24875:24878   */\n      dup3\n        /* \"#utility.yul\":24871:24883   */\n      add\n        /* \"#utility.yul\":24864:24883   */\n      swap1\n      pop\n        /* \"#utility.yul\":24523:24889   */\n      swap2\n      swap1\n      pop\n      jump\t// out\n        /* \"#utility.yul\":24895:25314   */\n    tag_232:\n        /* \"#utility.yul\":25061:25065   */\n      0x00\n        /* \"#utility.yul\":25099:25101   */\n      0x20\n        /* \"#utility.yul\":25088:25097   */\n      dup3\n        /* \"#utility.yul\":25084:25102   */\n      add\n        /* \"#utility.yul\":25076:25102   */\n      swap1\n      pop\n        /* \"#utility.yul\":25148:25157   */\n      dup2\n        /* \"#utility.yul\":25142:25146   */\n      dup2\n        /* \"#utility.yul\":25138:25158   */\n      sub\n        /* \"#utility.yul\":25134:25135   */\n      0x00\n        /* \"#utility.yul\":25123:25132   */\n      dup4\n        /* \"#utility.yul\":25119:25136   */\n      add\n        /* \"#utility.yul\":25112:25159   */\n      mstore\n        /* \"#utility.yul\":25176:25307   */\n      tag_619\n        /* \"#utility.yul\":25302:25306   */\n      dup2\n        /* \"#utility.yul\":25176:25307   */\n      tag_353\n      jump\t// in\n    tag_619:\n        /* \"#utility.yul\":25168:25307   */\n      swap1\n      pop\n        /* \"#utility.yul\":24895:25314   */\n      swap2\n      swap1\n      pop\n      jump\t// out\n        /* \"#utility.yul\":25320:25541   */\n    tag_354:\n        /* \"#utility.yul\":25460:25494   */\n      0x45524332303a20617070726f766520746f20746865207a65726f206164647265\n        /* \"#utility.yul\":25456:25457   */\n      0x00\n        /* \"#utility.yul\":25448:25454   */\n      dup3\n        /* \"#utility.yul\":25444:25458   */\n      add\n        /* \"#utility.yul\":25437:25495   */\n      mstore\n        /* \"#utility.yul\":25529:25533   */\n      0x7373000000000000000000000000000000000000000000000000000000000000\n        /* \"#utility.yul\":25524:25526   */\n      0x20\n        /* \"#utility.yul\":25516:25522   */\n      dup3\n        /* \"#utility.yul\":25512:25527   */\n      add\n        /* \"#utility.yul\":25505:25534   */\n      mstore\n        /* \"#utility.yul\":25320:25541   */\n      pop\n      jump\t// out\n        /* \"#utility.yul\":25547:25913   */\n    tag_355:\n        /* \"#utility.yul\":25689:25692   */\n      0x00\n        /* \"#utility.yul\":25710:25777   */\n      tag_622\n        /* \"#utility.yul\":25774:25776   */\n      0x22\n        /* \"#utility.yul\":25769:25772   */\n      dup4\n        /* \"#utility.yul\":25710:25777   */\n      tag_287\n      jump\t// in\n    tag_622:\n        /* \"#utility.yul\":25703:25777   */\n      swap2\n      pop\n        /* \"#utility.yul\":25786:25879   */\n      tag_623\n        /* \"#utility.yul\":25875:25878   */\n      dup3\n        /* \"#utility.yul\":25786:25879   */\n      tag_354\n      jump\t// in\n    tag_623:\n        /* \"#utility.yul\":25904:25906   */\n      0x40\n        /* \"#utility.yul\":25899:25902   */\n      dup3\n        /* \"#utility.yul\":25895:25907   */\n      add\n        /* \"#utility.yul\":25888:25907   */\n      swap1\n      pop\n        /* \"#utility.yul\":25547:25913   */\n      swap2\n      swap1\n      pop\n      jump\t// out\n        /* \"#utility.yul\":25919:26338   */\n    tag_235:\n        /* \"#utility.yul\":26085:26089   */\n      0x00\n        /* \"#utility.yul\":26123:26125   */\n      0x20\n        /* \"#utility.yul\":26112:26121   */\n      dup3\n        /* \"#utility.yul\":26108:26126   */\n      add\n        /* \"#utility.yul\":26100:26126   */\n      swap1\n      pop\n        /* \"#utility.yul\":26172:26181   */\n      dup2\n        /* \"#utility.yul\":26166:26170   */\n      dup2\n        /* \"#utility.yul\":26162:26182   */\n      sub\n        /* \"#utility.yul\":26158:26159   */\n      0x00\n        /* \"#utility.yul\":26147:26156   */\n      dup4\n        /* \"#utility.yul\":26143:26160   */\n      add\n        /* \"#utility.yul\":26136:26183   */\n      mstore\n        /* \"#utility.yul\":26200:26331   */\n      tag_625\n        /* \"#utility.yul\":26326:26330   */\n      dup2\n        /* \"#utility.yul\":26200:26331   */\n      tag_355\n      jump\t// in\n    tag_625:\n        /* \"#utility.yul\":26192:26331   */\n      swap1\n      pop\n        /* \"#utility.yul\":25919:26338   */\n      swap2\n      swap1\n      pop\n      jump\t// out\n        /* \"#utility.yul\":26344:26523   */\n    tag_356:\n        /* \"#utility.yul\":26484:26515   */\n      0x45524332303a20696e73756666696369656e7420616c6c6f77616e6365000000\n        /* \"#utility.yul\":26480:26481   */\n      0x00\n        /* \"#utility.yul\":26472:26478   */\n      dup3\n        /* \"#utility.yul\":26468:26482   */\n      add\n        /* \"#utility.yul\":26461:26516   */\n      mstore\n        /* \"#utility.yul\":26344:26523   */\n      pop\n      jump\t// out\n        /* \"#utility.yul\":26529:26895   */\n    tag_357:\n        /* \"#utility.yul\":26671:26674   */\n      0x00\n        /* \"#utility.yul\":26692:26759   */\n      tag_628\n        /* \"#utility.yul\":26756:26758   */\n      0x1d\n        /* \"#utility.yul\":26751:26754   */\n      dup4\n        /* \"#utility.yul\":26692:26759   */\n      tag_287\n      jump\t// in\n    tag_628:\n        /* \"#utility.yul\":26685:26759   */\n      swap2\n      pop\n        /* \"#utility.yul\":26768:26861   */\n      tag_629\n        /* \"#utility.yul\":26857:26860   */\n      dup3\n        /* \"#utility.yul\":26768:26861   */\n      tag_356\n      jump\t// in\n    tag_629:\n        /* \"#utility.yul\":26886:26888   */\n      0x20\n        /* \"#utility.yul\":26881:26884   */\n      dup3\n        /* \"#utility.yul\":26877:26889   */\n      add\n        /* \"#utility.yul\":26870:26889   */\n      swap1\n      pop\n        /* \"#utility.yul\":26529:26895   */\n      swap2\n      swap1\n      pop\n      jump\t// out\n        /* \"#utility.yul\":26901:27320   */\n    tag_242:\n        /* \"#utility.yul\":27067:27071   */\n      0x00\n        /* \"#utility.yul\":27105:27107   */\n      0x20\n        /* \"#utility.yul\":27094:27103   */\n      dup3\n        /* \"#utility.yul\":27090:27108   */\n      add\n        /* \"#utility.yul\":27082:27108   */\n      swap1\n      pop\n        /* \"#utility.yul\":27154:27163   */\n      dup2\n        /* \"#utility.yul\":27148:27152   */\n      dup2\n        /* \"#utility.yul\":27144:27164   */\n      sub\n        /* \"#utility.yul\":27140:27141   */\n      0x00\n        /* \"#utility.yul\":27129:27138   */\n      dup4\n        /* \"#utility.yul\":27125:27142   */\n      add\n        /* \"#utility.yul\":27118:27165   */\n      mstore\n        /* \"#utility.yul\":27182:27313   */\n      tag_631\n        /* \"#utility.yul\":27308:27312   */\n      dup2\n        /* \"#utility.yul\":27182:27313   */\n      tag_357\n      jump\t// in\n    tag_631:\n        /* \"#utility.yul\":27174:27313   */\n      swap1\n      pop\n        /* \"#utility.yul\":26901:27320   */\n      swap2\n      swap1\n      pop\n      jump\t// out\n        /* \"#utility.yul\":27326:27550   */\n    tag_358:\n        /* \"#utility.yul\":27466:27500   */\n      0x45524332303a207472616e736665722066726f6d20746865207a65726f206164\n        /* \"#utility.yul\":27462:27463   */\n      0x00\n        /* \"#utility.yul\":27454:27460   */\n      dup3\n        /* \"#utility.yul\":27450:27464   */\n      add\n        /* \"#utility.yul\":27443:27501   */\n      mstore\n        /* \"#utility.yul\":27535:27542   */\n      0x6472657373000000000000000000000000000000000000000000000000000000\n        /* \"#utility.yul\":27530:27532   */\n      0x20\n        /* \"#utility.yul\":27522:27528   */\n      dup3\n        /* \"#utility.yul\":27518:27533   */\n      add\n        /* \"#utility.yul\":27511:27543   */\n      mstore\n        /* \"#utility.yul\":27326:27550   */\n      pop\n      jump\t// out\n        /* \"#utility.yul\":27556:27922   */\n    tag_359:\n        /* \"#utility.yul\":27698:27701   */\n      0x00\n        /* \"#utility.yul\":27719:27786   */\n      tag_634\n        /* \"#utility.yul\":27783:27785   */\n      0x25\n        /* \"#utility.yul\":27778:27781   */\n      dup4\n        /* \"#utility.yul\":27719:27786   */\n      tag_287\n      jump\t// in\n    tag_634:\n        /* \"#utility.yul\":27712:27786   */\n      swap2\n      pop\n        /* \"#utility.yul\":27795:27888   */\n      tag_635\n        /* \"#utility.yul\":27884:27887   */\n      dup3\n        /* \"#utility.yul\":27795:27888   */\n      tag_358\n      jump\t// in\n    tag_635:\n        /* \"#utility.yul\":27913:27915   */\n      0x40\n        /* \"#utility.yul\":27908:27911   */\n      dup3\n        /* \"#utility.yul\":27904:27916   */\n      add\n        /* \"#utility.yul\":27897:27916   */\n      swap1\n      pop\n        /* \"#utility.yul\":27556:27922   */\n      swap2\n      swap1\n      pop\n      jump\t// out\n        /* \"#utility.yul\":27928:28347   */\n    tag_247:\n        /* \"#utility.yul\":28094:28098   */\n      0x00\n        /* \"#utility.yul\":28132:28134   */\n      0x20\n        /* \"#utility.yul\":28121:28130   */\n      dup3\n        /* \"#utility.yul\":28117:28135   */\n      add\n        /* \"#utility.yul\":28109:28135   */\n      swap1\n      pop\n        /* \"#utility.yul\":28181:28190   */\n      dup2\n        /* \"#utility.yul\":28175:28179   */\n      dup2\n        /* \"#utility.yul\":28171:28191   */\n      sub\n        /* \"#utility.yul\":28167:28168   */\n      0x00\n        /* \"#utility.yul\":28156:28165   */\n      dup4\n        /* \"#utility.yul\":28152:28169   */\n      add\n        /* \"#utility.yul\":28145:28192   */\n      mstore\n        /* \"#utility.yul\":28209:28340   */\n      tag_637\n        /* \"#utility.yul\":28335:28339   */\n      dup2\n        /* \"#utility.yul\":28209:28340   */\n      tag_359\n      jump\t// in\n    tag_637:\n        /* \"#utility.yul\":28201:28340   */\n      swap1\n      pop\n        /* \"#utility.yul\":27928:28347   */\n      swap2\n      swap1\n      pop\n      jump\t// out\n        /* \"#utility.yul\":28353:28575   */\n    tag_360:\n        /* \"#utility.yul\":28493:28527   */\n      0x45524332303a207472616e7366657220746f20746865207a65726f2061646472\n        /* \"#utility.yul\":28489:28490   */\n      0x00\n        /* \"#utility.yul\":28481:28487   */\n      dup3\n        /* \"#utility.yul\":28477:28491   */\n      add\n        /* \"#utility.yul\":28470:28528   */\n      mstore\n        /* \"#utility.yul\":28562:28567   */\n      0x6573730000000000000000000000000000000000000000000000000000000000\n        /* \"#utility.yul\":28557:28559   */\n      0x20\n        /* \"#utility.yul\":28549:28555   */\n      dup3\n        /* \"#utility.yul\":28545:28560   */\n      add\n        /* \"#utility.yul\":28538:28568   */\n      mstore\n        /* \"#utility.yul\":28353:28575   */\n      pop\n      jump\t// out\n        /* \"#utility.yul\":28581:28947   */\n    tag_361:\n        /* \"#utility.yul\":28723:28726   */\n      0x00\n        /* \"#utility.yul\":28744:28811   */\n      tag_640\n        /* \"#utility.yul\":28808:28810   */\n      0x23\n        /* \"#utility.yul\":28803:28806   */\n      dup4\n        /* \"#utility.yul\":28744:28811   */\n      tag_287\n      jump\t// in\n    tag_640:\n        /* \"#utility.yul\":28737:28811   */\n      swap2\n      pop\n        /* \"#utility.yul\":28820:28913   */\n      tag_641\n        /* \"#utility.yul\":28909:28912   */\n      dup3\n        /* \"#utility.yul\":28820:28913   */\n      tag_360\n      jump\t// in\n    tag_641:\n        /* \"#utility.yul\":28938:28940   */\n      0x40\n        /* \"#utility.yul\":28933:28936   */\n      dup3\n        /* \"#utility.yul\":28929:28941   */\n      add\n        /* \"#utility.yul\":28922:28941   */\n      swap1\n      pop\n        /* \"#utility.yul\":28581:28947   */\n      swap2\n      swap1\n      pop\n      jump\t// out\n        /* \"#utility.yul\":28953:29372   */\n    tag_250:\n        /* \"#utility.yul\":29119:29123   */\n      0x00\n        /* \"#utility.yul\":29157:29159   */\n      0x20\n        /* \"#utility.yul\":29146:29155   */\n      dup3\n        /* \"#utility.yul\":29142:29160   */\n      add\n        /* \"#utility.yul\":29134:29160   */\n      swap1\n      pop\n        /* \"#utility.yul\":29206:29215   */\n      dup2\n        /* \"#utility.yul\":29200:29204   */\n      dup2\n        /* \"#utility.yul\":29196:29216   */\n      sub\n        /* \"#utility.yul\":29192:29193   */\n      0x00\n        /* \"#utility.yul\":29181:29190   */\n      dup4\n        /* \"#utility.yul\":29177:29194   */\n      add\n        /* \"#utility.yul\":29170:29217   */\n      mstore\n        /* \"#utility.yul\":29234:29365   */\n      tag_643\n        /* \"#utility.yul\":29360:29364   */\n      dup2\n        /* \"#utility.yul\":29234:29365   */\n      tag_361\n      jump\t// in\n    tag_643:\n        /* \"#utility.yul\":29226:29365   */\n      swap1\n      pop\n        /* \"#utility.yul\":28953:29372   */\n      swap2\n      swap1\n      pop\n      jump\t// out\n        /* \"#utility.yul\":29378:29603   */\n    tag_362:\n        /* \"#utility.yul\":29518:29552   */\n      0x45524332303a207472616e7366657220616d6f756e7420657863656564732062\n        /* \"#utility.yul\":29514:29515   */\n      0x00\n        /* \"#utility.yul\":29506:29512   */\n      dup3\n        /* \"#utility.yul\":29502:29516   */\n      add\n        /* \"#utility.yul\":29495:29553   */\n      mstore\n        /* \"#utility.yul\":29587:29595   */\n      0x616c616e63650000000000000000000000000000000000000000000000000000\n        /* \"#utility.yul\":29582:29584   */\n      0x20\n        /* \"#utility.yul\":29574:29580   */\n      dup3\n        /* \"#utility.yul\":29570:29585   */\n      add\n        /* \"#utility.yul\":29563:29596   */\n      mstore\n        /* \"#utility.yul\":29378:29603   */\n      pop\n      jump\t// out\n        /* \"#utility.yul\":29609:29975   */\n    tag_363:\n        /* \"#utility.yul\":29751:29754   */\n      0x00\n        /* \"#utility.yul\":29772:29839   */\n      tag_646\n        /* \"#utility.yul\":29836:29838   */\n      0x26\n        /* \"#utility.yul\":29831:29834   */\n      dup4\n        /* \"#utility.yul\":29772:29839   */\n      tag_287\n      jump\t// in\n    tag_646:\n        /* \"#utility.yul\":29765:29839   */\n      swap2\n      pop\n        /* \"#utility.yul\":29848:29941   */\n      tag_647\n        /* \"#utility.yul\":29937:29940   */\n      dup3\n        /* \"#utility.yul\":29848:29941   */\n      tag_362\n      jump\t// in\n    tag_647:\n        /* \"#utility.yul\":29966:29968   */\n      0x40\n        /* \"#utility.yul\":29961:29964   */\n      dup3\n        /* \"#utility.yul\":29957:29969   */\n      add\n        /* \"#utility.yul\":29950:29969   */\n      swap1\n      pop\n        /* \"#utility.yul\":29609:29975   */\n      swap2\n      swap1\n      pop\n      jump\t// out\n        /* \"#utility.yul\":29981:30400   */\n    tag_255:\n        /* \"#utility.yul\":30147:30151   */\n      0x00\n        /* \"#utility.yul\":30185:30187   */\n      0x20\n        /* \"#utility.yul\":30174:30183   */\n      dup3\n        /* \"#utility.yul\":30170:30188   */\n      add\n        /* \"#utility.yul\":30162:30188   */\n      swap1\n      pop\n        /* \"#utility.yul\":30234:30243   */\n      dup2\n        /* \"#utility.yul\":30228:30232   */\n      dup2\n        /* \"#utility.yul\":30224:30244   */\n      sub\n        /* \"#utility.yul\":30220:30221   */\n      0x00\n        /* \"#utility.yul\":30209:30218   */\n      dup4\n        /* \"#utility.yul\":30205:30222   */\n      add\n        /* \"#utility.yul\":30198:30245   */\n      mstore\n        /* \"#utility.yul\":30262:30393   */\n      tag_649\n        /* \"#utility.yul\":30388:30392   */\n      dup2\n        /* \"#utility.yul\":30262:30393   */\n      tag_363\n      jump\t// in\n    tag_649:\n        /* \"#utility.yul\":30254:30393   */\n      swap1\n      pop\n        /* \"#utility.yul\":29981:30400   */\n      swap2\n      swap1\n      pop\n      jump\t// out\n        /* \"#utility.yul\":30406:30588   */\n    tag_364:\n        /* \"#utility.yul\":30546:30580   */\n      0x4f776e61626c653a2063616c6c6572206973206e6f7420746865206f776e6572\n        /* \"#utility.yul\":30542:30543   */\n      0x00\n        /* \"#utility.yul\":30534:30540   */\n      dup3\n        /* \"#utility.yul\":30530:30544   */\n      add\n        /* \"#utility.yul\":30523:30581   */\n      mstore\n        /* \"#utility.yul\":30406:30588   */\n      pop\n      jump\t// out\n        /* \"#utility.yul\":30594:30960   */\n    tag_365:\n        /* \"#utility.yul\":30736:30739   */\n      0x00\n        /* \"#utility.yul\":30757:30824   */\n      tag_652\n        /* \"#utility.yul\":30821:30823   */\n      0x20\n        /* \"#utility.yul\":30816:30819   */\n      dup4\n        /* \"#utility.yul\":30757:30824   */\n      tag_287\n      jump\t// in\n    tag_652:\n        /* \"#utility.yul\":30750:30824   */\n      swap2\n      pop\n        /* \"#utility.yul\":30833:30926   */\n      tag_653\n        /* \"#utility.yul\":30922:30925   */\n      dup3\n        /* \"#utility.yul\":30833:30926   */\n      tag_364\n      jump\t// in\n    tag_653:\n        /* \"#utility.yul\":30951:30953   */\n      0x20\n        /* \"#utility.yul\":30946:30949   */\n      dup3\n        /* \"#utility.yul\":30942:30954   */\n      add\n        /* \"#utility.yul\":30935:30954   */\n      swap1\n      pop\n        /* \"#utility.yul\":30594:30960   */\n      swap2\n      swap1\n      pop\n      jump\t// out\n        /* \"#utility.yul\":30966:31385   */\n    tag_264:\n        /* \"#utility.yul\":31132:31136   */\n      0x00\n        /* \"#utility.yul\":31170:31172   */\n      0x20\n        /* \"#utility.yul\":31159:31168   */\n      dup3\n        /* \"#utility.yul\":31155:31173   */\n      add\n        /* \"#utility.yul\":31147:31173   */\n      swap1\n      pop\n        /* \"#utility.yul\":31219:31228   */\n      dup2\n        /* \"#utility.yul\":31213:31217   */\n      dup2\n        /* \"#utility.yul\":31209:31229   */\n      sub\n        /* \"#utility.yul\":31205:31206   */\n      0x00\n        /* \"#utility.yul\":31194:31203   */\n      dup4\n        /* \"#utility.yul\":31190:31207   */\n      add\n        /* \"#utility.yul\":31183:31230   */\n      mstore\n        /* \"#utility.yul\":31247:31378   */\n      tag_655\n        /* \"#utility.yul\":31373:31377   */\n      dup2\n        /* \"#utility.yul\":31247:31378   */\n      tag_365\n      jump\t// in\n    tag_655:\n        /* \"#utility.yul\":31239:31378   */\n      swap1\n      pop\n        /* \"#utility.yul\":30966:31385   */\n      swap2\n      swap1\n      pop\n      jump\t// out\n        /* \"#utility.yul\":31391:31572   */\n    tag_366:\n        /* \"#utility.yul\":31531:31564   */\n      0x45524332303a206d696e7420746f20746865207a65726f206164647265737300\n        /* \"#utility.yul\":31527:31528   */\n      0x00\n        /* \"#utility.yul\":31519:31525   */\n      dup3\n        /* \"#utility.yul\":31515:31529   */\n      add\n        /* \"#utility.yul\":31508:31565   */\n      mstore\n        /* \"#utility.yul\":31391:31572   */\n      pop\n      jump\t// out\n        /* \"#utility.yul\":31578:31944   */\n    tag_367:\n        /* \"#utility.yul\":31720:31723   */\n      0x00\n        /* \"#utility.yul\":31741:31808   */\n      tag_658\n        /* \"#utility.yul\":31805:31807   */\n      0x1f\n        /* \"#utility.yul\":31800:31803   */\n      dup4\n        /* \"#utility.yul\":31741:31808   */\n      tag_287\n      jump\t// in\n    tag_658:\n        /* \"#utility.yul\":31734:31808   */\n      swap2\n      pop\n        /* \"#utility.yul\":31817:31910   */\n      tag_659\n        /* \"#utility.yul\":31906:31909   */\n      dup3\n        /* \"#utility.yul\":31817:31910   */\n      tag_366\n      jump\t// in\n    tag_659:\n        /* \"#utility.yul\":31935:31937   */\n      0x20\n        /* \"#utility.yul\":31930:31933   */\n      dup3\n        /* \"#utility.yul\":31926:31938   */\n      add\n        /* \"#utility.yul\":31919:31938   */\n      swap1\n      pop\n        /* \"#utility.yul\":31578:31944   */\n      swap2\n      swap1\n      pop\n      jump\t// out\n        /* \"#utility.yul\":31950:32369   */\n    tag_268:\n        /* \"#utility.yul\":32116:32120   */\n      0x00\n        /* \"#utility.yul\":32154:32156   */\n      0x20\n        /* \"#utility.yul\":32143:32152   */\n      dup3\n        /* \"#utility.yul\":32139:32157   */\n      add\n        /* \"#utility.yul\":32131:32157   */\n      swap1\n      pop\n        /* \"#utility.yul\":32203:32212   */\n      dup2\n        /* \"#utility.yul\":32197:32201   */\n      dup2\n        /* \"#utility.yul\":32193:32213   */\n      sub\n        /* \"#utility.yul\":32189:32190   */\n      0x00\n        /* \"#utility.yul\":32178:32187   */\n      dup4\n        /* \"#utility.yul\":32174:32191   */\n      add\n        /* \"#utility.yul\":32167:32214   */\n      mstore\n        /* \"#utility.yul\":32231:32362   */\n      tag_661\n        /* \"#utility.yul\":32357:32361   */\n      dup2\n        /* \"#utility.yul\":32231:32362   */\n      tag_367\n      jump\t// in\n    tag_661:\n        /* \"#utility.yul\":32223:32362   */\n      swap1\n      pop\n        /* \"#utility.yul\":31950:32369   */\n      swap2\n      swap1\n      pop\n      jump\t// out\n        /* \"#utility.yul\":32375:32595   */\n    tag_368:\n        /* \"#utility.yul\":32515:32549   */\n      0x45524332303a206275726e2066726f6d20746865207a65726f20616464726573\n        /* \"#utility.yul\":32511:32512   */\n      0x00\n        /* \"#utility.yul\":32503:32509   */\n      dup3\n        /* \"#utility.yul\":32499:32513   */\n      add\n        /* \"#utility.yul\":32492:32550   */\n      mstore\n        /* \"#utility.yul\":32584:32587   */\n      0x7300000000000000000000000000000000000000000000000000000000000000\n        /* \"#utility.yul\":32579:32581   */\n      0x20\n        /* \"#utility.yul\":32571:32577   */\n      dup3\n        /* \"#utility.yul\":32567:32582   */\n      add\n        /* \"#utility.yul\":32560:32588   */\n      mstore\n        /* \"#utility.yul\":32375:32595   */\n      pop\n      jump\t// out\n        /* \"#utility.yul\":32601:32967   */\n    tag_369:\n        /* \"#utility.yul\":32743:32746   */\n      0x00\n        /* \"#utility.yul\":32764:32831   */\n      tag_664\n        /* \"#utility.yul\":32828:32830   */\n      0x21\n        /* \"#utility.yul\":32823:32826   */\n      dup4\n        /* \"#utility.yul\":32764:32831   */\n      tag_287\n      jump\t// in\n    tag_664:\n        /* \"#utility.yul\":32757:32831   */\n      swap2\n      pop\n        /* \"#utility.yul\":32840:32933   */\n      tag_665\n        /* \"#utility.yul\":32929:32932   */\n      dup3\n        /* \"#utility.yul\":32840:32933   */\n      tag_368\n      jump\t// in\n    tag_665:\n        /* \"#utility.yul\":32958:32960   */\n      0x40\n        /* \"#utility.yul\":32953:32956   */\n      dup3\n        /* \"#utility.yul\":32949:32961   */\n      add\n        /* \"#utility.yul\":32942:32961   */\n      swap1\n      pop\n        /* \"#utility.yul\":32601:32967   */\n      swap2\n      swap1\n      pop\n      jump\t// out\n        /* \"#utility.yul\":32973:33392   */\n    tag_277:\n        /* \"#utility.yul\":33139:33143   */\n      0x00\n        /* \"#utility.yul\":33177:33179   */\n      0x20\n        /* \"#utility.yul\":33166:33175   */\n      dup3\n        /* \"#utility.yul\":33162:33180   */\n      add\n        /* \"#utility.yul\":33154:33180   */\n      swap1\n      pop\n        /* \"#utility.yul\":33226:33235   */\n      dup2\n        /* \"#utility.yul\":33220:33224   */\n      dup2\n        /* \"#utility.yul\":33216:33236   */\n      sub\n        /* \"#utility.yul\":33212:33213   */\n      0x00\n        /* \"#utility.yul\":33201:33210   */\n      dup4\n        /* \"#utility.yul\":33197:33214   */\n      add\n        /* \"#utility.yul\":33190:33237   */\n      mstore\n        /* \"#utility.yul\":33254:33385   */\n      tag_667\n        /* \"#utility.yul\":33380:33384   */\n      dup2\n        /* \"#utility.yul\":33254:33385   */\n      tag_369\n      jump\t// in\n    tag_667:\n        /* \"#utility.yul\":33246:33385   */\n      swap1\n      pop\n        /* \"#utility.yul\":32973:33392   */\n      swap2\n      swap1\n      pop\n      jump\t// out\n        /* \"#utility.yul\":33398:33619   */\n    tag_370:\n        /* \"#utility.yul\":33538:33572   */\n      0x45524332303a206275726e20616d6f756e7420657863656564732062616c616e\n        /* \"#utility.yul\":33534:33535   */\n      0x00\n        /* \"#utility.yul\":33526:33532   */\n      dup3\n        /* \"#utility.yul\":33522:33536   */\n      add\n        /* \"#utility.yul\":33515:33573   */\n      mstore\n        /* \"#utility.yul\":33607:33611   */\n      0x6365000000000000000000000000000000000000000000000000000000000000\n        /* \"#utility.yul\":33602:33604   */\n      0x20\n        /* \"#utility.yul\":33594:33600   */\n      dup3\n        /* \"#utility.yul\":33590:33605   */\n      add\n        /* \"#utility.yul\":33583:33612   */\n      mstore\n        /* \"#utility.yul\":33398:33619   */\n      pop\n      jump\t// out\n        /* \"#utility.yul\":33625:33991   */\n    tag_371:\n        /* \"#utility.yul\":33767:33770   */\n      0x00\n        /* \"#utility.yul\":33788:33855   */\n      tag_670\n        /* \"#utility.yul\":33852:33854   */\n      0x22\n        /* \"#utility.yul\":33847:33850   */\n      dup4\n        /* \"#utility.yul\":33788:33855   */\n      tag_287\n      jump\t// in\n    tag_670:\n        /* \"#utility.yul\":33781:33855   */\n      swap2\n      pop\n        /* \"#utility.yul\":33864:33957   */\n      tag_671\n        /* \"#utility.yul\":33953:33956   */\n      dup3\n        /* \"#utility.yul\":33864:33957   */\n      tag_370\n      jump\t// in\n    tag_671:\n        /* \"#utility.yul\":33982:33984   */\n      0x40\n        /* \"#utility.yul\":33977:33980   */\n      dup3\n        /* \"#utility.yul\":33973:33985   */\n      add\n        /* \"#utility.yul\":33966:33985   */\n      swap1\n      pop\n        /* \"#utility.yul\":33625:33991   */\n      swap2\n      swap1\n      pop\n      jump\t// out\n        /* \"#utility.yul\":33997:34416   */\n    tag_281:\n        /* \"#utility.yul\":34163:34167   */\n      0x00\n        /* \"#utility.yul\":34201:34203   */\n      0x20\n        /* \"#utility.yul\":34190:34199   */\n      dup3\n        /* \"#utility.yul\":34186:34204   */\n      add\n        /* \"#utility.yul\":34178:34204   */\n      swap1\n      pop\n        /* \"#utility.yul\":34250:34259   */\n      dup2\n        /* \"#utility.yul\":34244:34248   */\n      dup2\n        /* \"#utility.yul\":34240:34260   */\n      sub\n        /* \"#utility.yul\":34236:34237   */\n      0x00\n        /* \"#utility.yul\":34225:34234   */\n      dup4\n        /* \"#utility.yul\":34221:34238   */\n      add\n        /* \"#utility.yul\":34214:34261   */\n      mstore\n        /* \"#utility.yul\":34278:34409   */\n      tag_673\n        /* \"#utility.yul\":34404:34408   */\n      dup2\n        /* \"#utility.yul\":34278:34409   */\n      tag_371\n      jump\t// in\n    tag_673:\n        /* \"#utility.yul\":34270:34409   */\n      swap1\n      pop\n        /* \"#utility.yul\":33997:34416   */\n      swap2\n      swap1\n      pop\n      jump\t// out\n\n    auxdata: 0xa2646970667358221220fe090e2545208257d27570d5f2a024489e7fcbf5656c794e3358fbd33794e17c64736f6c634300081a0033\n}\n",
				"bytecode": {
					"linkReferences": {},
					"object": "608060405234801561000f575f80fd5b506040518060400160405280600581526020017f446567656e0000000000000000000000000000000000000000000000000000008152506040518060400160405280600381526020017f44474e0000000000000000000000000000000000000000000000000000000000815250816003908161008b91906103c3565b50806004908161009b91906103c3565b5050506100ba6100af6100bf60201b60201c565b6100c660201b60201c565b610492565b5f33905090565b5f60055f9054906101000a900473ffffffffffffffffffffffffffffffffffffffff1690508160055f6101000a81548173ffffffffffffffffffffffffffffffffffffffff021916908373ffffffffffffffffffffffffffffffffffffffff1602179055508173ffffffffffffffffffffffffffffffffffffffff168173ffffffffffffffffffffffffffffffffffffffff167f8be0079c531659141344cd1fd0a4f28419497f9722a3daafe3b4186f6b6457e060405160405180910390a35050565b5f81519050919050565b7f4e487b71000000000000000000000000000000000000000000000000000000005f52604160045260245ffd5b7f4e487b71000000000000000000000000000000000000000000000000000000005f52602260045260245ffd5b5f600282049050600182168061020457607f821691505b602082108103610217576102166101c0565b5b50919050565b5f819050815f5260205f209050919050565b5f6020601f8301049050919050565b5f82821b905092915050565b5f600883026102797fffffffffffffffffffffffffffffffffffffffffffffffffffffffffffffffff8261023e565b610283868361023e565b95508019841693508086168417925050509392505050565b5f819050919050565b5f819050919050565b5f6102c76102c26102bd8461029b565b6102a4565b61029b565b9050919050565b5f819050919050565b6102e0836102ad565b6102f46102ec826102ce565b84845461024a565b825550505050565b5f90565b6103086102fc565b6103138184846102d7565b505050565b5b818110156103365761032b5f82610300565b600181019050610319565b5050565b601f82111561037b5761034c8161021d565b6103558461022f565b81016020851015610364578190505b6103786103708561022f565b830182610318565b50505b505050565b5f82821c905092915050565b5f61039b5f1984600802610380565b1980831691505092915050565b5f6103b3838361038c565b9150826002028217905092915050565b6103cc82610189565b67ffffffffffffffff8111156103e5576103e4610193565b5b6103ef82546101ed565b6103fa82828561033a565b5f60209050601f83116001811461042b575f8415610419578287015190505b61042385826103a8565b86555061048a565b601f1984166104398661021d565b5f5b828110156104605784890151825560018201915060208501945060208101905061043b565b8683101561047d5784890151610479601f89168261038c565b8355505b6001600288020188555050505b505050505050565b6127038061049f5f395ff3fe608060405234801561000f575f80fd5b506004361061014b575f3560e01c8063715018a6116100c15780639b8418cc1161007a5780639b8418cc14610388578063a457c2d7146103b9578063a9059cbb146103e9578063dd62ed3e14610419578063e53cdeca14610449578063f2fde38b146104675761014b565b8063715018a6146102ee57806379c65068146102f85780637b47ec1a14610314578063860d0ff9146103305780638da5cb5b1461034c57806395d89b411461036a5761014b565b806334559c061161011357806334559c0614610209578063395093511461022557806340c10f191461025557806346ed098a146102715780636057361d1461028d57806370a08231146102be5761014b565b806306fdde031461014f578063095ea7b31461016d57806318160ddd1461019d57806323b872dd146101bb578063313ce567146101eb575b5f80fd5b610157610483565b60405161016491906115c7565b60405180910390f35b61018760048036038101906101829190611685565b610513565b60405161019491906116dd565b60405180910390f35b6101a5610535565b6040516101b29190611705565b60405180910390f35b6101d560048036038101906101d0919061171e565b61053e565b6040516101e291906116dd565b60405180910390f35b6101f361056c565b6040516102009190611789565b60405180910390f35b610223600480360381019061021e91906117a2565b610574565b005b61023f600480360381019061023a9190611685565b6105e3565b60405161024c91906116dd565b60405180910390f35b61026f600480360381019061026a9190611685565b610619565b005b61028b60048036038101906102869190611685565b61062f565b005b6102a760048036038101906102a291906117a2565b610695565b6040516102b59291906117cd565b60405180910390f35b6102d860048036038101906102d391906117fb565b61073b565b6040516102e59190611705565b60405180910390f35b6102f6610780565b005b610312600480360381019061030d9190611685565b610793565b005b61032e600480360381019061032991906117a2565b6107a9565b005b61034a60048036038101906103459190611952565b6107b6565b005b61035461084c565b60405161036191906119bb565b60405180910390f35b610372610874565b60405161037f91906115c7565b60405180910390f35b6103a2600480360381019061039d91906117fb565b610904565b6040516103b09291906117cd565b60405180910390f35b6103d360048036038101906103ce9190611685565b6109aa565b6040516103e091906116dd565b60405180910390f35b61040360048036038101906103fe9190611685565b610a1f565b60405161041091906116dd565b60405180910390f35b610433600480360381019061042e91906119d4565b610a41565b6040516104409190611705565b60405180910390f35b610451610ac3565b60405161045e9190611b5e565b60405180910390f35b610481600480360381019061047c91906117fb565b610bb8565b005b60606003805461049290611bab565b80601f01602080910402602001604051908101604052809291908181526020018280546104be90611bab565b80156105095780601f106104e057610100808354040283529160200191610509565b820191905f5260205f20905b8154815290600101906020018083116104ec57829003601f168201915b5050505050905090565b5f8061051d610c3a565b905061052a818585610c41565b600191505092915050565b5f600254905090565b5f80610548610c3a565b9050610555858285610e04565b610560858585610e8f565b60019150509392505050565b5f6012905090565b5f60065f8381526020019081526020015f206001015490506105953361073b565b81106105d6576040517f08c379a00000000000000000000000000000000000000000000000000000000081526004016105cd90611c4b565b60405180910390fd5b6105df816107a9565b5050565b5f806105ed610c3a565b905061060e8185856105ff8589610a41565b6106099190611c96565b610c41565b600191505092915050565b6106216110fb565b61062b8282611179565b5050565b6106383361073b565b81111561067a576040517f08c379a000000000000000000000000000000000000000000000000000000000815260040161067190611d13565b60405180910390fd5b6106843382610513565b5061069033838361053e565b505050565b6006602052805f5260405f205f91509050805f0180546106b490611bab565b80601f01602080910402602001604051908101604052809291908181526020018280546106e090611bab565b801561072b5780601f106107025761010080835404028352916020019161072b565b820191905f5260205f20905b81548152906001019060200180831161070e57829003601f168201915b5050505050908060010154905082565b5f805f8373ffffffffffffffffffffffffffffffffffffffff1673ffffffffffffffffffffffffffffffffffffffff1681526020019081526020015f20549050919050565b6107886110fb565b6107915f6112c7565b565b61079b6110fb565b6107a58282611179565b5050565b6107b3338261138a565b50565b600160085f8282546107c89190611c96565b925050819055505f60065f60085481526020019081526020015f20905082815f0190816107f59190611ece565b50818160010181905550600981908060018154018082558091505060019003905f5260205f2090600202015f909190919091505f8201815f01908161083a9190611fb2565b50600182015481600101555050505050565b5f60055f9054906101000a900473ffffffffffffffffffffffffffffffffffffffff16905090565b60606004805461088390611bab565b80601f01602080910402602001604051908101604052809291908181526020018280546108af90611bab565b80156108fa5780601f106108d1576101008083540402835291602001916108fa565b820191905f5260205f20905b8154815290600101906020018083116108dd57829003601f168201915b5050505050905090565b6007602052805f5260405f205f91509050805f01805461092390611bab565b80601f016020809104026020016040519081016040528092919081815260200182805461094f90611bab565b801561099a5780601f106109715761010080835404028352916020019161099a565b820191905f5260205f20905b81548152906001019060200180831161097d57829003601f168201915b5050505050908060010154905082565b5f806109b4610c3a565b90505f6109c18286610a41565b905083811015610a06576040517f08c379a00000000000000000000000000000000000000000000000000000000081526004016109fd90612107565b60405180910390fd5b610a138286868403610c41565b60019250505092915050565b5f80610a29610c3a565b9050610a36818585610e8f565b600191505092915050565b5f60015f8473ffffffffffffffffffffffffffffffffffffffff1673ffffffffffffffffffffffffffffffffffffffff1681526020019081526020015f205f8373ffffffffffffffffffffffffffffffffffffffff1673ffffffffffffffffffffffffffffffffffffffff1681526020019081526020015f2054905092915050565b60606009805480602002602001604051908101604052809291908181526020015f905b82821015610baf578382905f5260205f2090600202016040518060400160405290815f82018054610b1690611bab565b80601f0160208091040260200160405190810160405280929190818152602001828054610b4290611bab565b8015610b8d5780601f10610b6457610100808354040283529160200191610b8d565b820191905f5260205f20905b815481529060010190602001808311610b7057829003601f168201915b5050505050815260200160018201548152505081526020019060010190610ae6565b50505050905090565b610bc06110fb565b5f73ffffffffffffffffffffffffffffffffffffffff168173ffffffffffffffffffffffffffffffffffffffff1603610c2e576040517f08c379a0000000000000000000000000000000000000000000000000000000008152600401610c2590612195565b60405180910390fd5b610c37816112c7565b50565b5f33905090565b5f73ffffffffffffffffffffffffffffffffffffffff168373ffffffffffffffffffffffffffffffffffffffff1603610caf576040517f08c379a0000000000000000000000000000000000000000000000000000000008152600401610ca690612223565b60405180910390fd5b5f73ffffffffffffffffffffffffffffffffffffffff168273ffffffffffffffffffffffffffffffffffffffff1603610d1d576040517f08c379a0000000000000000000000000000000000000000000000000000000008152600401610d14906122b1565b60405180910390fd5b8060015f8573ffffffffffffffffffffffffffffffffffffffff1673ffffffffffffffffffffffffffffffffffffffff1681526020019081526020015f205f8473ffffffffffffffffffffffffffffffffffffffff1673ffffffffffffffffffffffffffffffffffffffff1681526020019081526020015f20819055508173ffffffffffffffffffffffffffffffffffffffff168373ffffffffffffffffffffffffffffffffffffffff167f8c5be1e5ebec7d5bd14f71427d1e84f3dd0314c0f7b2291e5b200ac8c7c3b92583604051610df79190611705565b60405180910390a3505050565b5f610e0f8484610a41565b90507fffffffffffffffffffffffffffffffffffffffffffffffffffffffffffffffff8114610e895781811015610e7b576040517f08c379a0000000000000000000000000000000000000000000000000000000008152600401610e7290612319565b60405180910390fd5b610e888484848403610c41565b5b50505050565b5f73ffffffffffffffffffffffffffffffffffffffff168373ffffffffffffffffffffffffffffffffffffffff1603610efd576040517f08c379a0000000000000000000000000000000000000000000000000000000008152600401610ef4906123a7565b60405180910390fd5b5f73ffffffffffffffffffffffffffffffffffffffff168273ffffffffffffffffffffffffffffffffffffffff1603610f6b576040517f08c379a0000000000000000000000000000000000000000000000000000000008152600401610f6290612435565b60405180910390fd5b610f7683838361154d565b5f805f8573ffffffffffffffffffffffffffffffffffffffff1673ffffffffffffffffffffffffffffffffffffffff1681526020019081526020015f2054905081811015610ff9576040517f08c379a0000000000000000000000000000000000000000000000000000000008152600401610ff0906124c3565b60405180910390fd5b8181035f808673ffffffffffffffffffffffffffffffffffffffff1673ffffffffffffffffffffffffffffffffffffffff1681526020019081526020015f2081905550815f808573ffffffffffffffffffffffffffffffffffffffff1673ffffffffffffffffffffffffffffffffffffffff1681526020019081526020015f205f82825401925050819055508273ffffffffffffffffffffffffffffffffffffffff168473ffffffffffffffffffffffffffffffffffffffff167fddf252ad1be2c89b69c2b068fc378daa952ba7f163c4a11628f55a4df523b3ef846040516110e29190611705565b60405180910390a36110f5848484611552565b50505050565b611103610c3a565b73ffffffffffffffffffffffffffffffffffffffff1661112161084c565b73ffffffffffffffffffffffffffffffffffffffff1614611177576040517f08c379a000000000000000000000000000000000000000000000000000000000815260040161116e9061252b565b60405180910390fd5b565b5f73ffffffffffffffffffffffffffffffffffffffff168273ffffffffffffffffffffffffffffffffffffffff16036111e7576040517f08c379a00000000000000000000000000000000000000000000000000000000081526004016111de90612593565b60405180910390fd5b6111f25f838361154d565b8060025f8282546112039190611c96565b92505081905550805f808473ffffffffffffffffffffffffffffffffffffffff1673ffffffffffffffffffffffffffffffffffffffff1681526020019081526020015f205f82825401925050819055508173ffffffffffffffffffffffffffffffffffffffff165f73ffffffffffffffffffffffffffffffffffffffff167fddf252ad1be2c89b69c2b068fc378daa952ba7f163c4a11628f55a4df523b3ef836040516112b09190611705565b60405180910390a36112c35f8383611552565b5050565b5f60055f9054906101000a900473ffffffffffffffffffffffffffffffffffffffff1690508160055f6101000a81548173ffffffffffffffffffffffffffffffffffffffff021916908373ffffffffffffffffffffffffffffffffffffffff1602179055508173ffffffffffffffffffffffffffffffffffffffff168173ffffffffffffffffffffffffffffffffffffffff167f8be0079c531659141344cd1fd0a4f28419497f9722a3daafe3b4186f6b6457e060405160405180910390a35050565b5f73ffffffffffffffffffffffffffffffffffffffff168273ffffffffffffffffffffffffffffffffffffffff16036113f8576040517f08c379a00000000000000000000000000000000000000000000000000000000081526004016113ef90612621565b60405180910390fd5b611403825f8361154d565b5f805f8473ffffffffffffffffffffffffffffffffffffffff1673ffffffffffffffffffffffffffffffffffffffff1681526020019081526020015f2054905081811015611486576040517f08c379a000000000000000000000000000000000000000000000000000000000815260040161147d906126af565b60405180910390fd5b8181035f808573ffffffffffffffffffffffffffffffffffffffff1673ffffffffffffffffffffffffffffffffffffffff1681526020019081526020015f20819055508160025f82825403925050819055505f73ffffffffffffffffffffffffffffffffffffffff168373ffffffffffffffffffffffffffffffffffffffff167fddf252ad1be2c89b69c2b068fc378daa952ba7f163c4a11628f55a4df523b3ef846040516115359190611705565b60405180910390a3611548835f84611552565b505050565b505050565b505050565b5f81519050919050565b5f82825260208201905092915050565b8281835e5f83830152505050565b5f601f19601f8301169050919050565b5f61159982611557565b6115a38185611561565b93506115b3818560208601611571565b6115bc8161157f565b840191505092915050565b5f6020820190508181035f8301526115df818461158f565b905092915050565b5f604051905090565b5f80fd5b5f80fd5b5f73ffffffffffffffffffffffffffffffffffffffff82169050919050565b5f611621826115f8565b9050919050565b61163181611617565b811461163b575f80fd5b50565b5f8135905061164c81611628565b92915050565b5f819050919050565b61166481611652565b811461166e575f80fd5b50565b5f8135905061167f8161165b565b92915050565b5f806040838503121561169b5761169a6115f0565b5b5f6116a88582860161163e565b92505060206116b985828601611671565b9150509250929050565b5f8115159050919050565b6116d7816116c3565b82525050565b5f6020820190506116f05f8301846116ce565b92915050565b6116ff81611652565b82525050565b5f6020820190506117185f8301846116f6565b92915050565b5f805f60608486031215611735576117346115f0565b5b5f6117428682870161163e565b93505060206117538682870161163e565b925050604061176486828701611671565b9150509250925092565b5f60ff82169050919050565b6117838161176e565b82525050565b5f60208201905061179c5f83018461177a565b92915050565b5f602082840312156117b7576117b66115f0565b5b5f6117c484828501611671565b91505092915050565b5f6040820190508181035f8301526117e5818561158f565b90506117f460208301846116f6565b9392505050565b5f602082840312156118105761180f6115f0565b5b5f61181d8482850161163e565b91505092915050565b5f80fd5b5f80fd5b7f4e487b71000000000000000000000000000000000000000000000000000000005f52604160045260245ffd5b6118648261157f565b810181811067ffffffffffffffff821117156118835761188261182e565b5b80604052505050565b5f6118956115e7565b90506118a1828261185b565b919050565b5f67ffffffffffffffff8211156118c0576118bf61182e565b5b6118c98261157f565b9050602081019050919050565b828183375f83830152505050565b5f6118f66118f1846118a6565b61188c565b9050828152602081018484840111156119125761191161182a565b5b61191d8482856118d6565b509392505050565b5f82601f83011261193957611938611826565b5b81356119498482602086016118e4565b91505092915050565b5f8060408385031215611968576119676115f0565b5b5f83013567ffffffffffffffff811115611985576119846115f4565b5b61199185828601611925565b92505060206119a285828601611671565b9150509250929050565b6119b581611617565b82525050565b5f6020820190506119ce5f8301846119ac565b92915050565b5f80604083850312156119ea576119e96115f0565b5b5f6119f78582860161163e565b9250506020611a088582860161163e565b9150509250929050565b5f81519050919050565b5f82825260208201905092915050565b5f819050602082019050919050565b5f82825260208201905092915050565b5f611a5582611557565b611a5f8185611a3b565b9350611a6f818560208601611571565b611a788161157f565b840191505092915050565b611a8c81611652565b82525050565b5f604083015f8301518482035f860152611aac8282611a4b565b9150506020830151611ac16020860182611a83565b508091505092915050565b5f611ad78383611a92565b905092915050565b5f602082019050919050565b5f611af582611a12565b611aff8185611a1c565b935083602082028501611b1185611a2c565b805f5b85811015611b4c5784840389528151611b2d8582611acc565b9450611b3883611adf565b925060208a01995050600181019050611b14565b50829750879550505050505092915050565b5f6020820190508181035f830152611b768184611aeb565b905092915050565b7f4e487b71000000000000000000000000000000000000000000000000000000005f52602260045260245ffd5b5f6002820490506001821680611bc257607f821691505b602082108103611bd557611bd4611b7e565b5b50919050565b7f496e73756666696369656e742062616c616e636520746f2072656465656d20745f8201527f68697320746f6b656e0000000000000000000000000000000000000000000000602082015250565b5f611c35602983611561565b9150611c4082611bdb565b604082019050919050565b5f6020820190508181035f830152611c6281611c29565b9050919050565b7f4e487b71000000000000000000000000000000000000000000000000000000005f52601160045260245ffd5b5f611ca082611652565b9150611cab83611652565b9250828201905080821115611cc357611cc2611c69565b5b92915050565b7f496e73756666696369656e742062616c616e63652000000000000000000000005f82015250565b5f611cfd601583611561565b9150611d0882611cc9565b602082019050919050565b5f6020820190508181035f830152611d2a81611cf1565b9050919050565b5f819050815f5260205f209050919050565b5f6020601f8301049050919050565b5f82821b905092915050565b5f60088302611d8d7fffffffffffffffffffffffffffffffffffffffffffffffffffffffffffffffff82611d52565b611d978683611d52565b95508019841693508086168417925050509392505050565b5f819050919050565b5f611dd2611dcd611dc884611652565b611daf565b611652565b9050919050565b5f819050919050565b611deb83611db8565b611dff611df782611dd9565b848454611d5e565b825550505050565b5f90565b611e13611e07565b611e1e818484611de2565b505050565b5b81811015611e4157611e365f82611e0b565b600181019050611e24565b5050565b601f821115611e8657611e5781611d31565b611e6084611d43565b81016020851015611e6f578190505b611e83611e7b85611d43565b830182611e23565b50505b505050565b5f82821c905092915050565b5f611ea65f1984600802611e8b565b1980831691505092915050565b5f611ebe8383611e97565b9150826002028217905092915050565b611ed782611557565b67ffffffffffffffff811115611ef057611eef61182e565b5b611efa8254611bab565b611f05828285611e45565b5f60209050601f831160018114611f36575f8415611f24578287015190505b611f2e8582611eb3565b865550611f95565b601f198416611f4486611d31565b5f5b82811015611f6b57848901518255600182019150602085019450602081019050611f46565b86831015611f885784890151611f84601f891682611e97565b8355505b6001600288020188555050505b505050505050565b5f81549050611fab81611bab565b9050919050565b818103611fc0575050612095565b611fc982611f9d565b67ffffffffffffffff811115611fe257611fe161182e565b5b611fec8254611bab565b611ff7828285611e45565b5f601f831160018114612024575f8415612012578287015490505b61201c8582611eb3565b86555061208e565b601f19841661203287611d31565b965061203d86611d31565b5f5b828110156120645784890154825560018201915060018501945060208101905061203f565b86831015612081578489015461207d601f891682611e97565b8355505b6001600288020188555050505b5050505050505b565b7f45524332303a2064656372656173656420616c6c6f77616e63652062656c6f775f8201527f207a65726f000000000000000000000000000000000000000000000000000000602082015250565b5f6120f1602583611561565b91506120fc82612097565b604082019050919050565b5f6020820190508181035f83015261211e816120e5565b9050919050565b7f4f776e61626c653a206e6577206f776e657220697320746865207a65726f20615f8201527f6464726573730000000000000000000000000000000000000000000000000000602082015250565b5f61217f602683611561565b915061218a82612125565b604082019050919050565b5f6020820190508181035f8301526121ac81612173565b9050919050565b7f45524332303a20617070726f76652066726f6d20746865207a65726f206164645f8201527f7265737300000000000000000000000000000000000000000000000000000000602082015250565b5f61220d602483611561565b9150612218826121b3565b604082019050919050565b5f6020820190508181035f83015261223a81612201565b9050919050565b7f45524332303a20617070726f766520746f20746865207a65726f2061646472655f8201527f7373000000000000000000000000000000000000000000000000000000000000602082015250565b5f61229b602283611561565b91506122a682612241565b604082019050919050565b5f6020820190508181035f8301526122c88161228f565b9050919050565b7f45524332303a20696e73756666696369656e7420616c6c6f77616e63650000005f82015250565b5f612303601d83611561565b915061230e826122cf565b602082019050919050565b5f6020820190508181035f830152612330816122f7565b9050919050565b7f45524332303a207472616e736665722066726f6d20746865207a65726f2061645f8201527f6472657373000000000000000000000000000000000000000000000000000000602082015250565b5f612391602583611561565b915061239c82612337565b604082019050919050565b5f6020820190508181035f8301526123be81612385565b9050919050565b7f45524332303a207472616e7366657220746f20746865207a65726f20616464725f8201527f6573730000000000000000000000000000000000000000000000000000000000602082015250565b5f61241f602383611561565b915061242a826123c5565b604082019050919050565b5f6020820190508181035f83015261244c81612413565b9050919050565b7f45524332303a207472616e7366657220616d6f756e74206578636565647320625f8201527f616c616e63650000000000000000000000000000000000000000000000000000602082015250565b5f6124ad602683611561565b91506124b882612453565b604082019050919050565b5f6020820190508181035f8301526124da816124a1565b9050919050565b7f4f776e61626c653a2063616c6c6572206973206e6f7420746865206f776e65725f82015250565b5f612515602083611561565b9150612520826124e1565b602082019050919050565b5f6020820190508181035f83015261254281612509565b9050919050565b7f45524332303a206d696e7420746f20746865207a65726f2061646472657373005f82015250565b5f61257d601f83611561565b915061258882612549565b602082019050919050565b5f6020820190508181035f8301526125aa81612571565b9050919050565b7f45524332303a206275726e2066726f6d20746865207a65726f206164647265735f8201527f7300000000000000000000000000000000000000000000000000000000000000602082015250565b5f61260b602183611561565b9150612616826125b1565b604082019050919050565b5f6020820190508181035f830152612638816125ff565b9050919050565b7f45524332303a206275726e20616d6f756e7420657863656564732062616c616e5f8201527f6365000000000000000000000000000000000000000000000000000000000000602082015250565b5f612699602283611561565b91506126a48261263f565b604082019050919050565b5f6020820190508181035f8301526126c68161268d565b905091905056fea2646970667358221220fe090e2545208257d27570d5f2a024489e7fcbf5656c794e3358fbd33794e17c64736f6c634300081a0033",
					"opcodes": "PUSH1 0x80 PUSH1 0x40 MSTORE CALLVALUE DUP1 ISZERO PUSH2 0xF JUMPI PUSH0 DUP1 REVERT JUMPDEST POP PUSH1 0x40 MLOAD DUP1 PUSH1 0x40 ADD PUSH1 0x40 MSTORE DUP1 PUSH1 0x5 DUP2 MSTORE PUSH1 0x20 ADD PUSH32 0x446567656E000000000000000000000000000000000000000000000000000000 DUP2 MSTORE POP PUSH1 0x40 MLOAD DUP1 PUSH1 0x40 ADD PUSH1 0x40 MSTORE DUP1 PUSH1 0x3 DUP2 MSTORE PUSH1 0x20 ADD PUSH32 0x44474E0000000000000000000000000000000000000000000000000000000000 DUP2 MSTORE POP DUP2 PUSH1 0x3 SWAP1 DUP2 PUSH2 0x8B SWAP2 SWAP1 PUSH2 0x3C3 JUMP JUMPDEST POP DUP1 PUSH1 0x4 SWAP1 DUP2 PUSH2 0x9B SWAP2 SWAP1 PUSH2 0x3C3 JUMP JUMPDEST POP POP POP PUSH2 0xBA PUSH2 0xAF PUSH2 0xBF PUSH1 0x20 SHL PUSH1 0x20 SHR JUMP JUMPDEST PUSH2 0xC6 PUSH1 0x20 SHL PUSH1 0x20 SHR JUMP JUMPDEST PUSH2 0x492 JUMP JUMPDEST PUSH0 CALLER SWAP1 POP SWAP1 JUMP JUMPDEST PUSH0 PUSH1 0x5 PUSH0 SWAP1 SLOAD SWAP1 PUSH2 0x100 EXP SWAP1 DIV PUSH20 0xFFFFFFFFFFFFFFFFFFFFFFFFFFFFFFFFFFFFFFFF AND SWAP1 POP DUP2 PUSH1 0x5 PUSH0 PUSH2 0x100 EXP DUP2 SLOAD DUP2 PUSH20 0xFFFFFFFFFFFFFFFFFFFFFFFFFFFFFFFFFFFFFFFF MUL NOT AND SWAP1 DUP4 PUSH20 0xFFFFFFFFFFFFFFFFFFFFFFFFFFFFFFFFFFFFFFFF AND MUL OR SWAP1 SSTORE POP DUP2 PUSH20 0xFFFFFFFFFFFFFFFFFFFFFFFFFFFFFFFFFFFFFFFF AND DUP2 PUSH20 0xFFFFFFFFFFFFFFFFFFFFFFFFFFFFFFFFFFFFFFFF AND PUSH32 0x8BE0079C531659141344CD1FD0A4F28419497F9722A3DAAFE3B4186F6B6457E0 PUSH1 0x40 MLOAD PUSH1 0x40 MLOAD DUP1 SWAP2 SUB SWAP1 LOG3 POP POP JUMP JUMPDEST PUSH0 DUP2 MLOAD SWAP1 POP SWAP2 SWAP1 POP JUMP JUMPDEST PUSH32 0x4E487B7100000000000000000000000000000000000000000000000000000000 PUSH0 MSTORE PUSH1 0x41 PUSH1 0x4 MSTORE PUSH1 0x24 PUSH0 REVERT JUMPDEST PUSH32 0x4E487B7100000000000000000000000000000000000000000000000000000000 PUSH0 MSTORE PUSH1 0x22 PUSH1 0x4 MSTORE PUSH1 0x24 PUSH0 REVERT JUMPDEST PUSH0 PUSH1 0x2 DUP3 DIV SWAP1 POP PUSH1 0x1 DUP3 AND DUP1 PUSH2 0x204 JUMPI PUSH1 0x7F DUP3 AND SWAP2 POP JUMPDEST PUSH1 0x20 DUP3 LT DUP2 SUB PUSH2 0x217 JUMPI PUSH2 0x216 PUSH2 0x1C0 JUMP JUMPDEST JUMPDEST POP SWAP2 SWAP1 POP JUMP JUMPDEST PUSH0 DUP2 SWAP1 POP DUP2 PUSH0 MSTORE PUSH1 0x20 PUSH0 KECCAK256 SWAP1 POP SWAP2 SWAP1 POP JUMP JUMPDEST PUSH0 PUSH1 0x20 PUSH1 0x1F DUP4 ADD DIV SWAP1 POP SWAP2 SWAP1 POP JUMP JUMPDEST PUSH0 DUP3 DUP3 SHL SWAP1 POP SWAP3 SWAP2 POP POP JUMP JUMPDEST PUSH0 PUSH1 0x8 DUP4 MUL PUSH2 0x279 PUSH32 0xFFFFFFFFFFFFFFFFFFFFFFFFFFFFFFFFFFFFFFFFFFFFFFFFFFFFFFFFFFFFFFFF DUP3 PUSH2 0x23E JUMP JUMPDEST PUSH2 0x283 DUP7 DUP4 PUSH2 0x23E JUMP JUMPDEST SWAP6 POP DUP1 NOT DUP5 AND SWAP4 POP DUP1 DUP7 AND DUP5 OR SWAP3 POP POP POP SWAP4 SWAP3 POP POP POP JUMP JUMPDEST PUSH0 DUP2 SWAP1 POP SWAP2 SWAP1 POP JUMP JUMPDEST PUSH0 DUP2 SWAP1 POP SWAP2 SWAP1 POP JUMP JUMPDEST PUSH0 PUSH2 0x2C7 PUSH2 0x2C2 PUSH2 0x2BD DUP5 PUSH2 0x29B JUMP JUMPDEST PUSH2 0x2A4 JUMP JUMPDEST PUSH2 0x29B JUMP JUMPDEST SWAP1 POP SWAP2 SWAP1 POP JUMP JUMPDEST PUSH0 DUP2 SWAP1 POP SWAP2 SWAP1 POP JUMP JUMPDEST PUSH2 0x2E0 DUP4 PUSH2 0x2AD JUMP JUMPDEST PUSH2 0x2F4 PUSH2 0x2EC DUP3 PUSH2 0x2CE JUMP JUMPDEST DUP5 DUP5 SLOAD PUSH2 0x24A JUMP JUMPDEST DUP3 SSTORE POP POP POP POP JUMP JUMPDEST PUSH0 SWAP1 JUMP JUMPDEST PUSH2 0x308 PUSH2 0x2FC JUMP JUMPDEST PUSH2 0x313 DUP2 DUP5 DUP5 PUSH2 0x2D7 JUMP JUMPDEST POP POP POP JUMP JUMPDEST JUMPDEST DUP2 DUP2 LT ISZERO PUSH2 0x336 JUMPI PUSH2 0x32B PUSH0 DUP3 PUSH2 0x300 JUMP JUMPDEST PUSH1 0x1 DUP2 ADD SWAP1 POP PUSH2 0x319 JUMP JUMPDEST POP POP JUMP JUMPDEST PUSH1 0x1F DUP3 GT ISZERO PUSH2 0x37B JUMPI PUSH2 0x34C DUP2 PUSH2 0x21D JUMP JUMPDEST PUSH2 0x355 DUP5 PUSH2 0x22F JUMP JUMPDEST DUP2 ADD PUSH1 0x20 DUP6 LT ISZERO PUSH2 0x364 JUMPI DUP2 SWAP1 POP JUMPDEST PUSH2 0x378 PUSH2 0x370 DUP6 PUSH2 0x22F JUMP JUMPDEST DUP4 ADD DUP3 PUSH2 0x318 JUMP JUMPDEST POP POP JUMPDEST POP POP POP JUMP JUMPDEST PUSH0 DUP3 DUP3 SHR SWAP1 POP SWAP3 SWAP2 POP POP JUMP JUMPDEST PUSH0 PUSH2 0x39B PUSH0 NOT DUP5 PUSH1 0x8 MUL PUSH2 0x380 JUMP JUMPDEST NOT DUP1 DUP4 AND SWAP2 POP POP SWAP3 SWAP2 POP POP JUMP JUMPDEST PUSH0 PUSH2 0x3B3 DUP4 DUP4 PUSH2 0x38C JUMP JUMPDEST SWAP2 POP DUP3 PUSH1 0x2 MUL DUP3 OR SWAP1 POP SWAP3 SWAP2 POP POP JUMP JUMPDEST PUSH2 0x3CC DUP3 PUSH2 0x189 JUMP JUMPDEST PUSH8 0xFFFFFFFFFFFFFFFF DUP2 GT ISZERO PUSH2 0x3E5 JUMPI PUSH2 0x3E4 PUSH2 0x193 JUMP JUMPDEST JUMPDEST PUSH2 0x3EF DUP3 SLOAD PUSH2 0x1ED JUMP JUMPDEST PUSH2 0x3FA DUP3 DUP3 DUP6 PUSH2 0x33A JUMP JUMPDEST PUSH0 PUSH1 0x20 SWAP1 POP PUSH1 0x1F DUP4 GT PUSH1 0x1 DUP2 EQ PUSH2 0x42B JUMPI PUSH0 DUP5 ISZERO PUSH2 0x419 JUMPI DUP3 DUP8 ADD MLOAD SWAP1 POP JUMPDEST PUSH2 0x423 DUP6 DUP3 PUSH2 0x3A8 JUMP JUMPDEST DUP7 SSTORE POP PUSH2 0x48A JUMP JUMPDEST PUSH1 0x1F NOT DUP5 AND PUSH2 0x439 DUP7 PUSH2 0x21D JUMP JUMPDEST PUSH0 JUMPDEST DUP3 DUP2 LT ISZERO PUSH2 0x460 JUMPI DUP5 DUP10 ADD MLOAD DUP3 SSTORE PUSH1 0x1 DUP3 ADD SWAP2 POP PUSH1 0x20 DUP6 ADD SWAP5 POP PUSH1 0x20 DUP2 ADD SWAP1 POP PUSH2 0x43B JUMP JUMPDEST DUP7 DUP4 LT ISZERO PUSH2 0x47D JUMPI DUP5 DUP10 ADD MLOAD PUSH2 0x479 PUSH1 0x1F DUP10 AND DUP3 PUSH2 0x38C JUMP JUMPDEST DUP4 SSTORE POP JUMPDEST PUSH1 0x1 PUSH1 0x2 DUP9 MUL ADD DUP9 SSTORE POP POP POP JUMPDEST POP POP POP POP POP POP JUMP JUMPDEST PUSH2 0x2703 DUP1 PUSH2 0x49F PUSH0 CODECOPY PUSH0 RETURN INVALID PUSH1 0x80 PUSH1 0x40 MSTORE CALLVALUE DUP1 ISZERO PUSH2 0xF JUMPI PUSH0 DUP1 REVERT JUMPDEST POP PUSH1 0x4 CALLDATASIZE LT PUSH2 0x14B JUMPI PUSH0 CALLDATALOAD PUSH1 0xE0 SHR DUP1 PUSH4 0x715018A6 GT PUSH2 0xC1 JUMPI DUP1 PUSH4 0x9B8418CC GT PUSH2 0x7A JUMPI DUP1 PUSH4 0x9B8418CC EQ PUSH2 0x388 JUMPI DUP1 PUSH4 0xA457C2D7 EQ PUSH2 0x3B9 JUMPI DUP1 PUSH4 0xA9059CBB EQ PUSH2 0x3E9 JUMPI DUP1 PUSH4 0xDD62ED3E EQ PUSH2 0x419 JUMPI DUP1 PUSH4 0xE53CDECA EQ PUSH2 0x449 JUMPI DUP1 PUSH4 0xF2FDE38B EQ PUSH2 0x467 JUMPI PUSH2 0x14B JUMP JUMPDEST DUP1 PUSH4 0x715018A6 EQ PUSH2 0x2EE JUMPI DUP1 PUSH4 0x79C65068 EQ PUSH2 0x2F8 JUMPI DUP1 PUSH4 0x7B47EC1A EQ PUSH2 0x314 JUMPI DUP1 PUSH4 0x860D0FF9 EQ PUSH2 0x330 JUMPI DUP1 PUSH4 0x8DA5CB5B EQ PUSH2 0x34C JUMPI DUP1 PUSH4 0x95D89B41 EQ PUSH2 0x36A JUMPI PUSH2 0x14B JUMP JUMPDEST DUP1 PUSH4 0x34559C06 GT PUSH2 0x113 JUMPI DUP1 PUSH4 0x34559C06 EQ PUSH2 0x209 JUMPI DUP1 PUSH4 0x39509351 EQ PUSH2 0x225 JUMPI DUP1 PUSH4 0x40C10F19 EQ PUSH2 0x255 JUMPI DUP1 PUSH4 0x46ED098A EQ PUSH2 0x271 JUMPI DUP1 PUSH4 0x6057361D EQ PUSH2 0x28D JUMPI DUP1 PUSH4 0x70A08231 EQ PUSH2 0x2BE JUMPI PUSH2 0x14B JUMP JUMPDEST DUP1 PUSH4 0x6FDDE03 EQ PUSH2 0x14F JUMPI DUP1 PUSH4 0x95EA7B3 EQ PUSH2 0x16D JUMPI DUP1 PUSH4 0x18160DDD EQ PUSH2 0x19D JUMPI DUP1 PUSH4 0x23B872DD EQ PUSH2 0x1BB JUMPI DUP1 PUSH4 0x313CE567 EQ PUSH2 0x1EB JUMPI JUMPDEST PUSH0 DUP1 REVERT JUMPDEST PUSH2 0x157 PUSH2 0x483 JUMP JUMPDEST PUSH1 0x40 MLOAD PUSH2 0x164 SWAP2 SWAP1 PUSH2 0x15C7 JUMP JUMPDEST PUSH1 0x40 MLOAD DUP1 SWAP2 SUB SWAP1 RETURN JUMPDEST PUSH2 0x187 PUSH1 0x4 DUP1 CALLDATASIZE SUB DUP2 ADD SWAP1 PUSH2 0x182 SWAP2 SWAP1 PUSH2 0x1685 JUMP JUMPDEST PUSH2 0x513 JUMP JUMPDEST PUSH1 0x40 MLOAD PUSH2 0x194 SWAP2 SWAP1 PUSH2 0x16DD JUMP JUMPDEST PUSH1 0x40 MLOAD DUP1 SWAP2 SUB SWAP1 RETURN JUMPDEST PUSH2 0x1A5 PUSH2 0x535 JUMP JUMPDEST PUSH1 0x40 MLOAD PUSH2 0x1B2 SWAP2 SWAP1 PUSH2 0x1705 JUMP JUMPDEST PUSH1 0x40 MLOAD DUP1 SWAP2 SUB SWAP1 RETURN JUMPDEST PUSH2 0x1D5 PUSH1 0x4 DUP1 CALLDATASIZE SUB DUP2 ADD SWAP1 PUSH2 0x1D0 SWAP2 SWAP1 PUSH2 0x171E JUMP JUMPDEST PUSH2 0x53E JUMP JUMPDEST PUSH1 0x40 MLOAD PUSH2 0x1E2 SWAP2 SWAP1 PUSH2 0x16DD JUMP JUMPDEST PUSH1 0x40 MLOAD DUP1 SWAP2 SUB SWAP1 RETURN JUMPDEST PUSH2 0x1F3 PUSH2 0x56C JUMP JUMPDEST PUSH1 0x40 MLOAD PUSH2 0x200 SWAP2 SWAP1 PUSH2 0x1789 JUMP JUMPDEST PUSH1 0x40 MLOAD DUP1 SWAP2 SUB SWAP1 RETURN JUMPDEST PUSH2 0x223 PUSH1 0x4 DUP1 CALLDATASIZE SUB DUP2 ADD SWAP1 PUSH2 0x21E SWAP2 SWAP1 PUSH2 0x17A2 JUMP JUMPDEST PUSH2 0x574 JUMP JUMPDEST STOP JUMPDEST PUSH2 0x23F PUSH1 0x4 DUP1 CALLDATASIZE SUB DUP2 ADD SWAP1 PUSH2 0x23A SWAP2 SWAP1 PUSH2 0x1685 JUMP JUMPDEST PUSH2 0x5E3 JUMP JUMPDEST PUSH1 0x40 MLOAD PUSH2 0x24C SWAP2 SWAP1 PUSH2 0x16DD JUMP JUMPDEST PUSH1 0x40 MLOAD DUP1 SWAP2 SUB SWAP1 RETURN JUMPDEST PUSH2 0x26F PUSH1 0x4 DUP1 CALLDATASIZE SUB DUP2 ADD SWAP1 PUSH2 0x26A SWAP2 SWAP1 PUSH2 0x1685 JUMP JUMPDEST PUSH2 0x619 JUMP JUMPDEST STOP JUMPDEST PUSH2 0x28B PUSH1 0x4 DUP1 CALLDATASIZE SUB DUP2 ADD SWAP1 PUSH2 0x286 SWAP2 SWAP1 PUSH2 0x1685 JUMP JUMPDEST PUSH2 0x62F JUMP JUMPDEST STOP JUMPDEST PUSH2 0x2A7 PUSH1 0x4 DUP1 CALLDATASIZE SUB DUP2 ADD SWAP1 PUSH2 0x2A2 SWAP2 SWAP1 PUSH2 0x17A2 JUMP JUMPDEST PUSH2 0x695 JUMP JUMPDEST PUSH1 0x40 MLOAD PUSH2 0x2B5 SWAP3 SWAP2 SWAP1 PUSH2 0x17CD JUMP JUMPDEST PUSH1 0x40 MLOAD DUP1 SWAP2 SUB SWAP1 RETURN JUMPDEST PUSH2 0x2D8 PUSH1 0x4 DUP1 CALLDATASIZE SUB DUP2 ADD SWAP1 PUSH2 0x2D3 SWAP2 SWAP1 PUSH2 0x17FB JUMP JUMPDEST PUSH2 0x73B JUMP JUMPDEST PUSH1 0x40 MLOAD PUSH2 0x2E5 SWAP2 SWAP1 PUSH2 0x1705 JUMP JUMPDEST PUSH1 0x40 MLOAD DUP1 SWAP2 SUB SWAP1 RETURN JUMPDEST PUSH2 0x2F6 PUSH2 0x780 JUMP JUMPDEST STOP JUMPDEST PUSH2 0x312 PUSH1 0x4 DUP1 CALLDATASIZE SUB DUP2 ADD SWAP1 PUSH2 0x30D SWAP2 SWAP1 PUSH2 0x1685 JUMP JUMPDEST PUSH2 0x793 JUMP JUMPDEST STOP JUMPDEST PUSH2 0x32E PUSH1 0x4 DUP1 CALLDATASIZE SUB DUP2 ADD SWAP1 PUSH2 0x329 SWAP2 SWAP1 PUSH2 0x17A2 JUMP JUMPDEST PUSH2 0x7A9 JUMP JUMPDEST STOP JUMPDEST PUSH2 0x34A PUSH1 0x4 DUP1 CALLDATASIZE SUB DUP2 ADD SWAP1 PUSH2 0x345 SWAP2 SWAP1 PUSH2 0x1952 JUMP JUMPDEST PUSH2 0x7B6 JUMP JUMPDEST STOP JUMPDEST PUSH2 0x354 PUSH2 0x84C JUMP JUMPDEST PUSH1 0x40 MLOAD PUSH2 0x361 SWAP2 SWAP1 PUSH2 0x19BB JUMP JUMPDEST PUSH1 0x40 MLOAD DUP1 SWAP2 SUB SWAP1 RETURN JUMPDEST PUSH2 0x372 PUSH2 0x874 JUMP JUMPDEST PUSH1 0x40 MLOAD PUSH2 0x37F SWAP2 SWAP1 PUSH2 0x15C7 JUMP JUMPDEST PUSH1 0x40 MLOAD DUP1 SWAP2 SUB SWAP1 RETURN JUMPDEST PUSH2 0x3A2 PUSH1 0x4 DUP1 CALLDATASIZE SUB DUP2 ADD SWAP1 PUSH2 0x39D SWAP2 SWAP1 PUSH2 0x17FB JUMP JUMPDEST PUSH2 0x904 JUMP JUMPDEST PUSH1 0x40 MLOAD PUSH2 0x3B0 SWAP3 SWAP2 SWAP1 PUSH2 0x17CD JUMP JUMPDEST PUSH1 0x40 MLOAD DUP1 SWAP2 SUB SWAP1 RETURN JUMPDEST PUSH2 0x3D3 PUSH1 0x4 DUP1 CALLDATASIZE SUB DUP2 ADD SWAP1 PUSH2 0x3CE SWAP2 SWAP1 PUSH2 0x1685 JUMP JUMPDEST PUSH2 0x9AA JUMP JUMPDEST PUSH1 0x40 MLOAD PUSH2 0x3E0 SWAP2 SWAP1 PUSH2 0x16DD JUMP JUMPDEST PUSH1 0x40 MLOAD DUP1 SWAP2 SUB SWAP1 RETURN JUMPDEST PUSH2 0x403 PUSH1 0x4 DUP1 CALLDATASIZE SUB DUP2 ADD SWAP1 PUSH2 0x3FE SWAP2 SWAP1 PUSH2 0x1685 JUMP JUMPDEST PUSH2 0xA1F JUMP JUMPDEST PUSH1 0x40 MLOAD PUSH2 0x410 SWAP2 SWAP1 PUSH2 0x16DD JUMP JUMPDEST PUSH1 0x40 MLOAD DUP1 SWAP2 SUB SWAP1 RETURN JUMPDEST PUSH2 0x433 PUSH1 0x4 DUP1 CALLDATASIZE SUB DUP2 ADD SWAP1 PUSH2 0x42E SWAP2 SWAP1 PUSH2 0x19D4 JUMP JUMPDEST PUSH2 0xA41 JUMP JUMPDEST PUSH1 0x40 MLOAD PUSH2 0x440 SWAP2 SWAP1 PUSH2 0x1705 JUMP JUMPDEST PUSH1 0x40 MLOAD DUP1 SWAP2 SUB SWAP1 RETURN JUMPDEST PUSH2 0x451 PUSH2 0xAC3 JUMP JUMPDEST PUSH1 0x40 MLOAD PUSH2 0x45E SWAP2 SWAP1 PUSH2 0x1B5E JUMP JUMPDEST PUSH1 0x40 MLOAD DUP1 SWAP2 SUB SWAP1 RETURN JUMPDEST PUSH2 0x481 PUSH1 0x4 DUP1 CALLDATASIZE SUB DUP2 ADD SWAP1 PUSH2 0x47C SWAP2 SWAP1 PUSH2 0x17FB JUMP JUMPDEST PUSH2 0xBB8 JUMP JUMPDEST STOP JUMPDEST PUSH1 0x60 PUSH1 0x3 DUP1 SLOAD PUSH2 0x492 SWAP1 PUSH2 0x1BAB JUMP JUMPDEST DUP1 PUSH1 0x1F ADD PUSH1 0x20 DUP1 SWAP2 DIV MUL PUSH1 0x20 ADD PUSH1 0x40 MLOAD SWAP1 DUP2 ADD PUSH1 0x40 MSTORE DUP1 SWAP3 SWAP2 SWAP1 DUP2 DUP2 MSTORE PUSH1 0x20 ADD DUP3 DUP1 SLOAD PUSH2 0x4BE SWAP1 PUSH2 0x1BAB JUMP JUMPDEST DUP1 ISZERO PUSH2 0x509 JUMPI DUP1 PUSH1 0x1F LT PUSH2 0x4E0 JUMPI PUSH2 0x100 DUP1 DUP4 SLOAD DIV MUL DUP4 MSTORE SWAP2 PUSH1 0x20 ADD SWAP2 PUSH2 0x509 JUMP JUMPDEST DUP3 ADD SWAP2 SWAP1 PUSH0 MSTORE PUSH1 0x20 PUSH0 KECCAK256 SWAP1 JUMPDEST DUP2 SLOAD DUP2 MSTORE SWAP1 PUSH1 0x1 ADD SWAP1 PUSH1 0x20 ADD DUP1 DUP4 GT PUSH2 0x4EC JUMPI DUP3 SWAP1 SUB PUSH1 0x1F AND DUP3 ADD SWAP2 JUMPDEST POP POP POP POP POP SWAP1 POP SWAP1 JUMP JUMPDEST PUSH0 DUP1 PUSH2 0x51D PUSH2 0xC3A JUMP JUMPDEST SWAP1 POP PUSH2 0x52A DUP2 DUP6 DUP6 PUSH2 0xC41 JUMP JUMPDEST PUSH1 0x1 SWAP2 POP POP SWAP3 SWAP2 POP POP JUMP JUMPDEST PUSH0 PUSH1 0x2 SLOAD SWAP1 POP SWAP1 JUMP JUMPDEST PUSH0 DUP1 PUSH2 0x548 PUSH2 0xC3A JUMP JUMPDEST SWAP1 POP PUSH2 0x555 DUP6 DUP3 DUP6 PUSH2 0xE04 JUMP JUMPDEST PUSH2 0x560 DUP6 DUP6 DUP6 PUSH2 0xE8F JUMP JUMPDEST PUSH1 0x1 SWAP2 POP POP SWAP4 SWAP3 POP POP POP JUMP JUMPDEST PUSH0 PUSH1 0x12 SWAP1 POP SWAP1 JUMP JUMPDEST PUSH0 PUSH1 0x6 PUSH0 DUP4 DUP2 MSTORE PUSH1 0x20 ADD SWAP1 DUP2 MSTORE PUSH1 0x20 ADD PUSH0 KECCAK256 PUSH1 0x1 ADD SLOAD SWAP1 POP PUSH2 0x595 CALLER PUSH2 0x73B JUMP JUMPDEST DUP2 LT PUSH2 0x5D6 JUMPI PUSH1 0x40 MLOAD PUSH32 0x8C379A000000000000000000000000000000000000000000000000000000000 DUP2 MSTORE PUSH1 0x4 ADD PUSH2 0x5CD SWAP1 PUSH2 0x1C4B JUMP JUMPDEST PUSH1 0x40 MLOAD DUP1 SWAP2 SUB SWAP1 REVERT JUMPDEST PUSH2 0x5DF DUP2 PUSH2 0x7A9 JUMP JUMPDEST POP POP JUMP JUMPDEST PUSH0 DUP1 PUSH2 0x5ED PUSH2 0xC3A JUMP JUMPDEST SWAP1 POP PUSH2 0x60E DUP2 DUP6 DUP6 PUSH2 0x5FF DUP6 DUP10 PUSH2 0xA41 JUMP JUMPDEST PUSH2 0x609 SWAP2 SWAP1 PUSH2 0x1C96 JUMP JUMPDEST PUSH2 0xC41 JUMP JUMPDEST PUSH1 0x1 SWAP2 POP POP SWAP3 SWAP2 POP POP JUMP JUMPDEST PUSH2 0x621 PUSH2 0x10FB JUMP JUMPDEST PUSH2 0x62B DUP3 DUP3 PUSH2 0x1179 JUMP JUMPDEST POP POP JUMP JUMPDEST PUSH2 0x638 CALLER PUSH2 0x73B JUMP JUMPDEST DUP2 GT ISZERO PUSH2 0x67A JUMPI PUSH1 0x40 MLOAD PUSH32 0x8C379A000000000000000000000000000000000000000000000000000000000 DUP2 MSTORE PUSH1 0x4 ADD PUSH2 0x671 SWAP1 PUSH2 0x1D13 JUMP JUMPDEST PUSH1 0x40 MLOAD DUP1 SWAP2 SUB SWAP1 REVERT JUMPDEST PUSH2 0x684 CALLER DUP3 PUSH2 0x513 JUMP JUMPDEST POP PUSH2 0x690 CALLER DUP4 DUP4 PUSH2 0x53E JUMP JUMPDEST POP POP POP JUMP JUMPDEST PUSH1 0x6 PUSH1 0x20 MSTORE DUP1 PUSH0 MSTORE PUSH1 0x40 PUSH0 KECCAK256 PUSH0 SWAP2 POP SWAP1 POP DUP1 PUSH0 ADD DUP1 SLOAD PUSH2 0x6B4 SWAP1 PUSH2 0x1BAB JUMP JUMPDEST DUP1 PUSH1 0x1F ADD PUSH1 0x20 DUP1 SWAP2 DIV MUL PUSH1 0x20 ADD PUSH1 0x40 MLOAD SWAP1 DUP2 ADD PUSH1 0x40 MSTORE DUP1 SWAP3 SWAP2 SWAP1 DUP2 DUP2 MSTORE PUSH1 0x20 ADD DUP3 DUP1 SLOAD PUSH2 0x6E0 SWAP1 PUSH2 0x1BAB JUMP JUMPDEST DUP1 ISZERO PUSH2 0x72B JUMPI DUP1 PUSH1 0x1F LT PUSH2 0x702 JUMPI PUSH2 0x100 DUP1 DUP4 SLOAD DIV MUL DUP4 MSTORE SWAP2 PUSH1 0x20 ADD SWAP2 PUSH2 0x72B JUMP JUMPDEST DUP3 ADD SWAP2 SWAP1 PUSH0 MSTORE PUSH1 0x20 PUSH0 KECCAK256 SWAP1 JUMPDEST DUP2 SLOAD DUP2 MSTORE SWAP1 PUSH1 0x1 ADD SWAP1 PUSH1 0x20 ADD DUP1 DUP4 GT PUSH2 0x70E JUMPI DUP3 SWAP1 SUB PUSH1 0x1F AND DUP3 ADD SWAP2 JUMPDEST POP POP POP POP POP SWAP1 DUP1 PUSH1 0x1 ADD SLOAD SWAP1 POP DUP3 JUMP JUMPDEST PUSH0 DUP1 PUSH0 DUP4 PUSH20 0xFFFFFFFFFFFFFFFFFFFFFFFFFFFFFFFFFFFFFFFF AND PUSH20 0xFFFFFFFFFFFFFFFFFFFFFFFFFFFFFFFFFFFFFFFF AND DUP2 MSTORE PUSH1 0x20 ADD SWAP1 DUP2 MSTORE PUSH1 0x20 ADD PUSH0 KECCAK256 SLOAD SWAP1 POP SWAP2 SWAP1 POP JUMP JUMPDEST PUSH2 0x788 PUSH2 0x10FB JUMP JUMPDEST PUSH2 0x791 PUSH0 PUSH2 0x12C7 JUMP JUMPDEST JUMP JUMPDEST PUSH2 0x79B PUSH2 0x10FB JUMP JUMPDEST PUSH2 0x7A5 DUP3 DUP3 PUSH2 0x1179 JUMP JUMPDEST POP POP JUMP JUMPDEST PUSH2 0x7B3 CALLER DUP3 PUSH2 0x138A JUMP JUMPDEST POP JUMP JUMPDEST PUSH1 0x1 PUSH1 0x8 PUSH0 DUP3 DUP3 SLOAD PUSH2 0x7C8 SWAP2 SWAP1 PUSH2 0x1C96 JUMP JUMPDEST SWAP3 POP POP DUP2 SWAP1 SSTORE POP PUSH0 PUSH1 0x6 PUSH0 PUSH1 0x8 SLOAD DUP2 MSTORE PUSH1 0x20 ADD SWAP1 DUP2 MSTORE PUSH1 0x20 ADD PUSH0 KECCAK256 SWAP1 POP DUP3 DUP2 PUSH0 ADD SWAP1 DUP2 PUSH2 0x7F5 SWAP2 SWAP1 PUSH2 0x1ECE JUMP JUMPDEST POP DUP2 DUP2 PUSH1 0x1 ADD DUP2 SWAP1 SSTORE POP PUSH1 0x9 DUP2 SWAP1 DUP1 PUSH1 0x1 DUP2 SLOAD ADD DUP1 DUP3 SSTORE DUP1 SWAP2 POP POP PUSH1 0x1 SWAP1 SUB SWAP1 PUSH0 MSTORE PUSH1 0x20 PUSH0 KECCAK256 SWAP1 PUSH1 0x2 MUL ADD PUSH0 SWAP1 SWAP2 SWAP1 SWAP2 SWAP1 SWAP2 POP PUSH0 DUP3 ADD DUP2 PUSH0 ADD SWAP1 DUP2 PUSH2 0x83A SWAP2 SWAP1 PUSH2 0x1FB2 JUMP JUMPDEST POP PUSH1 0x1 DUP3 ADD SLOAD DUP2 PUSH1 0x1 ADD SSTORE POP POP POP POP POP JUMP JUMPDEST PUSH0 PUSH1 0x5 PUSH0 SWAP1 SLOAD SWAP1 PUSH2 0x100 EXP SWAP1 DIV PUSH20 0xFFFFFFFFFFFFFFFFFFFFFFFFFFFFFFFFFFFFFFFF AND SWAP1 POP SWAP1 JUMP JUMPDEST PUSH1 0x60 PUSH1 0x4 DUP1 SLOAD PUSH2 0x883 SWAP1 PUSH2 0x1BAB JUMP JUMPDEST DUP1 PUSH1 0x1F ADD PUSH1 0x20 DUP1 SWAP2 DIV MUL PUSH1 0x20 ADD PUSH1 0x40 MLOAD SWAP1 DUP2 ADD PUSH1 0x40 MSTORE DUP1 SWAP3 SWAP2 SWAP1 DUP2 DUP2 MSTORE PUSH1 0x20 ADD DUP3 DUP1 SLOAD PUSH2 0x8AF SWAP1 PUSH2 0x1BAB JUMP JUMPDEST DUP1 ISZERO PUSH2 0x8FA JUMPI DUP1 PUSH1 0x1F LT PUSH2 0x8D1 JUMPI PUSH2 0x100 DUP1 DUP4 SLOAD DIV MUL DUP4 MSTORE SWAP2 PUSH1 0x20 ADD SWAP2 PUSH2 0x8FA JUMP JUMPDEST DUP3 ADD SWAP2 SWAP1 PUSH0 MSTORE PUSH1 0x20 PUSH0 KECCAK256 SWAP1 JUMPDEST DUP2 SLOAD DUP2 MSTORE SWAP1 PUSH1 0x1 ADD SWAP1 PUSH1 0x20 ADD DUP1 DUP4 GT PUSH2 0x8DD JUMPI DUP3 SWAP1 SUB PUSH1 0x1F AND DUP3 ADD SWAP2 JUMPDEST POP POP POP POP POP SWAP1 POP SWAP1 JUMP JUMPDEST PUSH1 0x7 PUSH1 0x20 MSTORE DUP1 PUSH0 MSTORE PUSH1 0x40 PUSH0 KECCAK256 PUSH0 SWAP2 POP SWAP1 POP DUP1 PUSH0 ADD DUP1 SLOAD PUSH2 0x923 SWAP1 PUSH2 0x1BAB JUMP JUMPDEST DUP1 PUSH1 0x1F ADD PUSH1 0x20 DUP1 SWAP2 DIV MUL PUSH1 0x20 ADD PUSH1 0x40 MLOAD SWAP1 DUP2 ADD PUSH1 0x40 MSTORE DUP1 SWAP3 SWAP2 SWAP1 DUP2 DUP2 MSTORE PUSH1 0x20 ADD DUP3 DUP1 SLOAD PUSH2 0x94F SWAP1 PUSH2 0x1BAB JUMP JUMPDEST DUP1 ISZERO PUSH2 0x99A JUMPI DUP1 PUSH1 0x1F LT PUSH2 0x971 JUMPI PUSH2 0x100 DUP1 DUP4 SLOAD DIV MUL DUP4 MSTORE SWAP2 PUSH1 0x20 ADD SWAP2 PUSH2 0x99A JUMP JUMPDEST DUP3 ADD SWAP2 SWAP1 PUSH0 MSTORE PUSH1 0x20 PUSH0 KECCAK256 SWAP1 JUMPDEST DUP2 SLOAD DUP2 MSTORE SWAP1 PUSH1 0x1 ADD SWAP1 PUSH1 0x20 ADD DUP1 DUP4 GT PUSH2 0x97D JUMPI DUP3 SWAP1 SUB PUSH1 0x1F AND DUP3 ADD SWAP2 JUMPDEST POP POP POP POP POP SWAP1 DUP1 PUSH1 0x1 ADD SLOAD SWAP1 POP DUP3 JUMP JUMPDEST PUSH0 DUP1 PUSH2 0x9B4 PUSH2 0xC3A JUMP JUMPDEST SWAP1 POP PUSH0 PUSH2 0x9C1 DUP3 DUP7 PUSH2 0xA41 JUMP JUMPDEST SWAP1 POP DUP4 DUP2 LT ISZERO PUSH2 0xA06 JUMPI PUSH1 0x40 MLOAD PUSH32 0x8C379A000000000000000000000000000000000000000000000000000000000 DUP2 MSTORE PUSH1 0x4 ADD PUSH2 0x9FD SWAP1 PUSH2 0x2107 JUMP JUMPDEST PUSH1 0x40 MLOAD DUP1 SWAP2 SUB SWAP1 REVERT JUMPDEST PUSH2 0xA13 DUP3 DUP7 DUP7 DUP5 SUB PUSH2 0xC41 JUMP JUMPDEST PUSH1 0x1 SWAP3 POP POP POP SWAP3 SWAP2 POP POP JUMP JUMPDEST PUSH0 DUP1 PUSH2 0xA29 PUSH2 0xC3A JUMP JUMPDEST SWAP1 POP PUSH2 0xA36 DUP2 DUP6 DUP6 PUSH2 0xE8F JUMP JUMPDEST PUSH1 0x1 SWAP2 POP POP SWAP3 SWAP2 POP POP JUMP JUMPDEST PUSH0 PUSH1 0x1 PUSH0 DUP5 PUSH20 0xFFFFFFFFFFFFFFFFFFFFFFFFFFFFFFFFFFFFFFFF AND PUSH20 0xFFFFFFFFFFFFFFFFFFFFFFFFFFFFFFFFFFFFFFFF AND DUP2 MSTORE PUSH1 0x20 ADD SWAP1 DUP2 MSTORE PUSH1 0x20 ADD PUSH0 KECCAK256 PUSH0 DUP4 PUSH20 0xFFFFFFFFFFFFFFFFFFFFFFFFFFFFFFFFFFFFFFFF AND PUSH20 0xFFFFFFFFFFFFFFFFFFFFFFFFFFFFFFFFFFFFFFFF AND DUP2 MSTORE PUSH1 0x20 ADD SWAP1 DUP2 MSTORE PUSH1 0x20 ADD PUSH0 KECCAK256 SLOAD SWAP1 POP SWAP3 SWAP2 POP POP JUMP JUMPDEST PUSH1 0x60 PUSH1 0x9 DUP1 SLOAD DUP1 PUSH1 0x20 MUL PUSH1 0x20 ADD PUSH1 0x40 MLOAD SWAP1 DUP2 ADD PUSH1 0x40 MSTORE DUP1 SWAP3 SWAP2 SWAP1 DUP2 DUP2 MSTORE PUSH1 0x20 ADD PUSH0 SWAP1 JUMPDEST DUP3 DUP3 LT ISZERO PUSH2 0xBAF JUMPI DUP4 DUP3 SWAP1 PUSH0 MSTORE PUSH1 0x20 PUSH0 KECCAK256 SWAP1 PUSH1 0x2 MUL ADD PUSH1 0x40 MLOAD DUP1 PUSH1 0x40 ADD PUSH1 0x40 MSTORE SWAP1 DUP2 PUSH0 DUP3 ADD DUP1 SLOAD PUSH2 0xB16 SWAP1 PUSH2 0x1BAB JUMP JUMPDEST DUP1 PUSH1 0x1F ADD PUSH1 0x20 DUP1 SWAP2 DIV MUL PUSH1 0x20 ADD PUSH1 0x40 MLOAD SWAP1 DUP2 ADD PUSH1 0x40 MSTORE DUP1 SWAP3 SWAP2 SWAP1 DUP2 DUP2 MSTORE PUSH1 0x20 ADD DUP3 DUP1 SLOAD PUSH2 0xB42 SWAP1 PUSH2 0x1BAB JUMP JUMPDEST DUP1 ISZERO PUSH2 0xB8D JUMPI DUP1 PUSH1 0x1F LT PUSH2 0xB64 JUMPI PUSH2 0x100 DUP1 DUP4 SLOAD DIV MUL DUP4 MSTORE SWAP2 PUSH1 0x20 ADD SWAP2 PUSH2 0xB8D JUMP JUMPDEST DUP3 ADD SWAP2 SWAP1 PUSH0 MSTORE PUSH1 0x20 PUSH0 KECCAK256 SWAP1 JUMPDEST DUP2 SLOAD DUP2 MSTORE SWAP1 PUSH1 0x1 ADD SWAP1 PUSH1 0x20 ADD DUP1 DUP4 GT PUSH2 0xB70 JUMPI DUP3 SWAP1 SUB PUSH1 0x1F AND DUP3 ADD SWAP2 JUMPDEST POP POP POP POP POP DUP2 MSTORE PUSH1 0x20 ADD PUSH1 0x1 DUP3 ADD SLOAD DUP2 MSTORE POP POP DUP2 MSTORE PUSH1 0x20 ADD SWAP1 PUSH1 0x1 ADD SWAP1 PUSH2 0xAE6 JUMP JUMPDEST POP POP POP POP SWAP1 POP SWAP1 JUMP JUMPDEST PUSH2 0xBC0 PUSH2 0x10FB JUMP JUMPDEST PUSH0 PUSH20 0xFFFFFFFFFFFFFFFFFFFFFFFFFFFFFFFFFFFFFFFF AND DUP2 PUSH20 0xFFFFFFFFFFFFFFFFFFFFFFFFFFFFFFFFFFFFFFFF AND SUB PUSH2 0xC2E JUMPI PUSH1 0x40 MLOAD PUSH32 0x8C379A000000000000000000000000000000000000000000000000000000000 DUP2 MSTORE PUSH1 0x4 ADD PUSH2 0xC25 SWAP1 PUSH2 0x2195 JUMP JUMPDEST PUSH1 0x40 MLOAD DUP1 SWAP2 SUB SWAP1 REVERT JUMPDEST PUSH2 0xC37 DUP2 PUSH2 0x12C7 JUMP JUMPDEST POP JUMP JUMPDEST PUSH0 CALLER SWAP1 POP SWAP1 JUMP JUMPDEST PUSH0 PUSH20 0xFFFFFFFFFFFFFFFFFFFFFFFFFFFFFFFFFFFFFFFF AND DUP4 PUSH20 0xFFFFFFFFFFFFFFFFFFFFFFFFFFFFFFFFFFFFFFFF AND SUB PUSH2 0xCAF JUMPI PUSH1 0x40 MLOAD PUSH32 0x8C379A000000000000000000000000000000000000000000000000000000000 DUP2 MSTORE PUSH1 0x4 ADD PUSH2 0xCA6 SWAP1 PUSH2 0x2223 JUMP JUMPDEST PUSH1 0x40 MLOAD DUP1 SWAP2 SUB SWAP1 REVERT JUMPDEST PUSH0 PUSH20 0xFFFFFFFFFFFFFFFFFFFFFFFFFFFFFFFFFFFFFFFF AND DUP3 PUSH20 0xFFFFFFFFFFFFFFFFFFFFFFFFFFFFFFFFFFFFFFFF AND SUB PUSH2 0xD1D JUMPI PUSH1 0x40 MLOAD PUSH32 0x8C379A000000000000000000000000000000000000000000000000000000000 DUP2 MSTORE PUSH1 0x4 ADD PUSH2 0xD14 SWAP1 PUSH2 0x22B1 JUMP JUMPDEST PUSH1 0x40 MLOAD DUP1 SWAP2 SUB SWAP1 REVERT JUMPDEST DUP1 PUSH1 0x1 PUSH0 DUP6 PUSH20 0xFFFFFFFFFFFFFFFFFFFFFFFFFFFFFFFFFFFFFFFF AND PUSH20 0xFFFFFFFFFFFFFFFFFFFFFFFFFFFFFFFFFFFFFFFF AND DUP2 MSTORE PUSH1 0x20 ADD SWAP1 DUP2 MSTORE PUSH1 0x20 ADD PUSH0 KECCAK256 PUSH0 DUP5 PUSH20 0xFFFFFFFFFFFFFFFFFFFFFFFFFFFFFFFFFFFFFFFF AND PUSH20 0xFFFFFFFFFFFFFFFFFFFFFFFFFFFFFFFFFFFFFFFF AND DUP2 MSTORE PUSH1 0x20 ADD SWAP1 DUP2 MSTORE PUSH1 0x20 ADD PUSH0 KECCAK256 DUP2 SWAP1 SSTORE POP DUP2 PUSH20 0xFFFFFFFFFFFFFFFFFFFFFFFFFFFFFFFFFFFFFFFF AND DUP4 PUSH20 0xFFFFFFFFFFFFFFFFFFFFFFFFFFFFFFFFFFFFFFFF AND PUSH32 0x8C5BE1E5EBEC7D5BD14F71427D1E84F3DD0314C0F7B2291E5B200AC8C7C3B925 DUP4 PUSH1 0x40 MLOAD PUSH2 0xDF7 SWAP2 SWAP1 PUSH2 0x1705 JUMP JUMPDEST PUSH1 0x40 MLOAD DUP1 SWAP2 SUB SWAP1 LOG3 POP POP POP JUMP JUMPDEST PUSH0 PUSH2 0xE0F DUP5 DUP5 PUSH2 0xA41 JUMP JUMPDEST SWAP1 POP PUSH32 0xFFFFFFFFFFFFFFFFFFFFFFFFFFFFFFFFFFFFFFFFFFFFFFFFFFFFFFFFFFFFFFFF DUP2 EQ PUSH2 0xE89 JUMPI DUP2 DUP2 LT ISZERO PUSH2 0xE7B JUMPI PUSH1 0x40 MLOAD PUSH32 0x8C379A000000000000000000000000000000000000000000000000000000000 DUP2 MSTORE PUSH1 0x4 ADD PUSH2 0xE72 SWAP1 PUSH2 0x2319 JUMP JUMPDEST PUSH1 0x40 MLOAD DUP1 SWAP2 SUB SWAP1 REVERT JUMPDEST PUSH2 0xE88 DUP5 DUP5 DUP5 DUP5 SUB PUSH2 0xC41 JUMP JUMPDEST JUMPDEST POP POP POP POP JUMP JUMPDEST PUSH0 PUSH20 0xFFFFFFFFFFFFFFFFFFFFFFFFFFFFFFFFFFFFFFFF AND DUP4 PUSH20 0xFFFFFFFFFFFFFFFFFFFFFFFFFFFFFFFFFFFFFFFF AND SUB PUSH2 0xEFD JUMPI PUSH1 0x40 MLOAD PUSH32 0x8C379A000000000000000000000000000000000000000000000000000000000 DUP2 MSTORE PUSH1 0x4 ADD PUSH2 0xEF4 SWAP1 PUSH2 0x23A7 JUMP JUMPDEST PUSH1 0x40 MLOAD DUP1 SWAP2 SUB SWAP1 REVERT JUMPDEST PUSH0 PUSH20 0xFFFFFFFFFFFFFFFFFFFFFFFFFFFFFFFFFFFFFFFF AND DUP3 PUSH20 0xFFFFFFFFFFFFFFFFFFFFFFFFFFFFFFFFFFFFFFFF AND SUB PUSH2 0xF6B JUMPI PUSH1 0x40 MLOAD PUSH32 0x8C379A000000000000000000000000000000000000000000000000000000000 DUP2 MSTORE PUSH1 0x4 ADD PUSH2 0xF62 SWAP1 PUSH2 0x2435 JUMP JUMPDEST PUSH1 0x40 MLOAD DUP1 SWAP2 SUB SWAP1 REVERT JUMPDEST PUSH2 0xF76 DUP4 DUP4 DUP4 PUSH2 0x154D JUMP JUMPDEST PUSH0 DUP1 PUSH0 DUP6 PUSH20 0xFFFFFFFFFFFFFFFFFFFFFFFFFFFFFFFFFFFFFFFF AND PUSH20 0xFFFFFFFFFFFFFFFFFFFFFFFFFFFFFFFFFFFFFFFF AND DUP2 MSTORE PUSH1 0x20 ADD SWAP1 DUP2 MSTORE PUSH1 0x20 ADD PUSH0 KECCAK256 SLOAD SWAP1 POP DUP2 DUP2 LT ISZERO PUSH2 0xFF9 JUMPI PUSH1 0x40 MLOAD PUSH32 0x8C379A000000000000000000000000000000000000000000000000000000000 DUP2 MSTORE PUSH1 0x4 ADD PUSH2 0xFF0 SWAP1 PUSH2 0x24C3 JUMP JUMPDEST PUSH1 0x40 MLOAD DUP1 SWAP2 SUB SWAP1 REVERT JUMPDEST DUP2 DUP2 SUB PUSH0 DUP1 DUP7 PUSH20 0xFFFFFFFFFFFFFFFFFFFFFFFFFFFFFFFFFFFFFFFF AND PUSH20 0xFFFFFFFFFFFFFFFFFFFFFFFFFFFFFFFFFFFFFFFF AND DUP2 MSTORE PUSH1 0x20 ADD SWAP1 DUP2 MSTORE PUSH1 0x20 ADD PUSH0 KECCAK256 DUP2 SWAP1 SSTORE POP DUP2 PUSH0 DUP1 DUP6 PUSH20 0xFFFFFFFFFFFFFFFFFFFFFFFFFFFFFFFFFFFFFFFF AND PUSH20 0xFFFFFFFFFFFFFFFFFFFFFFFFFFFFFFFFFFFFFFFF AND DUP2 MSTORE PUSH1 0x20 ADD SWAP1 DUP2 MSTORE PUSH1 0x20 ADD PUSH0 KECCAK256 PUSH0 DUP3 DUP3 SLOAD ADD SWAP3 POP POP DUP2 SWAP1 SSTORE POP DUP3 PUSH20 0xFFFFFFFFFFFFFFFFFFFFFFFFFFFFFFFFFFFFFFFF AND DUP5 PUSH20 0xFFFFFFFFFFFFFFFFFFFFFFFFFFFFFFFFFFFFFFFF AND PUSH32 0xDDF252AD1BE2C89B69C2B068FC378DAA952BA7F163C4A11628F55A4DF523B3EF DUP5 PUSH1 0x40 MLOAD PUSH2 0x10E2 SWAP2 SWAP1 PUSH2 0x1705 JUMP JUMPDEST PUSH1 0x40 MLOAD DUP1 SWAP2 SUB SWAP1 LOG3 PUSH2 0x10F5 DUP5 DUP5 DUP5 PUSH2 0x1552 JUMP JUMPDEST POP POP POP POP JUMP JUMPDEST PUSH2 0x1103 PUSH2 0xC3A JUMP JUMPDEST PUSH20 0xFFFFFFFFFFFFFFFFFFFFFFFFFFFFFFFFFFFFFFFF AND PUSH2 0x1121 PUSH2 0x84C JUMP JUMPDEST PUSH20 0xFFFFFFFFFFFFFFFFFFFFFFFFFFFFFFFFFFFFFFFF AND EQ PUSH2 0x1177 JUMPI PUSH1 0x40 MLOAD PUSH32 0x8C379A000000000000000000000000000000000000000000000000000000000 DUP2 MSTORE PUSH1 0x4 ADD PUSH2 0x116E SWAP1 PUSH2 0x252B JUMP JUMPDEST PUSH1 0x40 MLOAD DUP1 SWAP2 SUB SWAP1 REVERT JUMPDEST JUMP JUMPDEST PUSH0 PUSH20 0xFFFFFFFFFFFFFFFFFFFFFFFFFFFFFFFFFFFFFFFF AND DUP3 PUSH20 0xFFFFFFFFFFFFFFFFFFFFFFFFFFFFFFFFFFFFFFFF AND SUB PUSH2 0x11E7 JUMPI PUSH1 0x40 MLOAD PUSH32 0x8C379A000000000000000000000000000000000000000000000000000000000 DUP2 MSTORE PUSH1 0x4 ADD PUSH2 0x11DE SWAP1 PUSH2 0x2593 JUMP JUMPDEST PUSH1 0x40 MLOAD DUP1 SWAP2 SUB SWAP1 REVERT JUMPDEST PUSH2 0x11F2 PUSH0 DUP4 DUP4 PUSH2 0x154D JUMP JUMPDEST DUP1 PUSH1 0x2 PUSH0 DUP3 DUP3 SLOAD PUSH2 0x1203 SWAP2 SWAP1 PUSH2 0x1C96 JUMP JUMPDEST SWAP3 POP POP DUP2 SWAP1 SSTORE POP DUP1 PUSH0 DUP1 DUP5 PUSH20 0xFFFFFFFFFFFFFFFFFFFFFFFFFFFFFFFFFFFFFFFF AND PUSH20 0xFFFFFFFFFFFFFFFFFFFFFFFFFFFFFFFFFFFFFFFF AND DUP2 MSTORE PUSH1 0x20 ADD SWAP1 DUP2 MSTORE PUSH1 0x20 ADD PUSH0 KECCAK256 PUSH0 DUP3 DUP3 SLOAD ADD SWAP3 POP POP DUP2 SWAP1 SSTORE POP DUP2 PUSH20 0xFFFFFFFFFFFFFFFFFFFFFFFFFFFFFFFFFFFFFFFF AND PUSH0 PUSH20 0xFFFFFFFFFFFFFFFFFFFFFFFFFFFFFFFFFFFFFFFF AND PUSH32 0xDDF252AD1BE2C89B69C2B068FC378DAA952BA7F163C4A11628F55A4DF523B3EF DUP4 PUSH1 0x40 MLOAD PUSH2 0x12B0 SWAP2 SWAP1 PUSH2 0x1705 JUMP JUMPDEST PUSH1 0x40 MLOAD DUP1 SWAP2 SUB SWAP1 LOG3 PUSH2 0x12C3 PUSH0 DUP4 DUP4 PUSH2 0x1552 JUMP JUMPDEST POP POP JUMP JUMPDEST PUSH0 PUSH1 0x5 PUSH0 SWAP1 SLOAD SWAP1 PUSH2 0x100 EXP SWAP1 DIV PUSH20 0xFFFFFFFFFFFFFFFFFFFFFFFFFFFFFFFFFFFFFFFF AND SWAP1 POP DUP2 PUSH1 0x5 PUSH0 PUSH2 0x100 EXP DUP2 SLOAD DUP2 PUSH20 0xFFFFFFFFFFFFFFFFFFFFFFFFFFFFFFFFFFFFFFFF MUL NOT AND SWAP1 DUP4 PUSH20 0xFFFFFFFFFFFFFFFFFFFFFFFFFFFFFFFFFFFFFFFF AND MUL OR SWAP1 SSTORE POP DUP2 PUSH20 0xFFFFFFFFFFFFFFFFFFFFFFFFFFFFFFFFFFFFFFFF AND DUP2 PUSH20 0xFFFFFFFFFFFFFFFFFFFFFFFFFFFFFFFFFFFFFFFF AND PUSH32 0x8BE0079C531659141344CD1FD0A4F28419497F9722A3DAAFE3B4186F6B6457E0 PUSH1 0x40 MLOAD PUSH1 0x40 MLOAD DUP1 SWAP2 SUB SWAP1 LOG3 POP POP JUMP JUMPDEST PUSH0 PUSH20 0xFFFFFFFFFFFFFFFFFFFFFFFFFFFFFFFFFFFFFFFF AND DUP3 PUSH20 0xFFFFFFFFFFFFFFFFFFFFFFFFFFFFFFFFFFFFFFFF AND SUB PUSH2 0x13F8 JUMPI PUSH1 0x40 MLOAD PUSH32 0x8C379A000000000000000000000000000000000000000000000000000000000 DUP2 MSTORE PUSH1 0x4 ADD PUSH2 0x13EF SWAP1 PUSH2 0x2621 JUMP JUMPDEST PUSH1 0x40 MLOAD DUP1 SWAP2 SUB SWAP1 REVERT JUMPDEST PUSH2 0x1403 DUP3 PUSH0 DUP4 PUSH2 0x154D JUMP JUMPDEST PUSH0 DUP1 PUSH0 DUP5 PUSH20 0xFFFFFFFFFFFFFFFFFFFFFFFFFFFFFFFFFFFFFFFF AND PUSH20 0xFFFFFFFFFFFFFFFFFFFFFFFFFFFFFFFFFFFFFFFF AND DUP2 MSTORE PUSH1 0x20 ADD SWAP1 DUP2 MSTORE PUSH1 0x20 ADD PUSH0 KECCAK256 SLOAD SWAP1 POP DUP2 DUP2 LT ISZERO PUSH2 0x1486 JUMPI PUSH1 0x40 MLOAD PUSH32 0x8C379A000000000000000000000000000000000000000000000000000000000 DUP2 MSTORE PUSH1 0x4 ADD PUSH2 0x147D SWAP1 PUSH2 0x26AF JUMP JUMPDEST PUSH1 0x40 MLOAD DUP1 SWAP2 SUB SWAP1 REVERT JUMPDEST DUP2 DUP2 SUB PUSH0 DUP1 DUP6 PUSH20 0xFFFFFFFFFFFFFFFFFFFFFFFFFFFFFFFFFFFFFFFF AND PUSH20 0xFFFFFFFFFFFFFFFFFFFFFFFFFFFFFFFFFFFFFFFF AND DUP2 MSTORE PUSH1 0x20 ADD SWAP1 DUP2 MSTORE PUSH1 0x20 ADD PUSH0 KECCAK256 DUP2 SWAP1 SSTORE POP DUP2 PUSH1 0x2 PUSH0 DUP3 DUP3 SLOAD SUB SWAP3 POP POP DUP2 SWAP1 SSTORE POP PUSH0 PUSH20 0xFFFFFFFFFFFFFFFFFFFFFFFFFFFFFFFFFFFFFFFF AND DUP4 PUSH20 0xFFFFFFFFFFFFFFFFFFFFFFFFFFFFFFFFFFFFFFFF AND PUSH32 0xDDF252AD1BE2C89B69C2B068FC378DAA952BA7F163C4A11628F55A4DF523B3EF DUP5 PUSH1 0x40 MLOAD PUSH2 0x1535 SWAP2 SWAP1 PUSH2 0x1705 JUMP JUMPDEST PUSH1 0x40 MLOAD DUP1 SWAP2 SUB SWAP1 LOG3 PUSH2 0x1548 DUP4 PUSH0 DUP5 PUSH2 0x1552 JUMP JUMPDEST POP POP POP JUMP JUMPDEST POP POP POP JUMP JUMPDEST POP POP POP JUMP JUMPDEST PUSH0 DUP2 MLOAD SWAP1 POP SWAP2 SWAP1 POP JUMP JUMPDEST PUSH0 DUP3 DUP3 MSTORE PUSH1 0x20 DUP3 ADD SWAP1 POP SWAP3 SWAP2 POP POP JUMP JUMPDEST DUP3 DUP2 DUP4 MCOPY PUSH0 DUP4 DUP4 ADD MSTORE POP POP POP JUMP JUMPDEST PUSH0 PUSH1 0x1F NOT PUSH1 0x1F DUP4 ADD AND SWAP1 POP SWAP2 SWAP1 POP JUMP JUMPDEST PUSH0 PUSH2 0x1599 DUP3 PUSH2 0x1557 JUMP JUMPDEST PUSH2 0x15A3 DUP2 DUP6 PUSH2 0x1561 JUMP JUMPDEST SWAP4 POP PUSH2 0x15B3 DUP2 DUP6 PUSH1 0x20 DUP7 ADD PUSH2 0x1571 JUMP JUMPDEST PUSH2 0x15BC DUP2 PUSH2 0x157F JUMP JUMPDEST DUP5 ADD SWAP2 POP POP SWAP3 SWAP2 POP POP JUMP JUMPDEST PUSH0 PUSH1 0x20 DUP3 ADD SWAP1 POP DUP2 DUP2 SUB PUSH0 DUP4 ADD MSTORE PUSH2 0x15DF DUP2 DUP5 PUSH2 0x158F JUMP JUMPDEST SWAP1 POP SWAP3 SWAP2 POP POP JUMP JUMPDEST PUSH0 PUSH1 0x40 MLOAD SWAP1 POP SWAP1 JUMP JUMPDEST PUSH0 DUP1 REVERT JUMPDEST PUSH0 DUP1 REVERT JUMPDEST PUSH0 PUSH20 0xFFFFFFFFFFFFFFFFFFFFFFFFFFFFFFFFFFFFFFFF DUP3 AND SWAP1 POP SWAP2 SWAP1 POP JUMP JUMPDEST PUSH0 PUSH2 0x1621 DUP3 PUSH2 0x15F8 JUMP JUMPDEST SWAP1 POP SWAP2 SWAP1 POP JUMP JUMPDEST PUSH2 0x1631 DUP2 PUSH2 0x1617 JUMP JUMPDEST DUP2 EQ PUSH2 0x163B JUMPI PUSH0 DUP1 REVERT JUMPDEST POP JUMP JUMPDEST PUSH0 DUP2 CALLDATALOAD SWAP1 POP PUSH2 0x164C DUP2 PUSH2 0x1628 JUMP JUMPDEST SWAP3 SWAP2 POP POP JUMP JUMPDEST PUSH0 DUP2 SWAP1 POP SWAP2 SWAP1 POP JUMP JUMPDEST PUSH2 0x1664 DUP2 PUSH2 0x1652 JUMP JUMPDEST DUP2 EQ PUSH2 0x166E JUMPI PUSH0 DUP1 REVERT JUMPDEST POP JUMP JUMPDEST PUSH0 DUP2 CALLDATALOAD SWAP1 POP PUSH2 0x167F DUP2 PUSH2 0x165B JUMP JUMPDEST SWAP3 SWAP2 POP POP JUMP JUMPDEST PUSH0 DUP1 PUSH1 0x40 DUP4 DUP6 SUB SLT ISZERO PUSH2 0x169B JUMPI PUSH2 0x169A PUSH2 0x15F0 JUMP JUMPDEST JUMPDEST PUSH0 PUSH2 0x16A8 DUP6 DUP3 DUP7 ADD PUSH2 0x163E JUMP JUMPDEST SWAP3 POP POP PUSH1 0x20 PUSH2 0x16B9 DUP6 DUP3 DUP7 ADD PUSH2 0x1671 JUMP JUMPDEST SWAP2 POP POP SWAP3 POP SWAP3 SWAP1 POP JUMP JUMPDEST PUSH0 DUP2 ISZERO ISZERO SWAP1 POP SWAP2 SWAP1 POP JUMP JUMPDEST PUSH2 0x16D7 DUP2 PUSH2 0x16C3 JUMP JUMPDEST DUP3 MSTORE POP POP JUMP JUMPDEST PUSH0 PUSH1 0x20 DUP3 ADD SWAP1 POP PUSH2 0x16F0 PUSH0 DUP4 ADD DUP5 PUSH2 0x16CE JUMP JUMPDEST SWAP3 SWAP2 POP POP JUMP JUMPDEST PUSH2 0x16FF DUP2 PUSH2 0x1652 JUMP JUMPDEST DUP3 MSTORE POP POP JUMP JUMPDEST PUSH0 PUSH1 0x20 DUP3 ADD SWAP1 POP PUSH2 0x1718 PUSH0 DUP4 ADD DUP5 PUSH2 0x16F6 JUMP JUMPDEST SWAP3 SWAP2 POP POP JUMP JUMPDEST PUSH0 DUP1 PUSH0 PUSH1 0x60 DUP5 DUP7 SUB SLT ISZERO PUSH2 0x1735 JUMPI PUSH2 0x1734 PUSH2 0x15F0 JUMP JUMPDEST JUMPDEST PUSH0 PUSH2 0x1742 DUP7 DUP3 DUP8 ADD PUSH2 0x163E JUMP JUMPDEST SWAP4 POP POP PUSH1 0x20 PUSH2 0x1753 DUP7 DUP3 DUP8 ADD PUSH2 0x163E JUMP JUMPDEST SWAP3 POP POP PUSH1 0x40 PUSH2 0x1764 DUP7 DUP3 DUP8 ADD PUSH2 0x1671 JUMP JUMPDEST SWAP2 POP POP SWAP3 POP SWAP3 POP SWAP3 JUMP JUMPDEST PUSH0 PUSH1 0xFF DUP3 AND SWAP1 POP SWAP2 SWAP1 POP JUMP JUMPDEST PUSH2 0x1783 DUP2 PUSH2 0x176E JUMP JUMPDEST DUP3 MSTORE POP POP JUMP JUMPDEST PUSH0 PUSH1 0x20 DUP3 ADD SWAP1 POP PUSH2 0x179C PUSH0 DUP4 ADD DUP5 PUSH2 0x177A JUMP JUMPDEST SWAP3 SWAP2 POP POP JUMP JUMPDEST PUSH0 PUSH1 0x20 DUP3 DUP5 SUB SLT ISZERO PUSH2 0x17B7 JUMPI PUSH2 0x17B6 PUSH2 0x15F0 JUMP JUMPDEST JUMPDEST PUSH0 PUSH2 0x17C4 DUP5 DUP3 DUP6 ADD PUSH2 0x1671 JUMP JUMPDEST SWAP2 POP POP SWAP3 SWAP2 POP POP JUMP JUMPDEST PUSH0 PUSH1 0x40 DUP3 ADD SWAP1 POP DUP2 DUP2 SUB PUSH0 DUP4 ADD MSTORE PUSH2 0x17E5 DUP2 DUP6 PUSH2 0x158F JUMP JUMPDEST SWAP1 POP PUSH2 0x17F4 PUSH1 0x20 DUP4 ADD DUP5 PUSH2 0x16F6 JUMP JUMPDEST SWAP4 SWAP3 POP POP POP JUMP JUMPDEST PUSH0 PUSH1 0x20 DUP3 DUP5 SUB SLT ISZERO PUSH2 0x1810 JUMPI PUSH2 0x180F PUSH2 0x15F0 JUMP JUMPDEST JUMPDEST PUSH0 PUSH2 0x181D DUP5 DUP3 DUP6 ADD PUSH2 0x163E JUMP JUMPDEST SWAP2 POP POP SWAP3 SWAP2 POP POP JUMP JUMPDEST PUSH0 DUP1 REVERT JUMPDEST PUSH0 DUP1 REVERT JUMPDEST PUSH32 0x4E487B7100000000000000000000000000000000000000000000000000000000 PUSH0 MSTORE PUSH1 0x41 PUSH1 0x4 MSTORE PUSH1 0x24 PUSH0 REVERT JUMPDEST PUSH2 0x1864 DUP3 PUSH2 0x157F JUMP JUMPDEST DUP2 ADD DUP2 DUP2 LT PUSH8 0xFFFFFFFFFFFFFFFF DUP3 GT OR ISZERO PUSH2 0x1883 JUMPI PUSH2 0x1882 PUSH2 0x182E JUMP JUMPDEST JUMPDEST DUP1 PUSH1 0x40 MSTORE POP POP POP JUMP JUMPDEST PUSH0 PUSH2 0x1895 PUSH2 0x15E7 JUMP JUMPDEST SWAP1 POP PUSH2 0x18A1 DUP3 DUP3 PUSH2 0x185B JUMP JUMPDEST SWAP2 SWAP1 POP JUMP JUMPDEST PUSH0 PUSH8 0xFFFFFFFFFFFFFFFF DUP3 GT ISZERO PUSH2 0x18C0 JUMPI PUSH2 0x18BF PUSH2 0x182E JUMP JUMPDEST JUMPDEST PUSH2 0x18C9 DUP3 PUSH2 0x157F JUMP JUMPDEST SWAP1 POP PUSH1 0x20 DUP2 ADD SWAP1 POP SWAP2 SWAP1 POP JUMP JUMPDEST DUP3 DUP2 DUP4 CALLDATACOPY PUSH0 DUP4 DUP4 ADD MSTORE POP POP POP JUMP JUMPDEST PUSH0 PUSH2 0x18F6 PUSH2 0x18F1 DUP5 PUSH2 0x18A6 JUMP JUMPDEST PUSH2 0x188C JUMP JUMPDEST SWAP1 POP DUP3 DUP2 MSTORE PUSH1 0x20 DUP2 ADD DUP5 DUP5 DUP5 ADD GT ISZERO PUSH2 0x1912 JUMPI PUSH2 0x1911 PUSH2 0x182A JUMP JUMPDEST JUMPDEST PUSH2 0x191D DUP5 DUP3 DUP6 PUSH2 0x18D6 JUMP JUMPDEST POP SWAP4 SWAP3 POP POP POP JUMP JUMPDEST PUSH0 DUP3 PUSH1 0x1F DUP4 ADD SLT PUSH2 0x1939 JUMPI PUSH2 0x1938 PUSH2 0x1826 JUMP JUMPDEST JUMPDEST DUP2 CALLDATALOAD PUSH2 0x1949 DUP5 DUP3 PUSH1 0x20 DUP7 ADD PUSH2 0x18E4 JUMP JUMPDEST SWAP2 POP POP SWAP3 SWAP2 POP POP JUMP JUMPDEST PUSH0 DUP1 PUSH1 0x40 DUP4 DUP6 SUB SLT ISZERO PUSH2 0x1968 JUMPI PUSH2 0x1967 PUSH2 0x15F0 JUMP JUMPDEST JUMPDEST PUSH0 DUP4 ADD CALLDATALOAD PUSH8 0xFFFFFFFFFFFFFFFF DUP2 GT ISZERO PUSH2 0x1985 JUMPI PUSH2 0x1984 PUSH2 0x15F4 JUMP JUMPDEST JUMPDEST PUSH2 0x1991 DUP6 DUP3 DUP7 ADD PUSH2 0x1925 JUMP JUMPDEST SWAP3 POP POP PUSH1 0x20 PUSH2 0x19A2 DUP6 DUP3 DUP7 ADD PUSH2 0x1671 JUMP JUMPDEST SWAP2 POP POP SWAP3 POP SWAP3 SWAP1 POP JUMP JUMPDEST PUSH2 0x19B5 DUP2 PUSH2 0x1617 JUMP JUMPDEST DUP3 MSTORE POP POP JUMP JUMPDEST PUSH0 PUSH1 0x20 DUP3 ADD SWAP1 POP PUSH2 0x19CE PUSH0 DUP4 ADD DUP5 PUSH2 0x19AC JUMP JUMPDEST SWAP3 SWAP2 POP POP JUMP JUMPDEST PUSH0 DUP1 PUSH1 0x40 DUP4 DUP6 SUB SLT ISZERO PUSH2 0x19EA JUMPI PUSH2 0x19E9 PUSH2 0x15F0 JUMP JUMPDEST JUMPDEST PUSH0 PUSH2 0x19F7 DUP6 DUP3 DUP7 ADD PUSH2 0x163E JUMP JUMPDEST SWAP3 POP POP PUSH1 0x20 PUSH2 0x1A08 DUP6 DUP3 DUP7 ADD PUSH2 0x163E JUMP JUMPDEST SWAP2 POP POP SWAP3 POP SWAP3 SWAP1 POP JUMP JUMPDEST PUSH0 DUP2 MLOAD SWAP1 POP SWAP2 SWAP1 POP JUMP JUMPDEST PUSH0 DUP3 DUP3 MSTORE PUSH1 0x20 DUP3 ADD SWAP1 POP SWAP3 SWAP2 POP POP JUMP JUMPDEST PUSH0 DUP2 SWAP1 POP PUSH1 0x20 DUP3 ADD SWAP1 POP SWAP2 SWAP1 POP JUMP JUMPDEST PUSH0 DUP3 DUP3 MSTORE PUSH1 0x20 DUP3 ADD SWAP1 POP SWAP3 SWAP2 POP POP JUMP JUMPDEST PUSH0 PUSH2 0x1A55 DUP3 PUSH2 0x1557 JUMP JUMPDEST PUSH2 0x1A5F DUP2 DUP6 PUSH2 0x1A3B JUMP JUMPDEST SWAP4 POP PUSH2 0x1A6F DUP2 DUP6 PUSH1 0x20 DUP7 ADD PUSH2 0x1571 JUMP JUMPDEST PUSH2 0x1A78 DUP2 PUSH2 0x157F JUMP JUMPDEST DUP5 ADD SWAP2 POP POP SWAP3 SWAP2 POP POP JUMP JUMPDEST PUSH2 0x1A8C DUP2 PUSH2 0x1652 JUMP JUMPDEST DUP3 MSTORE POP POP JUMP JUMPDEST PUSH0 PUSH1 0x40 DUP4 ADD PUSH0 DUP4 ADD MLOAD DUP5 DUP3 SUB PUSH0 DUP7 ADD MSTORE PUSH2 0x1AAC DUP3 DUP3 PUSH2 0x1A4B JUMP JUMPDEST SWAP2 POP POP PUSH1 0x20 DUP4 ADD MLOAD PUSH2 0x1AC1 PUSH1 0x20 DUP7 ADD DUP3 PUSH2 0x1A83 JUMP JUMPDEST POP DUP1 SWAP2 POP POP SWAP3 SWAP2 POP POP JUMP JUMPDEST PUSH0 PUSH2 0x1AD7 DUP4 DUP4 PUSH2 0x1A92 JUMP JUMPDEST SWAP1 POP SWAP3 SWAP2 POP POP JUMP JUMPDEST PUSH0 PUSH1 0x20 DUP3 ADD SWAP1 POP SWAP2 SWAP1 POP JUMP JUMPDEST PUSH0 PUSH2 0x1AF5 DUP3 PUSH2 0x1A12 JUMP JUMPDEST PUSH2 0x1AFF DUP2 DUP6 PUSH2 0x1A1C JUMP JUMPDEST SWAP4 POP DUP4 PUSH1 0x20 DUP3 MUL DUP6 ADD PUSH2 0x1B11 DUP6 PUSH2 0x1A2C JUMP JUMPDEST DUP1 PUSH0 JUMPDEST DUP6 DUP2 LT ISZERO PUSH2 0x1B4C JUMPI DUP5 DUP5 SUB DUP10 MSTORE DUP2 MLOAD PUSH2 0x1B2D DUP6 DUP3 PUSH2 0x1ACC JUMP JUMPDEST SWAP5 POP PUSH2 0x1B38 DUP4 PUSH2 0x1ADF JUMP JUMPDEST SWAP3 POP PUSH1 0x20 DUP11 ADD SWAP10 POP POP PUSH1 0x1 DUP2 ADD SWAP1 POP PUSH2 0x1B14 JUMP JUMPDEST POP DUP3 SWAP8 POP DUP8 SWAP6 POP POP POP POP POP POP SWAP3 SWAP2 POP POP JUMP JUMPDEST PUSH0 PUSH1 0x20 DUP3 ADD SWAP1 POP DUP2 DUP2 SUB PUSH0 DUP4 ADD MSTORE PUSH2 0x1B76 DUP2 DUP5 PUSH2 0x1AEB JUMP JUMPDEST SWAP1 POP SWAP3 SWAP2 POP POP JUMP JUMPDEST PUSH32 0x4E487B7100000000000000000000000000000000000000000000000000000000 PUSH0 MSTORE PUSH1 0x22 PUSH1 0x4 MSTORE PUSH1 0x24 PUSH0 REVERT JUMPDEST PUSH0 PUSH1 0x2 DUP3 DIV SWAP1 POP PUSH1 0x1 DUP3 AND DUP1 PUSH2 0x1BC2 JUMPI PUSH1 0x7F DUP3 AND SWAP2 POP JUMPDEST PUSH1 0x20 DUP3 LT DUP2 SUB PUSH2 0x1BD5 JUMPI PUSH2 0x1BD4 PUSH2 0x1B7E JUMP JUMPDEST JUMPDEST POP SWAP2 SWAP1 POP JUMP JUMPDEST PUSH32 0x496E73756666696369656E742062616C616E636520746F2072656465656D2074 PUSH0 DUP3 ADD MSTORE PUSH32 0x68697320746F6B656E0000000000000000000000000000000000000000000000 PUSH1 0x20 DUP3 ADD MSTORE POP JUMP JUMPDEST PUSH0 PUSH2 0x1C35 PUSH1 0x29 DUP4 PUSH2 0x1561 JUMP JUMPDEST SWAP2 POP PUSH2 0x1C40 DUP3 PUSH2 0x1BDB JUMP JUMPDEST PUSH1 0x40 DUP3 ADD SWAP1 POP SWAP2 SWAP1 POP JUMP JUMPDEST PUSH0 PUSH1 0x20 DUP3 ADD SWAP1 POP DUP2 DUP2 SUB PUSH0 DUP4 ADD MSTORE PUSH2 0x1C62 DUP2 PUSH2 0x1C29 JUMP JUMPDEST SWAP1 POP SWAP2 SWAP1 POP JUMP JUMPDEST PUSH32 0x4E487B7100000000000000000000000000000000000000000000000000000000 PUSH0 MSTORE PUSH1 0x11 PUSH1 0x4 MSTORE PUSH1 0x24 PUSH0 REVERT JUMPDEST PUSH0 PUSH2 0x1CA0 DUP3 PUSH2 0x1652 JUMP JUMPDEST SWAP2 POP PUSH2 0x1CAB DUP4 PUSH2 0x1652 JUMP JUMPDEST SWAP3 POP DUP3 DUP3 ADD SWAP1 POP DUP1 DUP3 GT ISZERO PUSH2 0x1CC3 JUMPI PUSH2 0x1CC2 PUSH2 0x1C69 JUMP JUMPDEST JUMPDEST SWAP3 SWAP2 POP POP JUMP JUMPDEST PUSH32 0x496E73756666696369656E742062616C616E6365200000000000000000000000 PUSH0 DUP3 ADD MSTORE POP JUMP JUMPDEST PUSH0 PUSH2 0x1CFD PUSH1 0x15 DUP4 PUSH2 0x1561 JUMP JUMPDEST SWAP2 POP PUSH2 0x1D08 DUP3 PUSH2 0x1CC9 JUMP JUMPDEST PUSH1 0x20 DUP3 ADD SWAP1 POP SWAP2 SWAP1 POP JUMP JUMPDEST PUSH0 PUSH1 0x20 DUP3 ADD SWAP1 POP DUP2 DUP2 SUB PUSH0 DUP4 ADD MSTORE PUSH2 0x1D2A DUP2 PUSH2 0x1CF1 JUMP JUMPDEST SWAP1 POP SWAP2 SWAP1 POP JUMP JUMPDEST PUSH0 DUP2 SWAP1 POP DUP2 PUSH0 MSTORE PUSH1 0x20 PUSH0 KECCAK256 SWAP1 POP SWAP2 SWAP1 POP JUMP JUMPDEST PUSH0 PUSH1 0x20 PUSH1 0x1F DUP4 ADD DIV SWAP1 POP SWAP2 SWAP1 POP JUMP JUMPDEST PUSH0 DUP3 DUP3 SHL SWAP1 POP SWAP3 SWAP2 POP POP JUMP JUMPDEST PUSH0 PUSH1 0x8 DUP4 MUL PUSH2 0x1D8D PUSH32 0xFFFFFFFFFFFFFFFFFFFFFFFFFFFFFFFFFFFFFFFFFFFFFFFFFFFFFFFFFFFFFFFF DUP3 PUSH2 0x1D52 JUMP JUMPDEST PUSH2 0x1D97 DUP7 DUP4 PUSH2 0x1D52 JUMP JUMPDEST SWAP6 POP DUP1 NOT DUP5 AND SWAP4 POP DUP1 DUP7 AND DUP5 OR SWAP3 POP POP POP SWAP4 SWAP3 POP POP POP JUMP JUMPDEST PUSH0 DUP2 SWAP1 POP SWAP2 SWAP1 POP JUMP JUMPDEST PUSH0 PUSH2 0x1DD2 PUSH2 0x1DCD PUSH2 0x1DC8 DUP5 PUSH2 0x1652 JUMP JUMPDEST PUSH2 0x1DAF JUMP JUMPDEST PUSH2 0x1652 JUMP JUMPDEST SWAP1 POP SWAP2 SWAP1 POP JUMP JUMPDEST PUSH0 DUP2 SWAP1 POP SWAP2 SWAP1 POP JUMP JUMPDEST PUSH2 0x1DEB DUP4 PUSH2 0x1DB8 JUMP JUMPDEST PUSH2 0x1DFF PUSH2 0x1DF7 DUP3 PUSH2 0x1DD9 JUMP JUMPDEST DUP5 DUP5 SLOAD PUSH2 0x1D5E JUMP JUMPDEST DUP3 SSTORE POP POP POP POP JUMP JUMPDEST PUSH0 SWAP1 JUMP JUMPDEST PUSH2 0x1E13 PUSH2 0x1E07 JUMP JUMPDEST PUSH2 0x1E1E DUP2 DUP5 DUP5 PUSH2 0x1DE2 JUMP JUMPDEST POP POP POP JUMP JUMPDEST JUMPDEST DUP2 DUP2 LT ISZERO PUSH2 0x1E41 JUMPI PUSH2 0x1E36 PUSH0 DUP3 PUSH2 0x1E0B JUMP JUMPDEST PUSH1 0x1 DUP2 ADD SWAP1 POP PUSH2 0x1E24 JUMP JUMPDEST POP POP JUMP JUMPDEST PUSH1 0x1F DUP3 GT ISZERO PUSH2 0x1E86 JUMPI PUSH2 0x1E57 DUP2 PUSH2 0x1D31 JUMP JUMPDEST PUSH2 0x1E60 DUP5 PUSH2 0x1D43 JUMP JUMPDEST DUP2 ADD PUSH1 0x20 DUP6 LT ISZERO PUSH2 0x1E6F JUMPI DUP2 SWAP1 POP JUMPDEST PUSH2 0x1E83 PUSH2 0x1E7B DUP6 PUSH2 0x1D43 JUMP JUMPDEST DUP4 ADD DUP3 PUSH2 0x1E23 JUMP JUMPDEST POP POP JUMPDEST POP POP POP JUMP JUMPDEST PUSH0 DUP3 DUP3 SHR SWAP1 POP SWAP3 SWAP2 POP POP JUMP JUMPDEST PUSH0 PUSH2 0x1EA6 PUSH0 NOT DUP5 PUSH1 0x8 MUL PUSH2 0x1E8B JUMP JUMPDEST NOT DUP1 DUP4 AND SWAP2 POP POP SWAP3 SWAP2 POP POP JUMP JUMPDEST PUSH0 PUSH2 0x1EBE DUP4 DUP4 PUSH2 0x1E97 JUMP JUMPDEST SWAP2 POP DUP3 PUSH1 0x2 MUL DUP3 OR SWAP1 POP SWAP3 SWAP2 POP POP JUMP JUMPDEST PUSH2 0x1ED7 DUP3 PUSH2 0x1557 JUMP JUMPDEST PUSH8 0xFFFFFFFFFFFFFFFF DUP2 GT ISZERO PUSH2 0x1EF0 JUMPI PUSH2 0x1EEF PUSH2 0x182E JUMP JUMPDEST JUMPDEST PUSH2 0x1EFA DUP3 SLOAD PUSH2 0x1BAB JUMP JUMPDEST PUSH2 0x1F05 DUP3 DUP3 DUP6 PUSH2 0x1E45 JUMP JUMPDEST PUSH0 PUSH1 0x20 SWAP1 POP PUSH1 0x1F DUP4 GT PUSH1 0x1 DUP2 EQ PUSH2 0x1F36 JUMPI PUSH0 DUP5 ISZERO PUSH2 0x1F24 JUMPI DUP3 DUP8 ADD MLOAD SWAP1 POP JUMPDEST PUSH2 0x1F2E DUP6 DUP3 PUSH2 0x1EB3 JUMP JUMPDEST DUP7 SSTORE POP PUSH2 0x1F95 JUMP JUMPDEST PUSH1 0x1F NOT DUP5 AND PUSH2 0x1F44 DUP7 PUSH2 0x1D31 JUMP JUMPDEST PUSH0 JUMPDEST DUP3 DUP2 LT ISZERO PUSH2 0x1F6B JUMPI DUP5 DUP10 ADD MLOAD DUP3 SSTORE PUSH1 0x1 DUP3 ADD SWAP2 POP PUSH1 0x20 DUP6 ADD SWAP5 POP PUSH1 0x20 DUP2 ADD SWAP1 POP PUSH2 0x1F46 JUMP JUMPDEST DUP7 DUP4 LT ISZERO PUSH2 0x1F88 JUMPI DUP5 DUP10 ADD MLOAD PUSH2 0x1F84 PUSH1 0x1F DUP10 AND DUP3 PUSH2 0x1E97 JUMP JUMPDEST DUP4 SSTORE POP JUMPDEST PUSH1 0x1 PUSH1 0x2 DUP9 MUL ADD DUP9 SSTORE POP POP POP JUMPDEST POP POP POP POP POP POP JUMP JUMPDEST PUSH0 DUP2 SLOAD SWAP1 POP PUSH2 0x1FAB DUP2 PUSH2 0x1BAB JUMP JUMPDEST SWAP1 POP SWAP2 SWAP1 POP JUMP JUMPDEST DUP2 DUP2 SUB PUSH2 0x1FC0 JUMPI POP POP PUSH2 0x2095 JUMP JUMPDEST PUSH2 0x1FC9 DUP3 PUSH2 0x1F9D JUMP JUMPDEST PUSH8 0xFFFFFFFFFFFFFFFF DUP2 GT ISZERO PUSH2 0x1FE2 JUMPI PUSH2 0x1FE1 PUSH2 0x182E JUMP JUMPDEST JUMPDEST PUSH2 0x1FEC DUP3 SLOAD PUSH2 0x1BAB JUMP JUMPDEST PUSH2 0x1FF7 DUP3 DUP3 DUP6 PUSH2 0x1E45 JUMP JUMPDEST PUSH0 PUSH1 0x1F DUP4 GT PUSH1 0x1 DUP2 EQ PUSH2 0x2024 JUMPI PUSH0 DUP5 ISZERO PUSH2 0x2012 JUMPI DUP3 DUP8 ADD SLOAD SWAP1 POP JUMPDEST PUSH2 0x201C DUP6 DUP3 PUSH2 0x1EB3 JUMP JUMPDEST DUP7 SSTORE POP PUSH2 0x208E JUMP JUMPDEST PUSH1 0x1F NOT DUP5 AND PUSH2 0x2032 DUP8 PUSH2 0x1D31 JUMP JUMPDEST SWAP7 POP PUSH2 0x203D DUP7 PUSH2 0x1D31 JUMP JUMPDEST PUSH0 JUMPDEST DUP3 DUP2 LT ISZERO PUSH2 0x2064 JUMPI DUP5 DUP10 ADD SLOAD DUP3 SSTORE PUSH1 0x1 DUP3 ADD SWAP2 POP PUSH1 0x1 DUP6 ADD SWAP5 POP PUSH1 0x20 DUP2 ADD SWAP1 POP PUSH2 0x203F JUMP JUMPDEST DUP7 DUP4 LT ISZERO PUSH2 0x2081 JUMPI DUP5 DUP10 ADD SLOAD PUSH2 0x207D PUSH1 0x1F DUP10 AND DUP3 PUSH2 0x1E97 JUMP JUMPDEST DUP4 SSTORE POP JUMPDEST PUSH1 0x1 PUSH1 0x2 DUP9 MUL ADD DUP9 SSTORE POP POP POP JUMPDEST POP POP POP POP POP POP JUMPDEST JUMP JUMPDEST PUSH32 0x45524332303A2064656372656173656420616C6C6F77616E63652062656C6F77 PUSH0 DUP3 ADD MSTORE PUSH32 0x207A65726F000000000000000000000000000000000000000000000000000000 PUSH1 0x20 DUP3 ADD MSTORE POP JUMP JUMPDEST PUSH0 PUSH2 0x20F1 PUSH1 0x25 DUP4 PUSH2 0x1561 JUMP JUMPDEST SWAP2 POP PUSH2 0x20FC DUP3 PUSH2 0x2097 JUMP JUMPDEST PUSH1 0x40 DUP3 ADD SWAP1 POP SWAP2 SWAP1 POP JUMP JUMPDEST PUSH0 PUSH1 0x20 DUP3 ADD SWAP1 POP DUP2 DUP2 SUB PUSH0 DUP4 ADD MSTORE PUSH2 0x211E DUP2 PUSH2 0x20E5 JUMP JUMPDEST SWAP1 POP SWAP2 SWAP1 POP JUMP JUMPDEST PUSH32 0x4F776E61626C653A206E6577206F776E657220697320746865207A65726F2061 PUSH0 DUP3 ADD MSTORE PUSH32 0x6464726573730000000000000000000000000000000000000000000000000000 PUSH1 0x20 DUP3 ADD MSTORE POP JUMP JUMPDEST PUSH0 PUSH2 0x217F PUSH1 0x26 DUP4 PUSH2 0x1561 JUMP JUMPDEST SWAP2 POP PUSH2 0x218A DUP3 PUSH2 0x2125 JUMP JUMPDEST PUSH1 0x40 DUP3 ADD SWAP1 POP SWAP2 SWAP1 POP JUMP JUMPDEST PUSH0 PUSH1 0x20 DUP3 ADD SWAP1 POP DUP2 DUP2 SUB PUSH0 DUP4 ADD MSTORE PUSH2 0x21AC DUP2 PUSH2 0x2173 JUMP JUMPDEST SWAP1 POP SWAP2 SWAP1 POP JUMP JUMPDEST PUSH32 0x45524332303A20617070726F76652066726F6D20746865207A65726F20616464 PUSH0 DUP3 ADD MSTORE PUSH32 0x7265737300000000000000000000000000000000000000000000000000000000 PUSH1 0x20 DUP3 ADD MSTORE POP JUMP JUMPDEST PUSH0 PUSH2 0x220D PUSH1 0x24 DUP4 PUSH2 0x1561 JUMP JUMPDEST SWAP2 POP PUSH2 0x2218 DUP3 PUSH2 0x21B3 JUMP JUMPDEST PUSH1 0x40 DUP3 ADD SWAP1 POP SWAP2 SWAP1 POP JUMP JUMPDEST PUSH0 PUSH1 0x20 DUP3 ADD SWAP1 POP DUP2 DUP2 SUB PUSH0 DUP4 ADD MSTORE PUSH2 0x223A DUP2 PUSH2 0x2201 JUMP JUMPDEST SWAP1 POP SWAP2 SWAP1 POP JUMP JUMPDEST PUSH32 0x45524332303A20617070726F766520746F20746865207A65726F206164647265 PUSH0 DUP3 ADD MSTORE PUSH32 0x7373000000000000000000000000000000000000000000000000000000000000 PUSH1 0x20 DUP3 ADD MSTORE POP JUMP JUMPDEST PUSH0 PUSH2 0x229B PUSH1 0x22 DUP4 PUSH2 0x1561 JUMP JUMPDEST SWAP2 POP PUSH2 0x22A6 DUP3 PUSH2 0x2241 JUMP JUMPDEST PUSH1 0x40 DUP3 ADD SWAP1 POP SWAP2 SWAP1 POP JUMP JUMPDEST PUSH0 PUSH1 0x20 DUP3 ADD SWAP1 POP DUP2 DUP2 SUB PUSH0 DUP4 ADD MSTORE PUSH2 0x22C8 DUP2 PUSH2 0x228F JUMP JUMPDEST SWAP1 POP SWAP2 SWAP1 POP JUMP JUMPDEST PUSH32 0x45524332303A20696E73756666696369656E7420616C6C6F77616E6365000000 PUSH0 DUP3 ADD MSTORE POP JUMP JUMPDEST PUSH0 PUSH2 0x2303 PUSH1 0x1D DUP4 PUSH2 0x1561 JUMP JUMPDEST SWAP2 POP PUSH2 0x230E DUP3 PUSH2 0x22CF JUMP JUMPDEST PUSH1 0x20 DUP3 ADD SWAP1 POP SWAP2 SWAP1 POP JUMP JUMPDEST PUSH0 PUSH1 0x20 DUP3 ADD SWAP1 POP DUP2 DUP2 SUB PUSH0 DUP4 ADD MSTORE PUSH2 0x2330 DUP2 PUSH2 0x22F7 JUMP JUMPDEST SWAP1 POP SWAP2 SWAP1 POP JUMP JUMPDEST PUSH32 0x45524332303A207472616E736665722066726F6D20746865207A65726F206164 PUSH0 DUP3 ADD MSTORE PUSH32 0x6472657373000000000000000000000000000000000000000000000000000000 PUSH1 0x20 DUP3 ADD MSTORE POP JUMP JUMPDEST PUSH0 PUSH2 0x2391 PUSH1 0x25 DUP4 PUSH2 0x1561 JUMP JUMPDEST SWAP2 POP PUSH2 0x239C DUP3 PUSH2 0x2337 JUMP JUMPDEST PUSH1 0x40 DUP3 ADD SWAP1 POP SWAP2 SWAP1 POP JUMP JUMPDEST PUSH0 PUSH1 0x20 DUP3 ADD SWAP1 POP DUP2 DUP2 SUB PUSH0 DUP4 ADD MSTORE PUSH2 0x23BE DUP2 PUSH2 0x2385 JUMP JUMPDEST SWAP1 POP SWAP2 SWAP1 POP JUMP JUMPDEST PUSH32 0x45524332303A207472616E7366657220746F20746865207A65726F2061646472 PUSH0 DUP3 ADD MSTORE PUSH32 0x6573730000000000000000000000000000000000000000000000000000000000 PUSH1 0x20 DUP3 ADD MSTORE POP JUMP JUMPDEST PUSH0 PUSH2 0x241F PUSH1 0x23 DUP4 PUSH2 0x1561 JUMP JUMPDEST SWAP2 POP PUSH2 0x242A DUP3 PUSH2 0x23C5 JUMP JUMPDEST PUSH1 0x40 DUP3 ADD SWAP1 POP SWAP2 SWAP1 POP JUMP JUMPDEST PUSH0 PUSH1 0x20 DUP3 ADD SWAP1 POP DUP2 DUP2 SUB PUSH0 DUP4 ADD MSTORE PUSH2 0x244C DUP2 PUSH2 0x2413 JUMP JUMPDEST SWAP1 POP SWAP2 SWAP1 POP JUMP JUMPDEST PUSH32 0x45524332303A207472616E7366657220616D6F756E7420657863656564732062 PUSH0 DUP3 ADD MSTORE PUSH32 0x616C616E63650000000000000000000000000000000000000000000000000000 PUSH1 0x20 DUP3 ADD MSTORE POP JUMP JUMPDEST PUSH0 PUSH2 0x24AD PUSH1 0x26 DUP4 PUSH2 0x1561 JUMP JUMPDEST SWAP2 POP PUSH2 0x24B8 DUP3 PUSH2 0x2453 JUMP JUMPDEST PUSH1 0x40 DUP3 ADD SWAP1 POP SWAP2 SWAP1 POP JUMP JUMPDEST PUSH0 PUSH1 0x20 DUP3 ADD SWAP1 POP DUP2 DUP2 SUB PUSH0 DUP4 ADD MSTORE PUSH2 0x24DA DUP2 PUSH2 0x24A1 JUMP JUMPDEST SWAP1 POP SWAP2 SWAP1 POP JUMP JUMPDEST PUSH32 0x4F776E61626C653A2063616C6C6572206973206E6F7420746865206F776E6572 PUSH0 DUP3 ADD MSTORE POP JUMP JUMPDEST PUSH0 PUSH2 0x2515 PUSH1 0x20 DUP4 PUSH2 0x1561 JUMP JUMPDEST SWAP2 POP PUSH2 0x2520 DUP3 PUSH2 0x24E1 JUMP JUMPDEST PUSH1 0x20 DUP3 ADD SWAP1 POP SWAP2 SWAP1 POP JUMP JUMPDEST PUSH0 PUSH1 0x20 DUP3 ADD SWAP1 POP DUP2 DUP2 SUB PUSH0 DUP4 ADD MSTORE PUSH2 0x2542 DUP2 PUSH2 0x2509 JUMP JUMPDEST SWAP1 POP SWAP2 SWAP1 POP JUMP JUMPDEST PUSH32 0x45524332303A206D696E7420746F20746865207A65726F206164647265737300 PUSH0 DUP3 ADD MSTORE POP JUMP JUMPDEST PUSH0 PUSH2 0x257D PUSH1 0x1F DUP4 PUSH2 0x1561 JUMP JUMPDEST SWAP2 POP PUSH2 0x2588 DUP3 PUSH2 0x2549 JUMP JUMPDEST PUSH1 0x20 DUP3 ADD SWAP1 POP SWAP2 SWAP1 POP JUMP JUMPDEST PUSH0 PUSH1 0x20 DUP3 ADD SWAP1 POP DUP2 DUP2 SUB PUSH0 DUP4 ADD MSTORE PUSH2 0x25AA DUP2 PUSH2 0x2571 JUMP JUMPDEST SWAP1 POP SWAP2 SWAP1 POP JUMP JUMPDEST PUSH32 0x45524332303A206275726E2066726F6D20746865207A65726F20616464726573 PUSH0 DUP3 ADD MSTORE PUSH32 0x7300000000000000000000000000000000000000000000000000000000000000 PUSH1 0x20 DUP3 ADD MSTORE POP JUMP JUMPDEST PUSH0 PUSH2 0x260B PUSH1 0x21 DUP4 PUSH2 0x1561 JUMP JUMPDEST SWAP2 POP PUSH2 0x2616 DUP3 PUSH2 0x25B1 JUMP JUMPDEST PUSH1 0x40 DUP3 ADD SWAP1 POP SWAP2 SWAP1 POP JUMP JUMPDEST PUSH0 PUSH1 0x20 DUP3 ADD SWAP1 POP DUP2 DUP2 SUB PUSH0 DUP4 ADD MSTORE PUSH2 0x2638 DUP2 PUSH2 0x25FF JUMP JUMPDEST SWAP1 POP SWAP2 SWAP1 POP JUMP JUMPDEST PUSH32 0x45524332303A206275726E20616D6F756E7420657863656564732062616C616E PUSH0 DUP3 ADD MSTORE PUSH32 0x6365000000000000000000000000000000000000000000000000000000000000 PUSH1 0x20 DUP3 ADD MSTORE POP JUMP JUMPDEST PUSH0 PUSH2 0x2699 PUSH1 0x22 DUP4 PUSH2 0x1561 JUMP JUMPDEST SWAP2 POP PUSH2 0x26A4 DUP3 PUSH2 0x263F JUMP JUMPDEST PUSH1 0x40 DUP3 ADD SWAP1 POP SWAP2 SWAP1 POP JUMP JUMPDEST PUSH0 PUSH1 0x20 DUP3 ADD SWAP1 POP DUP2 DUP2 SUB PUSH0 DUP4 ADD MSTORE PUSH2 0x26C6 DUP2 PUSH2 0x268D JUMP JUMPDEST SWAP1 POP SWAP2 SWAP1 POP JUMP INVALID LOG2 PUSH5 0x6970667358 0x22 SLT KECCAK256 INVALID MULMOD 0xE 0x25 GASLIMIT KECCAK256 DUP3 JUMPI 0xD2 PUSH22 0x70D5F2A024489E7FCBF5656C794E3358FBD33794E17C PUSH5 0x736F6C6343 STOP ADDMOD BYTE STOP CALLER "
				},
				"gasEstimates": {
					"creation": {
						"codeDepositCost": "1997400",
						"executionCost": "infinite",
						"totalCost": "infinite"
					},
					"external": {
						"allowance(address,address)": "infinite",
						"approve(address,uint256)": "infinite",
						"balanceOf(address)": "2962",
						"burnToken(uint256)": "infinite",
						"createStoreItem(string,uint256)": "infinite",
						"decimals()": "450",
						"decreaseAllowance(address,uint256)": "infinite",
						"increaseAllowance(address,uint256)": "infinite",
						"mint(address,uint256)": "infinite",
						"mintToken(address,uint256)": "infinite",
						"name()": "infinite",
						"owner()": "2626",
						"redeemDogenToken(uint256)": "infinite",
						"redeemedAwards(address)": "infinite",
						"renounceOwnership()": "30413",
						"store(uint256)": "infinite",
						"symbol()": "infinite",
						"totalSupply()": "2500",
						"transfer(address,uint256)": "infinite",
						"transferFrom(address,address,uint256)": "infinite",
						"transferOwnership(address)": "30863",
						"trasnferToken(address,uint256)": "infinite",
						"viewStoreItems()": "infinite"
					}
				},
				"methodIdentifiers": {
					"allowance(address,address)": "dd62ed3e",
					"approve(address,uint256)": "095ea7b3",
					"balanceOf(address)": "70a08231",
					"burnToken(uint256)": "7b47ec1a",
					"createStoreItem(string,uint256)": "860d0ff9",
					"decimals()": "313ce567",
					"decreaseAllowance(address,uint256)": "a457c2d7",
					"increaseAllowance(address,uint256)": "39509351",
					"mint(address,uint256)": "40c10f19",
					"mintToken(address,uint256)": "79c65068",
					"name()": "06fdde03",
					"owner()": "8da5cb5b",
					"redeemDogenToken(uint256)": "34559c06",
					"redeemedAwards(address)": "9b8418cc",
					"renounceOwnership()": "715018a6",
					"store(uint256)": "6057361d",
					"symbol()": "95d89b41",
					"totalSupply()": "18160ddd",
					"transfer(address,uint256)": "a9059cbb",
					"transferFrom(address,address,uint256)": "23b872dd",
					"transferOwnership(address)": "f2fde38b",
					"trasnferToken(address,uint256)": "46ed098a",
					"viewStoreItems()": "e53cdeca"
				}
			},
			"storageLayout": {
				"storage": [
					{
						"astId": 128,
						"contract": "contracts/DegenToken.sol:DegenToken",
						"label": "_balances",
						"offset": 0,
						"slot": "0",
						"type": "t_mapping(t_address,t_uint256)"
					},
					{
						"astId": 134,
						"contract": "contracts/DegenToken.sol:DegenToken",
						"label": "_allowances",
						"offset": 0,
						"slot": "1",
						"type": "t_mapping(t_address,t_mapping(t_address,t_uint256))"
					},
					{
						"astId": 136,
						"contract": "contracts/DegenToken.sol:DegenToken",
						"label": "_totalSupply",
						"offset": 0,
						"slot": "2",
						"type": "t_uint256"
					},
					{
						"astId": 138,
						"contract": "contracts/DegenToken.sol:DegenToken",
						"label": "_name",
						"offset": 0,
						"slot": "3",
						"type": "t_string_storage"
					},
					{
						"astId": 140,
						"contract": "contracts/DegenToken.sol:DegenToken",
						"label": "_symbol",
						"offset": 0,
						"slot": "4",
						"type": "t_string_storage"
					},
					{
						"astId": 7,
						"contract": "contracts/DegenToken.sol:DegenToken",
						"label": "_owner",
						"offset": 0,
						"slot": "5",
						"type": "t_address"
					},
					{
						"astId": 837,
						"contract": "contracts/DegenToken.sol:DegenToken",
						"label": "store",
						"offset": 0,
						"slot": "6",
						"type": "t_mapping(t_uint256,t_struct(StoreItem)861_storage)"
					},
					{
						"astId": 842,
						"contract": "contracts/DegenToken.sol:DegenToken",
						"label": "redeemedAwards",
						"offset": 0,
						"slot": "7",
						"type": "t_mapping(t_address,t_struct(StoreItem)861_storage)"
					},
					{
						"astId": 844,
						"contract": "contracts/DegenToken.sol:DegenToken",
						"label": "storeId",
						"offset": 0,
						"slot": "8",
						"type": "t_uint256"
					},
					{
						"astId": 848,
						"contract": "contracts/DegenToken.sol:DegenToken",
						"label": "storeItems",
						"offset": 0,
						"slot": "9",
						"type": "t_array(t_struct(StoreItem)861_storage)dyn_storage"
					}
				],
				"types": {
					"t_address": {
						"encoding": "inplace",
						"label": "address",
						"numberOfBytes": "20"
					},
					"t_array(t_struct(StoreItem)861_storage)dyn_storage": {
						"base": "t_struct(StoreItem)861_storage",
						"encoding": "dynamic_array",
						"label": "struct DegenToken.StoreItem[]",
						"numberOfBytes": "32"
					},
					"t_mapping(t_address,t_mapping(t_address,t_uint256))": {
						"encoding": "mapping",
						"key": "t_address",
						"label": "mapping(address => mapping(address => uint256))",
						"numberOfBytes": "32",
						"value": "t_mapping(t_address,t_uint256)"
					},
					"t_mapping(t_address,t_struct(StoreItem)861_storage)": {
						"encoding": "mapping",
						"key": "t_address",
						"label": "mapping(address => struct DegenToken.StoreItem)",
						"numberOfBytes": "32",
						"value": "t_struct(StoreItem)861_storage"
					},
					"t_mapping(t_address,t_uint256)": {
						"encoding": "mapping",
						"key": "t_address",
						"label": "mapping(address => uint256)",
						"numberOfBytes": "32",
						"value": "t_uint256"
					},
					"t_mapping(t_uint256,t_struct(StoreItem)861_storage)": {
						"encoding": "mapping",
						"key": "t_uint256",
						"label": "mapping(uint256 => struct DegenToken.StoreItem)",
						"numberOfBytes": "32",
						"value": "t_struct(StoreItem)861_storage"
					},
					"t_string_storage": {
						"encoding": "bytes",
						"label": "string",
						"numberOfBytes": "32"
					},
					"t_struct(StoreItem)861_storage": {
						"encoding": "inplace",
						"label": "struct DegenToken.StoreItem",
						"members": [
							{
								"astId": 858,
								"contract": "contracts/DegenToken.sol:DegenToken",
								"label": "itemName",
								"offset": 0,
								"slot": "0",
								"type": "t_string_storage"
							},
							{
								"astId": 860,
								"contract": "contracts/DegenToken.sol:DegenToken",
								"label": "itemPrice",
								"offset": 0,
								"slot": "1",
								"type": "t_uint256"
							}
						],
						"numberOfBytes": "64"
					},
					"t_uint256": {
						"encoding": "inplace",
						"label": "uint256",
						"numberOfBytes": "32"
					}
				}
			},
			"userdoc": {
				"kind": "user",
				"methods": {},
				"version": 1
			}
		}
	}
}